:020000040800F2
:10000000B88500205534010815F2000817F20008E1
:1000100019F200081BF200081DF2000800000000A1
:100020000000000000000000000000001FF20008B7
:1000300021F200080000000023F2000825F2000869
:10004000D1350108D5350108D9350108DD3501085C
:10005000E1350108E5350108E9350108ED3501080C
:10006000F1350108F5350108F9350108FD350108BC
:100070000136010805360108093601080D36010868
:100080001136010815360108193601081D36010818
:1000900045F3000825360108293601082D360108E8
:1000A0003136010835360108393601083D36010878
:1000B0004136010845360108493601084D36010828
:1000C0005136010855360108593601085D360108D8
:1000D00061360108653601082DF20008B9F2000802
:1000E000E9F4000875360108793601087D36010803
:1000F0008136010885360108893601088D360108E8
:100100009136010895360108993601089D36010897
:10011000A1360108A5360108A9360108AD36010847
:10012000B1360108B5360108B9360108BD360108F7
:10013000C1360108C5360108C9360108CD360108A7
:1001400085F3000893F30008D9360108DD3601086D
:10015000E1360108E5360108E9360108ED36010807
:10016000F1360108F5360108F9360108FD360108B7
:100170000137010805370108093701080D37010863
:10018000113701082F696D672F6C6F676F2E6769D4
:1001900066000000485454502F312E302032303049
:1001A000204F4B0D0A5365727665723A206C774981
:1001B000502F312E332E312028687474703A2F2F2F
:1001C000736176616E6E61682E6E6F6E676E752EEE
:1001D0006F72672F70726F6A656374732F6C7769C3
:1001E00070290D0A436F6E74656E742D7479706595
:1001F0003A20696D6167652F6769660D0A0D0A47C8
:1002000049463839610204710060000021F9040098
:10021000000000002C0000000002047100870000B4
:10022000000000330000660000990000CC0000FFD1
:10023000002B00002B33002B66002B99002BCC00E9
:100240002BFF0055000055330055660055990055A9
:10025000CC0055FF0080000080330080660080994C
:100260000080CC0080FF00AA0000AA3300AA66002C
:10027000AA9900AACC00AAFF00D50000D53300D56A
:100280006600D59900D5CC00D5FF00FF0000FF33F4
:1002900000FF6600FF9900FFCC00FFFF3300003332
:1002A00000333300663300993300CC3300FF332B27
:1002B00000332B33332B66332B99332BCC332BFF6B
:1002C0003355003355333355663355993355CC3355
:1002D00055FF338000338033338066338099338019
:1002E000CC3380FF33AA0033AA3333AA6633AA99EA
:1002F00033AACC33AAFF33D50033D53333D5663395
:10030000D59933D5CC33D5FF33FF0033FF3333FFDB
:100310006633FF9933FFCC33FFFF6600006600337E
:100320006600666600996600CC6600FF662B006674
:100330002B33662B66662B99662BCC662BFF665596
:10034000006655336655666655996655CC6655FF09
:100350006680006680336680666680996680CC66BB
:1003600080FF66AA0066AA3366AA6666AA9966AA8C
:10037000CC66AAFF66D50066D53366D56666D59984
:1003800066D5CC66D5FF66FF0066FF3366FF6666FE
:10039000FF9966FFCC66FFFF990000990033990032
:1003A000669900999900CC9900FF992B00992B33FD
:1003B000992B66992B99992BCC992BFF99550099DC
:1003C00055339955669955999955CC9955FF99800A
:1003D000009980339980669980999980CC9980FFA3
:1003E00099AA0099AA3399AA6699AA9999AACC9927
:1003F000AAFF99D50099D53399D56699D59999D5FC
:10040000CC99D5FF99FF0099FF3399FF6699FF9921
:1004100099FFCC99FFFFCC0000CC0033CC0066CC18
:100420000099CC00CCCC00FFCC2B00CC2B33CC2BB8
:1004300066CC2B99CC2BCCCC2BFFCC5500CC553398
:10044000CC5566CC5599CC55CCCC55FFCC8000CC46
:100450008033CC8066CC8099CC80CCCC80FFCCAA79
:1004600000CCAA33CCAA66CCAA99CCAACCCCAAFF41
:10047000CCD500CCD533CCD566CCD599CCD5CCCC8D
:10048000D5FFCCFF00CCFF33CCFF66CCFF99CCFF6F
:10049000CCCCFFFFFF0000FF0033FF0066FF009998
:1004A000FF00CCFF00FFFF2B00FF2B33FF2B66FF6D
:1004B0002B99FF2BCCFF2BFFFF5500FF5533FF552A
:1004C00066FF5599FF55CCFF55FFFF8000FF803335
:1004D000FF8066FF8099FF80CCFF80FFFFAA00FFAE
:1004E000AA33FFAA66FFAA99FFAACCFFAAFFFFD5ED
:1004F00000FFD533FFD566FFD599FFD5CCFFD5FFDB
:10050000FFFF00FFFF33FFFF66FFFF99FFFFCCFFF8
:10051000FFFF00000000000000000000000008FFD6
:10052000008318114870A0C182080F1A89136A53FA
:10053000C3870E23429CE87059288B182F6ACCC8B9
:1005400071A3478C1C436E047991E432932547AA2A
:10055000447972654A962261BAEC4853A3C44DA00F
:1005600022E2DCB4090E4F9F7134C5E919070E9CD5
:1005700038408AAE59A8268E91354793C2D947B5DF
:10058000AAD5AB58B36ADDCAB5ABD7AF60C38A1D75
:100590004BB6ACD9B368D3AA5DCBB6ADDBB770E3CD
:1005A000CA9D4BB7AEDDBB78F3623D0284AFDFBEC0
:1005B00080FF0A0E1C34141CC3880F2B4ECC185419
:1005C000284DA11E8752E6D0B1268B3943815A8629
:1005D000F32264C9CB364FBEB839B44565A72F2A7C
:1005E000239D7AD96AD3A34DC3461DFB7569D1B447
:1005F0005FDB3E89BBF5EED9BE59038FBD5974CE82
:10060000D03891E784EC13D4D0C39BECF49C7EF4F7
:1006100068533570A4AA3102470D90ECDDF9EAFF6A
:100620001D4FBEBCF9F3E8D3AB5FCFBEBDFBF7F007
:10063000E3B32D7801F085811C82F4B520F0BEFE75
:100640000E49E57447740EC521204E0C11188A819D
:10065000119D96D1669B6056CC68C538B60C64B2C5
:100660003936614B3575F8D24A1E86F8D188229604
:1006700048A247AF4518CA84AF69F410643CE5242A
:100680009D7342697287503412155E784D0511557D
:100690001C486127DF90441669E4914826A9E4923A
:1006A0004C36A9DE40814599907E7F01F95882D26F
:1006B0001D16D450342E089981A3454499461046FE
:1006C000669147174994DA6A6C8E865A71AEB96999
:1006D0001A9C749AD6E69B73E609E79D7AF6B919D7
:1006E0009F75069AE765A054C8D99C9A71A659854A
:1006F0009BACF6654E416D8223754409E553754BFD
:10070000416504763E6227D51A4E862AEAA8A49649
:100710006AEAA9A8A67A241041E4A7D094AF1AFFE8
:100720007123438A6D922074D2D1BAC98D13C1A6A8
:1007300059A39585F6D885921193E86618AE98521C
:1007400031196D98A68934A96811B325458891B3EC
:10075000876A44ED49D65E84ADB4CA2EB3E186D92A
:1007600062BB9168CF4EA6A28B0D2DF7D880CEF537
:10077000E4E580971655141C4B5D17871A47F0EB7C
:10078000AF11AA062CF0C004176CF0C108ABF757E4
:10079000AB540201205FFEE1271097850D259D7463
:1007A000370E98A597911527D9B0914536E6BAEC42
:1007B0002A6BE66CAC11C7DBCA8DAEB899A186B6C0
:1007C0006CA8CA34EF5673CA36E7CC1A6E38EF9C61
:1007D0009A8A85266A664E9415EA18819136B7651D
:1007E0008DF6328DAF513EF66B1454DB4195F0D54A
:1007F0005867ADF5D65C778D64947C3DCCEA41803A
:100800004D2CE980B31E28EF74BB6AD2364416190A
:100810006B11646392366C4E8E198BF7CC2D8AFF68
:1008200078A2899499F86DB31B814BAECB3489863D
:1008300091682C866BA1682D5F2672C83BBD8BA08A
:10084000BC9752B7657548ED8BEF40D9EDFB94D757
:10085000A4976EFAE9A8A78EFA607CC11A71510BB1
:100860001238A081B41BB66BBCBCEEFC1068955569
:100870004E798B29375BDCCCC652C6A69FC80FAF1A
:1008800038B2A1194A68F2D0D389A29B2A16AF5177
:10089000DF16AA1821E473B75B61646E1F56A39735
:1008A000B4DBE8B48E3B26B55DE7DBA9EEFEFBF0DA
:1008B000C72FFFFCED4109A0EB8019F45CC6D3D92A
:1008C000B1E58D6D63888D1C02A3DD49AE631372A3
:1008D00091B18C053EC9382432D63B1366A2352D22
:1008E0006D158E701C51DC890667418C18EE826C88
:1008F0005291B3FAA6AEC555C463AB69C86A1E77F8
:10090000266081CF5639C91C502C65AF7A7DAE293F
:10091000DDF19CFAE8C7C31EFAF087400C2255D2DD
:1009200060C5B057F5252868EB89C67685B45CE5C7
:10093000CA3121734C0AC1A728BCF94E850FB453A4
:10094000464863AE3B4D6E37C641599BB2E5C53153
:10095000C2C94D682C23CDAE4733D348EB68A77985
:10096000600219A82C1811AD815FAAD1AC2C4529C1
:100970001B7A4E744B81838F903215211AF2908826
:100980004CA4224D152523DC676C0DF3CB510C8351
:100990004424DA4A4B5A1A201C06041963490432CB
:1009A0009FC94CC83AD6999015904C1792E01DB546
:1009B000071B095DEF8D1F1C63432CA2BD16B5AC50
:1009C000821EC4A0671697CA11D56D85E7CA88A391
:1009D000CEA4B7B8A5C98191D949AE8462BB2C1504
:1009E00045479BF351BEF625B5202CF29AD8CCA6EC
:1009F00036B7FF9917C110E40806011B82F8B7C982
:100A0000A33887764559A2661E6219CA35705838D0
:100A100049601D87D63C0BD1135DC23AD3848286D0
:100A20001993AD06689CC1A70A89E3225FE5F371BB
:100A300093139A9916B550A38582813F9B16B220D5
:100A4000384BD2ACEB7B92D1D0AF32E313F32DED28
:100A50003995DADCBD9402874D45A590DC4CA94A56
:100A600057CAD296EEA39105E98B6036B9A5FDFD74
:100A70008456963CA74FDA6540C97C2694A6CC28BC
:100A8000012B6AC1292630703E43A5525B634F7526
:100A9000A5C826A6C19043FE69420FAE6643845A9C
:100AA0001772B6C819AAB2A6222E5A21407F4A4B05
:100AB0004549AE724CEB9F8EA079144BFD0B2A9DDD
:100AC0008A834BE74AD7BADA357EAC83A9118EB058
:100AD00025E718865E77C0E4AE6AEAD7750E15ACD6
:100AE000A7DCC9157B27B4616A94812944CE14859B
:100AF0003547FF9BFC335D417351715A162EA1356A
:100B00004E72921DDA422708DAE31867670F1CA6B7
:100B100054ED36210CD931A33CDD49F966A53919CC
:100B200092F45E50E99C20517AD7DEFAF6B7C055B0
:100B30009542F2CA977402E99934751BECCC198777
:100B40005921F36356EC98034509CA5FA5A94CAA3D
:100B50004C0D8BC06ACC0D292E395F64A831AF3A99
:100B60003DCADA4D810B7D6864B60BA133A5308593
:100B700092DB1058E5D6D0AD42C638EB62608C0EE1
:100B80009BA37AD148A4E7E3DC779E0684E01AF8B9
:100B9000C0084EB07C88F8AABED22E6DCD150A0CC6
:100BA00081E4135EEDE46823DB1B3B1B7813CBB8B9
:100BB00097A221FBB04589D54F65D933661E419771
:100BC00089896532C9314FBD1204ADDD229BA80869
:100BD000D918B3C26AD32E8F73C2F5B6AB77476B01
:100BE000275A1B522BDBFA9173D7B18ED4E4AAE0BB
:100BF000263BFFF9C950860B38193C31FF2DE828F8
:100C000095FC5F39297C659E52649D10395A4F1DB1
:100C10009399B9995964C00A9A0B236B2142ED3814
:100C2000ACED5294F146C346E0255095B71C2864BC
:100C30002614A1CB4C759D6DC2AE43F82CAC1E8F13
:100C4000E97BA65514A3D43B64503EC776B6659A9B
:100C5000D3FE889D7D45F9D298CEB4A6B102C9587D
:100C6000F945A47FDD92FFB6346179FD58A8426E44
:100C7000A74F3FF6C984EEF3CEA2956072060DC56C
:100C80007DD2B268DEB5F50367594087586FA21070
:100C90006D208D111551937937B41EFB2C2D213702
:100CA000A6CC88F9B59523E047A3B3B99072EEDAE4
:100CB000386CCAA6B7CDED6E0777CAC3EDCB52B27A
:100CC0004C49258234B0816D6E72396CB953F3375B
:100CD0002256CCCCA1D769E64EFAD8A1C4CADE56BA
:100CE000C14BA660FDD97A694CA6C9880932451165
:100CF000AB6EFFFBECB114AD0B56A8D2FB21FF7419
:100D00003616D5FBD353577741CEC95CB5ABA33963
:100D1000A154DA2845F1B6C8474E726EF6050EE0CA
:100D2000CCD45E4347616AA35328FEA32DA933F3B5
:100D300025EB32E745CF7DEE67441BB4A692B24C5B
:100D400003EF8C46357A9964555151D72574650C5B
:100D50009537865A3484706E2F8F0D8EC6A28F46BB
:100D6000CD9B6DEC8DDF39DDA1C2C86D7A0C3B7275
:100D7000D90ACD24ABA1E4684FBBDA7DB8571F096F
:100D8000049C4839C211DA7A07E402C93975178A16
:100D9000BDFC376AC7C0CB2187D95D741A7207C9F9
:100DA000EC5446F06EADC96CDC4EFA2EBC9D8C2323
:100DB00065895DD6995F82EC58975FFCE40E085612
:100DC000A2D15A68288C2751CB9ADA5962FD814604
:100DD00023E090A3ED6CA4495AA491AE21E7D64E2E
:100DE000FBDADB9E74FD02E71196F2767EC5C17FC9
:100DF000E6A65324729748AFDE75E66D83AFEE85A5
:100E0000D99920D88E12F2037777456999D1331D8D
:100E100047BD6602DAA2F7BD50AB334F9466F67059
:100E200016E14840458B16D764766A6578DA6CC659
:100E3000D6CD8E5E7F4C449896F13EAE95E3D6F1CA
:100E4000DCEDF7CFFFFEFF0B6CAF49D1170B11356F
:100E500047616E349418F4426114A64E0C62730319
:100E6000120ABCF2800D0819D211662E5441EDB45D
:100E70007388024AF9F422DDB32878837DD7B57EE2
:100E8000C67240C7345A1CE863C7F279C0B3700514
:100E9000D44287B26BC68262BCE632ECC478F147BA
:100EA0004016E63F1296494D036035642FFE3784A5
:100EB0004458844A927B7BC52F02082436622FB3A4
:100EC000326A4C1861C4F740179720ADF76356F4A7
:100ED0008040E6225B7863F5D62B02B71353745635
:100EE00021F64069A61174342656673C177626F61B
:100EF000A666B081836AE63895B74E4D1764DE0367
:100F0000458C057F348773F0D751482469D6767FA6
:100F100035648486788888A8300381849DF37B0AB1
:100F2000A844B642203485651CD7254CC42B8F229B
:100F300040BCC21002A4190D8885D89770AA463902
:100F40009B8537CD634AFFD4274542574AA7467948
:100F500076C3629D417D075437412674A67775207C
:100F600093617D964CDCC35056374F43365D5CB27F
:100F70005F7BF44C3CB8711D975B89B88CCCD88CE6
:100F800072917B28171858D68493E88893748D0B38
:100F900082710F243E92618580F710DCD81015D83D
:100FA0008666B8510B551129D820024745BD435ECE
:100FB0000F2437BED650A59419A5C4408C9242BECA
:100FC0001338B7646397D520150763A0E16742F52E
:100FD0004ECB573999E149395139D07129E4D3833E
:100FE000B5358846E18C123991142916FC02807CB3
:100FF000B510F6B291F5F24CF642147B5720354706
:101000002B96338E15082326B96B4B074516E82817
:1010100063F62BAB518208145474036FB1988E8A17
:10102000A2375BB77362B85E1237542C59932914F8
:1010300034EFA71140B55592513416D875ABA67C44
:1010400002427F4B537CFFF5C24758569156799523
:101050005899720B7172F6724EE75477E7346A62F0
:10106000391D18D789D5D589DFF88D0C3223F14782
:101070005DA3F119123151CAA29241D5193B375DD6
:10108000FAA4738655511E76373601668C868FB862
:10109000F64E02296F8715508AC76AF0145D4ED943
:1010A0006A85014A98632B38F251AF6729428195CE
:1010B000989999CC887203E114E3765C4EC8394460
:1010C00011580174147F57924C8418B5737308F249
:1010D000109DB88EF4F8929EC48BEA128267256642
:1010E0003F762638C7920CE449C0B467D6B59B7CDE
:1010F000468BF1684066D63BA9B83861C28E41F391
:101100005A3FA68B3E855668193E92582952492966
:1011100021A799DAB99DFEB77B0BB11073974E42A8
:10112000419A939877CF01244B843103644785819A
:10113000565A789216668E30A21C2E3466ACA728BA
:1011400043352663C240FFD535878B264A2313716A
:10115000E8188A304951EB1739CBD63155A42EC83F
:10116000042397655D419698407961ADA690DA08B1
:1011700014F1F25F9AD447DCD9A11EBA7645119ECC
:101180001A498922453BA3495319B72F40F01DF056
:10119000C2899F513B45B1A2DFA183DF189B3DB1BE
:1011A000A26AB073F1D610FD621362B6708CF518A6
:1011B000735739CD861C4E379BF4684F3B977002AE
:1011C000E7A09E61A00CC5670CB5139275A0C3245F
:1011D00086071A6F87D540D0F17544A62035421D89
:1011E0009016993EF1A1667AA6DD367719E9147753
:1011F000D75CE8C991C51784322AA33A304903C4A1
:1012000096313AA72B0A1D7E059440A0037A0A0462
:1012100012D140A0D001023160509143553335DDE9
:101220006104866A0411113A9C62144D615273F78D
:10123000713649A98DFA34DD0172BF4285213335FB
:10124000DCD1A99F0372A8F0364BC7E76C7C060A75
:1012500041C017AED8685DE71C8CD9576F436AB59B
:10126000F251689AABBA0A6528D7881C39524E7475
:101270004975972BD92115B682142B7A92A929A3E7
:101280001E89AC05185DA100A8DFB1392BBA511237
:10129000E130177004D97A0186DA0116A0AD47D083
:1012A00001D92AAEDD1A043114AE0E53AE1DA0AE24
:1012B0004120AEDA0AA4EECAADDAEAA8E35A1F8FDB
:1012C0000A4F94A109F3BAADEB2AAF17D0AE0E03C3
:1012D000A9953755BBB88D47F0AD15D787B01A6DB6
:1012E000B6E35761DA1C95124034B2AB145BB1FF20
:1012F000C1C5A628876563E991FEE3833652AC1821
:10130000BA252B6A493382AC4963292BDA9A92E1D8
:101310001D332A432BBAAA572277DF0A044640B36B
:10132000AD9AAD1C20A3351B3603013E54C230AE2E
:1013300042B342DB01F8C157E567B38E04AE36DB3A
:1013400017869A1F1D107821B31D002B36324AB420
:10135000DBBA10C1E85A0FD5AA86AA9808B9A58A9F
:10136000E52EAAA73457D2131CC74C4061B16ABB03
:10137000B673159EE1398D0B688DC77A145068AC31
:101380006D25B249E1404851A7CC552F3A6004A7DA
:10139000060A7F7AB777EB1DA5047840F0ADD0F14F
:1013A000102B6AA88BEB107D711F43B5208DCB17D6
:1013B00037C11971770170E06C8AB21FAE7A7C7008
:1013C00010313E42718CDB0147D0AE60652B40E0AE
:1013D0001F4F4BA5AC76348E6410C4027F36375D48
:1013E000EDC22003E4B0040229E20340A0C4B6FF2A
:1013F000C01BBCDA14076A1A92E9E691BBB218E77F
:1014000089A32305727000A8948418237B6D45C1BD
:10141000B2D1961D16F07146D1A9754AA182D4A306
:10142000140A181DA006BC08B9D50A6402F1B74019
:10143000807DF765180241BE73E9182BCA17EB6B64
:10144000939AE030AC22A86DE6893ABB7C3951B35F
:101450000022A8D6956F041436290B8AABC79816BC
:10146000B75F0C22894D71364C23BC123CC186F407
:10147000140B81658F88319B4443A1F9A74EF13449
:10148000FF12A82B2AAD4D01046A503535FBA78900
:101490009B034000017FDA2F261C046AE02340F002
:1014A00003EB2B70C81AA4A130A710BB4E4A785F7B
:1014B0002A82BF323C54C4C213ACB253EDDB13FAE0
:1014C000A11F751819FA21A33DCC19C5AA1F2746DB
:1014D000644F5CADDF039CC612A804DB3D4396A4B9
:1014E000EFF6A990B21CC628292F42C1689CC6FFFE
:1014F000F3A380CBA56E8F689AB223611680A357A1
:10150000EC1DFA21AD3A30C7893BA74A68C22ABC14
:10151000C72AFC03D25AB32C3BC210EB18D27A83F1
:1015200039B1BA23CB589272BE3F56C8804B90F265
:101530005BADFDE81C805C47F124B8577C83CB2071
:101540004889AB0358482C7FFAC4BF821966B8A2F9
:101550004BFC1DA716336246A1B13A8C0EA4183B72
:1015600025B14CA6C6B89CCBA533A2713B99A1F678
:101570005F5A36A716DCC723CB10B623AD01E8C7E8
:10158000733AB99AE0C27E3CC39B62C88745C8C81B
:1015900004B9805AA7EC1B19D50A8B4680C70DA148
:1015A0005F81931D6E639752FCC7EDA49B80AAC711
:1015B000FCD613C81C1BBB06C8824A85DD53AC2D64
:1015C0002CA3093B548CA2C0AC87200AFB4CEE0232
:1015D00023BA1CD0029D351BB94C6ECA711B195819
:1015E0005796BC245CB3F922A378C325238CA3FFB0
:1015F0000331C340F000DCD819170D043990C22C18
:101600009B0316109CA284878F21A310C0A78AC7B2
:10161000CCA1A1060FD0D26AA08750149B43F71823
:10162000F73BC22DA65E747AC39AF03DCFABC240A1
:10163000C9282CEBC29B5BC41022A32C0BBD2DB37D
:1016400087B155BBB06CC66E237F46B15F0D0119E3
:10165000035DD5563D3040326AA6C9340BA29EB315
:10166000023BCF24A3324CB3780C1DB9D3D346BD73
:10167000A22C5CBF6108073FE0C23A50C81090033B
:101680008B5B400A9B193F60013AF00385314A8623
:10169000254A9B90060F90030870C8AE685E3C66B2
:1016A0001879BCD7D2F5CE7FAAD7A2B422D9E1C28D
:1016B0003F0032B158C37BAD03A754451C4DBE203B
:1016C0007DD1A91A50076A71947C7C78B45CEFF2E2
:1016D000BB57BDDAAC3D2A35443EE8461420B94933
:1016E000D45661BB22ADCEBCA227CD801F9BD9FFB3
:1016F0007A0DC8143A8EDEF1003AF000179D03749B
:10170000CDCC396747800AD27C282637180A6AE090
:101710000009F00069505176F9D4097B113D0DA8FC
:10172000C052A5822CC8EBAB94A0A009C60DA8DDC1
:10173000D33D8FEDDC20184F3DDD107F2ADE816B1D
:101740004C2DD39C5888564DDD5638E710ADDDDF63
:10175000FE9D241F695C40A1255626583825AB7F85
:101760007CCD0FE813C847B92C6CDC39801D4BFDCC
:1017700031D951013930D7ACDC87BBB36A0FF103E3
:101780003930D8E40B7E70F94FAB9106098003D64F
:101790002D8A9C01040E1078FC347FC6FD0095DD77
:1017A00019DFB30C1B2DE36658CE10E0E1A6257AB5
:1017B000982DC82778261CBDBE82FBD682DC74A279
:1017C0005DBE224D7D933B6412DE68FF1DE5520E27
:1017D0001FEA464E5D2D99098839FC238EB56D4E62
:1017E0006B030A9B28ABBBC2D1CD058EA0D89E58F7
:1017F0008FF1B81C96818A1C0A1FDED24FADC0EB58
:10180000D813D4FD0021AE3DA0900309E036A8BC5A
:1018100070CF0BD239E086BC48DC6B4D6C70900306
:10182000993D93A481E815C0D83549343B1E07255E
:10183000A8038D5E01A08A38F1251A9EF4E8087C81
:1018400034FA3D64531EEAA2FF7E1E243A9A7AD7E8
:101850007724692516B3360D5131B74B789523405F
:101860006A70D24E2978B479AABEF3CAA4944CCB3C
:10187000A0E738B0E770E45977E418269E030E908D
:101880000678BE0C2CDDE2465A26373AD8E3AD2264
:10189000AB31DCA09D198CA2098D6EDC99851C9A58
:1018A0006001174ED716A51187FE003BC7D173AD57
:1018B00006DFC3A4E608AA0145454C69B6B17534F4
:1018C000A33EEFF46E17605DE06DD3A20FA618265D
:1018D0005A788BF194D9585D778A20649E8D99014E
:1018E00026408C87D096A4A7BC4E0CF4E10E40EEA7
:1018F000DB1397EE3421825DE70EE0000860EC090F
:10190000E0003320F13856DEC43DD866B267E68D7C
:10191000E8769E32DC5DDC2CDCE71332D80FE00089
:101920003A407518F2E13FD055812DE332EE932312
:1019300036A09045A515D7EC9552450454EF467F47
:10194000F46DD1A6E3349E7AFF172FB9223B0452DF
:10195000734CE4B06519F0BB73D1DCC81050D46B84
:101960008AF96CB7BE4EA7E4E60EA0E79BBB6B8777
:1019700036ECD2BDF10F20030FF0F10F70E22D5DB8
:10198000D8C2E27953DDD23950D97474F22D7DF387
:10199000524573309F03FCF4181C3FD86446628E96
:1019A000F1E194708E76FF009CE5A47DC968EC029D
:1019B0008F101721B0735F13622C489FF99A4F164E
:1019C000F6526EF8CE3F1A938DB5F336E613F0A7B4
:1019D000092398B8C339D09E601C9C4B5D4A2CF6F5
:1019E0003DBB7647C8DDF13EDFD8A427D80F800085
:1019F000D8A109BE6F141F8E037C4E32AB010709BC
:101A0000F0E1C89D1D69F0E12C7FC313F49623CF4C
:101A1000C23FE01D6F6EEC813E707B060708E00060
:101A2000BE26456DEFD203959782BE79224837B422
:101A3000891D1564589BBFFEECBF1555AF254E7F21
:101A4000899A643BBC822B11FF11E60582718AC919
:101A5000D29BB43B00016A53A85003051E1CA82961
:101A600014A882A1142E6C188A98C3650437FD4807
:101A7000E0E081A68704412DDB54512143506A1ECA
:101A8000C878908660C18AC51E2418B98CE1C462EA
:101A90000E73687C9023E7839D39E0805446716023
:101AA0004D4D3D7B6A444929544550C53E860A9AAE
:101AB00043AACCA503D39CCC1934244584412B2ABA
:101AC0001B5871A9A6AF05BD6A8A0367D34C96A0BF
:101AD000F6BD851B57EE5CBA75EDDEC59B57EF5E14
:101AE000BE7DFDFE051C58F060C2850D1F469C584A
:101AF000F162C68D1D3F861C59F264CA73E368BA51
:101B00009336549C4D773A6FB2B309CEE6CF9E43DD
:101B10006F5E1827141CD66AD40ABC3372A06AD030
:101B20007074E4D4E1DA61C183113771D40447D30E
:101B3000C0B516052E04B9726D4DA90F103CA4C98D
:101B40001B79A89ACBAE3A57FF2393AAC29B0AC32C
:101B50007A14892081D44D6A72FC00A28661D98AE8
:101B6000DA1716CD0924B8D41C6A08CADC5A7529BC
:101B7000A8071A1160752081FE5E72202486825AA1
:101B80002A41EA9A22082C04C7DA6FA0A5E088430C
:101B90002CA8082AA6320D37E4B0430F3F04314485
:101BA000114724B144134F44F1B0CC46536D34B5C2
:101BB00042F3CC3317572B4DA1CBE05023471C5990
:101BC0004BAD2185140242279D76B2AF2383D60AFE
:101BD0008E35D6801369A52619220BA29B66780044
:101BE0008E89A4FB28A4E2144A23011C526AA83A55
:101BF00087D4504826A76A024B138D1CC841AC6598
:101C0000BCBA102433A10A098E217348B02CB0DA73
:101C1000FBA8CF65E04080CA1C040C70CA0770485E
:101C2000E08DFB067250A20B1B4C90AC3259A213F4
:101C300094358473D451B752E4B4534F3F053554AF
:101C4000514725B554534124FF2E36D556A511C60C
:101C5000CF544388C61D29744D4783545B4948209F
:101C600076DD35A7D1D62A6E20D628118E58E146CA
:101C70008BF2C7046BB2A8229D347AC82B03EFCB3A
:101C8000D3A48CB2F353C1F6A88D743C047E88D3E0
:101C9000C0AD9EA256A49C1068334EEA2E64705DBF
:101CA000EA7EC809387935D169BC369FDA76DB62BD
:101CB00082AAE9233EB513A83D1EDBFBEE54830F39
:101CC000463861851766B8618741B5E3B21831A31C
:101CD00078E2D57673F534E182738D4225BD5B4899
:101CE000B43874E2550D5E7532124A4A82138DC2C1
:101CF000E0389270DBE2040AEA238C10FD49CB380D
:101D0000C9FA886793BECCEEBE83DC9B2828A31D4E
:101D1000C2295D8023FD6A69B0FECBE9A9A7E0FC7A
:101D2000B767E746CBF33E3BD75CB7519E3741D010
:101D3000BD7EE55CB7AC38EC5B4621A33779B86D66
:101D4000B7DF863B6EB9E7A6F33BC4CF5C5D55D8E1
:101D500082EED83B21CF087AD9E51DD548EB35096D
:101D600043217957F47E3059A7CBDCE448C963930B
:101D70000C0EBFDE5A4A504B78511AE951662DAC11
:101D8000488D001D508F6C7DF1DD8AA80766609339
:101D9000E07F5D2FDB21AC9446732CEDA2AC080EE6
:101DA0002FC17E14F3FF58C736DFACF70CD7697725
:101DB0002914BEA2BA9767BE79E79F873EFA50639F
:101DC00093F1E291548BCD7AEA6F8D1C0E63D17A38
:101DD000D93E1F117FE087FAD2DB5507787580C89E
:101DE000BB8DD708AE120A89E5A85C9A43AE7999F3
:101DF0001CA09E54CEF518728A4C4C8212B4F989FC
:101E00006722C9C1017B9611A95CE868CBD0539CBD
:101E10007A963408662B5FFF12D2B68A76A13138E3
:101E2000A7815F315000F13542F7E4EB23384ADBFC
:101E3000EDA0223D16B6D0852F84610CFF61F89984
:101E400050FCAD45BC61156688030A5CBD2C2DE0D5
:101E5000130E9930759C4DF044072703027A828453
:101E600027094169491F139C422612300C65CE593F
:101E7000378149A53498B56588EE2570A0DAF074ED
:101E8000321A088E8527DFCA978192B72D4D78299F
:101E9000013F10DE0611C42F50FC4725DA111E1C2D
:101EA000D8F41FDC71518DB6CB5394E0540C0A71F9
:101EB00051793244642215B9484636724471E0A122
:101EC0004042C3C3CD50722D7F93246F7E43A61F23
:101ED000E2A865988A087FE2934420E42648609A45
:101EE0004E7056269CCB747238A09B56FE6C16A082
:101EF0008D6C2B7F090ACA4474771335D46E5FFB4F
:101F000001497F7876A1A2A0A44D01844A7B04B93F
:101F100020ED6C026A39E85909F3B42DF314C85F57
:101F200042C323EBBEE84060AACB84FFFA236BA632
:101F3000064C4796D39CE744673AD5F9FF9686D07E
:101F4000866F0AF99B0E1982AB8410E4469A704D95
:101F5000CB54A9ACE3E84A0DEA4BA20EC6A833EA7B
:101F6000040E7EDE135CDAD895A7FC8044278852E5
:101F7000DBB2BAB9AD318C2E07D1C065377F4025B1
:101F800008B6E74FCFF46846CBF8A6A528738F0FA5
:101F900018E952BCD2147F7D84270928A332483A1D
:101FA0005250E8C498F9F24AD59A56D2925EF34F4D
:101FB0006B485E28D63954A216D5A84765D88C2818
:101FC000564960DD8188BB8167427C48B9831EC762
:101FD00022ABD115E37635248328D421F84C923EE8
:101FE00041893985D60C9901FA121CB7B2D2EA1888
:101FF0004D7F6CCA891A435A1436D92E2857410985
:102000000E322A539EF2D5AF7FF2602D553A4D9E87
:10201000FEE9A6F8CA93574CE29F9FBCA93D0F1C4E
:10202000E96393D95390B086A432351A5235BB591F
:10203000CE76D6B39489082469D843A6FF82E26F8E
:10204000C172C8B1D4209A970D27640C29C8757243
:10205000A0BED90A533FFB496DE4E2874F33FD4FE1
:102060005BFBA11781C683A90BE20B47C2C54102E6
:102070005B3B9FDFC151414521D40C7E409691BA14
:10208000D58F70408973E2152799B6346DA263A08D
:102090005AFE1A273BEDEFA1649A6647A7C61EC9F0
:1020A00076F44FAA4929043F3B5FFAD6D7BEF7859D
:1020B0008B69D682ABD14852429D69086C8B33A69E
:1020C000C8D1CFB5BE81AD1AA0C6135F05982AC985
:1020D000D104FD84A889F540AA76DAF94F4618881C
:1020E000D6FE94EE8183F2CFA1188C13016917C438
:1020F0006AD3DF7FF25A62FFC4E97532FD8F46BCB6
:10210000B4BA35C1D4A3FEC2224F50F21F3C29A35A
:102110003A6943178F35CC133C91D4C5ECDDE98384
:1021200079183C3C6E0ABF4F867294A59CC8FD8E00
:10213000AF211292CD6E54F390C32DB7FF895BAAE5
:10214000C87FCD37DCB03084381009B3BC86829CA0
:102150003257C52B52F9C11896781EFAF4AF3D6973
:1021600030DF18CC2750A99001CE7FA6334F016DE8
:102170003EFA9C47BDEECD53A1094D6843E3EBCE3B
:102180004BFC016D19D75E4D986FD17A96CA4F728C
:102190000A4C7F01ECB11D9DD04F80D99E2997DA62
:1021A000D4A746F5DB700549FD46D2217C0396474E
:1021B00006E2995885723711F1C8AD4DD25FE3B090
:1021C000672D54598905D515C6C8BA37A5E32D76AC
:1021D00034968151652FDBD833ED74B33BDAEC696B
:1021E0008E3328CA963604B30D4164375BA6875EEA
:1021F000E3B34BD8345087B4DC0D5AC6A54A1AD382
:1022000065A4DADDEF8677BC53F46AEF9CB66FBB4A
:10221000796780517B6B9081E7389F1BD30336B180
:10222000958930655A94DA969B3307A795F2895BB6
:10223000ED35E4BF92E9684312BBB0E4D176746433
:1022400011FB4DC2CE7478EC4E66506F8CC7E960BE
:1022500076B05ED9B4655DBC1479B7DCE52F8739FB
:102260006368281DCCBCD6385DBE2ABF834DA786C7
:1022700020084A04D935443C22A6B59A85229E9B63
:10228000CE9C6C5952947BD3BA0D1FF7C42BE871C6
:102290006E0FB6C9155CF7A829EED8905376B298A0
:1022A0004D726171E91EB7FAD4A3F11D3965CFA64D
:1022B0007199C4DCED6F877BDCE7F25AD1DEDC3844
:1022C0000D9924E084FEDFA74204CB6E0AC555C8F1
:1022D000C2A89DAFF4B74A1E1E36F3B4713E7D2EE0
:1022E000A47CEDA8752FD8CD4D73BDB8249FA9E46B
:1022F00015D4DD9872B1AF0E9CE9E323FB75B2B340
:1023000027A7A15F0D194FDF6EB9B7DEF5AFFF4705
:10231000F5952D923D00DB48EFB2BFEAE576CEACF5
:10232000288D4F0D09E86F7288E7148583E52962CF
:102330007AE0B0BDF928C8739DF3101FBDC91D5BBD
:10234000DDC96A07E5E6AEBC64C1DED7B35B7BDD01
:1023500097AFBED5CD7DF1D1EF5419978ABE5061AC
:10236000BF7EF6B7DFB3A0B15EEE0F67D5994135FA
:1023700064805B0E96C4724082C0EB95F62318868B
:102380001A27B1E122E0283AD4A33AE161B8A601C4
:10239000058EF813DE0126D1B8A09052A9DFA81F40
:1023A000069C3A9C9A26AA79B67172409FA299918E
:1023B000C3A3E75BAF952B230AF1AE9272BF1564FE
:1023C000C1163C27D9C3242CD33933C335C0692D5A
:1023D000E180ADFD5B0982688E127B0D85F2AA9AC1
:1023E000D12DE1F80E89038B4139A58D28292C1AAE
:1023F000339E108EFDC9893B499B7AA925934029BC
:102400002BBC930C7A16064B20933389F3E0FF899B
:10241000647989ED2A0A1EDB84EB4000FB9029EDEC
:10242000128E31AC92B40943F63034ABDB34919266
:10243000B80CFC88B5333B2773C13EF4C33F841E00
:102440009B2B0E48F20DBFC392581BC2D68A35A6ED
:10245000708AE07A892F1110E7023CADA09CC989EF
:10246000A882BB1093788AE022BE2EBA28FDA92547
:1024700067412965330F8C0A85F150B650780032D8
:10248000590620480308D20908B2138CD289628009
:10249000C3074890AB682CF8C01D9EF02838C809C7
:1024A0008101BEF6F022EA02C532AA8F32512F5FB7
:1024B00024B68F683E13DCB46FB32C0C643D40B47B
:1024C000C66BC4C68741B088900D1AEC1C5CD32D36
:1024D000D75025E20A19B11814A3688E1F189BF56E
:1024E000F88D8D41A8D6BAB1EA8083572C29608433
:1024F000A3DC293294B9B6587C8A3B528660B489F1
:102500008A88069F088568D00107680F9402FFC576
:102510007E5C45380482912A8A22B38E0430A0F270
:1025200071ACA27845997880DB38208C301A5C94A5
:10253000A02EDAA6AAFBB6C45A3767E4BE0441BF90
:102540008B53BF6C74C99784C950E991002BC45B4D
:10255000BBAA87F891C971254CE93D650002743426
:102560000ADEA98E060CA263991C517B3CCEA01AF0
:1025700001D10E35B847FF5B4294FABE8A08C665A2
:1025800078C3E98345943ABD58842093500F05439E
:10259000B1A5E08982E34A086A23A42C0AB4310F6A
:1025A00040F90EAEAC0F507BB3ABA0C7684CB2ADD8
:1025B000A31AA329A49CF29798E4CBBEF4CB10E114
:1025C000C6FBEB8D9419B048E198963116329914F8
:1025D00006B9939E808067419B0B21A4C0510B38A4
:1025E000909F8DF134F14B269481A01F1035CE5C65
:1025F0000A8C482607400EABC4133BA1BA8FB8899A
:102600001B1B4884848A83FC099EA02C5004FF2352
:10261000F259A94D209D486948FE082E4DD847948F
:1026200002464F334B941290E683BAAEF3ABC4F23A
:10263000A8B5ABBA0AFACBE784CEE86C0CA882B591
:10264000FB5B896F5C1765A14C2062ADA0C90F01CF
:10265000111222DB8960ACB006CC27215A12D1D8E6
:102660008AF65A0636398FDB2890A5784B502C9382
:102670009AC20DAE848A9D7000652C2C8C983AF914
:1026800054C888144B04F03865D089EC58068C0087
:10269000B455EC2EDCCC0EA76CC55004C5318AAF06
:1026A000C07B4878098971ABCB62E33C601A189112
:1026B00092CE1015D111ED8BC339921D34129A7C34
:1026C000AE63290F8ED9110A639765F892F10C4F0A
:1026D00021C99AC93496CA2C0F1C64CFA5E898DF8B
:1026E000E04CAB04A353E0C88EBA89D44280758B0A
:1026F000179E582B3CD289F4BA8DE608C58C20ACC5
:10270000DF23239D1088E1D01D328243FBA8FF25E3
:1027100094B9109419142E7DB39F5093D2F9BC62D2
:102720003BB98FAB08757BBE4322D13895D338B502
:10273000397DB3AA983033FCB0C18E418BA20C8E88
:10274000CF19081AE54222610FA264257C7AA2E122
:10275000803C6F2AA36860D2A0084530ED4C989267
:10276000CF68780A0478C82F443D6580976FEB13D3
:1027700030A52EB14C2072FB81FDAC087861A3948A
:102780001098942845F23146540D85D6C117BA12D7
:1027900010A6444094CCBE90B325E419396598D373
:1027A0005F0556E8DC46AB920EE5103A96FA8D5678
:1027B00062A5D6A81F75E912A910102A194F0A2B75
:1027C0008BC9C4914A6C19379955B27326BDFAA8C2
:1027D00004D99FDA7C2BB183A0D679ABC68A93410A
:1027E000F1A623B5A514038245DD9F0CDD9FA9D377
:1027F00084344CA67A0582FD94CFE700D7244D316E
:10280000A44CD036814553E5B473BB2CCCF309936B
:102810009F6ABA320AD68675FF5897B4CEF9FB354F
:10282000663ABE870B9F71BC91F5BC90221AD49E6C
:10283000509AACA19FB4D851EF09896F9B3A34EA02
:102840002878F94473FDC750441C02C52CF380203E
:1028500074810A05FB448FEA0FF75A4398AA3C405B
:1028600051489952931E239F5F74807B941D1910C9
:1028700058ABD45708CA59C02250ED78C3A5E81206
:10288000A3854B9532B7241B29E4E12E967BD8AE65
:10289000F5DA16FC3292C88FBDBBB59FDB8D906513
:1028A000D6E13020AD31269E10148113A99E3996B1
:1028B00090E5083871B197A0566094011F4DC33759
:1028C00043809F70298255C51C080A044048AAFC11
:1028D000DBFB080A1C4000C2AB08C64557C833AF33
:1028E000FBF8226D438024E5AB7A95CA8F4ADCA8B9
:1028F000F8DB0ADA1FBFBD47B0AC20674A52ABF520
:10290000170EF4AEF6FA884BE9345CFADAD895DDA6
:10291000D7DB8DFFD2BB1DDAFF4120C4ADB1D81883
:10292000DD128BEFF08A9119B29C982C4C54A6C002
:1029300079991E95293D4297FD2910EBF88FF67085
:1029400080CB5DC5ABB8DC18BB5CD6708EFFF88958
:1029500034B8DC36F1C9FDE13159748EE9559A6B12
:10296000C2018DB889E7C89DCBD50895585FC34D86
:10297000B1E8AD88E9158F3400C6CB4D80570414FB
:102980001E9BDEABB45FD2D938D405B9E7AB475153
:10299000732B389DDD0566E096DBC101849439799F
:1029A00010AA184A91F80D8DF5D4908A064475C086
:1029B000FF04B7CC79A57223B78EB293E922E15117
:1029C00095C5178DB06B65E18A90307F49DE0DEEBD
:1029D00018E11098EF0905684034904883FA68B60A
:1029E0006820A420D2041946A8B459928E42CF2C54
:1029F000E5D39658925AF10AC9C19DC8332496ACC2
:102A00003A7533B68F68E02BC6E254ABDD2DE6B2E3
:102A1000070E8B8EA0416EF1FF2D27E19D2C111E1C
:102A2000C4A21A5CF5E0CAEBB46373E31C263FCB87
:102A300013E1D7E136EB9BCA82C5A308CA6111A690
:102A4000AC3606B7A6C96076EB285B94BAD9CC162B
:102A5000640B358763D82C66E446C6AF36CB357F2A
:102A60003B1382B892142ABA29F235C7DAB86CF14E
:102A7000A9342EBFB13B398E8BAF6B823AB74A3E39
:102A8000ACFBCF68EC383831BBC463BBAFA32C0EB2
:102A9000E4B49444B214AC3C432E36D12BA1D35BA6
:102AA0002147F6E55FE6ACAB4A21663A1C0514A95E
:102AB0008E9BA8B1BBDAAB35595D35D95C06E4C84D
:102AC000E3B668F8368C7AB6ACD3D9C85ABD3A7634
:102AD000AFD7C5CAD49D6628C6CAA9DCE6375DB79C
:102AE000E6A3BE396ECE9234B60CAEBE111667F9AF
:102AF00002E679A6E7756A9F1DDC396023096EA995
:102B00008A310E1BC9249786430E3F211775211762
:102B1000B20BC984638F8F23FFE8CC9B2867ECBE80
:102B2000124A58D09B406FDABA35C5BCE51B4150FC
:102B300046C9CE83B6B04BCE6F52DE640E8A7A366B
:102B4000E9936E247751A889D88AFC8B0EE2DBA02A
:102B50009630E305D93C408A3A05CCE5EA6BE6714C
:102B60004B41D3EBB8E4394E3DF6BCB0C3C0614B2A
:102B70003B8B43E40C9CBC4FB3C3A15E68C84B586D
:102B80006A044172EB6594B6EAAB6EA195F867D022
:102B9000E3A2015E68A5EE3A412E60630BB9047EA4
:102BA000136B3E8569AB206553861EDEE32AEEE19A
:102BB0006786666DCB666ECEE6EFDBB69C926BB930
:102BC000F628B0CBC0BF2A4969F3366E96A96C438C
:102BD00067443B6C781664AC66ECC66E9E4C8140D4
:102BE0007C3E90DC951A897EB0A42B9704A138C353
:102BF00013392E3A1A5E5EBAEBE3A6B47B6AA13EA5
:102C0000E5C52BED9044E6CCB46C69623872F5BE34
:102C1000E48160ED5366AF2B0837C6E35AC7D6EDA3
:102C2000DDFF6E1BADB6885C72146611A1B1C99C44
:102C30004DD6A9862ED86A73E840CEBED27B670EE9
:102C400064B7BB9C4D6C4667A91368B2DE54EBC3F6
:102C5000BCD0F329DB6EBED57DC6836DE5834D49BF
:102C6000D1BE2C1783E83EE1EDF566EF8439BCAEAA
:102C7000AE509A9AE33B16B7FAE6EB67CBEBFA163F
:102C8000B775C3E11B763669FEEFB8FEEF4FA3E6DA
:102C900000772FB62E485D0D675093B6FE36F0B61E
:102CA000A6EBFF4E6B035FB6733EF008C74AB7A6AC
:102CB000F054D4F06D3BBB6A6CEF1017F14F310B41
:102CC000C28BA80ABB2504E99F18ED9392A316EFC7
:102CD0005B3E819EA3184DEE075AAF9BC62D237C09
:102CE000683BBEECB2506DCBEBA684366A6E9A653B
:102CF000A843EE90A6BCE41EED43D6BA427572F727
:102D000018F12897F21341B3E3083399A696F56CAE
:102D1000B88A252BD3B965EC7BE711FE3E72A5CBB3
:102D20008AFF83E50CFCB828EEE63CAEBC051CEF40
:102D3000D729AC8CFBE95143ED341D6AABBDF330B0
:102D40005A5484BEBAB69BF23F07F40E31A49E26B5
:102D5000EC39E7661C3E6BACFCB645B7EB69860AFE
:102D6000014FF4B686701CEEF0B39629441737482D
:102D70007F66465FB6C2C6EE69BB6FB75E740FBFB3
:102D80006FBF9EBEBD7E364FEF74C2E67000BFEFD0
:102D9000BAC66F0C0FF459A7F5C88010607B710B91
:102DA000A9721D7F38D89AE008F63C59FE6A355F53
:102DB000F24F96719246EDA5632F88B668844EBE99
:102DC0008545E3647EEA63E6F3D186C66177F20166
:102DD0003E7689ABF56EF776C490100451A3C51CFE
:102DE000E66D6147C59D280DDCF33387E53D2FBBBC
:102DF000A933CE38C75A5D65BAEF63E34F463BF15E
:102E0000DB6E292EAC6D5EDD7EE7BEB3A36ED2F61F
:102E1000E6EDE3637326EBE6FBF68567F8BF984AB9
:102E20000EFF6D67BB9674717BF58EC261087736B5
:102E30006CAB6F44F770FD0EF5445F7563EBEFB854
:102E400016F569F6F48B67EB8CD736932D6C462F0D
:102E500070B70605C15EF955D7784A5F064ABFF4D8
:102E6000582F756D5B8A66E37855F7790832854689
:102E700097A98637FAA3B78B9AC935A991EC487EF2
:102E80006F1A8FA0EB4E7652565E519E6DA943D8B5
:102E9000D056E601BCEEAF366E128A71D426E51A22
:102EA00077E53AD77A3D573E24F7642157F69644A2
:102EB000FAB73FFAB2E923650A3D39016E3A4A3F53
:102EC00091CBBCABC517BDA4BE920CEF9016BDA6AE
:102ED0001EE5F2236DB096BE6B96660B67BBAB9D8D
:102EE0004DA6FE6E343F347616F874DE77F9CE7A4E
:102EF000B8D77CA38F63AB9536AFC0F46CFBFC886E
:102F0000A77955777503D778C7726B8DC736086771
:102F10007D9A5FF09B2F7D0CAFE3979FF958BFF030
:102F2000961C0F70A0577D632BF00B6F74FDDE7045
:102F30009587F0E20F7EC26E740157B6CD67FFFE33
:102F40006F27F2C9BE3D3E6933E3A1F6778E5B9CE5
:102F5000FEF124AF76E77E6D90F3E9D2633C5B2E01
:102F6000F616D7F1A5533ED6C655EDF7AE8E3EF216
:102F70001D3FE6D3565D3ED78EE6A77F5AB710C4F5
:102F80000AA0A9EB7B7205656A048850CB96812262
:102F9000387099C0810295293CD87099B284080F85
:102FA0004A8438F1A141850C1316A47870634386D6
:102FB00011334A4C38126347890537321CD8B1E5C2
:102FC000478F104B7EA4D9D1A1498E1441827469D8
:102FD00071A14193170582DA67F428D2A44A973287
:102FE0006DEAF429D4A852A752AD6AF52AD6AC5A94
:102FF000B772EDEAF52BD8B062C7922D6BF62CDADA
:10300000B46AD72AAD687159348C0E630E841917CF
:103010002E5EBC30074663D8372E34872D07E77DF8
:103020004BF86DDDC482EFC2DDAB8CF1DDC07F0FEC
:10303000325E2619EFDDB88F2DDEDD5B982FFFE5C0
:1030400065A7FC0EBC8C79F365C0984B2B9EDB39D1
:10305000F3E9B8B257ABE67B982DEEDCBA77F3EE26
:10306000EDFB37F0E0C287132F6EDC6BC48805439D
:1030700031D7C43C39F3A0CB438D248A90E1F29937
:10308000D7170A4CD87DFBC4EFDDAB37141F343C97
:10309000F8F1DEC917CC6E3EFB49EAE7B387673F1C
:1030A00071F9C8EC29117EC73FF4FE7FE45967DD52
:1030B00079DC15085E7EE5A5B7CC710D3AF8208461
:1030C000114A382185155A78E16F026D02A046DF5A
:1030D00091771D87E88177D145EDF954A2762DDDF2
:1030E000D4D14B0482989C432B7578D07E2F9E08B8
:1030F000228112B5449D7CF2699711892C6A641073
:103100008C06C278138F3DADA4A37789F128988FE0
:1031100006020863624561782596596AB925975D6C
:103120007AF92584026926D85C7305061A9A8739CC
:1031300024D966B01D941A6D79CD36679C74FFCE84
:1031400026276DA4A1E9909B9579161A6873B67429
:10315000A69B651A6AE89F7A3646A76580224617BD
:10316000A480CE0626A5955A7A29A6996ABA6986B8
:10317000A06CC25C28A0806A507B4F0E98609319A7
:10318000D508E44934BA1A144B27BE04E245D0F1FD
:10319000041449AE563712952D5697A481F80D8820
:1031A000DE93C2E2482A80E6F558DF7BC812E89E2B
:1031B000800562B79D72D7717A2DB6D96ABB2DB7DB
:1031C000DD4AB85362207D97AC8842C63711743E01
:1031D000E924EA89E32E2B65B3EE0D29DE7AB92EB8
:1031E0004BAC82B436996ABD44A68A2E873AA12B8D
:1031F000DF7E45A638EE7F3AD61AE54F1855148A79
:10320000B7114B3C31C5155B5CB18F0F89C91944AF
:103210008C1D66E7A29FF1D9F19E7A955919A49E5B
:1032200041169A5F7FF619F2987DC5B61A9B263F24
:10323000EA26696DD6B9F36CA6154A26C9A496F597
:103240009CA7A0B0ED7531D2492BBD34D34D0B17DF
:103250009EB1F3D53754AC3DF2A4AA4FE7D625254D
:10326000912F4A799362221D3CD79159EBFB56C1AD
:1032700021DD4B2B92B1029952AC717B7D6BBB6E01
:103280008BCDAC4F268A27E0AEA626E734E0810B33
:103290003E38E1851B356C77F2821835BF6AFF77BF
:1032A0009EBF2709B9777F1A97CA1FE64686FAF8A4
:1032B000BB55533D7593E9523E30DEEF96AEDD7A55
:1032C000FCD21DDD731EEDA7534F54325CA0E1B557
:1032D000DB7E3BEEB9CA770936C964BB669B6C8757
:1032E000FDC91AA385BD0C679C70D626339E78DE77
:1032F00029F29A699EFC3BC920A359E866251F1A4A
:10330000A9F13A2FAFFDF6235F8F97EEE59B7F3E45
:10331000FAE9AF456EB1A5C304EF43B3D6BAF58F52
:1033200042D2DA1A4C6D23FA2A89D3F28AABD550ED
:1033300084A2B219862E22018AF0DC429865B98DEA
:10334000246EABC8010196118311308032B208435C
:10335000D4A7C10D72B0831E3C8AA920772C7BF5BF
:103360008460F67296BB7E341E660D6B3FAFBB5C0D
:103370000A45A7B186D4E86B2A4411EB5888AFE818
:10338000D0E772ECAA5793E0F69F2545646FE0A161
:10339000CFBD04A62C627DB0894E7C2214971610F6
:1033A000003B00002F696D672F6C6F676F5F696E60
:1033B000666F312E67696600485454502F312E30A5
:1033C00020323030204F4B0D0A5365727665723AC9
:1033D000206C7749502F312E332E31202868747499
:1033E000703A2F2F736176616E6E61682E6E6F6E0C
:1033F000676E752E6F72672F70726F6A6563747374
:103400002F6C776970290D0A436F6E74656E742D89
:10341000747970653A20696D6167652F6769660D1B
:103420000A0D0A47494638396144015300C4000077
:1034300098B7DE89A8D11D98F1B9D1F7A5C5EDAA35
:10344000C9F2597AAEBAD5EF366CAC498BD50E4776
:10345000889BC3EE7295C203276A2B4E8A7BA3D347
:103460003278C8618ABDB3CFF7629EDFBDD7FEB0A8
:10347000CEEF3E659C1F60A88CB8E784B4E5B5D656
:10348000F794BCEF228ED77BAEE7BFD8F7BCD6F758
:1034900021F90400000000002C000000004401534A
:1034A000000005FF60278E64699E68AAAE6CEBBEC3
:1034B000702CAF595D7776AEEFF9ECFFC0A0704885
:1034C0002C1A8F48910EC76BEE92D0A8744AAD5A51
:1034D0007D4BA7D676ED4EB7E0B0784C2E9BCFE86B
:1034E000F40EC36667DAF0B81CAEAEDBEFF8BC7E54
:1034F000CFEFF7E36F7382727E85866383898A8B51
:103500008C8D8E8F909192939495969798999A9B83
:103510009C9D9E9F8D1B181BA2A3A3A2A4A7AAA932
:10352000ACA5A0AFB0B1B2B3B4B56CA4B8A7B8BBEA
:10353000BCBDB9B6C09CBBA6A6A8BABEC8B9C6CB0E
:10354000C5CDCCA8CBC9D2D3D4D5D6D7D8C7C90B73
:10355000DCDC1BDDE0E1E2E0D8E5E6E7E8E9EAEB08
:10356000ECEDEEEFEB71D2E1DFE3F6E2F0F9FAFB1E
:10357000FCFDFEFF0091D1BB47B05BC08308491939
:10358000AC57B0A1C35D0E238203C01083C48B1857
:10359000336ADCC8B1A3C78F20438AC448005FC820
:1035A000922353FFAA5CC9B2A54B90283B129829DD
:1035B000935B4C8D375FEA2498F35EC9983F1704FC
:1035C0001D2AB468D09D4893DA44192081D307118D
:1035D0001F388DD0A1DBCF9934B96198E07482C5D2
:1035E0007B1C26F42C4820EC5599636166C56993D1
:1035F0002CD6AB6FE3CA8DABB4AECE991920E8DD03
:103600000B41ECBD097CF766107A936682C01012FC
:10361000105E3A5380E30990234B9ECCD53107A12D
:103620005B296B9E4CB8E466CA8CDF2E78F059F2A9
:10363000E0B4F638084840732D38BA7363CFB54B01
:103640003B65019B79C3E2E8C0357181DF337F17A9
:10365000389C60C2EEDE195ABFD5EBF4B8DE02A288
:103660006F3B9E4EBDBA75CB33275CDF4E9D31F765
:10367000EB0930C025F0DD3A070CD0C7D3ED305D43
:103680003656E1C0E1CB9F4FDFBDFDFBF8F3EBDF2A
:10369000CFDF7D62AF392047007C04E4559C0EBD2E
:1036A0000D28DFFF617D7191016009C8572075AA5F
:1036B000716021851656381D07BF6190806AD565F7
:1036C0009861751D0447C087D78D589D580A9E087C
:1036D000628817561721817325301D37E9CD2521C2
:1036E0007D3CD6D7DF8F400629247EC201669C0927
:1036F0008041309F5E479670D803E909C7E4098787
:10370000CDA79D001C6C005D05BFBD38C18296C968
:10371000B7418C0970496006207E299C992F0AF0D8
:103720009B04BFD9481D94F3B5A965913216602654
:103730008F58AA36638F05C00967A0840A5AE8A18A
:10374000860E0AE8A28C36EAE8A390462A6105159F
:103750001CF619071028FA1B939B3D47E96F1D3093
:10376000A7D993F24D60A19AF08988AA701952EAFC
:103770006A012396F9AA9E046817167D285AA8A7FD
:1037800070127420A29B152C009FA919BE29DC98E9
:103790007D0AB0C19E7BFE86A6657FEAE9EAB4D4C5
:1037A000566BADFFAB905DABEDB6DC76EBEDB7E005
:1037B00086EBADA85C41561C8388897A6EB9E8A671
:1037C000CB9553F03A9518B5C44ECB2A04A7560BA7
:1037D0001807D57E6861991268DA6558010BCAA589
:1037E000AF16661AF0ABC4FEBB30B6192A396B05AA
:1037F0000DFB26C1B51FE26BE1C5E27E9BADB516A0
:103800003820F2C8018C2C720011981C01A5218B64
:103810006CC103943A1080AB279B2CF2CA2537D099
:103820008005045450F2C806F4CC8005AEA6BC3224
:1038300001298FDCF1D2CCC51B6FBA7B390D2FD497
:103840007A5D20B5BC174C406DC6D6F205F3C3C1F6
:10385000621A68C195E26B71B5121017F0A10F6082
:103860008A29D81C9B8DA9AB05B76DF6C20507AC9C
:1038700057AB1C934DA9DC9876B0B4B71F571B40CB
:10388000000F3410C1030F04D000E38813608003DD
:103890008C33D080011538F0F203063C5E81E715C9
:1038A00044A040FF0304301E32E30010A000E600F5
:1038B000685E41E2958B5CC1E4AE8E8EB9C80C3C6B
:1038C000104103838B4BDCD57BE5AD77D34E33C7FB
:1038D000A5041A488041D489357FD8051908CF40FE
:1038E0005F7E5720C1DE103C50FDF50A3F8C2EC094
:1038F000016B60FDC54D094EAD060FF0D537DE8179
:10390000B92ABE04E9073FFEB4ED2E9077051A8868
:103910001F6A600908EFFFFF00F41F640218B0C7B8
:10392000052C71C29B5CC118A0000938C00005B30A
:103930008005246040075AA001055360C0445730F9
:1039400000340000080C18013EA8C10788CC008E86
:1039500023C0C54248C016BA3060CB4B8CD48CB75C
:10396000B5A8FD6E2F18C0DFF8AE7701E2C90B01D4
:1039700012A354C1F227C4BC798D883B245BDE229C
:10398000708126AE0C6C42B49E1429253EF4F1657C
:103990007E3B6C97DFACB897F911316D5EB31618AA
:1039A000FBA2BEFF000EE08C6794001AD7C8C63594
:1039B00042868DFE6B400002E6B8043AA060757C3A
:1039C0006006EF284709004001750C980625600045
:1039D000CC150C90812C6000346801063C30918934
:1039E0007CA124F396BC80B54B5E7B51A1F016C040
:1039F0003FBE24A08A1238C00134D08126F6902F11
:103A00004D9C80F8BEE535E4E56F95D7129D021414
:103A1000B032BAF92F8975BB22B5D4D82E1D0A3120
:103A20007E7AE1D80ECBB6970E84F200F7D30B0363
:103A300038094408642079D63AE301CE5881014C14
:103A4000D39AD2CC263607F0C66B5A4B8E9472DCD2
:103A5000E10E373B07B88A760FA419E6E438000B6D
:103A6000A0907794A25DCC30A74EC7B92A85B41B2D
:103A70002101D2D9000684139EBDE3D6005EA901C0
:103A8000AA45CF7F03C8CB5E7AD84304B892885545
:103A90009C00434D994A514E120240BC40070620FB
:103AA0004959D2FFB28A485C40EAF2F7BFF49D520E
:103AB0009404C55F0218DABD5C3694A0161D40025E
:103AC000320A010080F495014080430BCAD008BC43
:103AD0000FA16B54631B877AC6370655787D948097
:103AE000E34C46C8D519E0820C70E00327F7410A81
:103AF000CEF183891CA41E39EAC07716B273109CDC
:103B0000DC0022608101E8D17223C3E024D74AC9D6
:103B100057B64B2F0410A55CE72A014E42C094080B
:103B200050254CE7AA81BC5014011D78E55C074B79
:103B3000580498320004D50061E7EA519F0E5603FD
:103B400006500000A898582B1A16028A155E05AA7E
:103B50008651C57E00A5E90322023430D09BDEF5F4
:103B6000AE08186565318AD9034894B5A35CAC6C7E
:103B7000673B58C8D0F6007214A5E3061BD942462D
:103B80000000A23CA101FC294A390EED00BB15E55D
:103B9000E4E4FAC0B93EF2728504EE01962BD90333
:103BA00034F700FF964359036ECBDDEE22D39AA281
:103BB000C4C0039E59D9C4A251032BD5AB28A57903
:103BC000800FB81799A1D44000C82B57F7DAF7BE79
:103BD000F8752F02660948FBB637BFEEADC0071A6D
:103BE000AB5AF1B9D701802C6FFE1E604A0878E00D
:103BF0009872AD00453F99D80034387F723DA66178
:103C00002F00449426D6B00F10E50228BA000D000C
:103C1000D8032846F10752CCE216B318322DCEAFA6
:103C20001CDDEB38FC4E2EBF0F9471C902F0811AD7
:103C3000BBF7C6EE75E77D1DC0001FDF7772263C1F
:103C4000B001DCBBBA1E3700C0508EB2943F8BDF90
:103C5000F6CA95029F952D7865AA51D2AEF100144F
:103C6000101E05C63CE532EF77961928B37D1B8BF5
:103C700061943230C104BD6F06F0EA4A51BA9789A7
:103C8000A65CC07FED6BE12622E003AFB42F834D2D
:103C900049DE0A3731AEA2BC6B131960E2FCC6D80C
:103CA000C5904EFF318C59AC631A3FF9C80EC0F174
:103CB00092F1AB380558DABE401E70A6ED8BD54B9D
:103CC00063BA914AFE80E5046C6435BBFABE609627
:103CD000F29EA7BCD200CCFABDFE95ED7B47E9EA87
:103CE00033F7D7D51EE5AFB0F96B53286300AF7635
:103CF000B6EFB14DE9D3FCF699C328956B01F67B7D
:103D000081D561D8C60AF8F39AF10AE547471AD275
:103D1000934E71A59D6CE3510F79D3F76D00913FE0
:103D2000FD63738F100077F674ABDB6DEA1C379977
:103D3000DCAFCE77994539E65BFBD7AD17E07195DF
:103D4000A1EC6F5CABD9D7025773B0872D6CC4362A
:103D50001ABF0150809F4DFCDF6773B8CD12B06F62
:103D600029277E5F005880BF13F4370566F980FB72
:103D70006E40010E68E2024E4CE96F837B0231E631
:103D8000B4C01DA7339D2DD2DCF6CD31A779C7EE87
:103D90000F845AD5EA4630BCE7EDF3CBE57CB83C5E
:103DA000C7B7BEFF979EEB824F99891D8075C1FDF5
:103DB0006DD150F69ABF6906367F518801006400C4
:103DC000841F4F3094FF88720E47E0EC1BF673356A
:103DD000F78ADCBF9E9D89C246403501FC80590AA6
:103DE00078C8FC6500CBC5ED7217875BC54C0FBC6E
:103DF000947D066FC11BFEF05297EB00B09CDFF67E
:103E0000427DB10F47FC7D7D5D7885F33702F9ADCA
:103E1000009AF95D5FF7927D96294FB9C4535EF21F
:103E2000285B58E228473D7F2927E5C85A207F476D
:103E3000E6EF050AACE0DA2B1832B6CFBD8225CF0B
:103E4000FBDEEB5B021960DC041E4000DB8F3203FB
:103E50000630E59728E074F72E609C0158F9D229C6
:103E6000FFEAC6E657031FAFBCB3F98B800D3040A5
:103E7000A708F86DE4015CB26A23602B4FB580F8A7
:103E800007CFF0F62BA0F8F8F576DF250D734AFB87
:103E9000FEFEF8C77F0618C095084CC0FF090760F2
:103EA000C9D744FF12D744A56770EEA5548CB380E0
:103EB000E4A46FBE967596374B98E76C114000519D
:103EC000960120775F81366518384BDAE65E8915F2
:103ED0006575E77EC3C60073E55EF2377F1EF07737
:103EE0001E907F2EF88282573AFC371945367E3F66
:103EF000D66055536D21766B0AB8800C3833F9467D
:103F00007D5A2781F9F65F9F670104276511E781D4
:103F10002778700A60018703000120858713591EE6
:103F2000E85FCC9782F3C78230D8855E58668DE310
:103F30008392C10016885F18C8617A61007AB16106
:103F400005906C9E973B3EE883C5767568567D97D5
:103F5000B76FF68553DCB781AEB684D9A66FAAA336
:103F6000007A4777C256017265625AD8775CF88545
:103F70008CD8881F4000881387A4310145965F1BA9
:103F800006016A884A0A70807C168992C8381947E7
:103F90008792658744386536E887A3B57B51F67903
:103FA000A3D579FF53F66688467BC9236C9CB8621B
:103FB0002DA78228B6888EB88B2F28859FE883F995
:103FC000556D54B33A8CE75E90E8899218006D28DD
:103FD0008A105866D62765190085F8C58AB0D68735
:103FE000DC5765CDF7011F8784839571A36485D95C
:103FF000067B28788BB8A88B1F603241635F99835A
:104000006E3DE6000D2088EDE632011832F6E548F7
:10401000262368EED864AD63330C305CA0A677FE2F
:10402000D86E00D03A82C6331F6042EFB869FBA851
:1040300039833865C8988CB6865FB314189908011F
:10404000E158603EF3903E3885AF268411484B53CB
:10405000165926D871DC578CAF7684D9885F8118C1
:1040600001B1F65E6D3682B35486E3C877B8B88284
:10407000F5276EA41601877341778790F635427A4B
:10408000E738F0A6395538631FF03932D36ED0E7E0
:104090007933E638FEB493321300FB846E39A6738D
:1040A000AA2347FF3EF6397AE7413CE6944E76383C
:1040B00096D390ABA8913F985F1EC85A6B8851C4A5
:1040C0003857C7F88B8D73774E384B18E08A5146B6
:1040D0006051168801D06FA2D4817F286BE4277BC2
:1040E000F9264B19D07C9A9777BA77981A807B0A71
:1040F0002647F963568CA68D29F300269632B057D1
:10410000959B36004FE55E8E5448ED965F12548FB6
:104110009EB662A1A673E7B86439E6014F8595970C
:10412000A6394186849A296FA6F6735006896EC90E
:1041300091F8456D88917C0A3001B7364EBF0884EE
:1041400049887775B86B00D668E0C88EF96585C474
:10415000A96A19E85F0046979FE769AA956C7CA554
:10416000581A80600A903FCC0779BE867389E8723E
:10417000E66894A5C964009099385672A40964EA67
:1041800097643E877307768023046AE6469A96C949
:10419000642374384F963277C77AC6F86446669EB1
:1041A000B27638FF9F783832A96C6789896B384BB3
:1041B000A1D87164893AAF5698126883EA785F6132
:1041C000877286B85823F87A6D76001EE50014973A
:1041D000925946016F364B2BE76171765FB2F481DD
:1041E0008D274AC18658603666301AA3323AA363D7
:1041F0000619343A6672346614F40014E041035030
:104200007731EA3340469F4BE6011F5400A4D39E0A
:10421000044A6A016894A1263A8D5332A6B96449CA
:10422000A69A1E5479E2F901AA0996A358666D1957
:1042300087532858B12771A2556D9B684DE2789439
:10424000D007A60B1A6507E033158A720F60537CFE
:10425000785F18B07050385F5E07765BD7660500F0
:1042600093B3844280565E1E90587F3A6C5048014A
:104270000A264A00106C649858CCF70103100071AC
:10428000EA00158898B50719835A593B53482837CF
:10429000506475941F34A8ADF38405708E53E58E79
:1042A00016E841FF2DB86E9D2332EA266059EAA434
:1042B000389734EE68001EF0401E806AAAE98E0D21
:1042C00039ABF86932703965C7087DB609650B47A7
:1042D0007251E633510A7DC31A65247887F8857DCB
:1042E000D11AAD92993FD59A9D2FDA848096AD0A66
:1042F00016A7C2A6A173E587EDA7A1981A678A59E8
:104300005E9D3A5CAF449411E753AF3400998384C7
:10431000C2E54F4A59324808649A8779C02A9ADE22
:10432000D982B93AA57FE45EAAF9324907AC46F6CC
:10433000992729850359A005877CD59635A74AACCE
:104340000C2B951D097E12047EE0B783F815011A27
:104350008B0016F0B1203BB21A1B8B3A15B2220B20
:10436000B29EF59C1A70B2290BB291DAB11A8BB2D7
:1043700008600026F9011E07B2347BB211F09DDF00
:10438000169E0128AA23837207997011379EF8851B
:104390006069D59EF2F901BF46B065289B47579AE0
:1043A0009CA9A5FFF8996A4EDBA490686A44177827
:1043B0006EB86B1CAA0073F9B5BD278B8905A208DE
:1043C00038655696658395878DC9740536005156B4
:1043D0005E28956F3E1B69408B5F75C7674F166AF5
:1043E00035469AEE85A465F839E5696E9929643DEC
:1043F00027B5A9F640496AB53E9642DA886E356619
:10440000645D6B7805C66BA293011EA0A8269AA6D0
:1044100087778874D97430D8B6D5B89CC1D97882DA
:1044200065B61B2AA65237932A5693361973041B76
:10443000B40A2BAAF859789F09B840776E40E695E0
:104440000C7477B5ABB8E3E9324C9AB099F6BBADD2
:10445000896F1550BBF7976CA2035C5E389D680BA3
:104460006BD61979D34B654DB758BC98B6F775B76D
:104470002F27BB562B9113986AAF1AAB486B5FCCB2
:104480003B399DA333F756744A0B97C25B95E2A95B
:104490009A3F3963AF6AA14E567344E385A2830104
:1044A000B5E782FF0FF7AC9C6767F843BAA324B760
:1044B0008D77BA2B2A75A92B72CCB7A1B1355BECDD
:1044C00055651E3050F6E5BD7E779380C77484E74E
:1044D0007B9058A02EF8C1BCA8588EA70083F99CE9
:1044E000BC17BA55766D211AA960C6BA6A46C29D34
:1044F0004BB6839A5FDB7988C67782B6E797B64872
:1045000093E5A8C12DB8BD42DCBCF7D5339595C065
:104510009F253A1B85C05E0AC2CF294A9098011B8D
:1045200010B3FC16B360DBC0244CC2929A3F03F96F
:1045300001355059A5A3B681CB060B20B7677BB3D5
:10454000BBB6B280E6747B060018905FDCE0613D8C
:10455000FCBA35698E437CC78857AC51F8ACF85526
:1045600000BA394B172099759B795418854EEC5F2A
:104570000BF0713A25711BF05F67B6C812F7001B8C
:1045800070661C667E1A0000667A017AF6661AC0AA
:10459000401C866086158E946C7EDA273A8B7C01EF
:1045A000D2C500FF990C5C30D97D04D65EFC35A7DE
:1045B00094FC00034076FE4B5017809C18DC62761A
:1045C0008CC7BEBC74856CAC7CEC79663A6C2AAA4C
:1045D00092C63A4E871C6F25760064577CF9E3B18A
:1045E0009FB55F69D65ED5F64AD27C941247448265
:1045F00038971E2B4AFB7594DF374AFBA5671DB819
:104600008C50DA5E64B7019FA501B3D486F91371AB
:1046100008B09D1DF051A32498245C6D7757B38397
:1046200059600BB0CDAA7BAEF993AE02FDBFBFBC03
:10463000BD5408A68743B61290C96B68A68E457B09
:104640005FBA91160B6067575F75876EDF7C00D489
:104650004C65FBF54A4843667DF900AD48010810FA
:1046600091FB0566D3A65FA1E97382780018080163
:10467000F75577AEF9011FFD4A316D5F188879D87B
:10468000BA5F9577D3AAC3C76F1691AE0BB0750CFE
:10469000C4079DD40F2AA0BFA87DF1966D68A99686
:1046A0000AA067FFBC46634CADD0670B66151DB80A
:1046B000B3F45E11B0693EBD5E1F4D7BA3148E1A2C
:1046C00010C88C175B36ADADF595D2F1C69291E569
:1046D000A28A55986538D68C0A929F8501B424B772
:1046E0001E9B0026FC4A290D59F09ABAB9AC00323B
:1046F0007DC1E4A882BDACD48C3D8D57ADD0C1281E
:1047000071E9526D2C795F19599BC3CCB628556D50
:10471000746A00F0BA5F6FCCD2AFA4AD4C965AA1C8
:10472000DA786EDDCE1CDDD2915572D506C2FB550E
:104730007AE16CA01308D31F55000E80013EFD5E88
:10474000295D77C31A5E9946B49F75A3C43DA3360D
:104750007AA312704197436693633200898EE758BB
:1047600078FB64AB23C300F6C890F898909AC98E82
:104770000E3090E6D63A4B16909019DD39E79E86BA
:10478000F7D8902D91509D96A265D6AF74D9BFE908
:10479000C42FCA61E087668A157E2CFDD3D916CA5C
:1047A0008A8AADFFA877AD6ABCD65536DB7F740127
:1047B0006DD8D57365D278BD5F1A4BD97C06921E31
:1047C000DBB2266C5FD4B69B0F4C505F2DE195E7B2
:1047D0005DB2655BB2A5390400DEC195A7526A5D82
:1047E000240E5C46E93A5049A093039646C7954E7D
:1047F000F6DCE976B54146B43A3739A76A940C64D9
:104800006A8887DE606A96868DA069A8171709D224
:104810003E2E87D489A23A39909CED5E810CCE263B
:104820006C673E7DA70AB06712574AD55558557E2A
:104830009B64CAC8B0AC00178A5291F5D9266C03A4
:104840000C847960A6D711200162BBD659B7DA98DB
:10485000FC6BFF750001873E783DC746FDC3B22B58
:10486000B8AF89B5C38B9CF66B4E4DDB99EEB5B7EF
:10487000B5CB404C5BBC97F6393796634239BB4A9F
:10488000C6E387E78BBF19B41F607ECD94E9FB9523
:1048900000B306DFBF38B165566D2BA73A02B75F8C
:1048A0000937DBFF36FD5FEE9C5A0C945A5FFBD153
:1048B0005CCEB06C3B4B41AB832CCD79EFDADFEFB4
:1048C0001AE112DECF02AE3A1790BAD12971D6D4CE
:1048D000DF053DD07A55590B600004D50003F54043
:1048E000ED3AA580C6A4578A69834E6EFCF9887D8F
:1048F0008B73F4AB6AEE9469E9048F904EEA926E82
:1049000078AF53E94EEDD2A71418D5666BB3E69B8A
:10491000032AA136D5C65DCD9CAFD4EE18566D7B6B
:104920006665AB5ED65D7A5FD79C5801AFC6FBC5A6
:10493000921AB09DA26ECD2DDD63B464671117D7B6
:104940004EFEB4FA7E001F37923F6601282574F9A7
:10495000E30107C0F11CDFF120EFF1211FF2B625C2
:10496000F2844585B9755DD6650026AECCB8654242
:10497000E34BE889CEB4C0DAE2E3D4ED32D3E8E920
:1049800037E398F94EBE07EF60CAC781B8EE6AC830
:10499000E00036D11B09BD6EAB0146076AAB23B7F9
:1049A000288761FF0806E0D5F6597CED9AC2BD3B29
:1049B000C77C8E0B1FF1163D4B32FC47E656F5EFD8
:1049C00025CF723582A3665D9BC85C557E00232887
:1049D00058771E59AE2EA3075FDC327ADC305A5965
:1049E000CDCD980FD4DF7DAFB4B8A3A5EE58D332A8
:1049F000DF5BA95972351F74B07AB57F8499E09E48
:104A00008F4C3C63A453B981E7E93E087FF93582B6
:104A10006818CA0E400068F4EE3EEED41DFF012374
:104A20000748BA159314203A1358FAA5E7CE1F0485
:104A3000C5D97600489A9D1A7095B51893CEE98E1F
:104A40003C6AECF98360AE799DA65F5C3CCE401E6B
:104A50003A4A96F338FFA5FBA34D3A5FCEEC1CCA49
:104A6000FC72EB41EFA701BBFC62480D653346A425
:104A7000E74BB0DD9DA5A166F81508E94CFA73F483
:104A80008B6A8DFE41A4695C4848F98297CCCAC8FC
:104A9000AD3A5DCC1379A16DC6A0C69AEE59265FDA
:104AA000A37301FFD80902C01735CA777C4A531A8D
:104AB000915A2AAAC204B21268866A7DE3ABF03E1C
:104AC000B515F0603C683E0447C9127B188731C3B6
:104AD000C749D45860BD14D130647D18C46C2970A6
:104AE000B2193C6AF567ED7EBB2793F736D0D87EC6
:104AF0001A848F83DAEBF3F96D35981938E0196E63
:104B000025E2A5980D122CF610DA5534547C2402B7
:104B1000524A063898D931868A8E32561000005C87
:104B200092E20144443CECAD6E9D0210A8CA32589A
:104B300058E06868045800F46A301033A016233334
:104B4000681020C702D0F43E17F3324F27850218B1
:104B50005828CF220707303C10FB123B8615D77A26
:104B6000F7543F8833C47AD3C1CDAFC9D10D8A0879
:104B7000DDF13D6C0102E221F4A1120345877A4484
:104B8000DA624110A884931A440892C98F832010D6
:104B90004DE893A571A346231C3F6EF40872D5918E
:104BA000922547FFF61026EB640F14A184C18C29CF
:104BB00073A60679F4E6D9738307A0AE810DF205DA
:104BC0000A1AD0910B559112F660A040554F8701FB
:104BD000EC388835B107809F791C14CC88722BD7AC
:104BE000AE5E6F790D7B4224239721BD9AED61F370
:104BF000E69B9C6B58297010B782D2207FA8305951
:104C0000D1E090C01E0AFC1C3DC8C8C0DEB99804A3
:104C1000E779BAD7A0D02A7C2DF500257632E5CAEF
:104C20005B625ACEAC79D45AB6F5E6E86414201F1C
:104C300001739B19958E757A35EBAE645B8B5209C7
:104C40009B234DD98C3A7BF6E096CDECDEBE7F03FC
:104C50000F959635CBADC5BDE2CE0D2738F3E6CE28
:104C60009F43B79C5C79E8E8D6AF63CFCE7C3A75BA
:104C7000DEDABF830F2F1E25F7EEE3CFA34F2FBE43
:104C80003C75F5EEDFC307CE5E79FCFAF6EF4F9E7A
:104C90009F1B3FFFFEFE49E9E7D97F0312885F8033
:104CA0006C159854A082E91D78D382AB7110A18451
:104CB000135258A185176298A1861B72D8A1871F2D
:104CC0008218A288239258A28927A298A28A2BB27E
:104CD000D8A28B2FC218A38C33D258A38D37E29859
:104CE000A38E3BF2D8A38F3226206190110EC941CA
:104CF0009145FE98E4872100003B00002F696D6715
:104D00002F6C6F676F322E676966000048545450ED
:104D10002F312E3020323030204F4B0D0A53657228
:104D20007665723A206C7749502F312E332E312020
:104D300028687474703A2F2F736176616E6E6168A3
:104D40002E6E6F6E676E752E6F72672F70726F6A40
:104D5000656374732F6C776970290D0A436F6E74E5
:104D6000656E742D747970653A20696D6167652F81
:104D70006769660D0A0D0A4749463839616D007149
:104D800000E60000012367609CE2C8DEF96A89B88A
:104D90006DA4E59DC2F24D91DC7595C5456CA98762
:104DA000A7CCAACBEC8EB9EC7CADE8A6C8F26A928F
:104DB000C9CEE0F88BA9D1658DC7B1CEF446659C0C
:104DC000A8CAF1C2D9F8BCD5F3B6D5F59DC3EE9605
:104DD000B4DA5696DEB9D2F57DB0E995BDEE183855
:104DE00078B9D6F6C5DDF55A98E181ADEABCD5F9BA
:104DF0003959932D4D8AA5C9EE4A8FDCBCD8FB7773
:104E0000A1DAB5D5F132508AA4C7F0A8C9F572A8C5
:104E1000E65092DDB8D2F193BBEE7AACE7BCD4F6A3
:104E2000ABCBF94A70ABB5D2F5B1D0F6A3BEE52352
:104E3000438384B3E9B5D2F15294DEB9D6F41E4768
:104E400085B8D5FCBDD9F0CFE1F9B2D1F2ADCEF441
:104E5000BED9F6C0D7F62E508BB9D8F569A2E29A22
:104E6000BBE225498AA2C2E4488DDB4F79B6B6D8A9
:104E7000F35F7CB08BABD90B2C71A9C7F3739AD7B6
:104E800083B3E56AA4E4CAE0F991B5E5BED2F5B210
:104E9000D4F67CA5E196BFED5C86C28EB7EFB9D89B
:104EA000F1ABC5EA87B5ECB2D5F0BAD5EFBCD3F318
:104EB0003C6098ADCFEDA9C5E23A62A10F367531DD
:104EC0004E90ABCAE668A1E4A1C3F091ABCD2F58D8
:104ED00096A1C4F85978AE8BB5E798B4E2468DDC5C
:104EE000BAD4F5B8D5F5438ADA4189DB478BDCB80B
:104EF000D5F76CA3E46CA3E365A0E4BAD5F3BBD506
:104F0000F6BBD6F421F90400000000002C000000DC
:104F1000006D0071000007FF802F828206858527C3
:104F20004C76778B8C8D8E8F909192939495968EF4
:104F3000832F8627069C4C8997A1A2A3A4A18386D0
:104F40009D9D27AB738AA5AFB0B194A7A99CABACCC
:104F500076B9B2BBBCAF3C849BAAB7ADB9C5C6BDE0
:104F6000C8C98C2FBF9A87B5B79FC6D3D4D5D6D71B
:104F7000D8D9DADBD5CDB4CFB688DCE3E4E5E6DA20
:104F80003CDE999AB6A9789FF09F78F3F4F5F6F78E
:104F9000F8F9FAFBFCFDF71AE9BC7943652B1E937F
:104FA00039730C2A5CC8B0A1C3871023C2D3003068
:104FB000E02F75043B7DBAC5B1A3C78F20438A1C7F
:104FC000499224458A16D30952E7ACA4CB973063A3
:104FD000BA3C4933653395BF6AE96CC773A7CF9E66
:104FE000407F0A0D4A74A881103493A2B4C82C27BC
:104FF000AAA750A34A9D4AB5AAD5AB85426845AA3F
:105000005469C07560C38A1D4BB6ACD9B362030442
:10501000D8CAB66B529568FFE3CA9D4B77DD5AB587
:105020006BB752D4EAB6A2CDBF80030B1E4CB8704A
:1050300060BC7711AB65CB986FDFC790234B9E4C5C
:105040005983E2BB2112E36DECB8B2E7CFA025F3A0
:10505000B97C397366D27939AB5ECDBAB5EBD7AED0
:1050600047CB0E301BB5EDDBB873EBDECD9B349F29
:10507000DFB383D31E5EBBB7F1E3C88DAF5903BC6A
:1050800039F1E7C247279F4E3D3992EBD8976B67BE
:10509000DEDC7974E8E0BF8B0F4F7EBCF9F2B4AB75
:1050A000A8578F1DC9F6F76B90F069DFBDBEFDFBF9
:1050B000F8F3EBDFCF1F3881FFFFED2120017AE805
:1050C0002160817BB4A7A082F3C5B7E08310462896
:1050D000E184144A381F012E60A82180197608E067
:1050E0008700AE27E288249668E28928A6A8E2898C
:1050F0002EB4E8E2861A6608E28C34D668E38D386E
:10510000E6A8A38E2EF6E8E38F3F62D8628C447A3D
:10511000686491481EA964FF924C2EE9A48632442B
:10512000192590545669E5955866A9E5963E4AE9D1
:10513000E5975C8629E6986402C9C09967CA80A68B
:105140009468B6E9A69B5FC629E79C74D669E79D7B
:1051500077BEA9E79E7BE2E9E79F8006FAA50E3AB3
:1051600070C081082218CAC19987EA20C3A2892E7B
:10517000CA80A4229C1969A593AA0969A5924ECA5E
:1051800000A2681A8AA9A4901AFAE8A794322043C8
:10519000A28C2AEAEAABB0C6AA28186428E18312D6
:1051A00039F8E08303B6EAEAC3144DF8AA44133A87
:1051B000887086AD4AB811C1A24A38A003033AE804
:1051C000EA80AFBE12EB401A0044E186163A4C5B0F
:1051D000AD161C347186A5C112AB450DD442CBA9C6
:1051E000ACECB60BC614114400400DF1CA1B810390
:1051F000F16A818007F83611050260F8A06C040896
:105200000010810E0617DB041A0068C145046E7891
:10521000106F0A5AA08180FF0E297840820EF64650
:10522000C085073EE88040C854E88086C56080CCD1
:1052300005173500F02C18547050E8CC32D74CF3D9
:10524000CD36DB0CC6CE6018BCB3BC84120A060295
:105250004A50B1331768E890C3C560E870861B3DBB
:105260003BB0B30F67B84CE8C8422F1C740A00A4C7
:10527000E080D56088D035D65444E08112087CCDDA
:105280002D18F2EEAC43D341C72DF7DC7413BA40AE
:105290001C7144BDF3D75DE49D37D16E7F1D30C0D6
:1052A0006F8FDC730460542CF80222FB00C6DF67AA
:1052B000F00C061AF1029037A106631D871B5CF8FB
:1052C00090B6E54D0BFEB8E4A4976EBAE90BA41EA8
:1052D000F5DD5FDFEB80030B8CDCC5ECFB76E17961
:1052E0001760749143E400487D06BD00EC1CBBE3ED
:1052F000712C703BE360A02D7A175F3330F2020C03
:10530000442182E76044D144DE82C7813BDEDC7702
:10531000EFFDF7E083B140FF0CE3F79EFAD7BD2A1B
:10532000D1450D68D48000090677A104DA2347A18E
:10533000C502004C1187FD7CA74E741C318803DA2E
:105340008A1783182CED6B35A8C119A27086183CFA
:10535000AF0964301E0216C085289CCD0300489D0D
:105360000637C8C10E7A908305245FEF0AF8B50EA0
:1053700084D08116AB4113EE17035B21A0065C10AD
:1053800041EA7AC70512300F00E45B00BA3A303EBA
:10539000CF1530754AA8C1D75E888029908F680BD9
:1053A00040831662E0831A2CE00A4F8882039A80B9
:1053B000C3D4E5F08358C4E216B660C2116EE16B47
:1053C00031D8420C4C58032574C084635C40103BB8
:1053D00070853116B077FCEAC0D7C4D88132869088
:1053E00004350861077CC005309E3006658C800F4F
:1053F000C4184431B64F8E00D8C202C4F8C7463A2A
:10540000F29105DC6207B690BF494E0100933CE380
:1054100016CA68C22D8EB1FF899AE46107000007A1
:105420003470F19263ACA30F320987128C4F8C5DFC
:105430003B0026E97846A2712E8C418C4105E3F0B1
:10544000C5444E3295670CA63087494C626E010305
:10545000C7EC5D017A79460C4CB28C5BDCA2330B55
:1054600029C92D14000039E00217E7F84C25441330
:105470000A0D3B63297B19CD5FC2C103A69C642141
:105480000FB9055946F39DF08CA73CE589817A62F6
:10549000000007280006BE06807EE60F9AC8446614
:1054A000014A5083635A339951B802060AE04E64A8
:1054B0000274A151C4950752C0864B1A740B6CD864
:1054C000E4BC02EA03380C20A1C79465400D3AD22F
:1054D0009292F4A4260DA83DDF604F7DDAF398196F
:1054E0002D4001D8504F6BCEB4A6F594294E595A91
:1054F000D39B1E13035738400A3090D185D693A60C
:10550000C794A94B756A4D9C2ED39E508DAA54A763
:105510002A5536B0800D58FFCD2A51698A0116D41C
:10552000B30152F5EA51AD1AD5ABDEB4AB18ED2A92
:10553000568FEA55AE9615AA5CC52A58698A55B1A8
:105540001E95A878A56B5EF7AAD7BE5EF5AF2CB8FE
:105550002A59C51A58A206D6AA80FD2B4D156BD51F
:10556000C602B6AE18006B01BCCA82372856AD75AC
:10557000752C5D297BD8C72AF6B39A05AD681BC088
:105580008606049605A60DAC6949DB80379800B500
:10559000AA2DED6949DB02D89EF6B5A82D6D695795
:1055A0001B581358F5B5A6B56A6A5BD080D536D6B8
:1055B00004962D2E0B5E2BDBD33AF7B9D08DEE6916
:1055C00029D0000AB04001C5358114AC5B5B13B42F
:1055D000C004C5FDAE0250EB5DEA52C0BB26C02E32
:1055E00005B6ABDDF312F7BCD635817CAD6BDEF9C9
:1055F0006657BEC4AD6E75C1CB82EF7E17B5DFCDE9
:10560000AE6929D00205D097053430010514205F1A
:1056100005B7A0B60AD86DFF71AB4B5D1A1038C143
:1056200014C8B086334C832170B8050B7E308635A4
:105630004C03106F78085230310D68208512B7780E
:10564000BB2D1E31052CACE00C53D8C20D6070860A
:105650003D3C841C1338C30AB03005504C83068887
:1056600038C3203641823DBC61240FC10437482F26
:105670008F91BC602753A00C06AEB287834CE00626
:1056800094A1C43D1E320D14D0E3210C81CC43966D
:105690004219326C82352FB8016776338F416CE145
:1056A00032D0B9BA1656808A854C661067D9C36362
:1056B00026F38A874CE82194A104253042109340B8
:1056C00001090C61090425B3871390030048CCD06D
:1056D00035407409C8900033DF4001132881816F81
:1056E00030004DAFA0041DA6C1012AED01382800ED
:1056F0000A9AD674048438840ED3BA0603A0C00D67
:1057000028906928C0DAD14338000992106C56C33A
:10571000C1D0B04634091CFF70E52B9BF9D943007A
:10572000C0131290001244810D1228C3014A008058
:1057300021DC40024988C200CA9000004041022595
:105740009800B5E1D0B0320C810551C841026E30ED
:105750000438C89BDAF32E03383B9D802844A00010
:10576000D426C3BD93500238EC5A0805A741C11D89
:105770009D040C521B008E5E021A0630840C002021
:1057800001124881BF29506E6A7FD40137F834B4C2
:105790002570838BD380DE393840B627C085940FBF
:1057A00041025C2801C987A0842748C00806777495
:1057B0000D26B0833238008F0878391C56F0726F8E
:1057C0004B4002139840198E3E000FBC5C02AD3472
:1057D0007AC1CB700384C3C1EA248743CB12C0359E
:1057E00009205CE9379800196820040934FD06E5B2
:1057F00006F6134A30042194FDE824A7C1C5DD8EC6
:10580000F51B78A00D09AC3AC9CB608321A43C0CF0
:1058100005BFC10E86B0F6FFAA4F6000ABCE42199D
:10582000D62E841FF0DDD12B38800D60006E005421
:10583000FD067048C3CB37B00283D3BBF35928B8F9
:10584000DB3D90848BA7BDE56CD8C10DD27000C53F
:105850000BA1F43428B710B220849D2B3EE4B8B7D6
:1058600041180000811DEC400A5138401D3210855E
:105870003024C00312D881106C6086043C2107617B
:10588000B041E07710FA1AC0600751C88009009053
:10589000843ED81B020958C2ECB370F11FD8C00671
:1058A000E49F37E64B90051BECE063074800047269
:1058B000F004ABDFE0002B28B9FC0140FC36FCC053
:1058C000F717B703307003E9576E1000010EE001BF
:1058D00019B07C3B707E0EB8030030014F704E391A
:1058E00070013B30002400035F00004B707E30905D
:1058F0000125E00113200530806813B80251B0047F
:1059000061407C3060033930004E0007519006251D
:10591000100525F0051098FF0036B001E87771E713
:10592000B77617E07E2A506A259006510007D20705
:105930000775400207B001BC576E39204593477E7A
:1059400010807E8D777110000088960325A0063B9D
:10595000E880E7770179108170F0040780026270B7
:1059600001E976801E300030F00362B0013F400153
:1059700046300125680413780052A00217F07C0716
:1059800048022460034FB00262300643D08617C03D
:105990007B1B30023DA002BC77017D58022A3002F9
:1059A00075A0023FA0024E90072BF0043B90064FDB
:1059B00080031E200416F08411780051A000167098
:1059C000048A7801472006BC97857560013690747B
:1059D00036D0889008897560031747071FD00736AF
:1059E00050040A000046B0022BA0311570001000D0
:1059F0000345000310E00179808742D00723200689
:105A0000D298034A408351A8024F6004619007591D
:105A100030741FE00110E0FF071B20064E00003825
:105A200050073D90797500037DF0078B5807625051
:105A30007074B089350007793002AF080017500440
:105A40009B088FE228063B0803E898857970013DA2
:105A500000015130021BB00175F09075F0073DC098
:105A60007B0C69017F400707E00128F00361608A31
:105A700079F00469D003583002FD36026900075EF0
:105A800040048B6801C1A88240108C72308823804A
:105A9000051F49021740024F50071FF0010A490431
:105AA0007DA08D25F0031609032340077F20069D66
:105AB00037029B1805663003AE788000D003CCC84F
:105AC000814780938C48070AF903594807337004CB
:105AD0000A498D3FF0076229966308012380863DBD
