:020000040800F2
:1001880080B483B000AF03463960FB7197F907303C
:10019800002B10DA4FF46D43CEF20003FA7902F027
:1001A8000F02A2F104013A68D2B24FEA0212D2B2A7
:1001B8005B181A760DE04FF46143CEF2000397F90D
:1001C80007103A68D2B24FEA0212D2B25B1883F82B
:1001D800002307F10C07BD4680BC704780B582B08C
:1001E80000AF78607A686FF07F439A4202D94FF087
:1001F80001031FE04EF21003CEF200037A6822F0EA
:100208007F4202F1FF325A604FF0FF304FF00F018A
:10021800FFF7B6FF4EF21003CEF200034FF00002D4
:100228009A604EF21003CEF200034FF007021A60F4
:100238004FF00003184607F10807BD4680BD00BF10
:10024800B0B588B000AF00F00FF94FF004004FF0E0
:10025800010109F063FE4FF400537B614FF0010385
:100268003B764FF00003BB764FF00003FB764FF070
:1002780002037B7607F114034FF40060C4F2020016
:10028800194607F00DFC4FF40060C4F202004FF469
:10029800005107F055FD4FF0000000F005FE00F09A
:1002A80051FD4FF40050C4F2010001F00FFC00F0C2
:1002B80011FD00F0C9FC07F10403184609F0DAFC47
:1002C800BA6844F6D353C1F26203A3FB02134FEAA0
:1002D80093131846FFF782FF40F65043C2F200031B
:1002E8004FF416521A6040F65043C2F200034FF022
:1002F80000029A8040F65043C2F200034FF0000219
:10030800DA8040F65043C2F200034FF000021A812F
:1003180040F65043C2F200034FF000029A8140F6C3
:100328005043C2F200034FF00C025A8100F0B8FFAC
:100338004FF0000040F65041C2F2000100F042FECA
:100348004FF49040C4F2000040F225514FF00102F2
:100358000EF0DEFF4FF49040C4F2000040F2277127
:100368004FF001020EF0D4FF40F65032C2F2000204
:1003780044F65433C0F6010314461D460FCD0FC48E
:1003880095E8070003C4228040F65030C2F200000E
:100398004FF0190101F024F84FF47A7000F07CF85E
:1003A8004FF0000000F0EAFD40F64C33C2F20003C3
:1003B8001B684FEA131318460FF09EFA02460B46C5
:1003C8001046194622A3D3E900230FF00BFB02467F
:1003D8000B461046194620A3D3E900230FF04EF927
:1003E80002460B46104619461DA3D3E900230FF019
:1003F80023FC02460B46104619464FF000024FF008
:10040800804303F564130FF03BF902460B46104690
:1004180019460FF0F9FC0346FB61F8690FF08EFAF4
:1004280002460B4640F65030C2F2000044F67031E6
:10043800C0F601010FF0AAFD034640F65030C2F2A3
:100448000000194600F0CCFFA6E700BFAFF300801C
:100458006666666666664A3F52B81E85EB51E83F97
:100468007B14AE47E17A643F80B582B000AF4FF0AD
:1004780027033B714FF000037B714FF00003BB7102
:100488004FF00103FB7107F10403184600F0D6FF93
:1004980007F10807BD4680BD80B483B000AF78601F
:1004A8007A6840F6F403C2F200031A6000BF40F60F
:1004B800F403C2F200031B68002BF8D107F10C0704
:1004C800BD4680BC704700BF80B400AF40F6F4035F
:1004D800C2F200031B68002B0BD040F6F403C2F2F3
:1004E80000031B6803F1FF3240F6F403C2F2000375
:1004F8001A60BD4680BC70474FF00004EFF30984D2
:100508002046704723461846034683F309887047F8
:100518004FF00004EFF3088420467047234618463E
:10052800034683F30888704790B482B000AF4FF059
:1005380000037B60EFF312847C607B68184607F148
:100548000807BD4690BC704780B483B000AF7860A0
:100558007B6883F3118807F10C07BD4680BC7047A0
:1005680090B482B000AF4FF000037B60EFF31084CB
:100578007C607B68184607F10807BD4690BC704749
:1005880080B483B000AF78607B6883F3108807F18C
:100598000C07BD4680BC704790B482B000AF4FF0E6
:1005A80000037B60EFF313847C607B68184607F1D7
:1005B8000807BD4690BC704780B483B000AF786030
:1005C8007B6883F3138807F10C07BD4680BC70472E
:1005D80090B482B000AF4FF000037B60EFF3148457
:1005E8007C607B68184607F10807BD4690BC7047D9
:1005F80080B483B000AF78607B6883F3148807F118
:100608000C07BD4680BC704790B484B000AF7860DA
:100618004FF00003FB607B681CBAFC60FB6818465F
:1006280007F11007BD4690BC704700BF90B484B076
:1006380000AF0346FB804FF00003FB60FB885CBA09
:10064800FC60FB68184607F11007BD4690BC704770
:1006580090B484B000AF0346FB804FF00003FB600A
:10066800FB88DCBAFC60FB68184607F11007BD463A
:1006780090BC704790B484B000AF78604FF000032E
:10068800FB607B6893FAA3F4FC60FB68184607F1EB
:100698001007BD4690BC704790B484B000AF786036
:1006A8004FF00003FB737B68D3E84F4FFC73FB7B71
:1006B800184607F11007BD4690BC704790B484B047
:1006C80000AF78604FF00003FB817B68D3E85F4F91
:1006D800FC81FB89184607F11007BD4690BC70479E
:1006E80090B484B000AF78604FF00003FB607B6883
:1006F80053E8004FFC60FB68184607F11007BD4639
:1007080090BC704790B484B000AF03463960FB7169
:100718004FF00003FB603B68FA79C3E8442FFC60A4
:10072800FB68184607F11007BD4690BC704700BF2C
:1007380090B484B000AF03463960FB804FF00003EB
:10074800FB603B68FA88C3E8542FFC60FB681846D6
:1007580007F11007BD4690BC704700BF90B484B045
:1007680000AF786039604FF00003FB603B687A683F
:1007780043E80024FC60FB68184607F11007BD46F3
:1007880090BC7047844D010800000020F408002048
:10079800F4080020A00C002080B584B000AFF860F9
:1007A800B9607A603B600FF07FFB03464FF016029A
:1007B8001A604FF0FF33184607F11007BD4680BD99
:1007C80080B485B000AFF860B9607A603B604FF0E4
:1007D8000003184607F11407BD4680BC704700BFE8
:1007E80080B485B000AFF860B9607A603B603B6860
:1007F800184607F11407BD4680BC704780B483B023
:1008080000AF786039604FF00003184607F10C0715
:10081800BD4680BC704700BF80B584B000AF78602B
:10082800396040F6F803C2F200031B68002B08D1B8
:1008380040F6F803C2F2000340F6A042C2F20002FA
:100848001A6040F6F803C2F200031B68FB6040F62A
:10085800F803C2F200031A683B68D2186B469A4242
:1008680008D90FF021FB03464FF00C021A604FF035
:10087800FF330CE040F6F803C2F200031A683B6845
:10088800D21840F6F803C2F200031A60FB68184653
:1008980007F11007BD4680BD80B584B000AFF86091
:1008A800B9607A607B681A464FF03C0310464FF0F7
:1008B80000011A460FF0FEFA7B684FF400525A60A6
:1008C8004FF00003184607F11007BD4680BD00BF72
:1008D80080B483B000AF786039604FF001031846E8
:1008E80007F10C07BD4680BC704700BF80B500AF5C
:1008F8004FF46053C4F202034FF46052C4F2020290
:10090800126842F001021A604FF46053C4F2020305
:100918004FF000029A604FF46053C4F202034FF4A0
:100928006052C4F20202126822F0847222F4803209
:100938001A604FF46053C4F2020343F21002C2F289
:1009480000425A604FF46053C4F202034FF46052FD
:10095800C4F20202126822F480221A604FF4605333
:10096800C4F202034FF00002DA6000F0C3F84FF45B
:100978006D43CEF200034FF000629A6080BD00BF65
:1009880080B487B000AF4FF000033B614FF0000325
:100998007B614FF00203FB604FF00003BB604FF038
:1009A80002037B604FF46053C4F202039B6803F0B8
:1009B8000C033B613B69042B0DD0082B15D0002B91
:1009C8006BD140F20003C2F200034FF41052C0F2A0
:1009D800F4021A606BE040F20003C2F2000347F62B
:1009E8004002C0F27D121A6061E04FF46053C4F215
:1009F80002035B6803F480034FEA9353BB604FF430
:100A08006053C4F202035B6803F03F037B60BB687A
:100A1800002B15D047F64003C0F27D137A68B3FB6C
:100A2800F2F24FF46053C4F202035B68194647F6CA
:100A3800C0730B404FEA931303FB02F37B6114E08E
:100A48004FF41053C0F2F4037A68B3FBF2F24FF498
:100A58006053C4F202035B68194647F6C0730B4043
:100A68004FEA931303FB02F37B614FF46053C4F224
:100A780002035B6803F440334FEA134303F10103B5
:100A88004FEA4303FB607A69FB68B2FBF3F240F27A
:100A98000003C2F200031A6009E040F20003C2F248
:100AA80000034FF41052C0F2F4021A6000BF4FF472
:100AB8006053C4F202039B6803F0F0034FEA131279
:100AC80040F20403C2F200039B5CDBB23B6140F2DC
:100AD8000003C2F200031A683B6922FA03F240F2EB
:100AE8000003C2F200031A6007F11C07BD4680BC70
:100AF800704700BF80B483B000AF4FF000037B6045
:100B08004FF000033B604FF46053C4F202034FF40C
:100B18006052C4F20202126842F480321A604FF442
:100B28006053C4F202031B6803F400333B607B6824
:100B380003F101037B603B68002B03D17B68B3F5AD
:100B4800A06FECD14FF46053C4F202031B6803F4A6
:100B58000033002B03D04FF001033B6002E04FF05D
:100B680000033B603B68012B69D14FF46053C4F22A
:100B780002034FF46052C4F2020292689A604FF482
:100B88006053C4F202034FF46052C4F20202926846
:100B980042F400429A604FF46053C4F202034FF4E7
:100BA8006052C4F20202926842F4A0529A604FF472
:100BB8006053C4F2020343F61942C0F240525A602D
:100BC8004FF46053C4F202034FF46052C4F20202BD
:100BD800126842F080721A6000BF4FF46053C4F28A
:100BE80002031B6803F00073002BF6D04FF4705318
:100BF800C4F2020340F203721A604FF46053C4F265
:100C080002034FF46052C4F20202926822F0030217
:100C18009A604FF46053C4F202034FF46052C4F276
:100C28000202926842F002029A6000BF4FF46053D9
:100C3800C4F202039B6803F00C03082BF6D107F1FA
:100C48000C07BD4680BC704780B586B000AF4FF03A
:100C58000100C0F220004FF0010109F05FF94FF0E8
:100C680000504FF0010109F0DDF94FF010033B612E
:100C78004FF003033B754FF00003FB7507F11003BA
:100C88004FF00000C4F20200194606F009FF4FF0C9
:100C980004033B604FF040037B604FF43063BB605C
:100CA8004FF00003FB603B464FF00000194604F08C
:100CB80067F84FF000004FF0010104F0B5F84FF06D
:100CC80000004FF4005104F073F907F11807BD460E
:100CD80080BD00BF80B584B000AF4FF010004FF06A
:100CE800010109F09FF907F1040318460CF006FA10
:100CF8004FF00F03BB604FF00003BB804FF00003C1
:100D0800BB814FF00003FB8007F104034FF48050D0
:100D1800C4F2000019460CF077F94FF48050C4F281
:100D280000004FF020010DF0F3FC4FF48050C4F2A6
:100D380000004FF001010CF0FDFA07F11007BD4665
:100D480080BD00BF80B59AB000AF4FF480004FF06F
:100D5800010109F0E3F84FF480704FF0010109F048
:100D68008DF946F21040C4F2020004F073FD4FF012
:100D780000037B6042F24C03C4F20103BB6040F6FF
:100D88004C33C2F20003FB604FF000033B614FF0AD
:100D980001037B614FF00003BB614FF00003FB616F
:100DA8004FF400633B624FF400537B624FF480734F
:100DB800BB624FF40033FB624FF000033B634FF01C
:100DC80001037B634FF00003BB634FF00003FB6339
:100DD80007F1040346F21040C4F20200194604F079
:100DE8005BFE46F21040C4F202004FF0010104F02D
:100DF800F1FE4FF000033B644FF000037B644FF0BB
:100E08000003BB644FF00003FB6407F1400318467E
:100E180000F080FC4FF000033B654FF0000387F8BB
:100E280054304FF0010387F855304FF00003BB658D
:100E38004FF000033B664FF0010387F8643007F179
:100E480050034FF40050C4F20100194600F0E0FBD3
:100E58004FF40050C4F201004FF0010100F0F6FE1B
:100E68004FF40050C4F201004FF010014FF001029E
:100E78004FF0010300F04CFD4FF0010000F0FCFCC6
:100E88004FF40050C4F201004FF0010100F0FAFEE7
:100E98004FF40050C4F201004FF0010100F082FC51
:100EA80007F16807BD4680BD80B584B000AF034632
:100EB800FB71FA7944F68033C0F6010353F8223007
:100EC80018464FF0010109F029F8FA7944F67C3305
:100ED800C0F6010333F81230BB604FF001033B73D7
:100EE8004FF00003BB734FF00103FB734FF0020395
:100EF8007B73FA7940F21403C2F2000353F82220FC
:100F080007F108031046194606F0CAFD07F1100755
:100F1800BD4680BD80B483B000AF0346FB71FA794B
:100F280040F21403C2F2000353F82220F97944F680
:100F38007C33C0F6010333F81130138307F10C0733
:100F4800BD4680BC704700BF80B483B000AF034685
:100F5800FB71FA7940F21403C2F2000353F822201D
:100F6800F97944F67C33C0F6010333F81130538322
:100F780007F10C07BD4680BC704700BF80B483B042
:100F880000AF0346FB71FA7940F21403C2F2000382
:100F980053F82220F97940F21403C2F2000353F8FF
:100FA80021305B691946F87944F67C33C0F60103B1
:100FB80033F810304B40536107F10C07BD4680BC35
:100FC800704700BF80B584B000AF03463960FB713D
:100FD800FA7944F68833C0F6010353F82220F979E8
:100FE80044F68C33C0F6010353F8213013431846F6
:100FF8004FF0010108F092FFFB79002B0BD1FA7931
:1010080044F68433C0F6010353F8223018464FF0F3
:10101800010109F007F8FA7940F21C03C2F2000353
:1010280053F82210FA7944F69833C0F601039B5C12
:101038001A46F87944F6A033C0F601031B5C08464B
:1010480011461A4606F0C2FEFA7940F22003C2F2AF
:10105800000353F82210FA7944F69C33C0F60103D2
:101068009B5C1A46F87944F6A433C0F601031B5C6E
:10107800084611461A4606F0A9FE4FF00003BB7356
:101088004FF00103FB734FF002033B73FA7944F608
:101098009033C0F6010333F81230BB604FF00203FF
:1010A8007B73FA7940F21C03C2F2000353F8222042
:1010B80007F108031046194606F0F2FC4FF0020348
:1010C8003B73FA7944F69433C0F6010333F81230CF
:1010D800BB60FA7940F22003C2F2000353F82220E1
:1010E80007F108031046194606F0DAFCFA7940F2CF
:1010F8001803C2F2000353F82230184639680DF07D
:10110800A1FDFA7940F21803C2F2000353F8223025
:1011180018464FF001010DF0D1FE07F11007BD464A
:1011280080BD00BF80B400AFBD4680BC704700BF23
:1011380080B400AFFEE700BF80B400AFFEE700BF99
:1011480080B400AFFEE700BF80B400AFFEE700BF89
:1011580080B400AFBD4680BC704700BF80B400AF0C
:10116800BD4680BC704700BF80B400AFBD4680BCA0
:10117800704700BF80B500AFFFF7A6F980BD00BF7C
:1011880080B483B000AF4FF49043C4F200031B88CF
:101198009BB23B603B6803F02003002B2ED04FF43A
:1011A8009043C4F200034FF49042C4F20002128844
:1011B80092B222F0200292B21A8040F6FC03C2F2E8
:1011C80000037B607B681A687B685B68D31A23F02E
:1011D800FF03002B12D17B681B68D9B24FF49043F0
:1011E800C4F200039B889BB2DAB27B685B181A7260
:1011F8007B681B6803F101027B681A603B6803F097
:101208008003002B46D04FF49043C4F200034FF400
:101218009042C4F20002128892B222F0800292B286
:101228001A8040F60423C2F200037B607B681A68C8
:101238007B685B689A4218D04FF49043C4F200036D
:101248007A685268D2B279688A18127A9A807B686A
:101258005B6803F101027B685A6040F22403C2F222
:1012680000034FF000021A6014E040F22403C2F2B7
:1012780000034FF001021A604FF49043C4F20003D8
:101288004FF49042C4F20002928992B222F0800296
:1012980092B29A8107F10C07BD4680BC704700BF27
:1012A80080B400AF40F60423C2F200034FF00002FE
:1012B8001A6040F60423C2F200034FF000025A609D
:1012C80040F22403C2F200034FF001021A6040F614
:1012D800FC03C2F200034FF000021A6040F6FC0360
:1012E800C2F200034FF000025A60BD4680BC70474E
:1012F80080B485B000AF786040F60423C2F20003E2
:10130800FB6040F60423C2F200031B689AB240F661
:101318000423C2F200035B689BB2D31A9BB2FF2B73
:1013280002D94FF0FF332BE0FB681B68DBB27A6809
:10133800D2B2F968CB181A72FB681B6803F1010274
:10134800FB681A6040F22403C2F200031B68002BFA
:1013580014D040F22403C2F200034FF000021A60D6
:101368004FF49043C4F200034FF49042C4F20002D9
:10137800928992B242F0800292B29A814FF00003B1
:10138800184607F11407BD4680BC704780B483B087
:1013980000AF40F6FC03C2F200037B6040F6FC039A
:1013A800C2F200031B689AB240F6FC03C2F20003C3
:1013B8005B689BB29A4202D14FF0FF3309E07B6829
:1013C8005A68D3B27968CB181B7A02F101017A689E
:1013D8005160184607F10C07BD4680BC704700BF36
:1013E80080B582B000AF786039600CE07B681B780C
:1013F8007A6802F101027A601846FFF779FF3B68C4
:1014080003F1FF333B603B68002BEFDC07F1080773
:10141800BD4680BD80B483B000AF78604FF46D43A3
:10142800CEF200037A6842F0BE6242F42022DA600B
:1014380007F10C07BD4680BC704700BF80B485B07B
:1014480000AF78604FF00003FB734FF00003BB73ED
:101458004FF00F037B737B68DB78002B45D04FF48C
:101468006D43CEF20003DB686FEA030303F4E06325
:101478004FEA1323FB73FB7BC3F10403BB737A7B33
:10148800FB7B42FA03F37B737B685B781A46BB7B72
:1014980002FA03F3FB737B689A787B7B1340DAB21A
:1014A800FB7B1343FB73FB7B4FEA0313FB734FF484
:1014B8006143CEF200037A6812789B18FA7B83F8AE
:1014C80000234FF46143CEF200037A6812784FEAA2
:1014D8005212D2B27968097801F01F014FF0010069
:1014E80000FA01F143F8221014E04FF46143CEF200
:1014F80000037A6812784FEA5212D2B279680978F2
:1015080001F01F014FF0010000FA01F102F1200281
:1015180043F8221007F11407BD4680BC704700BF8E
:1015280080B483B000AF786039604FF46D43CEF279
:1015380000033A6822F0604222F07F0279680A4389
:101548009A6007F10C07BD4680BC704780B483B031
:1015580000AF02460B46FA71BB71BB79002B0DD068
:101568004FF46D43CEF200034FF46D42CEF2000209
:1015780012691146FA790A431A610EE04FF46D4375
:10158800CEF200034FF46D42CEF20002126911460A
:10159800FA796FEA02020A401A6107F10C07BD46A0
:1015A80080BC704780B483B000AF78607B68042B40
:1015B8000CD14EF21003CEF200034EF21002CEF21E
:1015C8000002126842F004021A600BE04EF21003A7
:1015D800CEF200034EF21002CEF20002126822F0A0
:1015E80004021A6007F10C07BD4680BC704700BFB3
:1015F80080B500AF4FF480704FF0010108F01AFE7B
:101608004FF480704FF0000108F014FE80BD00BF59
:1016180080B485B000AF786039604FF00003FB609C
:101628004FF00003FB727B685B68FB60FB6823F08C
:10163800407323F48073FB603B681B794FEA0322F5
:101648003B681B681343FA681343FB607B68FA68BE
:101658005A607B689B68FB60FA684FF2FD73CCF2B6
:10166800FF031340FB603B681A693B68DB681A4359
:101678003B689B681A433B685B794FEA4303134313
:10168800FA681343FB607B68FA689A607B68DB6AD8
:10169800FB60FB6823F47003FB603B681B7D03F170
:1016A800FF33DAB2FB7A1343FB72FB7A4FEA035338
:1016B800FA681343FB607B68FA68DA6207F114077B
:1016C800BD4680BC704700BF80B483B000AF78606F
:1016D8007B684FF000021A607B684FF000021A71B5
:1016E8007B684FF000025A717B684FF000029A60E5
:1016F8007B684FF00002DA607B684FF000021A61E5
:101708007B684FF001021A7507F10C07BD4680BCD3
:10171800704700BF80B485B000AF78604FF0000319
:10172800FB604FF40C53C4F201035B68FB60FA687A
:1017380043F2E003CFF6FC731340FB607B681A6842
:101748007B685B681A437B689B681A437B68DB6825
:101758001343FA681343FB604FF40C53C4F20103BC
:10176800FA685A6007F11407BD4680BC704700BF8D
:1017780080B483B000AF78607B684FF000021A60D5
:101788007B684FF000025A607B684FF000029A6055
:101798007B684FF00002DA6007F10C07BD4680BC99
:1017A800704700BF80B483B000AF78600B46FB7011
:1017B800FB78002B06D07B689B6843F001027B68AE
:1017C8009A6005E07B689B6823F001027B689A6059
:1017D80007F10C07BD4680BC704700BF80B485B0D8
:1017E80000AF786039604FF00003FB607B685B688E
:1017F800FB60FB6823F4400323F40073FB60FA6882
:101808003B681343FB607B68FA685A6007F114076A
:10181800BD4680BC704700BF80B483B000AF78601D
:1018280013460A467A803B807A887B685A623A88EF
:101838007B689A6207F10C07BD4680BC704700BF01
:1018480080B485B000AF78600B46FB704FF00003A2
:10185800FB607B685B68FB60FB6823F01F03FB6031
:10186800FB78FA681343FB607B68FA685A6007F1F3
:101878001407BD4680BC704780B483B000AF0346F0
:10188800FB71FB79002B0CD04FF40C53C4F201030D
:101898004FF40C52C4F20102526842F400025A603A
:1018A8000BE04FF40C53C4F201034FF40C52C4F292
:1018B8000102526822F400025A6007F10C07BD4683
:1018C80080BC704780B483B000AF0346FB71FB79DE
:1018D800002B0CD04FF40C53C4F201034FF40C52FC
:1018E800C4F20102526842F480025A600BE04FF4DD
:1018F8000C53C4F201034FF40C52C4F201025268B3
:1019080022F480025A6007F10C07BD4680BC70477C
:1019180080B485B000AF7860F970BA707B704FF012
:101928000003FB604FF00003BB60FB78092B27D94D
:101938007B68DB68FB60FA7813464FEA43039B1821
:10194800A3F11E034FF0070202FA03F3BB60BB6862
:101958006FEA0303FA681340FB607978FA78134654
:101968004FEA43039B18A3F11E0301FA03F3BB607C
:10197800FA68BB681343FB607B68FA68DA6022E0A8
:101988007B681B69FB60FA7813464FEA43039B1890
:101998004FF0070202FA03F3BB60BB686FEA030368
:1019A800FA681340FB607978FA7813464FEA4303E4
:1019B8009B1801FA03F3BB60FA68BB681343FB602A
:1019C8007B68FA681A61BB78062B27D87B685B6B43
:1019D800FB60BB7803F1FF3213464FEA83039B1881
:1019E8004FF01F0202FA03F3BB60BB686FEA030300
:1019F800FA681340FB60F978BB7803F1FF321346AD
:101A08004FEA83039B1801FA03F3BB60FA68BB68CB
:101A18001343FB607B68FA685A6351E0BB780C2B70
:101A280027D87B681B6BFB60BA7813464FEA8303A1
:101A38009B18A3F123034FF01F0202FA03F3BB60C4
:101A4800BB686FEA0303FA681340FB60F978BA7859
:101A580013464FEA83039B18A3F1230301FA03F308
:101A6800BB60FA68BB681343FB607B68FA681A635B
:101A780026E07B68DB6AFB60BA7813464FEA83038B
:101A88009B18A3F141034FF01F0202FA03F3BB6056
:101A9800BB686FEA0303FA681340FB60F978BA7809
:101AA80013464FEA83039B18A3F1410301FA03F39A
:101AB800BB60FA68BB681343FB607B68FA68DA624C
:101AC80007F11407BD4680BC704700BF80B483B0DF
:101AD80000AF78607B689B6843F080427B689A60BF
:101AE80007F10C07BD4680BC704700BF80B485B0C5
:101AF80000AF78604FF00003FB737B689B6803F4CA
:101B08008003002B03D04FF00103FB7302E04FF07A
:101B18000003FB73FB7B184607F11407BD4680BC26
:101B2800704700BF80B483B000AF78600B46FB708D
:101B3800FB78002B06D07B689B6843F480627B6847
:101B48009A6005E07B689B6823F480627B689A60F2
:101B580007F10C07BD4680BC704700BF80B483B056
:101B680000AF78600B46FB70FB78002B06D07B68D3
:101B78009B6843F002027B689A6005E07B689B687B
:101B880023F002027B689A6007F10C07BD4680BC0F
:101B9800704700BF80B485B000AF78600B46FB701B
:101BA8004FF00003FB604FF00003BB607B685B688D
:101BB800FB60FB6823F46043FB60FB7803F1FF33B1
:101BC800BB60BB684FEA4333FA681343FB607B682A
:101BD800FA685A6007F11407BD4680BC704700BF19
:101BE80080B483B000AF78600B46FB70FB78002BA5
:101BF80006D07B685B6843F400627B685A6005E046
:101C08007B685B6823F400627B685A6007F10C0705
:101C1800BD4680BC704700BF80B483B000AF786019
:101C28007B68DB6C9BB2184607F10C07BD4680BC8D
:101C3800704700BF80B400AF42F20833C4F201031A
:101C48001B681846BD4680BC704700BF80B483B08F
:101C580000AF78600B46FB70FB78002B06D07B68E2
:101C68009B6843F480727B689A6005E07B689B6898
:101C780023F480727B689A6007F10C07BD4680BC2C
:101C8800704700BF80B483B000AF78600B46FB702C
:101C9800FB78002B06D07B689B6843F400727B6856
:101CA8009A6005E07B689B6823F400727B689A6001
:101CB80007F10C07BD4680BC704700BF80B483B0F5
:101CC80000AF0346FB71FB79002B0CD04FF40C538B
:101CD800C4F201034FF40C52C4F20102526842F4F8
:101CE80000525A600BE04FF40C53C4F201034FF456
:101CF8000C52C4F20102526822F400525A6007F1F1
:101D08000C07BD4680BC704780B487B000AF7860D0
:101D1800F970BA707B704FF000037B614FF00003DD
:101D28003B614FF00003FB60FB78092B27D97B68E8
:101D3800DB687B61FA7813464FEA43039B18A3F1EB
:101D48001E034FF0070202FA03F33B613B696FEA97
:101D580003037A6913407B617978FA7813464FEA6E
:101D680043039B18A3F11E0301FA03F33B617A694D
:101D78003B6913437B617B687A69DA6022E07B68A0
:101D88001B697B61FA7813464FEA43039B184FF0AF
:101D9800070202FA03F33B613B696FEA03037A69BE
:101DA80013407B617978FA7813464FEA43039B180E
:101DB80001FA03F33B617A693B6913437B617B68F2
:101DC8007A691A617B689B6B7B617B6903F44013BA
:101DD8004FEA1353FB60FB68DBB26FEA0303DAB226
:101DE800BB78D318DBB203F10303DBB21A46134600
:101DF8004FEA83039B184FF01F0202FA03F33B617B
:101E08003B696FEA03037A6913407B61F978FB68E1
:101E1800DBB26FEA0303DAB2BB78D318DBB203F1A3
:101E28000303DBB21A4613464FEA83039B1801FAF1
:101E380003F33B617A693B6913437B617B687A6989
:101E48009A6307F11C07BD4680BC704780B485B013
:101E580000AF78600B46FB704FF00003FB604FF05B
:101E68000003BB607B689B6BFB60FB6823F440133B
:101E7800FB60FB7803F1FF33BB60BB684FEA035399
:101E8800FA681343FB607B68FA689A6307F11407E2
:101E9800BD4680BC704700BF80B485B000AF786095
:101EA80013460A46FA703B804FF00003FB607B68DC
:101EB800FB60FA78FB68D318FB60FB683A881A6005
:101EC80007F11407BD4680BC704700BF80B485B0D9
:101ED80000AF786039604FF00003FB607B689B6857
:101EE800FB60FB6823F47023FB60FA683B681343CC
:101EF800FB607B68FA689A6007F11407BD4680BCEE
:101F0800704700BF80B485B000AF786039604FF08B
:101F18000003FB607B689B68FB60FB6823F440134D
:101F2800FB60FA683B681343FB607B68FA689A6059
:101F380007F11407BD4680BC704700BF80B483B06A
:101F480000AF78607B689B6843F480027B689A6086
:101F580007F10C07BD4680BC704700BF80B485B050
:101F680000AF78604FF00003FB737B689B6803F455
:101F78008003002B03D04FF00103FB7302E04FF006
:101F88000003FB73FB7B184607F11407BD4680BCB2
:101F9800704700BF80B483B000AF78600B46FB7019
:101FA800FB78002B06D07B685B6843F480627B6813
:101FB8005A6005E07B685B6823F480627B685A603E
:101FC80007F10C07BD4680BC704700BF80B483B0E2
:101FD80000AF78600B46FB70FB78002B06D07B685F
:101FE8005B6843F480527B685A6005E07B685B68F5
:101FF80023F480527B685A6007F10C07BD4680BC09
:10200800704700BF80B485B000AF78600B46FB70A6
:102018004FF00003FB607B68FB60FA78FB68D3181D
:1020280003F12803FB60FB681B689BB2184607F1A5
:102038001407BD4680BC704780B485B000AF786097
:1020480013460A467A807B704FF00003FB607B885A
:10205800DBB2FB60FB684FF0010202FA03F3FB609E
:102068007B78002B07D07B685B681A46FB681A43AD
:102078007B685A6008E07B685B681A46FB686FEA11
:1020880003031A407B685A6007F11407BD4680BCF9
:10209800704700BF80B485B000AF78600B46FB7016
:1020A8004FF00003FB737B681B681A46FB781340EC
:1020B800002B03D04FF00103FB7302E04FF0000345
:1020C800FB73FB7B184607F11407BD4680BC7047BD
:1020D80080B483B000AF78600B46FB70FB786FEA82
:1020E80003027B681A6007F10C07BD4680BC704785
:1020F80080B487B000AF78600B467B804FF0000358
:10210800FB754FF000033B614FF00003FB607B88D9
:102118004FEA13239BB23B617B685B681A467B8856
:10212800DBB24FF0010101FA03F31340FB607B6857
:102138001B681A463B691340002B06D0FB68002B2E
:1021480003D04FF00103FB7502E04FF00003FB756D
:10215800FB7D184607F11C07BD4680BC704700BFD1
:1021680080B485B000AF78600B467B804FF00003E9
:10217800FB737B884FEA13239BB2FB73FB7B6FEAED
:1021880003027B681A6007F11407BD4680BC7047DC
:1021980080B582B000AF78607A684FF4C843C4F263
:1021A80000039A420CD14FF000704FF0010108F083
:1021B80015F84FF000704FF0000108F00FF80BE031
:1021C8004FF080604FF0010108F008F84FF0806090
:1021D8004FF0000108F002F807F10807BD4680BD7E
:1021E80080B485B000AF786039604FF00003FB73AE
:1021F8004FF00003BB607B681B6823F002027B681A
:102208001A607B681B6843F001027B681A6003E070
:10221800BB6803F10103BB607B685B6803F00103E3
:10222800002B04D1BA684FF6FF739A42F0D17B684D
:102238005B6803F00103002B03D14FF00003FB732D
:10224800A7E03B689B79012B06D17B681B6843F0AC
:1022580080027B681A6005E07B681B6823F08002B7
:102268007B681A603B68DB79012B06D17B681B68A9
:1022780043F040027B681A6005E07B681B6823F026
:1022880040027B681A603B681B7A012B06D17B6889
:102298001B6843F020027B681A6005E07B681B68B6
:1022A80023F020027B681A603B685B7A012B06D119
:1022B8007B681B6843F010027B681A6005E07B6846
:1022C8001B6823F010027B681A603B689B7A012B1D
:1022D80006D17B681B6843F008027B681A6005E03A
:1022E8007B681B6823F008027B681A603B68DB7A0E
:1022F800012B06D17B681B6843F004027B681A60D7
:1023080005E07B681B6823F004027B681A603B6861
:102318009B784FEA83723B68DB784FEA03631A4382
:102328003B681B794FEA03431A433B685B794FEAE2
:1023380003531A433B681B8803F1FF331A437B6836
:10234800DA617B681B6823F001027B681A604FF032
:102358000003BB6003E0BB6803F10103BB607B685B
:102368005B6803F00103DBB2002B04D0BA684FF6B8
:10237800FF739A42EFD17B685B6803F00103DBB21D
:10238800002B03D04FF00003FB7302E04FF0010372
:10239800FB73FB7B184607F11407BD4680BC7047EA
:1023A80080B485B000AF78604FF00003FB607B68B5
:1023B8009B7A4FF0010202FA03F3FB604FF4C84323
:1023C800C4F200034FF4C842C4F20002D2F800225B
:1023D80042F00102C3F800224FF4C843C4F20003DC
:1023E8004FF4C842C4F20002D2F81C221146FA681F
:1023F8006FEA02020A40C3F81C227B681B7B002B91
:1024080034D14FF4C843C4F200034FF4C842C4F2B5
:102418000002D2F80C221146FA686FEA02020A405A
:10242800C3F80C224FF4C843C4F200037A68927AC6
:102438007968C9884FEA014079684988014302F1FF
:10244800480243F832104FF4C842C4F200027B68D5
:102458009B7A796889884FEA01407968098801433D
:1024680003F148034FEAC303D31859607B681B7B09
:10247800012B32D14FF4C843C4F200034FF4C842D1
:10248800C4F20002D2F80C221146FA680A43C3F8D3
:102498000C224FF4C843C4F200037A68927A796830
:1024A80009884FEA014079684988014302F14802E6
:1024B80043F832104FF4C842C4F200027B689B7A9A
:1024C800796889884FEA01407968C988014303F12E
:1024D80048034FEAC303D31859607B68DB7A002BA3
:1024E80011D14FF4C843C4F200034FF4C842C4F2F8
:1024F8000002D2F804221146FA686FEA02020A4082
:10250800C3F804220EE04FF4C843C4F200034FF4AA
:10251800C842C4F20002D2F804221146FA680A43FB
:10252800C3F804227B681B89002B10D14FF4C843E1
:10253800C4F200034FF4C842C4F20002D2F81422D5
:102548001146FA686FEA02020A40C3F814227B684F
:102558001B89012B0ED14FF4C843C4F200034FF47A
:10256800C842C4F20002D2F814221146FA680A439B
:10257800C3F814227B685B7B012B0ED14FF4C84350
:10258800C4F200034FF4C842C4F20002D2F81C227D
:102598001146FA680A43C3F81C224FF4C843C4F230
:1025A80000034FF4C842C4F20002D2F8002222F01D
:1025B8000102C3F8002207F11407BD4680BC70472A
:1025C80080B483B000AF78607B684FF000029A71E6
:1025D8007B684FF00002DA717B684FF000021A72D4
:1025E8007B684FF000025A727B684FF000029A72C3
:1025F8007B684FF00002DA727B684FF000029A7035
:102608007B684FF00002DA707B684FF003021A71A2
:102618007B684FF002025A717B684FF001021A8002
:1026280007F10C07BD4680BC704700BF80B483B07B
:1026380000AF0346FB714FF4C843C4F200034FF4E4
:10264800C842C4F20002D2F8002242F00102C3F8E4
:1026580000224FF4C843C4F200034FF4C842C4F246
:102668000002D2F8002222F47C5222F00E02C3F8B3
:1026780000224FF4C843C4F200034FF4C842C4F226
:102688000002D2F800221146FA794FEA02220A43E0
:10269800C3F800224FF4C843C4F200034FF4C84201
:1026A800C4F20002D2F8002222F00102C3F800228C
:1026B80007F10C07BD4680BC704700BF80B483B0EB
:1026C80000AF78600B46FB70FB78002B06D07B6868
:1026D8001B6843F480327B681A6005E07B681B68DE
:1026E80023F480327B681A6007F10C07BD4680BC72
:1026F800704700BF80B483B000AF78600B46FB70B2
:10270800FB78002B1ED07B681B6843F080027B6837
:102718001A607B68D3F8843143F480727B68C3F80D
:1027280084217B68D3F8943143F480727B68C3F8C2
:1027380094217B68D3F8A43143F480727B68C3F892
:10274800A4211DE07B681B6823F080027B681A6067
:102758007B68D3F8843123F480727B68C3F88421C2
:102768007B68D3F8943123F480727B68C3F8942192
:102778007B68D3F8A43123F480727B68C3F8A42162
:1027880007F10C07BD4680BC704700BF80B485B018
:1027980000AF786039604FF00003FB737B689B687B
:1027A80003F08063002B03D04FF00003FB7316E0A7
:1027B8007B689B6803F00063002B03D04FF0010394
:1027C800FB730CE07B689B6803F08053002B03D0FD
:1027D8004FF00203FB7302E04FF00403FB73FB7B33
:1027E800042B00F0BD80FB7BFA7B796802F11802AC
:1027F8004FEA02128A18126802F00102796803F19E
:1028080018034FEA0313CB181A603B681B7A002B96
:1028180019D1FB7BFA7B796802F118024FEA0212A0
:102828008A18126811463A6812684FEA42503A68A4
:10283800527A02430A43796803F118034FEA0313F3
:10284800CB181A601BE0FB7BFA7B796802F118024F
:102858004FEA02128A18126811463A6852684FEA1B
:10286800C2003A68127A10433A68527A02430A431D
:10287800796803F118034FEA0313CB181A603B6811
:102888009B7A03F00F03DAB23B689A72FB7BFA7B00
:10289800796802F118024FEA02128A18526822F087
:1028A8000F02796803F118034FEA0313CB185A6033
:1028B800FB7BFA7B796802F118024FEA02128A1848
:1028C800526811463A68927A0A43796803F1180304
:1028D8004FEA0313CB185A60FB7B3A68927B4FEAA6
:1028E80002613A68527B4FEA024211433A68127B0E
:1028F8004FEA022211433A68D27A0A4379684FEACA
:102908000313CB1803F5C4731A60FB7B3A68927CF7
:102918004FEA02613A68527C4FEA024211433A6830
:10292800127C4FEA022211433A68D27B0A43796843
:102938004FEA0313CB1803F5C4735A60FB7BFA7B89
:10294800796802F118024FEA02128A18126842F0F6
:102958000102796803F118034FEA0313CB181A60D0
:10296800FB7B184607F11407BD4680BC704700BFC3
:1029780080B485B000AF78600B46FB704FF0000361
:10298800FB60FB78012B0DD0022B15D0002B1DD13D
:102998007B689B681A464FF00303C0F2004313405C
:1029A800FB6017E07B689B681A464FF44073C0F6DB
:1029B80000031340FB600DE07B689B681A464FF0EC
:1029C8000003C1F203031340FB6003E04FF0000370
:1029D800FB6000BFFB684FF48072C0F600029342B0
:1029E8002FD04FF48072C0F6000293420ED84FF0F9
:1029F8000102C0F2004293421FD04FF00302C0F21E
:102A08000042934225D0002B13D02EE04FF0000255
:102A1800C1F20102934218D04FF00002C1F2030242
:102A280093421ED04FF44072C0F60002934214D075
:102A38001BE04FF00203FB601BE04FF00003FB605C
:102A480017E04FF00003FB6013E04FF00003FB605A
:102A58000FE04FF00103FB600BE04FF00103FB6058
:102A680007E04FF00103FB6003E04FF00003FB6059
:102A780000BFFB68DBB2184607F11407BD4680BCEF
:102A8800704700BF80B483B000AF78600B46FB701E
:102A9800FB78012B0AD0022B0FD0002B14D17B68B6
:102AA8009B6843F080027B689A600EE07B689B68B5
:102AB80043F400427B689A6007E07B689B6843F4B4
:102AC80000027B689A6000E000BF07F10C07BD4672
:102AD80080BC704780B485B000AFF8600B467A6060
:102AE800FB72FB7AFA6803F11B034FEA0313D3184E
:102AF8001B68DBB203F00403DAB27B681A727B68E6
:102B08001B7A002B0CD1FB7AFA6803F11B034FEAFE
:102B18000313D3181B684FEA53527B681A600BE003
:102B2800FB7AFA6803F11B034FEA0313D3181B68F7
:102B38004FEAD3027B685A60FB7AFA6803F11B03F9
:102B48004FEA0313D3181B68DBB203F00203DAB2AF
:102B58007B685A72FB7AFA6803F11B034FEA031386
:102B6800D3185B68DBB203F00F03DAB27B689A72A2
:102B7800FB7AFA6803F11B034FEA0313D3185B6867
:102B88004FEA1323DAB27B68DA74FB7AFA684FEA01
:102B98000313D31803F5DC731B68DAB27B68DA72A7
:102BA800FB7AFA684FEA0313D31803F5DC731B6842
:102BB8004FEA1323DAB27B681A73FB7AFA684FEA92
:102BC8000313D31803F5DC731B684FEA1343DAB217
:102BD8007B685A73FB7AFA684FEA0313D31803F534
:102BE800DC731B684FEA1363DAB27B689A73FB7A6B
:102BF800FA684FEA0313D31803F5DC735B68DAB29B
:102C08007B68DA73FB7AFA684FEA0313D31803F583
:102C1800DC735B684FEA1323DAB27B681A74FB7AB9
:102C2800FA684FEA0313D31803F5DC735B684FEABD
:102C38001343DAB27B685A74FB7AFA684FEA0313D3
:102C4800D31803F5DC735B684FEA1363DAB27B6869
:102C58009A74FB7A002B06D1FB68DB6843F02002EC
:102C6800FB68DA6005E0FB681B6943F02002FB683B
:102C78001A6107F11407BD4680BC704780B483B061
:102C880000AF78600B46FB70FB78002B06D17B68A1
:102C9800DB6843F020027B68DA6005E07B681B692B
:102CA80043F020027B681A6107F10C07BD4680BC1F
:102CB800704700BF80B485B000AF78600B46FB70EA
:102CC8004FF00003FB73FB78002B06D17B68DB68B1
:102CD800DBB203F00303FB730CE0FB78012B06D196
:102CE8007B681B69DBB203F00303FB7302E04FF060
:102CF8000003FB73FB7B184607F11407BD4680BC35
:102D0800704700BF80B485B000AF78600B46FB7099
:102D18004FF00003FB734FF6FF73BB60FB78002B8B
:102D280023D17B681B6823F0030343F001027B680F
:102D38001A6003E0BB6803F1FF33BB607B685B6824
:102D480003F00303012B02D0BB68002BF2D17B6890
:102D58005B6803F00303012B03D04FF00003FB7300
:102D680052E04FF00103FB734EE0FB78012B21D1B9
:102D78007B681B6823F003027B681A6003E0BB686A
:102D880003F1FF33BB607B685B6803F00303002B30
:102D980002D0BB68002BF2D17B685B6803F00303A9
:102DA800002B03D04FF00003FB732DE04FF001031D
:102DB800FB7329E0FB78022B23D17B681B6823F087
:102DC800030343F002027B681A6003E0BB6803F167
:102DD800FF33BB607B685B6803F00303022B02D000
:102DE800BB68002BF2D17B685B6803F00303022BFE
:102DF80003D04FF00003FB7306E04FF00103FB73B1
:102E080002E04FF00003FB73FB7B184607F1140741
:102E1800BD4680BC704700BF80B485B000AF786005
:102E28004FF00003FB737B681B6823F0030343F038
:102E380002027B681A607B685B6803F00303022B5D
:102E480002D14FF00103FB73FB7B184607F114070F
:102E5800BD4680BC704700BF80B485B000AF7860C5
:102E68004FF6FF73FB604FF00003FB727B681B6833
:102E780023F002027B681A6003E0FB6803F1FF336A
:102E8800FB607B685B6803F00203002B02D0FB68E1
:102E9800002BF2D17B685B6803F00203002B02D1A0
:102EA8004FF00103FB72FB7A184607F11407BD4681
:102EB80080BC704780B485B000AF78604FF00003E5
:102EC800FB737B689B69DBB203F07003FB73FB7BCE
:102ED800184607F11407BD4680BC704780B485B01A
:102EE80000AF78604FF00003FB737B689B694FEA83
:102EF8001363FB73FB7B184607F11407BD4680BCC0
:102F0800704700BF80B485B000AF78604FF0000311
:102F1800FB737B689B6903F47F034FEA1343FB73DE
:102F2800FB7B184607F11407BD4680BC704700BFFD
:102F380080B485B000AFF860B9601346FB71FB79C7
:102F4800002B07D0FB685B691A46BB681A43FB680D
:102F58005A6108E0FB685B691A46BB686FEA0303BD
:102F68001A40FB685A6107F11407BD4680BC7047D8
:102F780080B485B000AF786039604FF00003FB7310
:102F88003B6803F47003002B12D07B689B691A46D8
:102F98003B68134023F07F4323F47003002B03D0D6
:102FA8004FF00103FB735DE04FF00003FB7359E042
:102FB8003B6803F08073002B12D07B685B681A466D
:102FC8003B68134023F07F4323F47003002B03D0A6
:102FD8004FF00103FB7345E04FF00003FB7341E042
:102FE8003B6803F00063002B12D07B689B681A468D
:102FF8003B68134023F07F4323F47003002B03D076
:103008004FF00103FB732DE04FF00003FB7329E041
:103018003B6803F00073002B12D07B68DB681A460C
:103028003B68134023F07F4323F47003002B03D045
:103038004FF00103FB7315E04FF00003FB7311E041
:103048007B681B691A463B68134023F07F4323F4CF
:103058007003002B03D04FF00103FB7302E04FF025
:103068000003FB73FB7B184607F11407BD4680BCC1
:10307800704700BF80B485B000AF786039604FF00A
:103088000003FB603A684FF07003C3F2F0039A4202
:1030980004D17B684FF000029A6123E03B6823F07B
:1030A8007F4323F47003FB603B6803F00073002B3D
:1030B80003D07B68FA68DA6014E03B6803F0806349
:1030C800002B03D07B68FA681A610BE03B6803F0B9
:1030D8000063002B03D07B68FA689A6002E07B6883
:1030E800FA685A6007F11407BD4680BC704700BFF4
:1030F80080B584B000AF786039604FF00003FB738F
:103108007B685B691A463B681340002B00F0C4805B
:103118003B68402B6BD0402B0FD8042B3FD0042B9F
:1031280004D8012B25D0022B2FD0B1E0102B4AD088
:10313800202B52D0082B3CD0AAE0B3F5006F00F04A
:103148009280B3F5006F09D8B3F5007F77D0B3F557
:10315800806F7ED0B3F5807F67D099E0B3F5803F6C
:103168004FD0B3F5003F56D0B3F5004F00F085803F
:103178008EE07B689B68184640F20111C0F201019D
:1031880000F012F90346FB7389E07B68DB68184698
:103198004FF0030100F008F90346FB737FE07B68FA
:1031A800DB6818464FF0080100F0FEF80346FB7391
:1031B80075E07B68DB6818464FF0100100F0F4F802
:1031C8000346FB736BE07B681B6918464FF00301ED
:1031D80000F0EAF80346FB7361E07B681B69184658
:1031E8004FF0080100F0E0F80346FB7357E07B68F6
:1031F8001B6918464FF0100100F0D6F80346FB7320
:103208004DE07B685B6818464FF0080100F0CCF889
:103218000346FB7343E07B685B6818464FF0100178
:1032280000F0C2F80346FB7339E07B689B691846D7
:103238004FF0010100F0B8F80346FB732FE07B68FC
:103248009B6918464FF0020100F0AEF80346FB7385
:1032580025E07B689B6918464FF0040100F0A4F84C
:103268000346FB731BE07B689B6918464FF07001AF
:1032780000F09AF80346FB7311E07B685B68184618
:103288004FF0040100F090F80346FB7300BF06E01E
:103298004FF00003FB7302E04FF00003FB73FB7B6E
:1032A800184607F11007BD4680BD00BF80B483B043
:1032B80000AF786039603B68B3F5807F4CD0B3F5D8
:1032C800807F0DD8082B2ED0082B04D8012B1ED0B8
:1032D800042B23D061E0202B2AD0402B2DD05CE09A
:1032E800B3F5006F47D0B3F5006F06D8B3F5007F8C
:1032F80037D0B3F5806F39D04FE0B3F5803F21D098
:10330800B3F5003F23D0B3F5004F3DD045E07A68D0
:1033180040F20113C0F2010393603FE07B684FF075
:103328000802DA603AE07B684FF01002DA6035E0B4
:103338007B684FF008021A6130E07B684FF010029A
:103348001A612BE07B684FF008025A6026E07B6820
:103358004FF010025A6021E07B684FF004025A6077
:103368001CE07B684FF004025A6017E07B684FF05E
:1033780004025A6012E07B684FF000029A617B6891
:103388004FF004025A6009E07B684FF000029A612E
:103398007B684FF004025A6000E000BF07F10C0799
:1033A800BD4680BC704700BF80B485B000AF786070
:1033B80039604FF00003FB737A683B681340002BB9
:1033C80003D04FF00103FB7302E04FF00003FB73DF
:1033D800FB7B184607F11407BD4680BC704700BF49
:1033E80080B400AF4FF44053C4F202034FF001021F
:1033F8009A60BD4680BC704780B483B000AF7860E7
:103408004FF44053C4F202037A681A604FF44053F1
:10341800C4F202031B68184607F10C07BD4680BCBE
:10342800704700BF80B485B000AF786039604FF056
:103438000003FB604FF00003FB600EE04FF44053C5
:10344800C4F20203FA684FEA820279688A1812689D
:103458001A60FB6803F10103FB60FA683B689A4253
:10346800ECD34FF44053C4F202031B68184607F12B
:103478001407BD4680BC704780B400AF4FF440537A
:10348800C4F202031B681846BD4680BC704700BFE3
:1034980080B483B000AF0346FB714FF44053C4F2CD
:1034A8000203FA791A7107F10C07BD4680BC704710
:1034B80080B400AF4FF44053C4F202031B79DBB26F
:1034C8001846BD4680BC704780B500AF4FF010006D
:1034D8004FF0010106F02AFE4FF010004FF00001F6
:1034E80006F024FE80BD00BF80B483B000AF7860D2
:1034F8004FF00003C5F206034FF00002C5F20602C2
:10350800126822F038021A604FF00003C5F2060371
:103518004FF00002C5F20602126811467A68528816
:103528000A431A604FF00003C5F206034FF0000289
:10353800C5F20602126822F0C0021A604FF00003BA
:10354800C5F206034FF00002C5F2060212681146E2
:103558007A6892880A431A607B685B88202B0BD0B4
:103568007B685B88282B07D07B685B88302B03D06F
:103578007B685B88382B19D14FF00003C5F206032E
:103588004FF00002C5F20602126822F440721A6077
:103598004FF00003C5F206034FF00002C5F2060221
:1035A800126811467A68D2880A431A604FF00003FD
:1035B800C5F206034FF00002C5F20602126822F0B7
:1035C80004021A604FF00003C5F206034FF0000230
:1035D800C5F20602126811467A6812880A431A6010
:1035E80007F10C07BD4680BC704700BF80B483B0AC
:1035F80000AF78607B684FF000021A807B684FF05C
:1036080000025A807B684FF000029A807B684FF076
:103618000002DA8007F10C07BD4680BC704700BF86
:1036280080B483B000AF78604FF00003C5F20603A2
:103638007A6812681A624FF00003C5F206037A68C6
:1036480052685A624FF00003C5F206037A6892681E
:103658009A624FF00003C5F206037A68D268DA620C
:103668004FF00003C5F206037A6812691A634FF037
:103678000003C5F206037A6852695A634FF00003E3
:10368800C5F206037A6892699A634FF00003C5F29F
:1036980006037A68D269DA6307F10C07BD4680BC75
:1036A800704700BF80B483B000AF78607B684FF08C
:1036B80000021A607B684FF000025A607B684FF086
:1036C80000029A607B684FF00002DA607B684FF076
:1036D80000021A617B684FF000025A617B684FF064
:1036E80000029A617B684FF00002DA6107F10C076B
:1036F800BD4680BC704700BF80B483B000AF78601F
:103708004FF00003C5F206037A6812681A644FF096
:103718000003C5F206037A6852685A644FF0000342
:10372800C5F206037A6892689A644FF00003C5F2FE
:1037380006037A68D268DA6407F10C07BD4680BCD4
:10374800704700BF80B483B000AF78607B684FF0EB
:1037580000021A607B684FF000025A607B684FF0E5
:1037680000029A607B684FF00002DA6007F10C07EC
:10377800BD4680BC704700BF80B400AF4FF0000367
:10378800C5F206034FF00002C5F20602126842F4C1
:1037980080421A60BD4680BC704700BF80B483B0C9
:1037A80000AF0346FB71FB79002B0CD04FF00003F0
:1037B800C5F206034FF00002C5F20602126842F491
:1037C80000421A600BE04FF00003C5F206034FF009
:1037D8000002C5F20602126822F400421A6007F1DC
:1037E8000C07BD4680BC704780B483B000AF7860DA
:1037F8004FF00003C5F206037A689A6007F10C07D8
:10380800BD4680BC704700BF80B400AF4FF00003D6
:10381800C5F20603DB681846BD4680BC704700BF8A
:1038280080B487B000AF786039604FF00003BB60A8
:103838004FF000037B614FF00003FB744FF000036F
:10384800C5F206034FF00002C5F20602126922F023
:1038580001021A614FF00003C5F206031B6803F06A
:103868000803002B03D04FF011037B6102E04FF0F7
:1038780015037B614FF00003C5F206035B681A4627
:103888007B691340FB60BB6803F10103BB60BA6846
:103898004FF6FF739A4202D0FB68012BEAD14FF032
:1038A8000003C5F206035B681A467B691340012BC7
:1038B80003D04FF00003FB7463E04FF00003C5F240
:1038C80006034FF00002C5F20602126922F0020256
:1038D8001A614FF00003C5F206034FF00002C5F26B
:1038E8000602126822F400421A604FF00003C5F283
:1038F80006031B6803F47F727B681A604FF00003AD
:10390800C5F206031B6C1A467B685A604FF0000329
:10391800C5F206035B6C1A467B689A604FF0000399
:10392800C5F206039B6C1A467B68DA604FF0000309
:10393800C5F20603DB6C1A467B681A613B681A6895
:103948007B685A613B685A687B689A613B689A68E9
:103958007B68DA613B68DA687B681A623B681A69D7
:103968007B685A623B685A697B689A623B689A69C5
:103978007B68DA623B68DA697B681A634FF0010397
:10398800FB74FB7C184607F11C07BD4680BC7047DA
:1039980080B483B000AF78604FF00003C5F206032F
:1039A8007A6812681A604FF00003C5F206037A6855
:1039B80052691A624FF00003C5F206037A689269E9
:1039C8005A624FF00003C5F206037A68D2699A6218
:1039D8004FF00003C5F206037A68126ADA624FF004
:1039E8000003C5F206037A68526A1A634FF00003AF
:1039F800C5F206037A68926A5A634FF00003C5F26B
:103A080006037A68D26A9A634FF00003C5F2060388
:103A18007A68126BDA634FF00003C5F206037A681E
:103A280052681A644FF00003C5F206037A68926878
:103A38005A644FF00003C5F206037A68D2689A64A4
:103A48004FF00003C5F206037A681269DA644FF092
:103A58000003C5F206034FF00002C5F20602126821
:103A680042F400421A6007F10C07BD4680BC70475B
:103A780080B483B000AF02460B46FA71BB71BB79C4
:103A8800002B0DD04FF00003C5F206034FF00002E3
:103A9800C5F2060212691146FA790A431A610FE063
:103AA8004FF00003C5F206034FF00002C5F206020C
:103AB80012691146FA796FEA0202D2B20A401A6113
:103AC80007F10C07BD4680BC704700BF80B483B0C7
:103AD80000AF02460B46FA71BB71BB79002B0DD0C3
:103AE8004FF00003C5F206034FF00002C5F20602CC
:103AF80052691146FA790A435A610FE04FF0000300
:103B0800C5F206034FF00002C5F2060252691146DB
:103B1800FA796FEA0202D2B20A405A6107F10C0739
:103B2800BD4680BC704700BF80B485B000AF034677
:103B3800FB714FF00003FB734FF00003C5F206035F
:103B4800DB691A46FB791340002B03D04FF00103C1
:103B5800FB7302E04FF00003FB73FB7B184607F191
:103B68001407BD4680BC704780B485B000AF0346DB
:103B7800FB714FF00003FB734FF00003BB60FB7950
:103B880003F02003002B06D04FF00003C5F2060314
:103B98009B69BB6005E04FF00003C5F206035B6854
:103BA800BB60FA79BB681340002B03D04FF00103C8
:103BB800FB7302E04FF00003FB73FB7B184607F131
:103BC8001407BD4680BC704790B597B000AFB96088
:103BD8007B600346FB731346BB814FF000037B6198
:103BE8004FF000037B644FF0010387F85730BB6840
:103BF8003B647B683B65FB6EFB644FF00003BB6472
:103C080007F118031846FFF74DFDBB89C02B31D0CB
:103C1800B3F5807F70D0802B40F0C6804FF0000352
:103C2800FB873B6C1B681846FCF7EEFC0346BB623F
:103C38003B6C03F104033B643B6C1B681846FCF7C0
:103C4800E3FC0346FB623B6C03F104033B643B6CFF
:103C58001B681846FCF7D8FC03463B633B6C03F132
:103C680004033B643B6C1B681846FCF7CDFC034619
:103C78007B639AE04FF48073FB873B6C1B681846A4
:103C8800FCF7C2FC03463B623B6C03F104033B6454
:103C98003B6C1B681846FCF7B7FC03467B623B6C21
:103CA80003F104033B643B6C1B681846FCF7ACFC4F
:103CB8000346BB623B6C03F104033B643B6C1B682B
:103CC8001846FCF7A1FC0346FB623B6C03F10403B6
:103CD8003B643B6C1B681846FCF796FC03463B6349
:103CE8003B6C03F104033B643B6C1B681846FCF710
:103CF8008BFC03467B6358E04FF40073FB873B6CF7
:103D08001B681846FCF780FC0346BB613B6C03F15B
:103D180004033B643B6C1B681846FCF775FC0346C0
:103D2800FB613B6C03F104033B643B6C1B68184666
:103D3800FCF76AFC03463B623B6C03F104033B64FB
:103D48003B6C1B681846FCF75FFC03467B623B6CC8
:103D580003F104033B643B6C1B681846FCF754FCF6
:103D68000346BB623B6C03F104033B643B6C1B687A
:103D78001846FCF749FC0346FB623B6C03F104035D
:103D88003B643B6C1B681846FCF73EFC03463B63F0
:103D98003B6C03F104033B643B6C1B681846FCF75F
:103DA80033FC03467B6300E000BFFB7B002B35D16F
:103DB800FFF7E2FC4FF004033B874FF038037B87A3
:103DC8004FF00003BB8707F138031846FFF78CFB59
:103DD80007F118031846FFF723FC4FF00100FFF71F
:103DE800DDFC4FF01000FFF7BFFE03467B647B69E4
:103DF80003F101037B617B69B3F5803F02D07B6CE3
:103E0800002BEED17B6C002B04D04FF0000387F819
:103E180057300BE04FF004033B8707E007F1180326
:103E28001846FFF7FDFB4FF000033B874FF02003D8
:103E38007B874FF08003BB8707F138031846FFF7ED
:103E480053FBFFF799FC4FF00100FFF7A7FC4FF079
:103E58000003BB6467E03B6D1B681846FFF7C4FCB2
:103E68003B6D03F104033B653B6D1B681846FFF788
:103E7800BBFC3B6D03F104033B653B6D1B681846B7
:103E8800FFF7B2FC3B6D03F104033B653B6D1B6818
:103E98001846FFF7A9FC3B6D03F104033B654FF09F
:103EA80000037B614FF01000FFF75EFE03467B6462
:103EB8007B6903F101037B617B69B3F5803F02D025
:103EC8007B6C002BEED17B6C002B04D04FF00003F1
:103ED80087F8573023E0FC6CFFF796FC0346236015
:103EE800FB6C03F10403FB64FC6CFFF78DFC0346D9
:103EF8002360FB6C03F10403FB64FC6CFFF784FC98
:103F080003462360FB6C03F10403FB64FC6CFFF7BE
:103F18007BFC03462360FB6C03F10403FB64BB6C6E
:103F280003F11003BB64BA6CBB6E9A4203D297F8D4
:103F38005730002B8FD14FF00000FFF72FFC97F878
:103F48005730184607F15C07BD4690BD90B59BB049
:103F580000AFB9607A600246FA73BB814FF0000384
:103F68003B614FF000037B654FF0010387F8673032
:103F78007B683B65BB6F3B66D7F88030FB65BB68E9
:103F8800FB644FF00003BB6507F124031846FFF7F5
:103F980089FBBB89C02B32D0B3F5807F72D0802BD0
:103FA80040F0C9804FF00003A7F84A303B6D1B680A
:103FB8001846FCF729FB03467B633B6D03F10403BA
:103FC8003B653B6D1B681846FCF71EFB0346BB634D
:103FD8003B6D03F104033B653B6D1B681846FCF71A
:103FE80013FB0346FB633B6D03F104033B653B6D29
:103FF8001B681846FCF708FB03463B649CE04FF43B
:104008008073A7F84A303B6D1B681846FCF7FCFA2A
:104018000346FB623B6D03F104033B653B6D1B6884
:104028001846FCF7F1FA03463B633B6D03F10403C2
:104038003B653B6D1B681846FCF7E6FA03467B6355
:104048003B6D03F104033B653B6D1B681846FCF7A9
:10405800DBFA0346BB633B6D03F104033B653B6D31
:104068001B681846FCF7D0FA0346FB633B6D03F167
:1040780004033B653B6D1B681846FCF7C5FA03460D
:104088003B6459E04FF40073A7F84A303B6D1B6856
:104098001846FCF7B9FA03467B623B6D03F104034B
:1040A8003B653B6D1B681846FCF7AEFA0346BB62DE
:1040B8003B6D03F104033B653B6D1B681846FCF739
:1040C800A3FA0346FB623B6D03F104033B653B6DBA
:1040D8001B681846FCF798FA03463B633B6D03F1EF
:1040E80004033B653B6D1B681846FCF78DFA0346D5
:1040F8007B633B6D03F104033B653B6D1B6818460E
:10410800FCF782FA0346BB633B6D03F104033B658E
:104118003B6D1B681846FCF777FA0346FB633B6D5B
:1041280003F104033B653B6D1B681846FCF76CFA0A
:1041380003463B6400E000BFFB6C1B681846FCF7B5
:1041480063FA03467B61FB6C03F10403FB64FB6CBD
:104158001B681846FCF758FA0346BB61FB6C03F171
:104168000403FB64FB6C1B681846FCF74DFA034616
:10417800FB61FB6C03F10403FB64FB6C1B681846D2
:10418800FCF742FA03463B62FB7B002B39D1FFF771
:10419800F3FA4FF00403A7F844304FF03803A7F8B8
:1041A80046304FF00003A7F8483007F1440318469B
:1041B800FFF79AF907F124031846FFF731FA4FF091
:1041C8000100FFF7EBFA4FF01000FFF7CDFC0346B4
:1041D8007B653B6903F101033B613B69B3F5803FB4
:1041E80002D07B6D002BEED17B6D002B04D04FF0FD
:1041F800000387F867300DE04FF00403A7F8443058
:1042080008E007F124031846FFF70AFA4FF0000305
:10421800A7F844304FF02803A7F846304FF0800342
:10422800A7F8483007F144031846FFF75DF907F18E
:1042380014031846FFF760FAFFF79EFA4FF00100E3
:10424800FFF7ACFA4FF00003BB6567E03B6E1B68F5
:104258001846FFF7C9FA3B6E03F104033B663B6E51
:104268001B681846FFF7C0FA3B6E03F104033B6670
:104278003B6E1B681846FFF7B7FA3B6E03F1040361
:104288003B663B6E1B681846FFF7AEFA3B6E03F1C0
:1042980004033B664FF000033B614FF01000FFF74B
:1042A80063FC03467B653B6903F101033B613B69A2
:1042B800B3F5803F02D07B6D002BEED17B6D002BD8
:1042C80004D04FF0000387F8673023E0FC6DFFF758
:1042D8009BFA03462360FB6D03F10403FB65FC6D49
:1042E800FFF792FA03462360FB6D03F10403FB65B5
:1042F800FC6DFFF789FA03462360FB6D03F10403A5
:10430800FB65FC6DFFF780FA03462360FB6D03F144
:104318000403FB65BB6D03F11003BB65BA6DFB6F4E
:104328009A4203D297F86730002B8FD14FF00000E4
:10433800FFF734FA97F86730184607F16C07BD465F
:1043480090BD00BF90B59BB000AFB9607A600246DF
:10435800FA73BB814FF000033B614FF000037B65AC
:104368004FF0010387F867307B683B65BB6F3B669E
:10437800D7F88030FB65BB68FB644FF00003BB6572
:1043880007F124031846FFF78DF9BB89C02B32D0FB
:10439800B3F5807F72D0802B40F0C9804FF00003C6
:1043A800A7F84A303B6D1B681846FCF72DF9034601
:1043B8007B633B6D03F104033B653B6D1B6818464B
:1043C800FCF722F90346BB633B6D03F104033B652D
:1043D8003B6D1B681846FCF717F90346FB633B6DFA
:1043E80003F104033B653B6D1B681846FCF70CF9A9
:1043F80003463B649CE04FF48073A7F84A303B6D5A
:104408001B681846FCF700F90346FB623B6D03F195
:1044180004033B653B6D1B681846FCF7F5F803463B
:104428003B633B6D03F104033B653B6D1B6818461A
:10443800FCF7EAF803467B633B6D03F104033B6535
:104448003B6D1B681846FCF7DFF80346BB633B6D02
:1044580003F104033B653B6D1B681846FCF7D4F871
:104468000346FB633B6D03F104033B653B6D1B682F
:104478001846FCF7C9F803463B6459E04FF400734B
:10448800A7F84A303B6D1B681846FCF7BDF8034691
:104498007B623B6D03F104033B653B6D1B6818466B
:1044A800FCF7B2F80346BB623B6D03F104033B65BE
:1044B8003B6D1B681846FCF7A7F80346FB623B6D8B
:1044C80003F104033B653B6D1B681846FCF79CF839
:1044D80003463B633B6D03F104033B653B6D1B687F
:1044E8001846FCF791F803467B633B6D03F1040320
:1044F8003B653B6D1B681846FCF786F80346BB63B3
:104508003B6D03F104033B653B6D1B681846FCF7E4
:104518007BF80346FB633B6D03F104033B653B6D8E
:104528001B681846FCF770F803463B6400E000BFC0
:10453800FB6C1B681846FCF767F803467B61FB6C4D
:1045480003F10403FB64FB6C1B681846FCF75CF87A
:104558000346BB61FB6C03F10403FB64FB6C1B6843
:104568001846FCF751F80346FB61FB6C03F10403A2
:10457800FB64FB6C1B681846FCF746F803463B6275
:1045880007F124031846FFF74BF8FB7B002B04D1F7
:104598004FF00403A7F8443003E04FF00003A7F8F6
:1045A80044304FF03003A7F846304FF08003A7F8A7
:1045B800483007F144031846FEF796FF07F1140345
:1045C8001846FFF799F8FFF7D7F84FF00100FFF703
:1045D800E5F84FF00003BB6567E03B6E1B681846C3
:1045E800FFF702F93B6E03F104033B663B6E1B6861
:1045F8001846FFF7F9F83B6E03F104033B663B6E80
:104608001B681846FFF7F0F83B6E03F104033B669E
:104618003B6E1B681846FFF7E7F83B6E03F104038F
:104628003B664FF000033B614FF01000FFF79CFA28
:1046380003467B653B6903F101033B613B69B3F5C5
:10464800803F02D07B6D002BEED17B6D002B04D018
:104658004FF0000387F8673023E0FC6DFFF7D4F8CC
:1046680003462360FB6D03F10403FB65FC6DFFF754
:10467800CBF803462360FB6D03F10403FB65FC6D77
:10468800FFF7C2F803462360FB6D03F10403FB65E3
:10469800FC6DFFF7B9F803462360FB6D03F10403D3
:1046A800FB65BB6D03F11003BB65BA6DFB6F9A42E6
:1046B80003D297F86730002B8FD14FF00000FFF737
:1046C8006DF897F86730184607F16C07BD4690BD3E
:1046D80090B597B000AFB9607A603B600346FB7352
:1046E8004FF000037B614FF000037B644FF0010340
:1046F80087F85730BB683B647B683B65BB6EFB64DF
:104708004FF00003BB6407F118031846FEF7CAFF11
:10471800FB7B012B03D14FF000033B8702E04FF0F6
:1047280004033B874FF010037B874FF08003BB8760
:1047380007F138031846FEF7D7FE3B6C1B6818468E
:10474800FBF762FF03463B623B6C03F104033B64E7
:104758003B6C1B681846FBF757FF03467B6207F163
:1047680018031846FEF75CFFFFF706F84FF0010044
:10477800FFF714F84FF00003BB6443E03B6D1B6880
:104788001846FFF731F83B6D03F104033B653B6DB9
:104798001B681846FFF728F83B6D03F104033B65D7
:1047A8004FF000037B614FF01000FFF7DDF903467F
:1047B8007B647B6903F101037B617B69B3F5803F0F
:1047C80002D07B6C002BEED17B6C002B04D04FF019
:1047D800000387F8573011E0FC6CFFF715F8034623
:1047E8002360FB6C03F10403FB64FC6CFFF70CF81B
:1047F80003462360FB6C03F10403FB64BB6C03F109
:104808000803BB64BA6C3B689A4203D297F85730E6
:10481800002BB3D14FF00000FEF7C0FF97F85730D8
:10482800184607F15C07BD4690BD00BF90B59BB028
:1048380000AFB9607A603B600346FB734FF000033A
:104848003B614FF000037B654FF0010387F8673049
:10485800BB683B653B683B66FB6FFB657B68FB643D
:104868004FF00003BB6507F124031846FEF71AFF53
:10487800FB7B012B04D14FF00003A7F8443003E081
:104888004FF00403A7F844304FF01803A7F8463058
:104898004FF08003A7F8483007F144031846FEF7A5
:1048A80023FE3B6D1B681846FBF7AEFE0346FB6212
:1048B8003B6D03F104033B653B6D1B681846FBF732
:1048C800A3FE03463B6307F124031846FEF7A8FE40
:1048D800FB6C1B681846FBF797FE03467B61FB6C75
:1048E80003F10403FB64FB6C1B681846FBF78CFEA2
:1048F8000346BB6107F114031846FEF7FDFEFEF7F9
:104908003BFF4FF00100FEF749FF4FF00003BB6586
:1049180043E03B6E1B681846FEF766FF3B6E03F1EB
:1049280004033B663B6E1B681846FEF75DFF3B6E53
:1049380003F104033B664FF000033B614FF01000A6
:10494800FFF712F903467B653B6903F101033B61FD
:104958003B69B3F5803F02D07B6D002BEED17B6DB8
:10496800002B04D04FF0000387F8673011E0FC6D8E
:10497800FEF74AFF03462360FB6D03F10403FB6562
:10498800FC6DFEF741FF03462360FB6D03F1040352
:10499800FB65BB6D03F10803BB65BA6DBB6F9A423B
:1049A80003D297F86730002BB3D14FF00000FEF721
:1049B800F5FE97F86730184607F16C07BD4690BDBD
:1049C80090B597B000AFB9607A603B600346FB735F
:1049D8004FF000037B614FF000037B644FF001034D
:1049E80087F85730BB683B647B683B65BB6EFB64EC
:1049F8004FF00003BB6407F118031846FEF752FE98
:104A0800FB7B012B03D14FF000033B8702E04FF003
:104A180004033B874FF000037B874FF08003BB877D
:104A280007F138031846FEF75FFD3B6C1B68184614
:104A3800FBF7EAFD03463B623B6C03F104033B646E
:104A48003B6C1B681846FBF7DFFD03467B623B6C3B
:104A580003F104033B643B6C1B681846FBF7D4FD69
:104A68000346BB623B6C03F104033B643B6C1B686D
:104A78001846FBF7C9FD0346FB623B6C03F10403D0
:104A88003B643B6C1B681846FBF7BEFD03463B6363
:104A98003B6C03F104033B643B6C1B681846FBF753
:104AA800B3FD03467B6307F118031846FEF7B8FD0C
:104AB800FEF762FE4FF00100FEF770FE4FF00003B4
:104AC800BB6443E03B6D1B681846FEF78DFE3B6DEB
:104AD80003F104033B653B6D1B681846FEF784FE33
:104AE8003B6D03F104033B654FF000037B614FF01E
:104AF8001000FFF739F803467B647B6903F1010373
:104B08007B617B69B3F5803F02D07B6C002BEED1D3
:104B18007B6C002B04D04FF0000387F8573011E06E
:104B2800FC6CFEF771FE03462360FB6C03F1040383
:104B3800FB64FC6CFEF768FE03462360FB6C03F124
:104B48000403FB64BB6C03F10803BB64BA6C3B68E9
:104B58009A4203D297F85730002BB3D14FF0000098
:104B6800FEF71CFE97F85730184607F15C07BD465C
:104B780090BD00BF90B59BB000AFB9607A603B6054
:104B88000346FB734FF000033B614FF000037B6566
:104B98004FF0010387F86730BB683B653B683B66AD
:104BA800FB6FFB657B68FB644FF00003BB6507F197
:104BB80024031846FEF776FDFB7B012B04D14FF04A
:104BC8000003A7F8443003E04FF00403A7F844308B
:104BD8004FF00803A7F846304FF08003A7F8483095
:104BE80007F144031846FEF77FFC3B6D1B68184627
:104BF800FBF70AFD0346FB623B6D03F104033B65CB
:104C08003B6D1B681846FBF7FFFC03463B633B6D97
:104C180003F104033B653B6D1B681846FBF7F4FC86
:104C280003467B633B6D03F104033B653B6D1B68E7
:104C38001846FBF7E9FC0346BB633B6D03F104032D
:104C48003B653B6D1B681846FBF7DEFC0346FB63C0
:104C58003B6D03F104033B653B6D1B681846FBF78E
:104C6800D3FC03463B6407F124031846FEF7D8FC3F
:104C7800FB6C1B681846FBF7C7FC03467B61FB6CA3
:104C880003F10403FB64FB6C1B681846FBF7BCFCD0
:104C98000346BB6107F114031846FEF72DFDFEF726
:104CA8006BFD4FF00100FEF779FD4FF00003BB6587
:104CB80043E03B6E1B681846FEF796FD3B6E03F11A
:104CC80004033B663B6E1B681846FEF78DFD3B6E82
:104CD80003F104033B664FF000033B614FF0100003
:104CE800FEF742FF03467B653B6903F101033B6125
:104CF8003B69B3F5803F02D07B6D002BEED17B6D15
:104D0800002B04D04FF0000387F8673011E0FC6DEA
:104D1800FEF77AFD03462360FB6D03F10403FB6590
:104D2800FC6DFEF771FD03462360FB6D03F1040380
:104D3800FB65BB6D03F10803BB65BA6DBB6F9A4297
:104D480003D297F86730002BB3D14FF00000FEF77D
:104D580025FD97F86730184607F16C07BD4690BDEA
:104D680080B500AF4FF000504FF0010105F036FA62
:104D78004FF000504FF0000105F030FA80BD00BF41
:104D880080B485B000AF786039604FF00003FB60F5
:104D98004FF00003BB604FF4E843C4F200031B6804
:104DA800FB607B6840F6FE7202FA03F36FEA0303C6
:104DB800FA681340FB603B681A683B685B681A43F3
:104DC8003B689B681A433B68DB681343BB607B689E
:104DD800BA6802FA03F3FA681343FB604FF4E84336
:104DE800C4F20003FA681A6007F11407BD4680BCD4
:104DF800704700BF80B483B000AF78607B684FF025
:104E080000021A607B684FF000025A607B684FF01E
:104E180000029A607B684FF00002DA6007F10C0725
:104E2800BD4680BC704700BF80B483B000AF7860D7
:104E38000B46FB70FB78002B11D04FF4E843C4F20B
:104E480000034FF4E842C4F20002126811467A687F
:104E58004FF0010000FA02F20A431A6012E04FF420
:104E6800E843C4F200034FF4E842C4F200021268B7
:104E780011467A684FF0010000FA02F26FEA020266
:104E88000A401A6007F10C07BD4680BC704700BF96
:104E980080B483B000AF78600B46FB70FB78002BC2
:104EA80013D04FF4E843C4F200034FF4E842C4F2CD
:104EB8000002526811467A684FEA12124FF0010058
:104EC80000FA02F20A435A6014E04FF4E843C4F2CD
:104ED80000034FF4E842C4F20002526811467A68AF
:104EE8004FEA12124FF0010000FA02F26FEA0202D2
:104EF8000A405A6007F10C07BD4680BC704700BFE6
:104F080080B483B000AF0346FB71FB79002B0CD053
:104F18004FF4E843C4F200034FF4E842C4F200023D
:104F2800526842F003025A600BE04FF4E843C4F2BF
:104F380000034FF4E842C4F20002526822F0030270
:104F48005A6007F10C07BD4680BC704780B485B035
:104F580000AFF860B9601346FB71FB79002B10D0E5
:104F68004FF4E843C4F200034FF4E842C4F20002ED
:104F780012681146FA68B86800FA02F20A431A6021
:104F880011E04FF4E843C4F200034FF4E842C4F2DE
:104F9800000212681146FA68B86800FA02F26FEA6D
:104FA80002020A401A6007F11407BD4680BC704728
:104FB80080B485B000AF78600B467B804FF000036B
:104FC800FB604FF4E843C4F20003FB60FA687B68B7
:104FD800D31803F10803FB60FB687A881A6007F1AD
:104FE8001407BD4680BC704780B485B000AF7860B8
:104FF8000B467B804FF00003FB604FF4E843C4F29C
:105008000003FB60FA687B68D31803F11403FB60A4
:10501800FB687A881A6007F11407BD4680BC7047A0
:1050280080B485B000AF786013460A467A803B802A
:105038004FF00003FB604FF00003BB607B68082B58
:1050480006D17B884FEA03223B881343FB6005E0C7
:105058007B884FEA03423B881343FB604FF4E843E5
:10506800C4F20003BB607A68BB68D31803F120035D
:10507800BB60BB68FA681A6007F11407BD4680BCBC
:10508800704700BF80B485B000AF78604FF0000370
:10509800FB604FF4E843C4F20003FB607B684FEA0F
:1050A8009302FB68D31803F12C03FB60FB681B68B1
:1050B8009BB2184607F11407BD4680BC704700BF75
:1050C80080B483B000AF78600B46FB70FB78002B90
:1050D80011D04FF4E843C4F200034FF4E842C4F29D
:1050E8000002126811467A684FF4805000FA02F202
:1050F8000A431A6012E04FF4E843C4F200034FF485
:10510800E842C4F20002126811467A684FF48050EF
:1051180000FA02F26FEA02020A401A6007F10C076D
:10512800BD4680BC704700BF80B485B000AFF86052
:10513800B9601346FB71FB79002B10D04FF4E8439C
:10514800C4F200034FF4E842C4F2000212681146A8
:10515800FA68B86800FA02F20A431A6011E04FF4DC
:10516800E843C4F200034FF4E842C4F200021268B4
:105178001146FA68B86800FA02F26FEA02020A40B9
:105188001A6007F11407BD4680BC704780B485B02B
:1051980000AF786039604FF00003FB734FF4E843C9
:1051A800C4F200035B6B1A467B68396801FA03F3A3
:1051B8001340002B03D04FF00103FB7302E04FF0C4
:1051C8000003FB73FB7B184607F11407BD4680BC40
:1051D800704700BF80B483B000AF786039604FF487
:1051E800E843C4F200037A68396801FA02F25A63A4
:1051F80007F10C07BD4680BC704700BF80B485B07E
:1052080000AF786039604FF00003FB734FF0000384
:10521800BB604FF4E843C4F200031B681A467B687E
:10522800396801FA03F31340BB604FF4E843C4F252
:1052380000035B6B1A467B68396801FA03F3134075
:10524800002B06D0BB68002B03D04FF00103FB7383
:1052580002E04FF00003FB73FB7B184607F11407CD
:10526800BD4680BC704700BF80B483B000AF786093
:1052780039604FF4E843C4F200037A68396801FAE8
:1052880002F25A6307F10C07BD4680BC704700BFA5
:1052980080B400AF4FF40053CEF204031B684FEA0A
:1052A80013431846BD4680BC704700BF80B400AFAA
:1052B8004FF40053CEF204031B684FEA03534FEA3E
:1052C80013531846BD4680BC704700BF80B483B0F6
:1052D80000AF78600B46FB70FB78002B0DD04FF4C5
:1052E8000053CEF204034FF40052CEF20402526887
:1052F80011467A680A435A600EE04FF40053CEF222
:1053080004034FF40052CEF20402526811467A6840
:105318006FEA02020A405A6007F10C07BD4680BCDA
:10532800704700BF80B483B000AF78600B46FB7055
:10533800FB78002B0DD04FF40053CEF204034FF44A
:105348000052CEF20402926811467A680A439A60C3
:105358000EE04FF40053CEF204034FF40052CEF2A5
:105368000402926811467A686FEA02020A409A605B
:1053780007F10C07BD4680BC704700BF80B483B0FE
:1053880000AF78600B46FB70FB78002B0DD04FF414
:105398000053CEF204034FF40052CEF20402D26856
:1053A80011467A680A43DA600EE04FF40053CEF2F1
:1053B80004034FF40052CEF20402D26811467A6810
:1053C8006FEA02020A40DA6007F10C07BD4680BCAA
:1053D800704700BF80B400AF4FF00003C5F205036B
:1053E8004FF000021A604FF00003C5F205034FF0BA
:1053F8000002DA604FF00003C5F205034FF01F0208
:105408005A614FF00003C5F205034FF000029A619C
:105418004FF00003C5F205034FF00002DA614FF0C8
:105428000003C5F205034FF000021A624FF00003B3
:10543800C5F205034FF000025A62BD4680BC7047B2
:1054480080B485B000AF78604FF00003FB604FF088
:105458000003C5F205034FF00002C5F20502126809
:1054680022F4804222F001021A604FF00003C5F2D4
:1054780005031B68FB60FB6823F47E6323F01203BB
:10548800FB607B681A887B685B8813439AB27B68E9
:105498009B8813439AB27B68DB8813439AB27B6874
:1054A8001B8913439AB27B685B8913439AB27B6862
:1054B8009B8913439BB2FA681343FB604FF00003C8
:1054C800C5F20503FA681A6007F11407BD4680BCE7
:1054D800704700BF80B483B000AF78607B684FF03E
:1054E80000021A807B684FF000025A807B684FF0F8
:1054F80000029A807B684FF00002DA807B684FF0E8
:1055080000021A817B684FF000025A817B684FF0D5
:1055180000029A8107F10C07BD4680BC704700BFA6
:1055280080B483B000AF78604FF00003C5F2050384
:105538007A68528811467A6812884FEA02420A430A
:105548001A624FF00003C5F205037A68D288114643
:105558007A6892884FEA02420A435A6207F10C07B6
:10556800BD4680BC704700BF80B483B000AF03461F
:10557800FB71FB79002B0CD04FF00003C5F205033B
:105588004FF00002C5F20502126842F004021A60E8
:105598000BE04FF00003C5F205034FF00002C5F21F
:1055A8000502126822F004021A6007F10C07BD46D2
:1055B80080BC704780B483B000AF78604FF00003C0
:1055C800C5F205037A68127811467A6852784FEA6C
:1055D800022211437A6892784FEA024211437A68AC
:1055E800D2784FEA02620A439A6107F10C07BD4676
:1055F80080BC704780B483B000AF0346FB71FB7971
:10560800002B0CD04FF00003C5F205034FF0000249
:10561800C5F20502126842F008021A600BE04FF06A
:105628000003C5F205034FF00002C5F20502126837
:1056380022F008021A6007F10C07BD4680BC7047CB
:1056480080B483B000AF0346FB71FB79002B0CD00C
:105658004FF00003C5F205034FF00002C5F2050242
:10566800126842F480421A600BE04FF00003C5F262
:1056780005034FF00002C5F20502126822F48042C9
:105688001A6007F10C07BD4680BC704780B483B030
:1056980000AF0346FB71FB79002B0CD04FF00003E1
:1056A800C5F205034FF00002C5F20502126842F088
:1056B80001021A600BE04FF00003C5F205034FF03A
:1056C8000002C5F20502126822F001021A6007F111
:1056D8000C07BD4680BC704780B400AF4FF0000394
:1056E800C5F205039B6A1846BD4680BC704700BFDB
:1056F80080B483B000AF02460B46FA807B717B7999
:10570800002B0DD04FF00003C5F205034FF0000247
:10571800C5F20502D2681146FA880A43DA600FE03A
:105728004FF00003C5F205034FF00002C5F2050271
:10573800D2681146FA886FEA020292B20A40DA6029
:1057480007F10C07BD4680BC704700BF80B487B026
:1057580000AF0346FB804FF00003FB754FF00003DA
:105768003B61FB884FEA13339BB2FB60FB68012B5C
:1057780006D14FF00003C5F205039B683B610FE0BB
:10578800FB68022B06D14FF00003C5F205035B68E6
:105798003B6105E04FF00003C5F205031B693B615F
:1057A800FA883B691340002B03D04FF00103FB75C7
:1057B80002E04FF00003FB75FB7D184607F11C075C
:1057C800BD4680BC704700BF80B483B000AF0346BD
:1057D800FB804FF00003C5F20503FA885A6107F110
:1057E8000C07BD4680BC704780B485B000AF034647
:1057F800FB804FF00003FB734FF00003BB604FF0DA
:105808000003C5F205031B691A46FB881340BB60F9
:10581800BB68002B03D04FF00103FB7302E04FF08D
:105828000003FB73FB7B184607F11407BD4680BCD9
:10583800704700BF80B483B000AF0346FB804FF0D1
:105848000003C5F20503FA885A6107F10C07BD4643
:1058580080BC704780B483B000AF78607B681B68F9
:1058680023F001027B681A607B684FF000021A601F
:105878007B684FF000025A607B684FF000029A6024
:105888007B684FF00002DA607B684FF000021A6113
:105898007B684FF021025A617A6846F21003C4F21D
:1058A80002039A4207D14FF4C043C4F202034FF0F7
:1058B8003D029A60EBE07A6846F22803C4F20203DC
:1058C8009A4207D14FF4C043C4F202034FF4746202
:1058D8009A60DCE07A6846F24003C4F202039A4216
:1058E80007D14FF4C043C4F202034FF474129A6014
:1058F800CDE07A6846F25803C4F202039A4207D10F
:105908004FF4C043C4F202034FF074629A60BEE0E1
:105918007A6846F27003C4F202039A4209D14FF43E
:10592800C043C4F202034FF03D02C2F20002DA6043
:10593800ADE07A6846F28803C4F202039A4209D1BC
:105948004FF4C043C4F202034FF47462C2F200027F
:10595800DA609CE07A6846F2A003C4F202039A4235
:1059680009D14FF4C043C4F202034FF00002C2F25F
:105978003D02DA608BE07A6846F2B803C4F20203AB
:105988009A4207D14FF4C043C4F202034FF03D528C
:10599800DA607CE07A6846F21043C4F202039A4265
:1059A80007D14FF4C843C4F202034FF03D029A6096
:1059B8006DE07A6846F22843C4F202039A4207D19E
:1059C8004FF4C843C4F202034FF474629A605EE075
:1059D8007A6846F24043C4F202039A4207D14FF470
:1059E800C843C4F202034FF474129A604FE07A6815
:1059F80046F25843C4F202039A4207D14FF4C8430F
:105A0800C4F202034FF074629A6040E07A6846F28A
:105A18007043C4F202039A4209D14FF4C843C4F256
:105A280002034FF03D02C2F20002DA602FE07A680A
:105A380046F28843C4F202039A4209D14FF4C8439C
:105A4800C4F202034FF47462C2F20002DA601EE08C
:105A58007A6846F2A043C4F202039A4209D14FF48D
:105A6800C843C4F202034FF00002C2F23D02DA60FA
:105A78000DE07A6846F2B843C4F202039A4206D1AE
:105A88004FF4C843C4F202034FF03D52DA6007F105
:105A98000C07BD4680BC704780B485B000AF786005
:105AA80039604FF00003FB607B681B68FB60FA6895
:105AB80048F23F03CFF21C031340FB603B681A68AF
:105AC8003B68DB681A433B685B691A433B689B6920
:105AD8001A433B68DB691A433B681B6A1A433B68F5
:105AE8005B6A1A433B689B6A1A433B685B6B1A43C1
:105AF8003B689B6B1343FA681343FB607B68FA6847
:105B08001A607B685B69FB60FB6823F00703FB6036
:105B18003B68DA6A3B681B6B1343FA681343FB6004
:105B28007B68FA685A613B681A697B685A603B6807
:105B38005A687B689A603B689A687B68DA6007F104
:105B48001407BD4680BC704780B483B000AF78604E
:105B58007B684FF000021A607B684FF000025A60C1
:105B68007B684FF000029A607B684FF00002DA60B1
:105B78007B684FF000021A617B684FF000025A619F
:105B88007B684FF000029A617B684FF00002DA618F
:105B98007B684FF000021A627B684FF000025A627D
:105BA8007B684FF000029A627B684FF00002DA626D
:105BB8007B684FF000021A637B684FF000025A635B
:105BC8007B684FF000029A6307F10C07BD4680BC62
:105BD800704700BF80B483B000AF78600B46FB709D
:105BE800FB78002B06D07B681B6843F001027B68BA
:105BF8001A6005E07B681B6823F001027B681A6065
:105C080007F10C07BD4680BC704700BF80B483B065
:105C180000AF786039603B68002B06D07B681B6852
:105C280043F400427B681A6005E07B681B6823F434
:105C380000427B681A6007F10C07BD4680BC7047BC
:105C480080B483B000AF786039603B68002B06D021
:105C58007B681B6843F020027B681A6005E07B685C
