:020000040800F2
:10000000401500201D5C0008255C0008295C0008E4
:100010002D5C0008315C0008355C00080000000021
:10002000000000000000000000000000395C000833
:100030003D5C000800000000415C0008455C0008D1
:10004000495C00084D5C0008515C0008555C0008E4
:10005000595C00085D5C0008615C0008655C000894
:10006000695C00086D5C0008715C0008755C000844
:10007000795C00087D5C0008815C0008855C0008F4
:10008000895C00088D5C0008915C0008955C0008A4
:10009000995C00089D5C0008A15C0008A55C000854
:1000A000A95C0008AD5C0008B15C0008B55C000804
:1000B000B95C0008BD5C0008C15C0008C55C0008B4
:1000C000C95C0008CD5C0008D15C0008D55C000864
:1000D000D95C0008DD5C0008E15C0008E55C000814
:1000E000E95C0008ED5C0008F15C0008F55C0008C4
:1000F000F95C0008FD5C0008015D0008055D000872
:10010000095D0008F95300080D5D0008115D000845
:10011000155D0008195D00081D5D0008215D0008DF
:10012000255D0008295D00082D5D000801540008C8
:1001300030B403000C0015006A1E002D04D0257891
:100140001D70641C5B1CF6E730BC704710B40300E4
:100150001400621E002C02D019705B1CF8E710BC62
:10016000704770B403001C000D0000201600721EC2
:10017000002E06D020782E78801B6D1C641C002871
:10018000F4D070BC70470278002A04D002788A420A
:1001900001D0401CF7E70078704770B50400207963
:1001A000002822D0206B050001232A0014F134011D
:1001B000607801F0A5FE002801D0012016E00020A3
:1001C0002071606A281AE16988420ED2E078060040
:1001D000022E0AD3E069451901232A0014F13401E3
:1001E000607801F08DFE761EF2E7002070BD38B514
:1001F00004000D00206B854212D02000FFF7CDFFD8
:10020000002801D001200CE001232A0014F1340160
:10021000607801F051FE002801D0012001E0256343
:10022000002032BD38B504002000FFF7B6FF0500FE
:10023000EDB2002D5FD12078032853D160790128D9
:1002400050D14FF40072002114F13400FFF77EFF0B
:10025000552084F83202AA2084F83302522084F810
:100260003400522084F83500612084F836004120A3
:1002700084F83700722084F81802722084F819027A
:10028000412084F81A02612084F81B02206984F856
:100290001C02206980B2000A84F81D022069000C4B
:1002A00084F81E022069000E84F81F02E06884F8BA
:1002B0002002E06880B2000A84F82102E068000CA5
:1002C00084F82202E068000E84F82302206A401CB1
:1002D00020630123226B14F13401607801F010FED9
:1002E0000020607100220021607801F02DFE0028BE
:1002F00001D0012005002800C0B232BD0200891ED5
:100300009069801E814201D3002003E09078D26A78
:1003100000FB012070472DE9F04104000D00022D83
:1003200002D3A069854201D3012071E02078012821
:1003300004D06BD303284AD031D367E0A84618EB2A
:100340005808606A10EB58212000FFF750FF002882
:100350005CD14FF40070B8FBF0F101FB108108197B
:1003600090F83400060018F10108606A10EB58217B
:100370002000FFF73CFF002848D14FF40070B8FB85
:10038000F0F101FB1081081990F8340056EA0026BC
:10039000E80701D5300901E03005000D38E0606A5A
:1003A00010EB15212000FFF722FF00282ED1680056
:1003B0004FF40071B0FBF1F202FB1102101934305E
:1003C00007007878397851EA002080B220E0606A2E
:1003D00010EBD5112000FFF70AFF002816D1A80066
:1003E0004FF40071B0FBF1F202FB1102101934302E
:1003F0000700F878B978090451EA0060797850EA82
:100400000120397808430001000901E05FF0FF3066
:10041000BDE8F0812DE9F84304000D001600022D1F
:1004200002D3A069854202D302208146A0E0207851
:10043000012805D0C0F0988003286BD04CD393E0FE
:100440002F0017EB5707606A10EB57212000FFF7CA
:10045000CEFE81465FFA89F9B9F1000F40F086803F
:100460004FF40070B7FBF0F101FB10710819343044
:100470008046E80706D598F8000010F00F0050EA13
:10048000061000E0300088F800007F1C0120207179
:10049000606A10EB57212000FFF7A9FE81465FFA42
:1004A00089F9B9F1000F61D14FF40070B7FBF0F199
:1004B00001FB1071081934308046E80701D5300976
:1004C00007E098F8000010F0F000310A11F00F0179
:1004D000084388F8000049E0606A10EB152120000D
:1004E000FFF785FE81465FFA89F9B9F1000F3DD12A
:1004F00068004FF40071B0FBF1F202FB1102101919
:100500003430804688F80060300080B2000A88F8F5
:1005100001002BE0606A10EBD5112000FFF767FEA9
:1005200081465FFA89F9B9F1000F1FD1A8004FF495
:100530000071B0FBF1F202FB110210193430804659
:1005400098F80300000610F07040064388F8006039
:10055000300080B2000A88F80100300C88F80200F0
:10056000300E88F8030001E002208146012020714E
:100570004846C0B2BDE8F283F8B504000D00022D74
:1005800002D3A069854202D3022006002CE000209D
:100590000600A069854227D229002000FFF7BBFE94
:1005A0000700002F20D0012F02D1022006001BE0FF
:1005B00017F1010F02D10120060015E000222900E9
:1005C0002000FFF727FF0600F6B2002E0CD12069AD
:1005D00010F1010F06D02069401C2061607950F0B5
:1005E000010060713D00D4E73000C0B2F2BD2DE9DA
:1005F000F84304000D00002D0AD1E0688046B8F1F0
:10060000000F02D0A069804511D3012080460EE082
:1006100029002000FFF77FFE0600022E01D20120F4
:1006200053E0A069864201D230004EE0A84647461A
:100630007F1CA069874205D302200700B84501D27C
:10064000002042E039002000FFF765FE0600002E82
:100650000CD17FF0704239002000FFF7DBFE8146AD
:100660005FFA89F9B9F1000F13D10AE016F1010F11
:1006700001D0012E01D1300027E04745D8D100201C
:1006800023E0002D05D03A0029002000FFF7C2FE2C
:1006900081465FFA89F9B9F1000F0CD1E760206952
:1006A00010F1010F10D02069401E2061607950F0D8
:1006B0000100607108E05FFA89F9B9F1010F02D118
:1006C0005FF0FF3700E001273800BDE8F28370B427
:1006D0000200506A001D0500480A1668B678B0FB93
:1006E000F6F00300286804002D1D002C01D1002025
:1006F00007E0A34202D22868C01802E01B1B2D1D90
:10070000F0E770BC7047F8B504000D00E580A06804
:100710000600012E03D020688069864201D30220A2
:100720004BE0002E06D120680078032802D1206813
:10073000806A0600002E0ED1E66020680089ADB206
:10074000854201D3022038E02068806AADB210EB08
:100750001510206125E02068807880B20001070034
:10076000ADB2BFB2BD4213D331002068FFF7D3FD55
:10077000060016F1010F01D101201EE0022E03D365
:1007800020688069864201D3022016E0ED1BE7E76E
:10079000E66031002068FFF7B1FDADB210EB151037
:1007A0002061ADB21020B5FBF0F101FB10512068C3
:1007B00010EB4110343060610020F2BD2DE9F041B2
:1007C00004000D00E088401C0700BFB2002F02D0DB
:1007D0002069002801D104208CE0BFB21020B7FBB3
:1007E000F0F101FB1071002977D12069401C2061D4
:1007F000E068002806D120680089BFB287426CD328
:10080000042077E0BFB220688078401E10EA171FEE
:1008100063D1E1682068FFF77EFD0600022E01D259
:10082000022067E016F1010F01D1012062E020688B
:10083000806986424BD3002D01D104205AE0E16843
:100840002068FFF7D4FE0600002E01D1072051E0FA
:10085000012E01D102204DE016F1010F01D101203E
:1008600048E02068FFF799FC002801D0012041E012
:100870004FF40072002120683430FFF767FC31002C
:100880002068FFF73BFD2168086300208046206850
:1008900080785FFA88F8804511D2206801210171C3
:1008A0002068FFF77AFC002801D0012022E02068B0
:1008B000006B401C2168086318F10108E7E7206815
:1008C000006B5FFA88F8B0EB080021680863E66007
:1008D00031002068FFF712FD2061E780BFB21020D1
:1008E000B7FBF0F101FB1071206810EB41103430C0
:1008F00060610020BDE8F081F8B504000D00002122
:100900002000FFF700FF0600F6B2002E1FD10020E6
:10091000070021692068FFF76AFC0600F6B2002E86
:1009200015D160690078E52803D060690078002857
:1009300003D17F1CAF4202D109E000200700012152
:100940002000FFF73BFF0600F6B2002EE1D0F6B222
:10095000042E01D1072006003000C0B2F2BD10B451
:100960000200CB7E8C7E54EA03239BB218001378DE
:10097000032B06D14B7D0C7D54EA03239BB250EA36
:10098000034010BC704781760A0092B2120AC27608
:100990000A0C02750A0C92B2120A427570472DE9D0
:1009A000F84304000D00287830F04000401E0D216F
:1009B000484306000020070001208046DFF8600A57
:1009C000385C40194078DFF8581A795C495D51EA83
:1009D000002081461FFA88F8B8F1000F12D048466F
:1009E00080B201F006FB8046FF2E09D234F81600D3
:1009F00001F0FFFA761C1FFA88F880B2804509D012
:100A0000002019E01FFA89F94FF6FF70814501D0E7
:100A1000002011E07F1C0D2FD0D3287840060AD586
:100A20001FFA88F8B8F1000F05D034F81600002836
:100A300001D0002000E00120BDE8F283F0B4020004
:100A4000087810F03F00401E0D2778430300002077
:100A5000040001200500DFF8C809205C4018407838
:100A6000DFF8BC79E75D7F5C57EA00200600ADB295
:100A7000002D08D0FF2B01D3002019E0350022F80B
:100A800013605B1C06E0B6B24FF6FF70864201D0E1
:100A900000200DE0641C0D2CDDD30878400606D53F
:100AA000FF2B01D3002003E0002022F813000120D7
:100AB000F0BC7047F0B44B730F27CF7200270F7351
:100AC00000278F760027CF76D2B2571E5FF00D0C2D
:100AD0000CFB07F73C0000273E00BFB23D00B6B25A
:100AE0004FF6FF77BE4203D030F814703E00641C0E
:100AF000DFF82C79EF5D7E54DFF82479EF5D7F1805
:100B0000B6B25FEA162C87F801C0B6B2002E02D149
:100B10004FF6FF773E006D1C0D2DE0D3B6B24FF6B9
:100B2000FF77BE4203D030F81470002F01D152F08D
:100B300040020A70F0BC70472DE9FC4704000D002C
:100B4000160099460B2229002000FFF7F1FA1FFA40
:100B500089F9B9F1060F0CDB1FFA89F95FEAC93090
:100B600010EB5900318811EB0009B61C30880028C1
:100B7000F2D1072080461FFA89F9102099FBF0F185
:100B800001FB109111F130000700FFB23A2F00DB9A
:100B9000FF1D00A808F80070B8F101081FFA89F9D4
:100BA000102099FBF0F91FFA89F9B9F1000FE2D191
:100BB00000A87E2108F8001000208246C24506D217
:100BC0001AF80400202802D01AF1010AF6E750466C
:100BD00010F1010AB8F1080F05D200A918F80110A8
:100BE00018F1010800E020210155BAF1080FEED3F9
:100BF000BDE8F387010000200B22C0B2C30113EB54
:100C000050000B781818491C521E002AF5D1C0B2AA
:100C100070472DE9F047040000212000FFF773FD25
:100C200082465FFA8AFABAF1000F02D05046C0B28B
:100C300072E0FF208146804621692068FFF7D7FADD
:100C400082465FFA8AFABAF1000F63D16069060042
:100C500030780500EDB2002D02D10420824659E023
:100C6000F07A10F03F000700EDB2E52D04D0380710
:100C700005D5FFB20F2F02D0FF20804640E0FFB223
:100C80000F2F21D1E06900283AD0680606D5707B85
:100C9000814615F0BF05A846E0882084EDB25FFAD2
:100CA00088F845450DD1707B5FFA89F9814508D1F7
:100CB0003100E069FFF773FE002802D0B8F10108A7
:100CC00001E04FF0FF081BE05FFA88F8B8F1000F71
:100CD00006D13000FFF78EFF5FFA89F9814519D000
:100CE000FF2080464FF6FF702084A069C07AC007BD
:100CF00006D40B22A1693000FFF733FA002809D08F
:100D000000212000FFF75AFD82465FFA8AFABAF105
:100D1000000F91D05046C0B2BDE8F0872DE9F84FE2
:100D200004000D004FF0FF0A4FF0FF0B04200600F7
:100D30002069002868D021692068FFF758FA06006A
:100D4000F6B2002E60D16069814699F800008046B5
:100D50005FFA88F8B8F1000F02D10420060053E0D2
:100D600099F80B0010F03F0007005FFA88F8B8F11F
:100D7000E50F08D0FFB2082F01D1012000E00020CC
:100D8000C0B2A84202D0FF20824635E0FFB20F2F4A
:100D900022D15FEA486007D599F80D00834618F024
:100DA000BF08C246E08820845FFA88F85FFA8AFAB2
:100DB000D0450ED199F80D005FFA8BFB834508D121
:100DC0004946E069FFF73AFE002802D0BAF1010A6D
:100DD00001E04FF0FF0A0FE05FFA8AFABAF1000F64
:100DE00006D14846FFF706FF5FFA8BFB834502D02A
:100DF0004FF6FF70208407E000212000FFF7DEFCA3
:100E00000600F6B2002E93D0F6B2002E01D00020DC
:100E100020613000C0B2BDE8F28F2DE9F04784B008
:100E20000400A0698046E06982460C22414600A881
:100E3000FFF77EF99DF80B00800601D50620A1E0A2
:100E40009DF80B00C0072AD5002088F80B00002071
:100E5000E06101200600B6B2642E0FDA33009BB2C7
:100E6000524600A94046FFF767FE2000FFF7D1FE7B
:100E70000500EDB2002D01D1761CECE7B6B2642E70
:100E800001D107207EE0EDB2042D02D02800C0B2CF
:100E900078E09DF80B0088F80B00C4F81CA09DF8C2
:100EA0000B00800710D500200600B6B23AF81600F5
:100EB000002801D0761CF8E7B6B216F119000D2112
:100EC00090FBF1F0070001E001200700BFB23900FC
:100ED0002000FFF711FD0500EDB2002D32D17F1E7D
:100EE000380080B200282DD0E088C11B89B22000D4
:100EF000FFF709FC0500EDB2002D23D1A069FFF733
:100F000079FE814621692068FFF771F90500EDB28D
:100F1000002D17D14B46DBB23A00D2B26169E069CD
:100F2000FFF7C8FD20680121017100212000FFF7B3
:100F300045FC0500EDB2002D04D17F1E380080B2C3
:100F40000028DFD1EDB2002D1AD121692068FFF70A
:100F50004EF90500EDB2002D12D12022002160696A
:100F6000FFF7F4F80B22A1696069FFF7E1F8A069C7
:100F7000C07A10F0180061690873206801210171BE
:100F80002800C0B204B0BDE8F08770B50400E08866
:100F90000600208C4FF6FF71884201D1310000E03D
:100FA000218C89B22000FFF7AEFB0500EDB2002DC9
:100FB0001ED121692068FFF71AF90500EDB2002D56
:100FC00011D16069E5210170206801210171E0887B
:100FD000B6B2B04207D200212000FFF7EFFB0500B8
:100FE000EDB2002DE5D0EDB2042D01D102200500B7
:100FF0002800C0B270BD2DE9F34F81B0029800689F
:10100000060030782F2802D030785C2801D1761C79
:10101000F7E70198C06905000020814682461AF86A
:10102000060007001AF1010ABFB2202F05DBBFB28C
:101030002F2F02D0BFB25C2F07D11AEB0600029906
:101040000860BFB2202F26DA22E0B9F1FF0F01D3EA
:1010500006202FE1FFB20121380080B200F0A2FF8C
:101060000700BFB2002F01D1062023E1BFB2802FBD
:1010700009DABFB23900DFF88008FFF784F80028EA
:1010800001D0062016E125F8197019F10109C6E70B
:101090005FF0040B01E05FF0000BB9F1010F05D127
:1010A00015EB490030F8020C2E280ED0B9F1020FD2
:1010B00027D115EB490030F8020C2E2821D115EB71
:1010C000490030F8040C2E281BD1002025F8190007
:1010D00000208046B8F10B0F0BD2C84501D22E205C
:1010E00000E020200199896908F8010018F1010841
:1010F000F0E7019880695BF0200108F800100020FB
:10110000D8E0B9F1000F0DD015EB490030F8020C12
:101110000700BFB2202F02D0BFB22E2F02D1B9F1EB
:101120000109EEE7B9F1000F01D10620C2E000206D
:1011300025F819000B22202101988069FFF706F895
:101140000020824635F81A00202803D035F81A000E
:101150002E2802D11AF1010AF4E7BAF1000F01D0EA
:101160005BF0030BB9F1000F08D015EB490030F824
:10117000020C2E2802D0B9F10109F3E700208046C5
:1011800004000820009035F81A0007001AF1010A3F
:10119000BFB2002F5FD0BFB2202F04D0BFB22E2F1E
:1011A00004D1CA4502D05BF0030BECE70098804500
:1011B00001D2CA4512D100980B2802D15BF0030B73
:1011C00049E0CA4501D05BF0030BD14543D3CA4681
:1011D000082080460B200090A400D4E7BFB2802FE7
:1011E00010DB0021380080B200F0DCFE0700BFB247
:1011F000002F05D0BFB2DFF80407381810F8807C44
:101200005BF0020BBFB2002F07D0BFB23900DFF88E
:10121000F006FEF7B8FF002804D05F2007005BF05F
:10122000030B11E0BFB2412F05DBBFB25B2F02DA27
:1012300054F0020408E0BFB2612F05DBBFB27B2F80
:1012400002DA54F00104203F0198806908F8007028
:1012500018F1010897E7019880690078E52803D123
:1012600001988069052101700098082800D1A40028
:10127000E4B214F00C000C2804D0E4B214F0030023
:10128000032801D15BF0020B5FEA8B700DD4E4B24E
:1012900014F00300012801D15BF0100BE4B214F04C
:1012A0000C00042801D15BF0080B0198806980F8DC
:1012B0000BB00020BDE8FE8F01005FF0FF300A6830
:1012C000002A14D00A681278303A100009280CD28B
:1012D0000A6852783A2A08D10A68921C0A600128E2
:1012E00005DB5FF0FF32100001E0002210007047C4
:1012F000F2B50400009800782F2803D000980078F9
:101300005C2805D10098401C00900020A06002E0FD
:1013100020684069A06000980078202807D200214A
:101320002000FFF7F0F905000020606134E000A91B
:101330002000FFF760FE0500EDB2002D2CD120004B
:10134000FFF767FC0500A069C07A0700EDB2002D29
:1013500012D0EDB2042D0ED1B80608D50020A06041
:10136000002060617807E2D50020050003E07807DF
:1013700001D4052005000FE078070DD46069060050
:10138000F07AC00602D40520050005E0310020688F
:10139000FFF7E5FAA060CAE72800C0B2F2BD38B591
:1013A00004000D00002020715FF0FF302063290051
:1013B0002000FEF71CFF002801D003202DE094F848
:1013C000330294F8321251EA002080B24AF65521D5
:1013D000884201D0022020E094F86C0094F86B1051
:1013E000090251EA004094F86A100843DFF8141526
:1013F000884201D1002010E094F8880094F887100A
:10140000090251EA004094F886100843DFF8F4140A
:10141000884201D1002000E0012032BD0000000020
:10142000E05B00082DE9F74F88B0089800210160C3
:101430000998FFF741FF03900398002801D50B207E
:101440000BE20398DFF8C01451F820008146B9F18F
:10145000000F01D10C2000E20898C0F8009099F824
:101460000000002810D099F8010000F022FD0400CF
:10147000E00709D49DF82800002803D0600701D5B3
:101480000A20EAE10020E8E1002089F80000039842
:1014900089F8010099F8010000F008FD0400E00758
:1014A00001D50320D9E19DF82800002803D060076A
:1014B00001D50A20D1E10020050029004846FFF7A8
:1014C0006EFF82465FFA8AFABAF1010F3BD1002023
:1014D0008346BBF1040F18D219EB0B1000F2F21087
:1014E000017900290AD0C17A827A120452EA016194
:1014F000427A51EA0221007A084300E0002004A960
:1015000041F82B001BF1010BE3E700208346BBF100
:10151000000F01D0BBF1010B04A850F82B0005000F
:10152000002D04D029004846FFF739FF00E00220D3
:1015300082465FFA8AFABAF1000F04D01BF1010B60
:10154000BBF1040FE8D35FFA8AFABAF1030F01D1B5
:10155000012082E15FFA8AFABAF1000F01D00D2072
:101560007BE199F8400099F83F1051EA002080B2E1
:10157000B0F5007F01D00D206FE199F84B0099F88C
:101580004A1051EA002080B20600002E0ED199F8D0
:101590005B0099F85A10090451EA006099F8591053
:1015A00050EA012099F8581008430600C9F81C6059
:1015B00099F8440089F8030099F80300012805D040
:1015C00099F80300022801D00D2046E199F80300A4
:1015D000464399F8410089F8020099F80200002872
:1015E00006D099F8020099F80210491E084201D06D
:1015F0000D2032E199F8460099F8451051EA002093
:10160000A9F80800B9F808001021B0FBF1F202FBBC
:101610001102002A01D00D201FE199F8480099F825
:10162000471051EA002080B20090009800280ED1A7
:1016300099F8570099F85610090451EA006099F892
:10164000551050EA012099F854100843009099F879
:10165000430099F8421051EA0020ADF80400BDF8AB
:101660000400002801D10D20F7E0BDF80400301877
:10167000B9F8081010EB11100290009802998842F6
:1016800001D20D20E9E000980299401A99F8021061
:10169000B0FBF1F00700002F01D10D20DDE00120AB
:1016A000824640F6F670874201D3022082464FF60A
:1016B000F670874201D303208246B81CC9F818008F
:1016C000C9F82050BDF804004019C9F82400029858
:1016D0004019C9F82C005FFA8AFABAF1030F1AD13F
:1016E000B9F80800002801D00D20B6E099F8630091
:1016F00099F86210090451EA006099F8611050EA03
:10170000012099F860100843C9F82800D9F818009A
:10171000800080461EE0B9F80800002801D10D20A5
:101720009BE0D9F824003018C9F828005FFA8AFA3B
:10173000BAF1020F04D1D9F818005FEA400809E0B5
:10174000D9F818000321484399F8181011F0010145
:1017500011EB5008D9F81C0008F2FF11B0EB512F23
:1017600001D20D2079E05FF0FF30C9F81000C9F810
:101770000C00802089F805005FFA8AFABAF1030F9D
:101780005ED199F8650099F8641051EA002080B2A2
:10179000012855D1691C4846FEF729FD00284FD184
:1017A000002089F8050099F8330299F8321251EABD
:1017B000002080B24AF65521884241D199F837007D
:1017C00099F83610090451EA006099F8351050EA8A
:1017D000012099F8341008434C49884230D199F8D7
:1017E0001B0299F81A12090451EA006099F81912BB
:1017F00050EA012099F818120843454988421FD140
:1018000099F81F0299F81E12090451EA006099F82C
:101810001D1250EA012099F81C120843C9F8100063
:1018200099F8230299F82212090451EA006099F804
:10183000211250EA012099F820120843C9F80C003F
:1018400089F800A033480088401C32490880A9F874
:1018500006000020C9F8140000200BB0BDE8F08F8E
:1018600038B504002500002D0BD02868002808D0CA
:1018700028680078002804D02868C088A988884291
:1018800001D0092008E02868407800F012FBC0076A
:1018900001D5032000E0002032BDF3B581B0140073
:1018A00002A8FFF709FD0600002E01D50B2021E05C
:1018B000154850F826000500002D01D000202870A2
:1018C0000198002802D00198002101700E4801996A
:1018D00040F826100198002802D0E4B2012C01D073
:1018E000002007E0002202A901A8FFF79BFD0700E6
:1018F0003800C0B2FEBD0000F05B0008F85A0008D6
:10190000145C000846415400040500205252614115
:1019100072724161380500202DE9F2478DB0040054
:101920009046002C01D10920CEE00020206018F064
:101930001F0818F0FE020DA900A8FFF773FD0500AF
:10194000EDB2002D40F0BE804FF4007000F072FB4D
:101950000700002F01D11120B6E0079709A80690D3
:101960000D9900A8FFF7C4FC050005980600EDB22C
:10197000002D03D1002E01D1062005001C2018EAFD
:10198000000F5DD0EDB2002D0BD0EDB2042D03D1D0
:1019900000A8FFF742FA050058F00808059806006D
:1019A0000BE0F07A1121084202D00720050004E084
:1019B0005FEA487001D508200500EDB2002D50D136
:1019C0005FEA08704DD500F041FB814686F80E9025
:1019D000484680B2000AF0735FEA194030745FEA4B
:1019E000196070740020F07200203077002070774A
:1019F0000020B0770020F07731000098FEF7AFFFAD
:101A0000824600213000FEF7BEFF009801210171DF
:101A1000BAF1000F25D00098006B8146514600981E
:101A2000FEF7AAFD0500EDB2002D1AD10098BAF11B
:101A30000101C16049460098FEF7D9FB050010E09E
:101A4000EDB2002D0DD1F07AC00602D504200500BC
:101A500007E05FEA887004D5F07AC00701D5072057
:101A60000500EDB2002D08D15FEA087001D558F0ED
:101A700020080098006BE0612662380000F0E0FA70
:101A8000EDB2002D1ED184F806800020E0713100F7
:101A90000098FEF764FF2061F07FB17F090451EAEE
:101AA0000060717F50EA0120317F0843E060002030
:101AB000A0600020A0610020606200982060206883
:101AC000C088A0802800C0B20EB0BDE8F0872DE924
:101AD000FA4F83B004001500DDF80CB00498002123
:101AE00001602000FFF7BCFE8DF804009DF80400A3
:101AF000002802D09DF80400E8E0E079002801D039
:101B0000E079E3E0A079C00701D40720DEE0E068D7
:101B1000A168401A00900098A84201D200980500E0
:101B2000002D00F0D280A0684FF40071B0FBF1F2FC
:101B300002FB1102002A40F09E80A068400A216842
:101B40008978491E084082465FFA8AFABAF1000F86
:101B500021D1A068002802D1206906000DE0606A4A
:101B6000002805D0A1682000FEF7B1FD060004E0C2
:101B700061692068FEF7CFFB0600022E03D2022027
:101B8000E0710220A2E016F1010F03D10120E07103
:101B900001209BE0666161692068FEF7AFFB0700EA
:101BA000002F03D10220E07102208FE05FFA8AFA51
:101BB0001AEB0707680A8146B9F1000F34D0206894
:101BC00080785FFA8AFA19EB0A01884206D2206807
:101BD00080785FFA8AFAB0EB0A0081464B463A00F9
:101BE00059462068407800F067F9002803D00120AA
:101BF000E07101206AE0A07940060FD5A069C01B02
:101C000048450BD24FF4007214F12801A069C01BA3
:101C10004FF4007303FB00B0FEF78AFA4FF4007034
:101C200000FB09F0804641E0A069B84222D0A079CB
:101C3000400611D50123A26914F1280120684078DB
:101C400000F05EF9002803D00120E07101203DE0A2
:101C5000A07910F0BF00A07101233A0014F128010F
:101C60002068407800F028F9002803D00120E071B6
:101C700001202BE0A761A0684FF40071B0FBF1F2E6
:101C800002FB1102D2F500708046454500D2A846FD
:101C90004246A0684FF40071B0FBF1F303FB11035F
:101CA000181910F128015846FEF742FA18EB0B0BF1
:101CB000A06818EB0000A0600498006818EB000012
:101CC00004990860B5EB08052AE7002005B0BDE8D7
:101CD000F08FF8B504002000FFF7C2FD0500EDB25B
:101CE000002D4ED1A07980064BD5A07940060FD5A6
:101CF0000123A26914F128012068407800F000F95E
:101D0000002801D001203EE0A07910F0BF00A071B2
:101D1000E1692068FEF76BFA0500EDB2002D30D1C5
:101D2000206A0700F87A50F02000F872E0683877EF
:101D3000E06880B2000A7877E068000CB877E06865
:101D4000000EF87721693800FEF71DFE00F07EF9DD
:101D50000600BE75300080B2000AF875300C387687
:101D6000300E78760020B8740020F874A07910F056
:101D7000DF00A0712068012101712068FEF752FA8E
:101D800005002800C0B2F2BD38B504002000FFF7FE
:101D9000A0FF0500EDB2002D01D100202060280039
:101DA000C0B232BDF1B596B0012216A900A8FFF766
:101DB00039FB0400E4B2002C74D14FF4007000F041
:101DC00039F90700002F01D111206DE0079709A80C
:101DD0000690169900A8FFF78BFA0400E4B2002CD5
:101DE00005D10698C07A800601D506200400E4B229
:101DF000002C54D105980500002D02D106200400C6
:101E000004E0E87AC00701D5072004002900009803
:101E1000FEF7A5FD0600E4B2002C28D1E87AC00642
:101E200025D5022E02D20220040020E0242200A99F
:101E30000CA8FEF77DF90E9602210CA8FEF763FCB4
:101E40000400E4B2002C12D100210CA8FEF766FFBA
:101E50000400E4B2002C03D000984069864201D10E
:101E600007200400E4B2042C01D100200400E4B2F5
:101E7000002C14D100A8FFF788F80400E4B2002C6D
:101E80000DD1002E04D031000098FEF775FB040040
:101E9000E4B2002C03D10098FEF7C4F90400380026
:101EA00000F0CEF82000C0B217B0F0BD0100002055
:101EB0007047010000207047F0B583B004000D00AA
:101EC00016001F00012F0CD14FF400700090720219
:101ED0000023280000F039FE00F0AAF90028FBD109
:101EE0000CE001974FF4007000907202002328006C
:101EF00000F0C4FE00F09CF90028FBD10020FEBDDC
:101F0000F0B583B004000D0016001F00012F0CD1A6
:101F10004FF40070009072020023280000F056FF7A
:101F200000F086F90028FBD10CE001974FF4007017
:101F3000009072020023280000F0E6FF00F078F91C
:101F40000028FBD10020FEBDF0B597B004000D00C5
:101F500016000127EDB2002D05D0022D13D005D3B8
:101F6000032D16D01AE00020070017E000A800F0AB
:101F700084FBDDE91201400A40EAC150490A3060A1
:101F8000002007000AE04FF40070306000200700D6
:101F900004E04FF400703060002007003800C0B249
:101FA00017B0F0BD020092B2802A01DA10001EE0E4
:101FB00000290CD092B2FF2A01DD002006E092B287
:101FC000194810EB4200B0F5807000880FE0002344
:101FD000180080B2802808DA80B2134B33F8103032
:101FE00092B29A4201D0401CF3E78030C0B280B276
:101FF0007047002211000D4A32F81120002A07D044
:102000000A4A32F8112080B2904201D0491CF2E70E
:10201000064A32F81120002A03D0054830F8110092
:10202000FFE780B270470000F859000838560008F2
:102030001858000810B50400200002F0ABFA10BDDB
:1020400010B50400200002F0FFFB10BD0020704717
:1020500080B50121302002F094FE4FF4F850ADF825
:10206000000003208DF8020018208DF8030000A95D
:10207000DFF8F80B02F098FE0420ADF8000000A98C
:10208000DFF8EC0B02F090FE01214FF4806002F0CB
:1020900069FE0121022002F065FE01BD30B58BB062
:1020A00004000D00DFF8CC0B02F061FF0021DFF827
:1020B0000C0D02F044FFDFF8C00B009001941020DB
:1020C0000290A808039000200490802005904FF40F
:1020D000007006904FF400600790002008904FF4C5
:1020E0000050099000200A9000A9DFF8D00C02F0FF
:1020F00007FF01220221DFF8C40C02F02DFF0121AD
:10210000DFF8B80C02F01BFF0BB030BD30B58BB060
:1021100004000D00DFF85C0B02F029FF0021DFF85E
:102120009C0C02F00CFFDFF8500B00900194002093
:102130000290A808039000200490802005904FF49E
:10214000007006904FF400600790002008904FF454
:102150000050099000200A9000A9DFF8600C02F0FE
:10216000CFFE01220221DFF8540C02F0F5FE01211E
:10217000DFF8480C02F0E3FE0BB030BD80B5002064
:102180008DF80000FFF764FF02F0FEFE00F07EF81D
:102190008DF800009DF80000002802D09DF8000096
:1021A00045E000F099F98DF800009DF80000002846
:1021B00002D09DF800003AE0DFF8040C0321017022
:1021C000DFF8FC0B00214160DFF8F40B0021816097
:1021D000DFF8EC0B0021C160DFF8E40B00210161A6
:1021E000DFF8DC0B00214161DFF8D40B02F0E8FEE0
:1021F000DFF8D00B00F041FA8DF800009DF80000E8
:10220000002808D1DFF8BC0BB0F85400000400F03F
:1022100080FC8DF800009DF80000002805D14FF4E7
:10222000006000F012FC8DF800009DF8000002BD77
:1022300010B5042400F00DF80400E4B2042C01D120
:10224000002005E0E4B2FF2C01D1022000E00120D3
:1022500010BD80B50020009000F010F801280BD1CF
:1022600000A800F043FF002801D0FF2005E00098FF
:10227000400A10F00F0000E0FF2002BD81B00120F5
:102280008DF800009DF8000001B07047F8B50020FF
:102290008DF800000024002500260027DFF8200B21
:1022A000B2210170DFF8180B00214160DFF8100B3C
:1022B00000218160DFF8080B0021C160DFF8000B0E
:1022C00000210161DFF8F80A00214161DFF8F00A1E
:1022D00002F076FE032002F08CFE012002F085FE63
:1022E000DFF8E40A00210160DFF8DC0A0021416028
:1022F000DFF8D40A00218160DFF8CC0A0021C16038
:10230000DFF8C40A4FF480610161DFF8BC0A02F013
:1023100094FE00F089FF8DF800009DF80000002871
:1023200002D09DF80000D6E0DFF89C0A4FF4D5718A
:102330000160DFF8940A08214160DFF88C0A40212F
:102340008160DFF8840A0021C160DFF87C0A4FF465
:1023500080610161DFF8700A02F06FFE00F080FF1B
:102360008DF800009DF80000002807D1DFF8900BE1
:10237000012101605FF0804007001DE0DFF8480A9E
:1023800000210160DFF8400A37214160DFF8380A98
:1023900040218160DFF8300A0021C160DFF8280A9F
:1023A0004FF480610161DFF8200A02F046FE372019
:1023B00000F08CFF8DF80000DFF80C0A00210160AE
:1023C000DFF8040A37214160DFF8FC094021816011
:1023D000DFF8F4090021C160DFF8EC094FF48061F7
:1023E0000161DFF8E40902F028FE372000F06EFFFB
:1023F0008DF800009DF8000000286AD1002E56D10B
:102400004FF6FF70854252D2DFF8BC09002101600F
:10241000DFF8B40937214160DFF8AC094021816061
:10242000DFF8A4090021C160DFF89C094FF4806146
:102430000161DFF8940902F000FE372000F046FF4A
:102440008DF800009DF80000002802D09DF80000E3
:1024500041E0DFF8B00A3843DFF86C190860DFF8B4
:10246000680929214160DFF8600940218160DFF8B7
:1024700058090021C160DFF850094FF48061016103
:10248000DFF8440902F0D9FD00F0A9FF8DF8000043
:102490009DF80000002802D09DF800001BE00020FD
:1024A00002F0E3FD0400E00F06006D1CA6E74FF606
:1024B000FF70854205D31B208DF800009DF80000B9
:1024C00009E014F08044002C03D0DFF8340A022124
:1024D00001609DF80000F2BD10B582B0002401201B
:1024E000ADF8000002F091FD002804D12520040081
:1024F0002000C0B2C0E0DFF8080A0068042839D024
:10250000DFF8C40800210160DFF8BC080221416047
:10251000DFF8B408C0218160DFF8AC080021C16099
:10252000DFF8A4084FF480610161DFF89C0802F035
:1025300084FD00F073FF0400E4B2002C02D0200000
:10254000C0B299E0002002F090FDDFF8941B086013
:10255000042002F08AFDDFF8881B4860082002F0A2
:1025600084FDDFF87C1B88600C2002F07EFDDFF824
:10257000701BC860DFF88809006800280ED0DFF8FB
:1025800080090068012809D0DFF87409006806286E
:1025900004D0DFF86C090068022823D1DFF828088E
:1025A00000210160DFF8200803214160DFF81808EE
:1025B00040218160DFF810080021C160DFF80808C1
:1025C0004FF480610161DFF8000802F036FD00A9D8
:1025D000032000F04CFF0400E4B2002C02D02000E5
:1025E000C0B249E0DFF818090068042840D0DFF8DD
:1025F000F40ABDF800100160BDF800000004DFF827
:10260000C8170860DFF8C00709214160DFF8B80784
:10261000C0218160DFF8B0070021C160DFF8A807A2
:102620004FF480610161DFF8A00702F006FD00F0C1
:10263000F5FE0400E4B2002C02D02000C0B21BE082
:10264000002002F012FDDFF8A01A0860042002F05A
:102650000CFDDFF8941A4860082002F006FDDFF850
:10266000881A88600C2002F000FDDFF87C1AC86030
:10267000002004002000C0B216BD2DE9D0030100E7
:1026800000200024DFF87828126881F85620DFF84F
:10269000542A1268A1F85420DFF84C2A1268120E4E
:1026A0001400E4B2A2090A70C4F383024A7014F061
:1026B00003028A70DFF8302A1268120C1400CC7002
:1026C000DFF8242A1268120A14000C71DFF8182AA5
:1026D000126814004C71DFF8102A5268120E1400B0
:1026E000E4B22201CA80DFF8002A5268120C1400FA
:1026F000CA88E4B22309DBB21A43CA8014F00F027D
:102700000A72DFF8E4295268120A1400E4B2E209FE
:102710004A72C4F380128A72C4F34012CA72C4F3BC
:1027200000120A7300224A73DFF8D4271268002AC5
:1027300004D0DFF8CC271268012A5DD1E4B214F08E
:10274000030292020A61DFF8A029526814000A69A4
:10275000E4B252EA84020A61DFF88C299268120E10
:1027600014000A69E4B2A309DBB21A430A61C4F394
:10277000C2020A7514F007024A75DFF86C299268E4
:10278000120C1400E4B262098A75C4F38202CA759D
:1027900014F0030252000A76DFF84C299268120AFC
:1027A00014000A7EE4B252EAD4120A760A69521C74
:1027B0000023C1E91223D1E9126701220B7E9B1C81
:1027C0009A40D317A2FB068902FB079903FB0699DF
:1027D000C1E91289012291F908309A400A65D1E9CC
:1027E00012670A6D0023A2FB068902FB079903FB0F
:1027F0000699C1E9128930E0DFF804271268022A3D
:102800002BD1DFF8E42852681400E4B214F03F0240
:1028100012040A61DFF8D0289268120E14000A69C7
:10282000E4B252EA04220A61DFF8BC289268120C72
:1028300014000A69E4B222430A61DFF8AC28926806
:10284000120A14000A69521C5FF400235A43002341
:10285000C1E912234FF400720A65C4F380124A766C
:1028600014F03F0252008A76DFF87C289268140048
:102870008A7EE4B252EAD4128A7614F07F02CA76D3
:10288000DFF86428D268120E1400E4B2E2090A7775
:10289000C4F341124A77C4F382028A7714F0030228
:1028A0009200CA77DFF84028D268120C1400CA7F61
:1028B000E4B252EA9412CA77C4F3401281F820209D
:1028C000002281F8212014F0010281F82220DFF893
:1028D0001828D268120A1400E4B2E20981F8232011
:1028E000C4F3801281F82420C4F3401281F825201B
:1028F000C4F3001281F82620C4F3810281F8272056
:1029000014F0030281F82820DFF8DC27D2681400D5
:10291000E4B2620881F82920012281F82A20DFF838
:10292000C0271268120E140081F82C40DFF8B0277F
:102930001268120C1400E4B22202CA85DFF8A02744
:102940001268120A1400CA8DE4B22243CA85DFF865
:10295000902712681400E4B222060A63DFF8802789
:102960005268120E14000A6BE4B252EA04420A637F
:10297000DFF86C275268120C14000A6BE4B252EABA
:1029800004220A63DFF858275268120A14000A6BFF
:10299000E4B222430A63DFF848275268140081F842
:1029A0003440DFF83C279268120E140081F835405D
:1029B000DFF82C279268120C1400E4B222068A6316
:1029C000DFF81C279268120A14008A6BE4B252EAFC
:1029D00004428A63DFF80827926814008A6BE4B225
:1029E00052EA04228A63DFF8F826D268120E140035
:1029F0008A6BE4B222438A63DFF8E426D268120CC1
:102A0000140091F83C20E4B252EA141281F83C2000
:102A1000E4B214F00F021202CA87DFF8C426D268AB
:102A2000120A1400CA8FE4B22243CA87DFF8B02624
:102A3000D2681400E4B2620881F84020012281F8D3
:102A40004120C0B2BDE8D003704738B5040000256E
:102A5000DFF8AC040068032804D127200500280013
:102A6000C0B255E0DFF898040068002809D0DFF80C
:102A700090040068012804D0DFF88404006802286C
:102A800044D1B4F5805F04D1272005002800C0B2EE
:102A90003EE0B4F5006F1DD1012000F041FD0500BE
:102AA000EDB2002D32D1C64803210170C448002187
:102AB0004160C34800218160C1480021C160C04815
:102AC0004FF400610161BE4800214161BC4802F041
:102AD00077FA1BE0002000F023FD0500EDB2002D89
:102AE00014D1B74803210170B54800214160B448B2
:102AF00000218160B2480021C160B148002101611C
:102B0000AF4800214161AE4802F05AFA2800C0B235
:102B100032BD38B504000025AB480460AA4807213F
:102B20004160A94840218160A7480021C160A648B2
:102B30004FF480610161A44802F07FFA072000F0A1
:102B4000C5FB05002800C0B232BD2DE9F0410700E9
:102B500014001D00069E5FF00008DFF85C070021EE
:102B60000170DFF8580700210160DFF854070021E9
:102B70000160DFF8500700210160DFF8840300687E
:102B8000022806D14FF400700600640A44EAC554D6
:102B90006D0A8D48B6B206608B48102141608A48A4
:102BA0004021816088480021C16087484FF48061DE
:102BB0000161854802F041FA102000F087FB804651
:102BC0005FFA88F8B8F1000F02D04046C0B249E081
:102BD000DFF8F4065FF0FF310160DFF8EC06B6B213
:102BE0004660DFF8E40690218160DFF8DC06022110
:102BF000C160DFF8D40600210161DFF8CC060121B5
:102C00004161DFF8C40602F033FA6F4804606E4891
:102C1000112141606C48402181606B480021C160F6
:102C200069484FF480610161674802F006FA11209B
:102C300000F04CFB80465FFA88F8B8F1000F02D034
:102C40004046C0B20EE0012140F22A3002F0E2F923
:102C5000012002F0EEF9B6B231003800FFF756FA63
:102C60004046C0B2BDE8F081000000000010014005
:102C70000014014000F00010808001402DE9F8436D
:102C8000070014001D00089EDDF824805FF0000995
:102C9000DFF8240600210170DFF820060021016022
:102CA000DFF81C0601210160DFF818060021016031
:102CB00093480068022806D14FF400700600640AA9
:102CC00044EAC5546D0ADFF84C08B6B20660DFF876
:102CD000440810214160DFF83C0840218160DFF8A2
:102CE00034080021C160DFF82C084FF480610161D5
:102CF000DFF8200802F0A1F9102000F0E7FA814681
:102D00005FFA89F9B9F1000F02D04846C0B252E02B
:102D1000DFF8B4055FF0FF310160B6B206FB08F0E2
:102D2000DFF8A4154860DFF8A00590218160DFF886
:102D300098050221C160DFF8900500210161DFF8EC
:102D4000880501214161DFF8800502F091F9DFF883
:102D5000C4070460DFF8BC0712214160DFF8B40744
:102D600040218160DFF8AC070021C160DFF8A407D3
:102D70004FF480610161DFF89C0702F05EF91220D8
:102D800000F0A4FA81465FFA89F9B9F1000F02D088
:102D90004846C0B20FE0012140F22A3002F03AF971
:102DA000012002F046F9B6B206FB08F13800FFF741
:102DB000ADF94846C0B2BDE8F283000044040240C9
:102DC0008804002030040020D00400202DE9F041C8
:102DD000070014001D00069E5FF00008DFF8D8040D
:102DE00000210170DFF8D40400210160DFF8D00475
:102DF00000210160DFF8CC04002101604048006838
:102E0000022806D14FF400700600640A44EAC55453
:102E10006D0ADFF80007B6B20660DFF8F806102189
:102E20004160DFF8F00640218160DFF8E80600210C
:102E3000C160DFF8E0064FF480610161DFF8D4067D
:102E400002F0FBF8102000F041FA80465FFA88F8A3
:102E5000B8F1000F02D04046C0B24FE0DFF8B40630
:102E60000460DFF8B00618214160DFF8A8064021B1
:102E70008160DFF8A0060021C160DFF898064FF4FA
:102E800080610161DFF88C0602F0D7F8182000F0AD
:102E90001DFA80465FFA88F8B8F1000F02D040466C
:102EA000C0B22BE0DFF820045FF0FF310160DFF8F3
:102EB0001804B6B24660DFF8100490218160DFF894
:102EC00008040021C160DFF8000400210161DFF87F
:102ED000F80301214161DFF8F00302F0C9F8012194
:102EE00040F22A3002F096F8B6B231003800FFF70F
:102EF000D5F8012002F09DF84046C0B2BDE8F0814F
:102F000020050020000010802DE9F8430700140080
:102F10001D00089EDDF824805FF00009DFF89803AB
:102F200000210170DFF8940300210160DFF89003B5
:102F300001210160DFF88C0300210160DFF87807D0
:102F40000068022806D14FF400700600640A44EAC3
:102F5000C5546D0ADFF8BC05B6B20660DFF8B405EB
:102F600010214160DFF8AC0540218160DFF8A40545
:102F70000021C160DFF89C054FF480610161DFF83A
:102F8000940502F05AF8102000F0A0F981465FFA8B
:102F900089F9B9F1000F02D04846C0B29EE051480D
:102FA00000680004DFF86C150860DFF86805372159
:102FB0004160DFF8600540218160DFF8580500219D
:102FC000C160DFF850054FF480610161DFF844050E
:102FD00002F033F8372000F079F981465FFA89F979
:102FE000B9F1000F02D04846C0B277E0DFF82405FF
:102FF000C0F80080DFF81C0517214160DFF81405D8
:1030000040218160DFF80C050021C160DFF8040574
:103010004FF480610161DFF8FC0402F00EF8172024
:1030200000F054F981465FFA89F9B9F1000F02D036
:103030004846C0B252E0DFF8DC040460DFF8D40494
:1030400019214160DFF8CC0440218160DFF8C4041D
:103050000021C160DFF8BC044FF480610161DFF83A
:10306000B40401F0EAFF192000F030F981465FFA5C
:1030700089F9B9F1000F02D04846C0B22EE0DFF85E
:1030800048025FF0FF310160B6B206FB08F0DFF8DE
:1030900038124860DFF8300290218160DFF82802A2
:1030A0000021C160DFF8200200210161DFF8180271
:1030B00001214161DFF8100201F0DAFF012140F245
:1030C0002A3001F0A7FF012001F0B3FFB6B206FBE2
:1030D00008F13800FEF7E2FF4846C0B2BDE8F283CF
:1030E000F404002024050020E404002038B5040086
:1030F0000025002C04D1262005002800C0B22BE0BA
:10310000DFF8900700680004DFF884170860DFF834
:1031100080070D214160DFF8780740218160DFF8EA
:1031200070070021C160DFF868074FF4806101611A
:10313000DFF85C0701F081FF0D2000F0C7F8050003
:10314000EDB2002D02D02800C0B205E0002001F051
:103150008CFF20602800C0B232BD80B54FF4807073
:1031600001F0B0FF00280AD05348002101704FF44D
:10317000807001F0B4FF5148012101603CE0022061
:1031800001F0A0FF002806D0022001F0A8FF4A4865
:103190000221017030E0082001F094FF002806D0E1
:1031A000082001F09CFF44480421017024E0202005
:1031B00001F088FF002806D0202001F090FF3E4853
:1031C0000621017018E0102001F07CFF002806D0D5
:1031D000102001F084FF3848052101700CE04FF405
:1031E000007001F06FFF002806D04FF4007001F06E
:1031F00076FF31480721017000214CF23A3001F08E
:1032000009FF2D48007802BD80B5DFF89006006800
:10321000DFF88C16084206D0BF4801210160DFF8B4
:10322000840601F0A4FE01BD38B500245FF48030AF
:103230000500002D06D0802001F034FF002801D1C8
:103240006D1EF6E7002D04D1032004002000C0B25B
:1032500005E040F2FF5001F032FF2000C0B232BD65
:1032600070B500245FF48036DFF82C060068050096
:1032700015F0450F07D1002E05D0761EDFF8180691
:1032800000680500F4E7002E01D0680707D5032089
:103290000400042001F013FF2000C0B20BE0680618
:1032A00007D500200400402001F009FF2000C0B233
:1032B00001E02000C0B270BD3B0500202C050020BD
:1032C000280500202C800140A0040020F8B504004F
:1032D000002592480068060016F0450F03D18F487C
:1032E00000680600F8E7700707D5032005000420F2
:1032F00001F0E5FE2800C0B270E0F00707D501201C
:103300000500012001F0DBFE2800C0B266E001F0FC
:10331000A8FEE4B2A04204D0102005002800C0B2EC
:103320005CE040F2FF5001F0CAFE002001F09DFE7B
:103330000700DFF87405074202D12800C0B24DE053
:10334000002F01D51C2049E0780001D5092045E077
:10335000B80001D50A2041E0F80001D50B203DE07E
:10336000380101D50C2039E0780101D50D2035E078
:10337000F80101D50E2031E0380201D50F202DE0F3
:10338000780201D5102029E0B80201D5112025E0EE
:10339000F80201D5122021E0380301D513201DE0E9
:1033A000780301D5142019E0B80301D5152015E0E4
:1033B000F80301D5162011E0380401D517200DE0DF
:1033C000780401D5182009E0B80401D5192005E0DA
:1033D000380701D51A2001E02800C0B2F2BD38B587
:1033E0000024DFF8B4040068050015F0450F04D18F
:1033F000DFF8A40400680500F7E7680707D5032095
:103400000400042001F05BFE2000C0B205E040F2A1
:10341000FF5001F054FE2000C0B232BD38B5002587
:10342000DFF874040068040014F0450F04D1DFF8DD
:10343000680400680400F7E7600707D5032005006B
:10344000042001F03CFE2800C0B20FE0E00707D5E1
:1034500001200500012001F032FE2800C0B205E085
:1034600040F2FF5001F02BFE2800C0B232BD2DE922
:10347000F04104000D000026DFF81C04006807007E
:1034800017F0450F04D1DFF8100400680700F7E7D4
:10349000780707D503200600042001F010FE300055
:1034A000C0B235E0F80707D501200600012001F081
:1034B00006FE3000C0B22BE001F0D3FDE4B2A04222
:1034C00004D0102006003000C0B221E040F2FF50CE
:1034D00001F0F5FD002001F0C8FD804618F4604FB2
:1034E00005D15FEA184028803000C0B210E05FEAE2
:1034F000884001D513200BE05FEA484001D5102039
:1035000006E05FEA084001D50F2001E03000C0B2BC
:10351000BDE8F081D0040020300500203480014057
:1035200030B583B00400002500A80021002206C0A9
:103530000838002001F099FD800104D50E20050017
:103540002800C0B2B7E000A9DFF84803006880B2E5
:1035500000F0B4F80500EDB2002D02D02800C0B292
:10356000A9E0E4B2012C53D1019840034BD5DFF818
:10357000240300680004DFF818130860DFF8100364
:1035800037214160DFF8080340218160DFF8000344
:103590000021C160DFF8F8024FF480610161DFF8BB
:1035A000F00201F04AFD3720FFF790FE0500EDB272
:1035B000002D02D02800C0B27DE0DFF8D402022145
:1035C0000160DFF8CC0206214160DFF8C40240212F
:1035D0008160DFF8BC020021C160DFF8B4024FF463
:1035E00080610161DFF8A80201F027FD0620FFF7E6
:1035F0006DFE0500EDB2002D02D02800C0B25AE0E9
:103600002800C0B257E0252005002800C0B252E0D3
:103610000198C0034BD5DFF87C0200680004DFF896
:1036200070120860DFF8680237214160DFF860023D
:1036300040218160DFF858020021C160DFF85002AC
:103640004FF480610161DFF8480201F0F6FC372099
:10365000FFF73CFE0500EDB2002D02D02800C0B2FD
:1036600029E0DFF82C0200210160DFF824020621A6
:103670004160DFF81C0240218160DFF81402002164
:10368000C160DFF80C024FF480610161DFF80002D5
:1036900001F0D3FC0620FFF719FE0500EDB2002D66
:1036A00002D02800C0B206E02800C0B203E0252006
:1036B00005002800C0B23EBD20050020F0B583B053
:1036C00004000D000026002700A80021002206C0EB
:1036D00008386F48082101606D48102141606C482E
:1036E000402181606A480021C16069484FF48061CF
:1036F0000161674801F0A1FC1020FFF7E7FD07001A
:10370000FFB2002F02D03800C0B2C0E061480068AC
:1037100000045F4908605E48372141605C484021F1
:1037200081605B480021C16059484FF480610161AC
:10373000574801F082FC3720FFF7C8FD0700FFB2B1
:10374000002F02D03800C0B2A1E058485FF0FF312E
:103750000160564808214160544830218160534837
:103760000221C1605148002101615048012141619D
:103770004E4801F07DFC4648002101604448332159
:10378000416043484021816041480021C160404878
:103790004FF4806101613E4801F04FFC3320FFF798
:1037A00095FD0700FFB2002F02D03800C0B26EE0D6
:1037B0003948006840F22A6108420CD15FF40010D9
:1037C00001F070FC0028F3D001F069FC00A941F879
:1037D0002600761CECE7082001F064FC002807D0E6
:1037E000082001F06CFC042007003800C0B24EE055
:1037F000022001F057FC002807D0022001F05FFCF6
:10380000022007003800C0B241E0202001F04AFC4D
:10381000002807D0202001F052FC062007003800C5
:10382000C0B234E04FF4007001F03CFC002808D036
:103830004FF4007001F043FC072007003800C0B2CD
:1038400025E040F2FF5001F03AFC0098009911F495
:103850007F41090251EA00600099090A11F47F4191
:103860000843009950EA116068600198019911F4C9
:103870007F41090251EA00600199090A11F47F4170
:103880000843019950EA116028603800C0B2FEBDBB
:10389000D0040020240500203480014000040240B0
:1038A0000020001000F0001008E0FFFDA004002040
:1038B00000F5E0700268914203D343689A18914280
:1038C00002D380680028F5D17047DFF8200701682F
:1038D00099B94FF48031816004224FF480514160E6
:1038E0004FF0FF31C160016104214161DFF8001731
:1038F000C1F8BC21DFF8FC1601600120704701F11E
:10390000080313F0070305D001F10803C3F108030E
:1039100003F007035918D21A8161C26042F0010313
:103920004B60511828224A60DFF8C0160969C1614E
:1039300070472DE9F84F044601F1080010F0070028
:1039400005D001F10800C0F1080000F0070000EB0D
:10395000010B02F1080010F0070005D002F1080089
:10396000C0F1080000F007008618A6EB0B00A0EBE2
:10397000030803EB0B0743F00300CBF80400B74246
:1039800028BF01F0D3FB3079C00758BF01F0CEFB50
:10399000B8F1100F38BF01F0C9FBA069864207D10A
:1039A000E0684044E060A76140F0010078605AE1BF
:1039B0006069864208D1A0684044A060676140F019
:1039C00001017960C0514EE1706800F003010129E6
:1039D00040F0AD80C0084FEAC00920283BD2D6F89D
:1039E00008A0F5680090AE4208BF01F09FFB564565
:1039F00008BF01F09BFB70680099C008C000B0EBE5
:103A0000C10F18BF01F092FB009804EBC00000F159
:103A100028018A4508D021698A45C0F08480DAF8F7
:103A20000C10B14240F07F80554506D1009A2068C5
:103A3000012191408843206077E02830854205D0FD
:103A4000206985426FD3A868B0426CD1CAF80C5087
:103A5000C5F808A069E0F568D6F818A0B5420CD002
:103A6000B0682169884223D3C168B14204BFA96804
:103A7000B1421DD1C560A8601CE006F114000568C4
:103A800035B906F110000568A5B101E008460568E2
:103A900005F114010A68002A02BF05F110010A6845
:103AA000002AF3D12169884202D30021016001E09C
:103AB00001F03CFBBAF1000F37D0F06904EB800055
:103AC00000F5987001688E4209D10560280014D174
:103AD000F2696068012191408843606025E02069B7
:103AE000824508D3DAF81000B04214BFCAF8145067
:103AF000CAF8105001E001F019FBB5B12069854208
:103B000011D3C5F818A0316929B1814226BF2961B6
:103B10008D6101F00BFB706938B12169884202D3D5
:103B20006861856101E001F001FB4E44C8447068A2
:103B30004008400070604FEAD80548F00100786006
:103B400048F80780202D21D204EBC50000F128069B
:103B5000B146B8F1100F38BF01F0E8FA206820FA3A
:103B600005F1C90704D40121A9400843206006E0FB
:103B7000B068216988422CBF814601F0D7FAB7604E
:103B8000C9F80C70C7F80890FE606CE05FEA182076
:103B900008BF002123D0B0F5803F28BF1F211ED2CF
:103BA000A0F58071090C01F008018840A0F5805251
:103BB000120C02F004029040A0F580431B0CC1F1EE
:103BC0000E0103F00203891AC91A984001EBD030A4
:103BD000C11D28FA01F101F0010101EB4001F96179
:103BE00000227A613A6104EB8100626822FA01F3F3
:103BF00000F59870DB0706D4012303FA01F11143A5
:103C0000616007601CE01F2900680EBF00214908A1
:103C1000C1F1190108FA01F100E010464268D2082A
:103C2000D200424510D0CA0F00EB820202F110030D
:103C300049001A68002AF0D121698B4211D31F6014
:103C4000B861FF60BF600EE022698168904228BFC2
:103C5000914206D3CF608760B960F8600020B861F8
:103C600001E001F063FA0BF10800BDE8F28F2DE9E5
:103C7000F04F0546DFF87403006883B0884608B942
:103C8000FFF723FEDFF86403806800EB08012F31A3
:103C9000401E21EA0000804580F0A581D5F8B811CA
:103CA00041B1D5F8B0218018824280F09C818142D8
:103CB000C0F0998101F03EFA00281EBF0446076853
:103CC00014F1010F00F08F81D5F8B0013818C5F854
:103CD000B001D5F8B411814238BF0146C5F8B4111E
:103CE000A86968BB286908B1844200D22C61C5F874
:103CF000C041C5F8C4710020C5F8CC012021BB48E3
:103D0000006868624FF0FF302862284600F1280200
:103D10000830D2609260491EF8D1B548854203D17F
:103D2000A7F12802214625E055F8040CC00805EB50
:103D3000C000A0F108013819401AA0F1280219E0CA
:103D400005F5E071084600E08068B8B14268036894
:103D5000D2189442F8D1027B12070FD4AA699A4272
:103D60000CD3466833449A4208D2B9194160E868D6
:103D7000A9693A182846FFF7C2FD1FE12869844265
:103D800038BF2C610846391900E0806880B10268AC
:103D90008A42FAD1017B09070AD40460434641688C
:103DA000791841602846214603B0BDE8F04FC0E5D0
:103DB000AE6931462846FFF77BFD41680068081868
:103DC00001902F3800F1080111F0070105D000F132
:103DD0000801C1F1080101F0070101EB000906F13A
:103DE0001000814538BFB14609F10800009004F188
:103DF000080109F1180A4FF0000BA7F1280011F093
:103E0000070105D004F10801C1F1080101F0070123
:103E10000A19401AAA61E86040F001015160801857
:103E20002821416071480069E861009810F007009E
:103E300018BF01F07BF91B20C9F8040005F5E071FB
:103E4000B1E80C500098A0E80C50C5F8C041C5F886
:103E5000C471C5F8CCB10098C5F8C801019800E05C
:103E60008A460722CAF804200AF104010A1D0BF150
:103E7000010B8242F4D3BBF1020FB8BF01F056F937
:103E8000B14500F09B80A9EB060081194FEAD009EB
:103E90004A68520852004A6040F001017160805146
:103EA000B9F1200F1FD205EBC90101F12804274603
:103EB000102838BF01F03AF9286820FA09F1C9073B
:103EC00005D4012101FA09F10843286006E0A06841
:103ED000296988422CBF074601F028F9A660FE60D8
:103EE000B760F4606AE0010A08BF002223D0B1F590
:103EF000803F28BF1F221ED2A1F58072120C02F053
:103F000008029140A1F580531B0C03F00403994073
:103F1000A1F58044240CC2F10E0204F00204D21A6E
:103F2000121BA14002EBD131CA1D20FA02F202F0AD
:103F3000010202EB4102F26100237361336105EB80
:103F400082016B6823FA02F401F59871E40705D445
:103F500001209040184368600E601CE01F2A096829
:103F60000EBF00225208C2F1190200FA02F200E06C
:103F700019464B68DB08DB00834210D0D30F01EBFE
:103F8000830303F1100452002368002BF0D1286949
:103F9000844211D32660B161F660B6600EE02A69F2
:103FA0008868914228BF904206D3C6608E60B06098
:103FB000F1600020B06101E001F0B8F8E8688045E8
:103FC00011D2A0EB0800E86040F00100A96908EBFD
:103FD0000102AA61506048F00300486003B001F19B
:103FE0000800BDE8F08F002000F02BBCB8040020D2
:103FF000000200206859883C2DE9F84F04468846A5
:104000000026C8F1000B5FEA182008BF002123D06A
:10401000B0F5803F28BF1F211ED2A0F58071090C8A
:1040200001F008018840A0F58052120C02F0040251
:104030009040A0F580431B0CC1F10E0103F0020378
:10404000891AC91A984001EBD030C11D28FA01F134
:1040500001F0010101EB400104EB8100D0F83001D7
:1040600030B31F290EBF00224A08C2F1190208FA14
:1040700002F2002300E052004568ED08ED00A5EBD8
:1040800008055D4503D206465FEA050B0CD045697D
:104090004FEAD27E00EB8E00002D00691CBF8542E6
:1040A0002B460028E7D1184600283AD1002E3AD1F5
:1040B000012088404000414208436168084000F008
:1040C0005F8141420840411E080B00F0100021FAB8
:1040D00000F2510901F00801CA40930803F00403FB
:1040E000DA40550805F002050818EA401818C2F32E
:1040F000400E2844704422FA0EF1081804EB8000A8
:10410000D0F830010DE008464168C908C900A1EBAC
:10411000080159453CBF8B46064601690029F2D18A
:1041200040690028F0D1002E00F02A81A068A0EBA1
:104130000800834580F0248120698642C0F01E81FA
:104140007068C00808EB0B09C00008EB060548457D
:1041500018BF00F0EBFFAE4280F01081F768D6F890
:1041600018A0B7420CD0B0682169884223D3C16837
:10417000B14204BFB968B1421DD1C760B8601CE04C
:1041800006F11400076837B906F110000768A7B1F7
:1041900001E00846076807F114010A68002A02BF17
:1041A00007F110010A68002AF3D12169884202D37D
:1041B0000021016001E000F0B9FFBAF1000F38D032
:1041C000F06904EB800000F5987001688E4209D117
:1041D0000760380014D1F26960680121914088437A
:1041E000606026E02069824508D3DAF81000B0420A
:1041F00014BFCAF81470CAF8107001E000F096FFFE
:10420000BFB12069874212D3C7F818A0306930B116
:104210002169884226BF3861876100F087FF706995
:1042200038B12169884202D37861876101E000F0EA
:104230007DFFBBF1100F09D249F00300706009EB5C
:104240000600416841F00101416096E048F003003A
:1042500070604BF0010068604BF805B04FEADB007E
:1042600020281DD204EBC00101F12807216821FAA2
:1042700000F2BB46D20705D4012202FA00F008433F
:10428000206006E0B868216988422CBF834600F0B0
:104290004DFFBD60CBF80C50C5F808B0EF606CE086
:1042A0005FEA1B2008BF002123D0B0F5803F28BF64
:1042B0001F211ED2A0F58071090C01F00801884071
:1042C000A0F58052120C02F004029040A0F5804349
:1042D0001B0CC1F10E0103F00203891AC91A9840A0
:1042E00001EBD030C11D2BFA01F101F0010101EB0E
:1042F0004001E96100226A612A6104EB8100626881
:1043000022FA01F300F59870DB0706D4012303FAC3
:1043100001F11143616005601CE01F2900680EBFB8
:1043200000214908C1F119010BFA01F100E0104622
:104330004268D208D2005A4510D0CA0F00EB820260
:1043400002F1100349001A68002AF0D121698B425A
:1043500011D31D60A861ED60AD600EE02269816837
:10436000904228BF914206D3CD608560A960E86085
:104370000020A86101E000F0D9FE07E100F0D6FEC0
:1043800001E12DE9F84F0446884660684142084043
:10439000411E080B00F01000C1404A0902F008025B
:1043A000D1408B0803F00403D9404D0805F0020505
:1043B0001018E9401818C1F3400628443018F1409D
:1043C000081804EB8000D0F830014168C908C90022
:1043D0000646A1EB080A09E008464168C908C90079
:1043E000A1EB080151453CBF8A46064601690029F8
:1043F000F2D140690028F0D120698642C0F0C18026
:104400007068C00808EB0A09C00008EB060B4845B5
:1044100018BF00F08BFE5E4580F0B380F768B56989
:10442000B7420CD0B0682169884223D3C168B14239
:1044300004BFB968B1421DD1C760B8601CE006F185
:104440001400076837B906F110000768A7B101E04A
:104450000846076807F114010A68002A02BF07F13D
:1044600010010A68002AF3D12169884202D3002191
:10447000016001E000F05AFE002D34D0F06904EB39
:10448000800000F5987001688E4209D107603800FD
:1044900011D1F2696068012191408843606022E097
:1044A0002069854205D32869B04214BF6F612F612E
:1044B00001E000F03BFEB7B12069874211D3BD6136
:1044C000306930B12169884226BF3861876100F0C8
:1044D0002DFE706938B12169884202D37861876105
:1044E00001E000F023FEBAF1100F09D249F00300F9
:1044F000706009EB0600416841F0010141603FE056
:1045000048F0030070604AF00100CBF804004AF85C
:104510000BA0D4F808804FEAD805202D28BF00F062
:1045200005FEB8F1000F27D0D4F81490009504EBE5
:10453000C50000F128052F46B8F1100F38BF00F074
:10454000F5FD2068009920FA01F1C90705D4009A09
:10455000012191400843206006E0A8682169884253
:104560002CBF074600F0E2FDC5F80890C7F80C9094
:10457000C9F80870C9F80C50C4F808A0C4F814B001
:1045800004E000F0D3FD0020BDE8F28F06F1080042
:10459000BDE8F28F2DE9F04F83B00546C046C04616
:1045A000DFF8B847F52D80F001810B2D31BF1027C2
:1045B00005F10B00C008C7002068FE08F04010F0AD
:1045C000030F42D0C04300F00100861904EBC6007F
:1045D00000F12808F700D8F808506868C008C00043
:1045E000B84218BF00F0A2FDD5F80890454508BFB5
:1045F00000F09CFD4D4508BF00F098FD6868C008BC
:10460000C000B84218BF00F091FDC84505D1206830
:104610000121B140884320600DE02069814508D325
:10462000D9F80C00A84204D1C8F80890C9F80C8049
:1046300001E000F07BFD47F0030068607819083561
:10464000416841F001014160F8E0A168B94280F0A1
:10465000BF80002800F0A180012505FA06F149007D
:104660004A42B0401143084041420840411E080BF5
:1046700000F01000C1404A0902F00802D1408B0846
:1046800003F00403D9404E0806F002061018F1406A
:104690001818C1F340083018404421FA08F101EB22
:1046A000000804EBC80000F128094FEAC80AD9F84D
:1046B00008607068C008C000504518BF00F036FDA3
:1046C000D6F808B04E4508BF00F030FD5E4508BF83
:1046D00000F02CFD7068C008C000504518BF00F005
:1046E00025FDD94505D1206805FA08F188432060E9
:1046F0000DE02069834508D3DBF80C00B04204D1FB
:10470000C9F808B0CBF80C9001E000F00FFD47F0BD
:1047100003007060AAEB0708B819019048F0010186
:104720004160019848F80080A7684FEAD70ABAF1BB
:10473000200F28BF00F0FAFC47B3CDF800A004EB2F
:10474000CA00D4F8149000F1280AD346102F38BFBD
:1047500000F0ECFC2068009920FA01F1C90705D4AB
:10476000009905FA01F10843206007E0DAF8080033
:10477000216988422CBF834600F0D8FCCAF8089013
:10478000CBF80C90C9F808B0C9F80CA0C4F80880A0
:1047900006F108050198606150E06068C0B33946D1
:1047A0002046FFF7EEFD050012D047E015F1400F5F
:1047B00028BF4FF0FF370BD205F10B00C008C70030
:1047C000606828B139462046FFF716FC050035D150
:1047D000A168B9421CD3CA1B6069102A0AD33918D0
:1047E0006161A26042F001034B60525047F0030147
:1047F00041600AE00022A260626141F0030242606F
:1048000009184A6842F001024A6000F1080515E003
:10481000E06887420DD2C01BA169E0607A18A261EE
:1048200040F00100506001F1080547F003004860C6
:1048300004E039462046FFF71AFA0546C046C0464E
:10484000284603B0BDE8F08F00B970472DE9F04766
:10485000A0F10804C046C046DFF80055286984422C
:10486000C0F07582616801F00302012A00F06F82D6
:10487000CA084FEAC20808EB0409CA0737D42268FD
:1048800011F0030F00F0658251420C1990448442EC
:10489000C0F05D8269698C4200F0D880D608202E75
:1048A00070D2D4F80CA0A768544508BF00F03EFCB5
:1048B000BC4208BF00F03AFC6068C008C000B0EB22
:1048C000C60F18BF00F032FC05EBC60000F128014E
:1048D0008F4205D029698F4251D3F968A1424ED148
:1048E000BA453DD128680121B140884328604C4534
:1048F00080F02D82D9F80400C10740F12882810799
:1049000000F17A81A969894540F0B580E868AC6119
:104910004044E86040F00101616069698C4202D165
:1049200000216961A960E969814280F01282DFF8A3
:104930003004006808B9FEF7C8FFA969002900F033
:104940000882E868292824BF2846FEF7B1FFE869F5
:10495000E968884280F0FD814FF0FF30E861F8E1BE
:104960002830824506D02869824508D3DAF8080045
:10497000A04204D1C7F80CA0CAF80870B7E700F04D
:10498000D5FBB4E7E768A669A7420BD0A1688142CE
:1049900022D3C868A04204BFB868A0421CD1CF602F
:1049A000B9601BE004F114010F6837B904F110017C
:1049B0000F689FB101E011460F6807F114021368F8
:1049C000002B02BF07F110021368002BF3D18142C4
:1049D00002D30020086001E000F0A8FB002E86D082
:1049E000E06905EB800000F5987001688C4209D100
:1049F0000760380011D1E26968680121914088435D
:104A0000686074E72869864205D33069A04214BF04
:104A10007761376101E000F089FB002F3FF467AF59
:104A200028698742ABD3BE61216929B1814226BF83
:104A300039618F6100F07AFB606900283FF457AF5D
:104A4000296988429BD37861876150E799F804000F
:104A500000F0030003287FF44AAFC5F80880D9F8B6
:104A6000040040084000C9F8040048F001006060FC
:104A700048F804806DE16969894508D1A8686C61CE
:104A80004044A86040F001016160005161E1C0084C
:104A9000C0004FEAD00A8044BAF1200F36D2D9F8CC
:104AA0000C70D9F80860B94508BF00F03FFBB1456C
:104AB00008BF00F03BFBD9F80400C008C000B0EB11
:104AC000CA0F18BF00F032FB05EBCA0000F1280145
:104AD0008E4206D029698E42C0F08180F168494536
:104AE0007DD1B74206D12868012101FA0AF1884335
:104AF000286076E02830874205D0286987426ED347
:104B0000B86848456BD1F760BE606AE0D9F80C70B0
:104B1000D9F818604F450DD0D9F8080029698842A6
:104B200023D3C168494504BFB96849451DD1C76051
:104B3000B8601CE009F11400076837B909F11000EA
:104B40000768A7B101E00846076807F114010A6881
:104B5000002A02BF07F110010A68002AF3D129696F
:104B6000884202D30021016001E000F0DFFA002E4C
:104B700037D0D9F81C0005EB800000F5987001686B
:104B800089450AD10760380012D1D9F81C2068681D
:104B9000012191408843686023E02869864205D35B
:104BA0003069484514BF7761376101E000F0BEFA13
:104BB000BFB12869874212D3BE61D9F8101029B15C
:104BC000814226BF39618F6100F0B0FAD9F8140034
:104BD00038B12969884202D37861876101E000F029
:104BE000A5FA48F00100606048F8048068698442D2
:104BF0000BD1C5F80880ACE040084000C9F80400BB
:104C000048F00100606048F804804FEAD807202F80
:104C100022D205EBC70000F128094E46B8F1100F6B
:104C200038BF00F083FA286820FA07F1C90704D4D6
:104C30000121B9400843286007E0D9F80800296934
:104C400088422CBF064600F071FAC9F80840F460AB
:104C5000A660C4F80C907CE05FEA182008BF002131
:104C600023D0B0F5803F28BF1F211ED2A0F5807150
:104C7000090C01F008018840A0F58052120C02F0E6
:104C800004029040A0F580431B0CC1F10E0103F01B
:104C90000203891AC91A984001EBD030C11D28FAC5
:104CA00001F101F0010101EB4001E16100226261CB
:104CB000226105EB81006A6822FA01F300F5987021
:104CC000DB0706D4012303FA01F111436960046094
:104CD0001CE01F2900680EBF00214908C1F119011D
:104CE00008FA01F100E010464268D208D2004245BD
:104CF00010D0CA0F00EB820202F1100349001A68BB
:104D0000002AF0D129698B4211D31C60A061E460B4
:104D1000A4600EE02A698168904228BF914206D3C0
:104D2000CC608460A160E0600020A06101E000F040
:104D3000FDF9286A401E28620BD1D5F8C80100E0B1
:104D400080680028FCD14FF0FF30286201E000F0BD
:104D5000EDF9C046C046BDE8F08700000002002023
:104D6000B8040020C9B2002905D00D4A12680243D8
:104D70000B4B1A6004E00A4A12688243084B1A601F
:104D80007047C9B2002905D0064A12680243054B94
:104D90001A6004E0034A12688243024B1A607047AB
:104DA0001410024018100240F0B500270022002322
:104DB00000240025002691F803C01CF00F0C674664
:104DC00091F803C05FEACC6C03D591F802C05CEAAD
:104DD000070791F800C05FEA0C6C3AD0D0F800C029
:104DE00065465FF0000C6346082B31D25FF0010C82
:104DF0001CFA03FC6446B1F800C014EA0C0C6246CD
:104E0000A24223D15FEA830C64465FF00F0C1CFAC8
:104E100004FC6646B54317FA04FC5CEA050591F804
:104E200003C0BCF1280F06D15FF0010C1CFA03FC93
:104E3000C0F814C00AE091F803C0BCF1480F05D1D6
:104E40005FF0010C1CFA03FCC0F810C05B1CCBE740
:104E50000560B1F800C0BCF1FF0F3FDDD0F804C021
:104E600065465FF0000C6346082B36D25FF0010CFC
:104E700013F1080E1CFA0EFC6446B1F800C014EAE7
:104E80000C0C6246A24226D15FEA830C64465FF0B6
:104E90000F0C1CFA04FC6646B54317FA04FC5CEAE6
:104EA000050591F803C0BCF1280F07D15FF0010C94
:104EB00013F1080E1CFA0EFCC0F814C091F803C0E0
:104EC000BCF1480F07D15FF0010C13F1080E1CFA7A
:104ED0000EFCC0F810C05B1CC6E74560F0BD50F882
:104EE000041B61B150F8042BD30744BFA9F101039F
:104EF0009A18002342F8043B091FFAD1EFE77047E4
:104F000010B4002203681A006FF30E128B680C6A4B
:104F100023430C6923434C6923438C692343CC69A5
:104F200023434C6A23438C6A23431A430260CB68B1
:104F300043600B6883604B68C36010BC7047C9B2A4
:104F4000002904D0026852F00102026003E0026806
:104F50005208520002607047D2B2002A03D00368A0
:104F60000B43036002E003688B4303607047C1009A
:104F700002D50449086001E001490860704700005B
:104F800004000240040402405748002101605748D1
:104F9000002101605648002101605648002101604F
:104FA0005548002101605548002101605448002106
:104FB0000160544854490160544800210160704721
:104FC00000214A4A12681100514A11400278C36810
:104FD0001A4383681A4303691A4343681A434369AF
:104FE0001A431143414A116070474A49C0B20860F0
:104FF00070473D490968890889003B4A11603A4970
:1050000009680143384A116070473748006810F05A
:1050100003007047C9B2002905D03C4A1268024318
:105020003A4B1A6004E0394A12688243374B1A60DF
:1050300070473949C0B20860704700212C4A0368A4
:1050400013602C4A12681100C90AC90242688368B9
:105050001A43C3681A4303691A431143254A11606E
:1050600070472E480068C0B270472D4908587047F5
:105070000021214A036813604268204B1A60204ACD
:105080001268110031F0F7018268C3681A4303699E
:105090001A4343691A431143194A11607047214862
:1050A00000687047010000201F4A12680A4202D0BF
:1050B0000122100001E000221000C0B27047114927
:1050C0000860704701000020174A12680A4202D0A7
:1050D0000122100001E000221000C0B2704709490F
:1050E000086070470000000000800140048001401B
:1050F000088001400C80014024800140288001404C
:105100002C80014038800140FF07C0003C800140F6
:105110000081FFFFA00030428C053042108001402A
:10512000148001408080014034800140012000F063
:1051300017B800000749086808B100207047064802
:10514000C008C00008600549C908C900091A016003
:10515000704700BF3405002047150020402500207F
:1051600080B5C046C046024A11001820ABBEFBE71E
:105170002600020010B440B241098D4A012310F00C
:105180001F04A34042F8213010BC7047BFF34F8F7B
:105190008848006810F4E060874908438549086042
:1051A000BFF34F8FFEE780B500F02EF983498448A6
:1051B00000F070F900F033F901BD80B500F024F97A
:1051C0007F4800F035F900F02AF901BD7C480068FD
:1051D000704710B5ADF58E6DFFF7F8FF774988423F
:1051E00017D1FFF7EAFF72B676495FF0006000F072
:1051F00011FA75487549096801607548724909686E
:1052000001607048006880F3088871480068804732
:10521000CBE0FCF7B3FF31208DF8000000208DF8C3
:10522000010000208DF8020001208DF8030000A885
:1052300000F0BCF93B208DF8000001208DF8010042
:1052400000A800F0B3F96348FDF717FA6148B0F819
:1052500054000004FDF75DFC012254A18EA8FCF768
:105260001CFB002840F0A18001A85B491CC91CC0A0
:105270000C390C3800208DF80F00012201A904A878
:10528000FCF74AFB554908705448007800287CD147
:1052900000F0BAF80024E4B2EB2C09DAE4B24FF4DF
:1052A0000060484900FB041000F0C2F8641CF2E7FB
:1052B00007984B4908604B48002101604A48414922
:1052C00001604748006847490968401AB0F5007F07
:1052D0001DD3464B4FF40072454904A8FCF7F7FB79
:1052E0004048006810F500703E4908600024B4F59D
:1052F000007FE6D23E4821583B48006800F0CAF8DB
:1053000039480068001D38490860241DEFE734481B
:10531000006834490968884222D0344B304800681C
:1053200030490968421A324904A8FCF7D0FB00242E
:105330002B4800682B490968401A84420CD22C483B
:1053400021582948006800F0A5F827480068001D8A
:1053500025490860241DEBE72248214909680160BE
:1053600000F05DF804A8FCF70FFD01A8FCF71AFD9A
:105370003B20FFF7FFFE3120FFF7FCFEFFF71DFF8C
:10538000FFF711FFFFF702FF0FE00E480068194911
:105390000840B0F1005F06D1FFF70FFFFFF703FFF2
:1053A000FFF7F4FE01E0FFF7F1FEFEE7300000003A
:1053B00080E100E00CED00E00400FA055555AAAAD2
:1053C0000098000800A000081805002004A00008AC
:1053D0001C050020D8030020FC5B00083A050020D3
:1053E000080500200C0500201005002014050020F1
:1053F000000000200000FF2F80B5FDF7AEFE01BDCC
:1054000080B5FDF701FF01BDDFF83801DFF8381185
:105410000160DFF83001DFF8341101607047DFF818
:105420003001006850F08000DFF8241108607047F8
:1054300038B50400042540F6FF7000F08FF8050031
:10544000EDB2042D23D1DFF80801006850F002000E
:10545000DFF8FC100860DFF8FC000460DFF8F00003
:10546000006850F04000DFF8E810086040F6FF7078
:1054700000F074F80500EDB2012D08D0DFF8D0007F
:10548000006841F6FD710840DFF8C410086028008C
:10549000C0B232BD70B504000D0004260F2000F02C
:1054A0005DF80600F6B2042E2ED1DFF8A4000068E5
:1054B00050F00100DFF89810086025800F2000F000
:1054C0004DF80600F6B2042E12D1280C60800F2091
:1054D00000F044F80600F6B2012E15D0DFF8700097
:1054E000006841F6FE710840DFF8641008600BE0C8
:1054F000F6B2012E08D0DFF85800006841F6FE71C0
:105500000840DFF84C1008603000C0B270BD0420C5
:1055100011490968C90702D5012108000FE00E49A9
:105520000968490702D50221080008E00A4909680C
:10553000C90602D50321080001E004210800C0B219
:10554000704700000420024023016745AB89EFCD7E
:1055500010200240142002400C20024038B5040004
:105560000425FFF7D4FF0500EDB2012D08D1002C72
:1055700006D000F00CF8FFF7CAFF0500641EF3E741
:10558000002C01D1052005002800C0B232BD81B039
:1055900000200090FF2000900098002803D0009881
:1055A000401E0090F8E701B070470000F0B40023FF
:1055B00000210F22C478002C20D0194C246814F448
:1055C000E064D4F5E064240A2300D3F1040421004C
:1055D000DA4044788C4023008478144023431B0134
:1055E0000478104D6355047864110F4D0126077837
:1055F00017F01F07BE4045F8246009E004786411E5
:105600000A4D0126077817F01F07BE4045F82460B1
:10561000F0BC7047064A0A400243064B1A607047C6
:105620000CED00E000E400E000E100E080E100E0DB
:1056300080FFFF1F08ED00E061006200630064006E
:10564000650066006700680069006A006B006C0016
:105650006D006E006F0070007100720073007400C6
:10566000750076007700780079007A00A100A2002A
:10567000A300A500AC00AF00E000E100E200E30001
:10568000E400E500E600E700E800E900EA00EB00DE
:10569000EC00ED00EE00EF00F000F100F200F3008E
:1056A000F400F500F600F800F900FA00FB00FC0039
:1056B000FD00FE00FF0001010301050107010901D2
:1056C0000B010D010F011101130115011701190142
:1056D0001B011D011F0121012301250127012901B2
:1056E0002B012D012F0131013301350137013A0121
:1056F0003C013E01400142014401460148014B0189
:105700004D014F01510153015501570159015B01F1
:105710005D015F01610163016501670169016B0161
:105720006D016F0171017301750177017A017C01CF
:105730007E019201B103B203B303B403B503B60310
:10574000B703B803B903BA03BB03BC03BD03BE036D
:10575000BF03C003C103C303C403C503C603C70318
:10576000C803C903CA0330043104320433043404C7
:10577000350436043704380439043A043B043C0445
:105780003D043E043F0440044104420443044404F5
:10579000450446044704480449044A044B044C04A5
:1057A0004D044E044F045104520453045404550450
:1057B00056045704580459045A045B045C045E04FC
:1057C0005F0470217121722173217421752176216A
:1057D0007721782179217A217B217C217D217E21ED
:1057E0007F2141FF42FF43FF44FF45FF46FF47FF44
:1057F00048FF49FF4AFF4BFF4CFF4DFF4EFF4FFF55
:1058000050FF51FF52FF53FF54FF55FF56FF57FF04
:1058100058FF59FF5AFF0000410042004300440076
:10582000450046004700480049004A004B004C0034
:105830004D004E004F0050005100520053005400E4
:10584000550056005700580059005A002100E0FF4B
:10585000E1FFE5FFE2FFE3FFC000C100C200C300BB
:10586000C400C500C600C700C800C900CA00CB00FC
:10587000CC00CD00CE00CF00D000D100D200D300AC
:10588000D400D500D600D800D900DA00DB00DC0057
:10589000DD00DE00780100010201040106010801BB
:1058A0000A010C010E011001120114011601180168
:1058B0001A011C011E0120012201240126012801D8
:1058C0002A012C012E013001320134013601390147
:1058D0003B013D013F0141014301450147014A01AF
:1058E0004C014E01500152015401560158015A0118
:1058F0005C015E01600162016401660168016A0188
:105900006C016E01700172017401760179017B01F5
:105910007D019101910392039303940395039603F0
:105920009703980399039A039B039C039D039E038B
:105930009F03A003A103A303A403A503A603A70336
:10594000A803A903AA0310041104120413041404E5
:10595000150416041704180419041A041B041C0463
:105960001D041E041F042004210422042304240413
:10597000250426042704280429042A042B042C04C3
:105980002D042E042F04010402040304040405045E
:1059900006040704080409040A040B040C040E049A
:1059A0000F04602161216221632164216521662148
:1059B0006721682169216A216B216C216D216E218B
:1059C0006F2121FF22FF23FF24FF25FF26FF27FF52
:1059D00028FF29FF2AFF2BFF2CFF2DFF2EFF2FFF73
:1059E00030FF31FF32FF33FF34FF35FF36FF37FF23
:1059F00038FF39FF3AFF0000020403041A20530461
:105A00001E20262020202120AC203020090439200F
:105A10000A040C040B040F045204182019201C2043
:105A20001D202220132014200000112159043A20A7
:105A30005A045C045B045F04A0000E045E040804C6
:105A4000A4009004A600A7000104A9000404AB0070
:105A5000AC00AD00AE000704B000B100060456046F
:105A60009104B500B600B700510416215404BB00E0
:105A700058040504550457041004110412041304B7
:105A80001404150416041704180419041A041B043A
:105A90001C041D041E041F042004210422042304EA
:105AA0002404250426042704280429042A042B049A
:105AB0002C042D042E042F0430043104320433044A
:105AC0003404350436043704380439043A043B04FA
:105AD0003C043D043E043F044004410442044304AA
