:020000040800F2
:1000000050070020612D000811100008131000088F
:100010001510000817100008191000080000000053
:100020000000000000000000000000001B1000089D
:100030001D100008000000001F100008211000081B
:10004000BD2D0008C12D0008C52D0008C92D0008D0
:10005000CD2D0008D12D0008D52D0008D92D000880
:10006000DD2D0008E12D0008E52D0008E92D000830
:10007000ED2D0008F12D0008F52D0008F92D0008E0
:10008000FD2D0008012E0008052E0008092E00088D
:100090000D2E0008112E0008152E0008192E00083C
:1000A0001D2E0008212E0008252E0008292E0008EC
:1000B0002D2E0008312E0008352E0008392E00089C
:1000C0003D2E0008412E0008452E0008492E00084C
:1000D0004D2E0008512E0008552E0008291000084A
:1000E0005D2E0008612E0008652E0008692E0008AC
:1000F0006D2E0008712E0008752E0008792E00085C
:100100007D2E0008812E0008852E0008892E00080B
:100110008D2E0008912E0008952E0008992E0008BB
:100120009D2E0008A12E0008A52E0008A92E00086B
:10013000AD2E0008B12E0008B52E0008B92E00081B
:10014000BD2E0008C12E0008C52E0008C92E0008CB
:10015000CD2E0008D12E0008D52E0008D92E00087B
:10016000DD2E0008E12E0008E52E0008E92E00082B
:10017000ED2E0008F12E0008F52E0008F92E0008DB
:10018000FD2E000810B4002100220F23C478002C9B
:1001900022D0DFF82412096811F4E061D1F5E061A2
:1001A000090AD1F10402DBB20B4141789140827817
:1001B0001A40114309010278DFF80032D154017866
:1001C0004911DFF8FC210123007810F01F0013FA19
:1001D00000F042F821000BE001784911DFF8E4213A
:1001E0000123007810F01F0013FA00F042F82100FC
:1001F00010BC704730B40023002244682300DFF8AD
:10020000C84123400C790D6855EA04242343436018
:100210008368DFF8B84123400C69CD682C438D68B2
:100220002C434D7954EA450423438360C36A33F475
:100230007003097D491E0A43D2B253EA0253C362D6
:1002400030BC70470021DFF8882112681100DFF808
:1002500084211140026843681A4383681A43C068C6
:1002600010430143DFF8680101607047C9B20029FB
:1002700004D0816851F00101816003E08168490880
:10028000490081607047C0B2002808D0DFF8400103
:10029000006850F40000DFF83811086007E0DFF86C
:1002A0003001006830F40000DFF824110860704766
:1002B000F0B400240025C9B20A2911D3C468072567
:1002C000B1F10A0603277E43B540AC43DBB2B1F17E
:1002D0000A050326754313FA05F52C43C4600EE0A6
:1002E00004690725032606FB01F6B540AC43DBB2E3
:1002F000032505FB01F513FA05F52C430461D2B281
:10030000072A10D2446B1F23551E0526754313FA86
:1003100005F5AC43C9B2521E05235A4311FA02F542
:100320002C43446324E0D2B20D2A10D2046B1F2365
:10033000D51F0526754313FA05F5AC43C9B2D21F84
:1003400005235A4311FA02F52C43046310E0C46AF2
:100350001F23B2F10D050526754313FA05F5AC43CD
:10036000C9B20D3A05235A4311FA02F52C43C4626F
:10037000F0BC7047816851F0804181607047C9B21C
:10038000002905D081684FF480721143816003E039
:10039000816831F4807181607047C9B2002905D04D
:1003A00081684FF400721143816003E0816831F489
:1003B00000718160704700000CED00E000E400E097
:1003C00000E100E080E100E0FFFEFFFCFDF7FFC080
:1003D00004230140E030FCFF30B400230022DFF8AA
:1003E00054422468230040F6FE748440A3430C6802
:1003F0004D682C438D682C43C96821430A0012FACA
:1004000000F00343DFF82C02036030BC70470000AB
:10041000C9B200290AD0DFF81C120968012212FAB9
:1004200000F00843DFF80C1208600AE0DFF804125D
:100430000968012212FA00F031EA0000DFF8F41135
:1004400008607047000081B000220092DFF8E821C8
:100450000092009A083080180090009889B20160DC
:1004600001B070470168490849000160002101603E
:1004700000214160002181600021C16000210161F3
:1004800021214161DFF8B411884204D1DFF8B001C5
:100490003D21016093E0DFF8AC11884205D1DFF81F
:1004A000A0014FF47461016089E0DFF89C1188427B
:1004B00005D1DFF88C015FF4741101607FE0DFF893
:1004C0008C11884205D1DFF878015FF0746101601A
:1004D00075E0DFF87C11884205D1DFF87801DFF89C
:1004E000781101606BE0DFF87411884205D1DFF804
:1004F0006401DFF86C11016061E0DFF86811884287
:1005000005D1DFF85001DFF86011016057E0DFF836
:100510005C11884205D1DFF83C015FF03D5101607C
:100520004DE0DFF84C11884204D1DFF848013D214D
:10053000016044E0DFF84011884205D1DFF8340162
:100540004FF4746101603AE0DFF83011884205D160
:10055000DFF820015FF47411016030E0DFF8201152
:10056000884205D1DFF80C015FF07461016026E07C
:10057000DFF81011884205D1DFF81801DFF8D81034
:1005800001601CE0DFF80011884205D1DFF80401AA
:10059000DFF8CC10016012E0DFF8F010884205D1DE
:1005A000DFF8F000DFF8C010016008E0DFF8E010CD
:1005B000884204D1DFF8DC005FF03D5101607047F4
:1005C00010B4002203681A00DFF8CC301A400B6820
:1005D000CC6823434C6923438C692343CC69234370
:1005E0000C6A23434C6A23438C6A23434C6B23439A
:1005F0008C6B23431A4302604269D208D200CB6A53
:100600000C6B23431A4342610A6942604A68826064
:100610008968C16010BC7047C9B2002904D0016864
:1006200051F00101016003E00168490849000160DF
:1006300070470000007400400074004010600240E9
:10064000086002402860024040600240586002405A
:10065000706002400C6002403D0000208860024053
:10066000400F0020A060024000003D20B860024022
:100670001064024008640240286402404064024062
:10068000586402407064024088640240A0640240E2
:10069000B86402400C6402403F801CF030B4002279
:1006A0000023002400252A0047E0012393400C6822
:1006B0001C409C4240D1036803241500EDB26D003C
:1006C000AC40A343036003680C791500EDB26D00E4
:1006D000AC40234303600B79012B02D00B79022B32
:1006E0001AD1836803241500EDB26D00AC40A3431A
:1006F000836083684C791500EDB26D00AC402343F4
:100700008360436801249440A343436043688C7929
:100710009440A4B223434360C36803241500EDB2A0
:100720006D00AC40A343C360C368CC791500EDB243
:100730006D00AC402343C360521C102AB5D330BCBB
:10074000704741837047F0B400230024D2B211F007
:100750000705EDB2AD00AA40130089B2CA1010EB34
:10076000820289B2CD1010EB85052D6A0F2611F09B
:100770000707FFB2BF00BE40B543156289B2CA1079
:1007800010EB8202126A1A43140089B2C91010EBEE
:1007900081000462F0BC7047F0B400210022002305
:1007A000022400250226DFF850713F6817F00C077D
:1007B0003900002904D0042906D0082908D035E0E2
:1007C000DFF83C11016034E0DFF83811016030E0FF
:1007D000DFF828110968C1F38055DFF82011096896
:1007E00011F03F06002D0BD0DFF81811B1FBF6F128
:1007F000DFF808211268C2F3881202FB01F30AE055
:10080000DFF8FC10B1FBF6F1DFF8F0201268C2F35C
:10081000881202FB01F3DFF8E4100968C1F301411B
:10082000491C4C00B3FBF4F1016002E0DFF8D0108A
:100830000160DFF8C410096811F0F0010909DFF860
:10084000C8208A5C0168D1404160DFF8AC100968BB
:1008500011F4E051890ADFF8B0208A5C4168D14088
:100860008160DFF89410096811F46041490BDFF8EA
:1008700098208A5C4168D140C160F0BC7047C9B221
:10088000002907D0DFF8841009680843DFF87C10DE
:10089000086007E0DFF87410096831EA0000DFF84B
:1008A0006C1008607047C9B2002907D0DFF86010EB
:1008B00009680843DFF85810086007E0DFF85010B7
:1008C000096831EA0000DFF8481008607047C9B2D3
:1008D000002907D0DFF83C1009680843DFF834101E
:1008E000086007E0DFF82C10096831EA0000DFF843
:1008F00024100860704700000838024004380240A5
:100900000024F40040787D010000002030380240CF
:100910004038024044380240002203881A00DFF8C1
:10092000BC30984212D0DFF8883198420ED0B0F136
:10093000804F0BD0DFF8A830984207D0DFF8A43002
:10094000984203D0DFF8A030984204D14FF68F735D
:100950001A404B881A43DFF89430984208D0DFF8E9
:100960004C31984204D04FF6FF431A400B891A438A
:1009700002804A68C2620A880285DFF860209042DD
:1009800003D0DFF82C21904201D1897A0186012120
:10099000818270475FF0FF314160002101800021BA
:1009A000018100214180002181727047C9B2002974
:1009B00004D0018851F00101018004E001884FF664
:1009C000FE7211400180704782884FF68F731A4083
:1009D00082808288114381807047000000000140BE
:1009E0000004004000080040000C004000100040DF
:1009F0007FB504000D000020002100220023AE89F5
:100A0000002E208A30F44050E98808432082A089D3
:100A1000DFF894170840A9882A8911436A8911438D
:100A20000843A081A08A30F44070A9890843A082BD
:100A300000A8FFF7B1FEDFF80807844203D0DFF813
:100A40006C07844201D1039900E00299A089000457
:100A500007D5192000FB01F029684900B0FBF1F22D
:100A600006E0192000FB01F029688900B0FBF1F2D3
:100A70006420B2FBF0F000010109642303FB1123A1
:100A8000A189090408D5D90032316422B1FBF2F101
:100A900011F00701084307E0190132316422B1FB6C
:100AA000F2F111F00F01084320817FBD00140040D6
:100AB00000040140C9B2002904D0818951F40051D9
:100AC000818104E081894DF6FF7211408181704778
:100AD000F0B4002300240025002640F66A1789B2EE
:100AE000B94206000800C0B24309DBB289B211F076
:100AF0001F04012010FA04F5012B01D10C3604E08B
:100B0000022B01D1103600E01436D2B2002A03D0F5
:100B100030682843306002E03068A8433060F0BCA1
:100B2000704740B2002809D540B210F00F00DFF83E
:100B300038278018090100F8041C04E040B2DFF8EF
:100B40002C2709018154704780B5B0F1807F01D313
:100B5000012013E00002000A401EDFF814170860AD
:100B60000F215FF0FF30FFF7DCFFDFF808070021FF
:100B70000160DFF8040707210160002002BD00B515
:100B800087B000F09EF801210420FFF778FE4FF4B3
:100B90000050009001208DF8040000208DF8060020
:100BA00000208DF8070002208DF8050000A9DFF86D
:100BB000CC06FFF773FD4FF40051DFF8C006FFF7D6
:100BC000C0FD002000F073F900F0F9F8DFF8B0067E
:100BD000FFF7D0FB00F0D0F800F09DF802A8FFF777
:100BE000DBFD03984FF47A71B0FBF1F0FFF7ACFF37
:100BF000DFF890064FF416510160DFF888060021F7
:100C00008180DFF880060021C180DFF878060021AE
:100C10000181DFF8700600218181DFF868060C2170
:100C2000418100F051FADFF85C16002000F077F9FE
:100C3000012240F22551DFF80C05FFF749FF0122A0
:100C400040F22771DFF8FC04FFF742FFDFF83816A7
:100C5000DFF8380600F070FB0100DFF8300600F026
:100C600073FA4FF47A7000F03DF8002000F044F978
:100C7000DFF81C06006800F083FB5FF06632DFF8E7
:100C8000143600F0A1FBDFF81026DFF8103600F074
:100C90007DFCDFF80C26DFF80C3600F0EFFC00F0EE
:100CA00011FE00F057FE02000B00DFF8FC15DFF824
:100CB000DC0500F041FB0100DFF8D00500F044FA4C
:100CC000CFE780B527208DF8000000208DF80100C7
:100CD00000208DF8020001208DF8030000A8FFF726
:100CE00051FA01BD01B4DFF8C40500990160DFF8D5
:100CF000BC0500680028FAD101B07047DFF8AC05E8
:100D00000068002806D0DFF8A4050068401EDFF860
:100D10009C150860704700B587B00121DFF8900589
:100D2000FFF7ADFD01215FF00050FFF7BCFD102083
:100D3000009003208DF8040000208DF8070000A922
:100D4000DFF87005FFF7AAFC0420029080200390D2
:100D50004FF4306004900020059002A90020FFF7B6
:100D60003BFB01210020FFF753FB4FF40051002013
:100D7000FFF769FB07B000BDE0B501211020FFF7C8
:100D800092FD00A8FFF706FE0F2001900020ADF8AD
:100D900000000020ADF808000020ADF8020000A916
:100DA000DFF81405FFF7B8FD2021DFF80C05FFF789
:100DB0000BFE0121DFF80005FFF7F8FD07BD00B5C8
:100DC00099B001215FF48000FFF759FD01214FF434
:100DD0008070FFF77CFDDFF8E404FFF743FB0020A1
:100DE0000490DFF8DC040590DFF8A40406900020EE
:100DF0000790012008900020099000200A904FF4ED
:100E000000600B904FF400500C904FF480700D90E8
:100E10005FF400300E9000200F9001201090002011
:100E200011900020129004A9DFF89004FFF7C8FB8E
:100E30000121DFF88804FFF7EFFB0020009000207D
:100E40000190002002900020039000A8FFF7FAF91B
:100E50000020139000208DF8500001208DF85100E3
:100E6000002015900020179001208DF8600013A934
:100E7000DFF80C04FFF7BEF90121DFF80404FFF7E7
:100E80007EFA012301221021DFF8F403FFF710FAA4
:100E90000120FFF7F8F90121DFF8E403FFF77DFAFD
:100EA0000121DFF8DC03FFF7E1F919B000BD1CB543
:100EB00004000121E4B2DFF80C0450F82400FFF72D
:100EC000DEFCE4B2DFF8000430F8140000900120EA
:100ED0008DF8040000208DF8060001208DF8070031
:100EE00002208DF8050000A9E4B2DFF8E00350F815
:100EF0002400FFF7D3FB13BDC0B2DFF8D01351F8C5
:100F000020104969C0B2DFF8C02332F810205140E8
:100F1000C0B2DFF8B82352F820004161704730B505
:100F200083B004000D000121E4B2DFF8A40350F8FF
:100F30002400E4B2DFF89C2352F824201043FFF78A
:100F40009EFCE4B2002C07D10121E4B2DFF8880353
:100F500050F82400FFF7A7FCE4B2DFF88003225C1E
:100F6000E4B2DFF87C03215C89B2E4B2DFF87403F9
:100F700050F82400FFF7E7FBE4B2DFF86C03225CD3
:100F8000E4B2DFF86803215C89B2E4B2DFF8600301
:100F900050F82400FFF7D7FB00208DF80600012051
:100FA0008DF8070002208DF80400E4B2DFF8440356
:100FB00030F81400009002208DF8050000A9E4B27A
:100FC000DFF8200350F82400FFF768FB02208DF8BB
:100FD0000400E4B2DFF8200330F81400009000A908
:100FE000E4B2DFF80C0350F82400FFF757FB2900A8
:100FF000E4B2DFF8080350F82400FFF7F9FC012100
:10100000E4B2DFF8F80250F82400FFF753FD37BDD3
:101010007047FEE7FEE7FEE7FEE770477047704760
:1010200080B5FFF76BFE01BD81B04648008880B2F5
:1010300000900098800619D5424800884FF6DF716D
:10104000084040490880DFF8B80201684268891A00
:10105000090A0902002909D10178C9B20918DFF883
:10106000A42212880A720168491C016000980006D7
:1010700028D5344800884FF67F71084031490880F0
:10108000DFF884020168426891420ED00179C9B24A
:101090000918097ADFF86C2211804168491C416007
:1010A000DFF86802002101600CE0DFF86002012136
:1010B0000160DFF85C0200884FF67F710840DFF8BE
:1010C0005012088001B07047DFF83C020021016037
:1010D000DFF8340200214160DFF8300201210160B5
:1010E000DFF81C0200210160DFF8140200214160DA
:1010F0007047DFF81412DFF810221268DFF80832A8
:101100005B68D21A4FF4807392B29A4202D35FF0B6
:10111000FF3014E00A78D2B2521810720868401CEE
:1011200008607A480068002808D0784800210160EB
:101130007748008850F0800075490880002070478B
:10114000001001400048004038B504000D0004E0E4
:101150002078FFF7CEFF641C6D1E012DF8DA31BD3B
:1011600080B56C48006850F001006A4908606A4820
:1011700000210160674800686849084065490860C7
:101180006748684901606348006830F4802061491D
:10119000086065480021016000F00AF863485FF0CC
:1011A0000061016001BD0000F3E9FFFF0014014090
:1011B00082B000200190002000905648006850F452
:1011C0008030544908605348006810F400300090A3
:1011D0000198401C01900098002803D10198B0F5B7
:1011E000A06FF0D14B480068800302D50120009029
:1011F00001E0002000900098012832D1464846497D
:10120000096801604448006850F4004042490860A1
:101210004148006850F4A0503F49086040484449A4
:1012200001603C48006850F080703A4908603948D5
:1012300000688001FBD53F4840F2037101603648E9
:10124000006880088000344908603348006850F026
:101250000200314908603048006810F00C0008288E
:10126000F9D102B07047000018ED00E000E400E0A2
:1012700014E000E018E000E010E000E000080240A8
:101280000020014034030020002D0008340200201B
:101290004403002066664A3F52B81E85EB51E8BF02
:1012A0007B14AE47E17A643F702D000848030020AC
:1012B00001002000000002400010004010640240C5
:1012C0004C200140882D0008C218000810000020A2
:1012D000902D0008942D00088C2D00085A28000835
:1012E00042280008180000205B2800084328000856
:1012F0001C000020A2190008C226000814000020CB
:1013000024000020044800402C0100202000002080
:101310000C4800400038024008380240FFFFF6FE4B
:1013200004380240103000240C38024008ED00E080
:10133000193C4005003C02400CB41CB5044604A80E
:101340000190009401AB0A4600A907487844183080
:1013500000F028FB009900220A7000285CBF00986A
:10136000001B16BC5DF80CFB0B030000010040F1F4
:101370000880F446404200F004F851F00041604714
:10138000010009D0B0FA80F18840C91CC1F5846120
:10139000090501EBD0214005704710B450F8041B3B
:1013A00081B102681218001D50F8043BDC0744BFED
:1013B000A9F10104E31852F8044B43F8044B091F48
:1013C000F9D1EBE710BC7047B0B581EA030C0CF023
:1013D000004C40F2FF7515EA11541DBF15EA135772
:1013E000AC42AF4239E0E41923EA455343F4801399
:1013F000C90241F0004141EA505EC7021100A7FB5B
:10140000020200284FF00000EEFB01204FF0000127
:10141000E3FB072118BF42F00102401800214941B7
:10142000E3FB0E01A4F580640F0302D25200404199
:10143000494154F101046CDD470872F1004250F15A
:10144000000051EB0451A1F580115CBF41EA0C0191
:10145000B0BD4CEA05510020B0BD05EA1357AC42BF
:1014600014BFAF4241E050EA410E1CBF52EA430EA6
:1014700002E061460020B0BD24423C441BD15FEA3B
:10148000070EF6D0090302BF01460020AEF1140E8C
:10149000B1FA81F7AEEB070401FA07FE0C37C7F18A
:1014A000200100FA07F7C8404EEA000E23EA455330
:1014B00043F48013A2E733F00043B3FA83F704BF89
:1014C000B2FA82FE77440B3FE41BB7F1200E2FBF28
:1014D00002FA0EF3BB40C7F1200E22FA0EFE38BF0F
:1014E00043EA0E03BA40641C82E750EA410E14BF7F
:1014F00052EA430E6FF000014FF4001717EB430F51
:101500008ABF194617EB410FB5E74CEA0551002099
:10151000B0BDD4F10104B4F120070FDAC4F1200703
:10152000520828BF42F0010210FA07F501FA07F746
:10153000E1BF2A43E0403843E1400FE0352C98DC1E
:10154000C7F1200452EA400220FA07F218BF42F025
:10155000010231FA07F0A1400A43002172F1004272
:1015600050F1000051EB0C01B0BD50F8041B61B10B
:1015700050F8042BD30744BFA9F101039A180023A4
:1015800042F8043B091FFAD1EFE7704770B44FF0FF
:10159000004591EA030C44BF6B4001F09CB8841AEB
:1015A00071EB030603D2001BB141121973414FF4D2
:1015B000001C1CEB410F34BF7CEB430443E00C0DDB
:1015C000A4EB1356352E50DC45EAC323DB0A45EA6B
:1015D000C121C912B6F120050DDD63FA05F6EB4015
:1015E00086EA0305124218BF45F00105C01851F103
:1015F00000010CD213E062FA06F5F2405540F341C7
:101600005A40B340F3405A408018594107D3490823
:101610005FEA30005FEA350528BF45F0010501F5B6
:101620008011420875F1004250F1000041EB045175
:1016300070BC4FF4001C1CEB410F38BF70470020FA
:10164000090D090570471CEB410F10D252EA430601
:101650000BD0BCEB410F05D80C0DAB43661E342EEE
:10166000B5DD02E0AB438018594170BC704770BCD7
:1016700070470268531C036011707047F0B540F268
:10168000FF7581EA030C0CF0004C15EA11541DBFE4
:1016900015EA1357AC42AF42E5E0BC41C1F3130178
:1016A000C3F31303801A994143F4801304D2641ED8
:1016B0004000494180185941C90241EA5051B1FBEB
:1016C000F3F603FB1611A2FB0675D7EBC020A94168
:1016D00002D2761E80185941C90241EA5051B1FB2D
:1016E000F3FE03FB1E11A2FB0E75D7EBC020A94130
:1016F00003D2AEF1010E80185941890241EA90519E
:10170000760546EA8E2EB1FBF3F603FB1611A2FB1B
:101710000675D7EB8020A94102D2761E8018594168
:10172000C90241EA50514EEA060EB1FBF3F603FB43
:101730001611A2FB0675D7EBC020A94102D2761E76
:1017400080185941C90241EA5051B1FBF3F703FB3C
:101750001711A2FB0735D3EBC020A94167F10007A1
:101760000CBF004247F0010766F3D5274FEA1E3150
:10177000B80814F5806412DDBD0775F1004250EB26
:101780000E5051EB045111F5801F5CBF41EA0C0172
:10179000F0BD4CF07F6141F0E0410020F0BDBD079D
:1017A0006D0840EA0E5041F48011D4F10104B4F107
:1017B00020060ADAC4F120060200E04001FA06F32E
:1017C000E1401843B24015430EE0342C13DCC6F15F
:1017D000200445EA40056D0820FA06F2154321FA77
:1017E00006F0A1400D43002175F1004250F10000C8
:1017F00051EB0C01F0BD00205FEA0C01F0BDCFB948
:1018000092185B41B3FA83F704BFB2FA82F6BF19AC
:101810000B3FB7F120062FBF02FA06F3BB40C7F11A
:10182000200622FA06F638BF3343BA401CB1E41949
:10183000641E33E77F4231F00041B1FA81F404BF06
:10184000B0FA80F6A4190B3CB4F120062FBF00FAC1
:1018500006F1A140C4F1200620FA06F638BF314354
:10186000A0403C1B1AE7AC421ABF05EA1357AF422F
:1018700012E050EA41061CBF52EA4306BFE750EAB5
:101880004107304661461CBF41EA0551F0BD52EAAE
:10189000430C08BFC143F0BD00204FF4001616EB07
:1018A000410F98BF16EB430F08BF16EB410F24BF43
:1018B000C14305E016EB430F0CBF61464CEA0551EE
:1018C000F0BD00024FEAF17CBCF1E04C2CBFBCF54E
:1018D000001F11E05FEA4C0C34BFBCF17F5F2EE0CB
:1018E0005FEA9C0C4FEA0C1C4FEA3C0CC10071F102
:1018F00000414CEB50707047C90241EA5051C002A0
:1019000018BF41F0010141F000414FEA6C50C0F1B5
:101910000900212810D240EACC7CCCF1200C11FA2D
:101920000CF070F10040CCF1200C21FA0CF00CF01E
:10193000004C40EB0C0070474FEACC7070474900F8
:1019400011F5001F04D84FEACC10FF30C0057047D6
:10195000C81770475FF0FF0C1CEAD05114BF6145F7
:1019600006E0C110400721F0E04101F160517047ED
:1019700079B900F0004100020AD0B0FA80FC00FA08
:101980000CF001F16051A1EB0C5101EBD0214005AD
:10199000704741020CBF40F4E0016FF000010020ED
:1019A000704700012DE9F04FA1B017461C4601AD6C
:1019B0006860A9600020E86211AE4FF0FF396FF057
:1019C000004802E0E86A401CE862387818B9E86A22
:1019D00021B0BDE8F08F252807D100206861A861FB
:1019E000E86128626862A8620BE017F8011BA8682A
:1019F0006A689047A8600028E4D14846E8E740F0CC
:101A0000010017F8011F2029F9D023290DD02B2917
:101A100004D02D2906D030290AD00CE040F0020075
:101A200080B2EEE740F00400FAE740F00800F7E784
:101A300040F01000F4E72A290DD12268111D216021
:101A400011686963002904D54942696340F00400C4
:101A500080B27F1C12E00021696309E0696B414597
:101A600005D001EB810302EB4301303969637F1C30
:101A70003A78A2F13001C9B20A29EFD339782E2978
:101A800018BFC5F830901DD117F8011F2A2906D1BB
:101A90002268111D2160116829637F1C12E000215A
:101AA000296309E0296B414505D001EB810302EB75
:101AB0004301303929637F1C3A78A2F13001C9B261
:101AC0000A29EFD3288739780FF6DC3000F0BAFE08
:101AD00008B117F8010B8DF83E009DF83E0068280C
:101AE00004D1387868280AD1622005E06C2806D134
:101AF00038786C2803D171208DF83E007F1C11A826
:101B000028613A781046253825D01C3877D0001F38
:101B1000022874D9133800F09E8009386FD0801ED7
:101B200000F03281401E00F0DB80401E022866D9A2
:101B3000001F00F0D580401F36D0401E00F08B8083
:101B4000401E23D0C01E0CD0801E00F08480C01E1A
:101B500000F0818020E16869411C6961252181557F
:101B600024E12168081D20600868E8602A6B002ACB
:101B700002D500F073FE07E0002100F08BFE002884
:101B80001ABFE968401A286BA8610FE12168081D97
:101B9000206008680021CDE9000111A8E8607821E3
:101BA00000A800F093F901E19DF83E0062281FD0E3
:101BB00068280DD06A2812D06C2802D071280ED067
:101BC00074282168081D20600868E96A0160EDE05A
:101BD000E86A2268111D216011680880E6E0E86A61
:101BE000C11723681A1D22601A68C2E90001DDE0EE
:101BF000E86A2268111D216011680870D6E020682B
:101C0000C01D20F007002060034603F1080020609B
:101C1000D3E90001CDE90001002904D56869411C20
:101C200069612D210DE0288F810704D56869411C69
:101C300069612B2105E0C00704D56869411C696111
:101C400020218155686911A94018E860114600A853
:101C500000F0CFF9AAE09DF83E306C2B0FD0712B2D
:101C60000BD12068C01D20F00700206084460CF1D5
:101C700008002060DCE9000106E06A2BF1D0216851
:101C8000081D206008680021CDE90001682B04BF11
:101C9000DDE9000180B20BD0622B04BFDDE9000159
:101CA000C0B205D0742B01D07A2B04D1DDE900013C
:101CB0000021CDE9000195F8380000075ED5DDE987
:101CC000000109B9002859D042F02000782855D1E8
:101CD000686930218155401C411C696182554DE085
:101CE0009DF83E0062280CD0682810D06A281AD0CF
:101CF0006C2824D0712816D0742820D07A280CD0D3
:101D00001DE02168081D206091F900001BE021689A
:101D1000081D2060B1F9000015E02168081D206051
:101D20000868002110E02068C01D20F00700206036
:101D3000034603F108002060D3E9000104E02168B4
:101D4000081D20600868C117CDE90001DDE9000128
:101D5000002904DA6869411C69612D210DE0288F92
:101D6000810704D56869411C69612B2105E0C00722
:101D700004D56869411C696120218155686911A9F0
:101D80004018E86011460BE76869411C69612268E8
:101D9000111D21601168E2E66869411C6961252115
:101DA00081551AB16869411C696182557F1C686B55
:101DB0006969401A296A401AA969401A696A401A71
:101DC000E969401AA96AA0EB010A95F838004007B2
:101DD00011D420208DF84000BAF1010F0BDBD3465F
:101DE000012210A900A800F045FC00287FF405AEF0
:101DF000BBF1010BF4D16A6911A900A800F03AFC0B
:101E000000287FF4FAAD30208DF84000D5F820B0DE
:101E1000BBF1010F0ADB012210A900A800F02AFC87
:101E200000287FF4EAADBBF1010BF4D1AA69E9689F
:101E300000A800F01FFC00287FF4DFAD30208DF8F3
:101E40004000D5F824B0BBF1010F0ADB012210A934
:101E500000A800F00FFC00287FF4CFADBBF1010B10
:101E6000F4D1EA69A869E968411800A800F002FC09
:101E700000287FF4C2AD30208DF84000D5F828B09E
:101E8000BBF1010F0ADB012210A900A800F0F2FB50
:101E900000287FF4B2ADBBF1010BF4D195F8380006
:101EA00040077FF592AD20208DF84000BAF1010F78
:101EB000FFF68BAD012210A900A800F0DBFB002883
:101EC0007FF49BADBAF1010AF4D17EE52DE9FA4B1E
:101ED00086B005466F696F2908BF082605D041F016
:101EE0002000782814BF0A2610263C24D5E90001DA
:101EF00081468B469DF81820642A01D0692A05D1B5
:101F0000002903DAD9F100096BEB4B0BBBF1000F91
:101F10000FD1B9F1000F0CD1686B50B9082E44D124
:101F200095F83C00000740D53B24302087F83B0063
:101F30003BE0A4F101084446F017CDE904604846AF
:101F40005946DDE9042300F0DBFCCDE90201CDE9CF
:101F5000009BDDE90223DDE90401A0FB029BDDE932
:101F60000001A0EB09003030C0B23A2803D39DF83D
:101F700018105139081808F80700DDE9029BBBF179
:101F8000000F02D1B9F1000F03D02869E11988428E
:101F9000CFD3082E09D195F83C00000705D5E05DA8
:101FA000302802D0641E3020E055C4F13C00E861C6
:101FB000E1192961696B884207DA081A6862A88FFB
:101FC0004FF6EF710840A88710E000290ED595F86C
:101FD0003C1001F01401102908D1A96BAA69891AD3
:101FE0006A6A891A0C1A012CA8BF6C6208B0BDE895
:101FF000F08B2DE9F24F8EB0054604AFD5E9000114
:10200000CDE902019DF8380040F020008DF8000075
:1020100061280BD0686B002848BF062005D405D185
:102020009DF80000672801D1012068636968C1F349
:102030000A5040F2FF7398421DD1080310D128685E
:1020400070B90320E8619DF838006138C0B21A28E1
:1020500038D30FF268610322286900F0DFFCC6E183
:102060000320E8619DF838006138C0B21A2826D3F1
:102070000FF24061EFE7010017D1284600F006FD9E
:10208000012812DB002400209DF80010612920D1D6
:102090002969302201F8012B4A1C2A619DF8382059
:1020A000612A0CBF782258220FE040F2FE316A68A4
:1020B00061F31E526A60441A4FF0FF30E4E70FF2FA
:1020C000F051C8E70FF2F051C5E70A70A969891C01
:1020D000A96110B90026B0467FE19DF80000612893
:1020E00040F09780686B00284CBF2126461C36B212
:1020F000771CD5E900ABDDE902010022002300F0E6
:10210000E7FC3ABF8BF00040CDE902A0CDE902AB7D
:10211000A4F104088DF810200DF11109012F33DB13
:10212000DDE902010022002300F0EAFC2CD21C2190
:1021300002A800F0FDFCDDE9020100F085FD044687
:10214000FF1F012F09DBFFF711F902460B46DDE9FE
:10215000020100F0B7FACDE9020109F207000721F8
:1021600004E004F00F0200F8012D2411012C01DB22
:10217000491EF6D5491E5CBF002200F8012DF9D595
:1021800000F20709012FCBDA0DF11100A9EB0001D4
:102190000DF11107B142B8BF0E4636B2002E31D450
:1021A0003046884206DA04A941184978082928BF30
:1021B0000F2100D2002104AA821800E0761E401EE2
:1021C00012F801398B42F9D00F2904D104A9411822
:1021D0004A78521C4A70002803D504AF761C08F1D7
:1021E000040836B2701E0DD4C1190A783032D2B24A
:1021F0003A2A03D39DF838303A3B9A1801F801295E
:10220000401EF2D5686B002840F1E780701E6863BD
:10221000E3E0DDE902010022002300F059FC05D2D1
:10222000DDE9020181F00041CDE9020124B247F26B
:10223000975060436F4990FBF1F80FFA88F8C8F1A6
:1022400007040027DFF8B091012C19DBDDE902ABB0
:10225000E00707D5504659463A464B46FFF7B4F8D3
:1022600082468B466410384649463A464B46FFF74D
:10227000ABF807468946002CEAD1CDE902AB21E054
:1022800064429246DFF874B114D0E00707D5504697
:1022900059463A464B46FFF797F882468B466410FC
:1022A000384649463A464B46FFF78EF80746894678
:1022B000002CEAD1DDE9020152465B46FFF7DEF968
:1022C000CDE902019DF8000066280CBF08F10A0064
:1022D0000620696B4618142EA8BF132630208DF8EF
:1022E00010000DF11104464F012E33DBDDE9020130
:1022F00000F0C0FC04F1080104220A24B0FBF4F34E
:1023000003EB830EA0EB4E00303001F8010DB3FB60
:10231000F4F000EB8004A3EB4403303301F8013DFB
:10232000521EEAD101F10804083E012EDCDBDDE992
:10233000020100F09FFCFFF723F802460B46DDE99F
:10234000020100F0BFF900223B46FFF73DF8CDE95E
:102350000201CBE70DF11100201A0DF111079DF8D4
:102360001110302906D1401EA8F1010817F8011FED
:102370003029F8D09DF80010662904BF0FFA88F8BC
:1023800008F1010103D065290CBF012100216A6B0E
:102390008E1836B2B042B8BF064636B2002E1CD4F4
:1023A0003146814204DAC85D352828BF392000D281
:1023B0003020CA19521E00E0761E491E12F801395B
:1023C0008342F9D0392802D1C85D401CC855002984
:1023D00003D57F1E761C08F101080FFA88F00090E3
:1023E00033B23A469DF83810284600F00BF80FB08B
:1023F000BDE8F08FA0860100000024400000F03FFF
:1024000084D797412DE9F04385B0054689461746A4
:102410001E46BDF93040D5F83480012E02DA01267F
:102420000FF29C2749F0200066280AD0672840F068
:1024300086806FF003018C42C0F28780444580F2B1
:102440008480641C66280CD095F83C00000702D4F8
:102450004645B8BFB04624B2B8EB040848BF4FF0B9
:1024600000082869E96924B2012C25DA4A1C3023C6
:102470000B54B8F1010F03DA95F83C10090702D5A7
:102480002E211154521CEA6118EB040FB8BFC8F199
:10249000000424B26142A962A044B045B8BF4646D8
:1024A00036B22E6232463946EB69181800F0B6FA99
:1024B000A8EB0600E862C6E00818A64218DA324621
:1024C000394600F0ABFAE9697118E961A01BA8620E
:1024D000B8F1010F03DA95F83C00000705D528692B
:1024E0002E220A54286A401C2862C5F82C80AAE0D3
:1024F0002246394600F092FAE8692018E861361B56
:10250000B8F1010F03DA95F83C10090704D5411C16
:10251000E96129692E22425436B2B045B8BF464619
:1025200036B23246E119E8692B69C01800F076FA34
:10253000E8693018E861A8EB0600A86283E0B9F109
:10254000610F16D14FF0700918E0464504DA95F88E
:102550003C10090758BFB046B8F1010848BF4FF01A
:102560000008B9F1670F14BF4FF045094FF0650936
:1025700004E0B9F1410F08BF4FF05009E9694A1C66
:10258000286917F8013B0B54B8F1010F03DA95F8ED
:102590003C10090702D52E211154521CEA61B8F1F2
:1025A000010F11DB761E36B2B045B8BF464636B2D3
:1025B00032463946EB69181800F030FAE8693018ED
:1025C000E861A8EB0600A862E8692969471807F8DE
:1025D000019B002C5CBF2B2007F8010B03D52D209D
:1025E00007F8010B644200260DF1080824B2012C03
:1025F0000EDB0A22214600A800F051FB019808F8E2
:10260000010B009C761C24B2012CF2DA022E06DAB1
:1026100049F02000652804BF302007F8010B1EB9DF
:10262000302007F8010B09E0012E07DB761E02A817
:10263000305C303007F8010B012EF7DAE8692969C0
:102640004018381A286295F83C0000F01400102851
:102650000DD1A869E9690818A96A0818296A081833
:10266000E96A0818A96B8842BCBF081A686205B0FD
:10267000BDE8F08370B504460D4616460020002ED6
:1026800010D015F8011BE068A2689047E0600028B0
:1026900006D0206B401C20630020761EF1D170BD57
:1026A0004FF0FF3070BD0000686A6C747A4C000017
:1026B0006E616E004E414E00696E6600494E4600E6
:1026C0003000000270B44FF0004591EA030F44BFA0
:1026D0006B40FEF764BF841A71EB030604D26E40B0
:1026E000001BB141121973414FF4001C1CEB410F48
:1026F00034BF7CEB430684E00C0DA4EB1356362E5E
:102700007DDC012E43DC45EAC32343EA525312BF6A
:10271000D20292025B08240545EAC12141EA5051E8
:10272000D2EBC020994125D407D1B0FA80F610FA37
:1027300006F164D00020203608E0B1FA81F6B140FD
:10274000C6F1200220FA02F21143B0404FEAF474BD
:10275000B4EB465434F001064FEA74040AD8D6F5B7
:102760000016760D04F00044F04061FA06F2504085
:10277000F1404840C00A40EA415021F0004128BFE2
:102780005FEA500550F1000044EBD12137E045EA03
:10279000C323DB0A45EAC121C90AB6F120050EDDD3
:1027A00042EA0242120CC5F1200603FA06F6EB409B
:1027B00042EA06056D42984161F100010DE062FABE
:1027C00006F5F240554063FA06FC82EA0C02F3403B
:1027D0005A406D42904161EB030111F4801F05D115
:1027E000641E620502D06D004041494121F4801110
:1027F000430875F1004350F1000041EB045170BCF7
:1028000070471CEB410F15D223F0004352EA4306F8
:102810000BD04FEA4C0CBCEB410F04D80C0D661EDC
:10282000342EB7DDEBE7801A994150EA410608BF24
:102830000021E4E708BF1CEB430F28BF6FF0000145
:10284000DDE708090278C9B28A421AB11CBF10F844
:10285000012FF9E718BF00207047070700F10103B7
:10286000810704D010F8011B89B18107FAD10268F1
:10287000B2F10131914311F0803F04BF50F8042FB1
:10288000F6E710F8011B11B110F8011BFBE7C01AA5
:1028900070470000C9B2830706D0521E22D310F839
:1028A000013B9942F7D11FE0083A13D302F1040229
:1028B00041EA012141EA014150F8043B121F21BFC6
:1028C0004B40A3F1013C2CEA030C1CF0803FF3D0F9
:1028D000C9B2001F083210F8013B521E28BF91EA0E
:1028E000030FF8D818BF0120401E704713F0004CAA
:1028F00003D55B42524263F100039CEA210C15D1DF
:102900001B4229D109424CD12AB18446B0FBF2F0D6
:1029100002FB10C2704700F0C9B9FCD300220023AB
:1029200070470B00020000210020704710B564467C
:1029300003D34942404261F10001FFF7E1FF640027
:1029400004D34942404261F10001244203D55B4275
:10295000524263F1000310BD904271EB030CE0D3CF
:1029600070B5B1FA81F4B3FA83F52C1BA340C4F11E
:10297000200532FA05F63343A2405FF00046E640F8
:1029800002E05B085FEA3202841A71EB030524BFA0
:10299000204629467641F4D302000B003000002186
:1029A00070BD012AB9D970B5140C20D0B1FA81F4E8
:1029B000B2FA82F5C4F120046419B4F12006D6D32A
:1029C000B2405FF00044F440002502E052085FEAA4
:1029D0003303C61A71EB020E24BF304671466441C0
:1029E0006D41F3D302000B002000290070BD0C469E
:1029F000B1FBF2F102FB11452D0445EA1045B5FB90
:102A0000F2F402FB145580B240EA0545B5FBF2F042
:102A100002FB105240EA044070BD00004AB38B072D
:102A200007D0521E11F8013B00F8013B21D08B0763
:102A3000F7D183071ED1103A07D330B4B1E838106C
:102A4000103AA0E83810F9D230BC530724BFB1E8DF
:102A50000810A0E8081044BF51F8043B40F8043BBC
:102A6000D20724BF31F8022B20F8022B44BF0B7889
:102A700003707047083A07D3B1E80810083A40F8E5
:102A8000043B40F804CBF7D25307E4E770B4416845
:102A900001F0004201210D4B44681C40446001D10B
:102AA00004686CB104684568E60F46EA4505456070
:102AB00064000460491EEC02F4D54468234043607E
:102AC00043681A434260084670BC7047FFFF0F001E
:102AD0004FF4001C1CEB410F94BF1CEB430F09E0AB
:102AE00041EA030C50EA4C0C52EA0C0C03D2994216
:102AF00008BF9042704714BF8B428242704700006B
:102B00004FF4001C1CEB410F94BF1CEB430F09E07A
:102B100041EA030C50EA4C0C52EA0C0C03D28B42F3
:102B200008BF8242704714BF99429042704700002C
:102B300070B504460D466068C0F30A5040F2FF725B
:102B4000904209D16068000302D12068002801D0BA
:102B5000022070BD012070BD010006D12046FFF7A4
:102B600095FF012801DB002070BD012D0EDB40F236
:102B7000FF71091A8D4209D36068002847BF002001
:102B80002E4900202E49C4E90001E3E74142A94251
:102B9000616806DA2B4A1140401941EA0050606032
:102BA00049E001F0004162681203120B42F4801206
:102BB0006260401E451905F13500352803D3616078
:102BC0000020206070BD002215F11F0F05DA2035AE
:102BD00022686068206000206060684213D0521E46
:102BE0009241D243C0F1200325689D4055EAD2723C
:102BF0002568C540666806FA03F32B4323606368C3
:102C000023FA00F06060606808436060B2F1004F32
:102C100003D80AD12078C00707D52068401C20605F
:102C2000206810B96068401CB9E76068884202D12A
:102C30002068002897D04FF0FF3070BD0000F0FFF3
:102C40000000F07FFFFF0F80F446400D40EAC120F6
:102C5000490006D200F013F8004248BF6FF0004070
:102C6000604700F00CF84FF0004188428CBF0846E6
:102C700040426047400D40EAC12049000CD240F07C
:102C80000040490DA1F58061491C05D4D1F11F0117
:102C900054BFC840C01770474FF00000704791FB09
:102CA000F2F303FB1211C0E90031704770470000D6
:102CB00010B5084979441C31074C7C441A34A142B0
:102CC00006D0081D0A68511888470146A142F8D16C
:102CD00010BD00BF08000000280000008FE8FFFFC3
:102CE000280300002400002000000000AFE6FFFFE2
:102CF000240000000C020000000000200000000082
:102D00000A200D2054656D706572617475726520BE
:102D100073656E736F72203A2000000000F009F8AE
:102D2000002801D0FFF7C4FF0020FDF728FF00F0C6
:102D300002F80120704780B500F002F800BF0000E3
:102D40000746384600F002F8FBE7000080B5C046B1
:102D5000C046024A11001820ABBEFBE72600020065
:102D60000148804701480047611100087D2D000897
:102D70000A200D20252E316600000000C046C04606
:102D8000C046C046FFF7CAFF020000000000040072
:102D90000800000008000000FEF73AB9FEF739B954
:102DA000FEF738B9FEF737B9FEF736B9FEF735B991
:102DB000FEF734B9FEF733B9FEF732B9FFF7FEBFBD
:102DC000FFF7FEBFFFF7FEBFFFF7FEBFFFF7FEBF37
:102DD000FFF7FEBFFFF7FEBFFFF7FEBFFFF7FEBF27
:102DE000FFF7FEBFFFF7FEBFFFF7FEBFFFF7FEBF17
:102DF000FFF7FEBFFFF7FEBFFFF7FEBFFFF7FEBF07
:102E0000FFF7FEBFFFF7FEBFFFF7FEBFFFF7FEBFF6
:102E1000FFF7FEBFFFF7FEBFFFF7FEBFFFF7FEBFE6
:102E2000FFF7FEBFFFF7FEBFFFF7FEBFFFF7FEBFD6
:102E3000FFF7FEBFFFF7FEBFFFF7FEBFFFF7FEBFC6
:102E4000FFF7FEBFFFF7FEBFFFF7FEBFFFF7FEBFB6
:102E5000FFF7FEBFFFF7FEBFFEF7E6B8FFF7FEBFC6
:102E6000FFF7FEBFFFF7FEBFFFF7FEBFFFF7FEBF96
:102E7000FFF7FEBFFFF7FEBFFFF7FEBFFFF7FEBF86
:102E8000FFF7FEBFFFF7FEBFFFF7FEBFFFF7FEBF76
:102E9000FFF7FEBFFFF7FEBFFFF7FEBFFFF7FEBF66
:102EA000FFF7FEBFFFF7FEBFFFF7FEBFFFF7FEBF56
:102EB000FFF7FEBFFFF7FEBFFFF7FEBFFFF7FEBF46
:102EC000FFF7FEBFFFF7FEBFFFF7FEBFFFF7FEBF36
:102ED000FFF7FEBFFFF7FEBFFFF7FEBFFFF7FEBF26
:102EE000FFF7FEBFFFF7FEBFFFF7FEBFFFF7FEBF16
:102EF000FFF7FEBFFFF7FEBFFFF7FEBFFFF7FEBF06
:102F0000000000000102030401020304060708098F
:102F10000004024000480040000C0240000C024047
:042F200001000000AC
:0400000508002D7D45
:00000001FF
