:020000040800F2
:1000000018AF0020A9D90008B9D90008BBD9000849
:10001000BDD90008BFD90008C1D900080000000000
:100020000000000000000000000000005F970008D2
:10003000C3D900080000000019970008898A000849
:1000400019DA00081DDA000821DA000825DA0008AC
:1000500029DA00082DDA000831DA000835DA00085C
:1000600039DA00083DDA000841DA000845DA00080C
:1000700049DA00084DDA000851DA000855DA0008BC
:1000800059DA00085DDA000861DA000865DA00086C
:1000900069DA00086DDA000871DA000875DA00081C
:1000A00079DA00087DDA000881DA000885DA0008CC
:1000B00089DA00088DDA000891DA000895DA00087C
:1000C00099DA00089DDA0008A1DA0008A5DA00082C
:1000D000A9DA0008ADDA0008B1DA0008B5DA0008DC
:1000E000B9DA0008BDDA0008C1DA0008C5DA00088C
:1000F000C9DA0008CDDA0008D1DA0008D5DA00083C
:10010000D9DA0008DDDA0008E1DA0008E5DA0008EB
:10011000E9DA0008EDDA0008F1DA0008F5DA00089B
:10012000F9DA0008FDDA000801DB000805DB000849
:1001300009DB00080DDB000811DB000815DB0008F7
:1001400019DB00081DDB000821DB000825DB0008A7
:1001500029DB00082DDB000831DB000835DB000857
:1001600039DB00083DDB000841DB000845DB000807
:1001700049DB00084DDB000851DB000855DB0008B7
:1001800059DB00082DE9FE4F05000C00DFF8186B65
:10019000686830603068008801F050FBDFF80C7B45
:1001A000696880B2C0F3032001EB800038603068DA
:1001B000008801F043FB80B2C0F30320810009B244
:1001C000494209B2280001F093FC002802D1288995
:1001D000142803D2280001F0DFFCD3E121003068AD
:1001E000103001F0EEFD00280DD15FF0704001F0FD
:1001F00038FB04005FF0604001F033FB31680969AF
:100200000C40844203D1280001F0C6FCBAE12889E1
:1002100000900623306810F11002306810F10C01D4
:10022000280001F01AFE002803D0280001F0B4FCD9
:10023000A8E13868808901F001FB80B2000BC0B2F0
:100240007FF003014843010009B2280001F050FC8F
:10025000002803D0280001F09FFC93E13868008853
:1002600001F0ECFA396808803868408801F0E6FA55
:10027000396848803868406801F0F3FA39684860A6
:10028000DFF82C1A08603868806801F0EAFA3968EB
:100290008860DFF8208AC8F800003868C08901F05B
:1002A000CDFA3968C881DFF8109A3868808901F082
:1002B000C5FA10F03F0089F8000099F8000010F02E
:1002C000030F01D0012000E00020DFF8F0A9298908
:1002D0004018AAF800000020DFF8E4B9DBF800407D
:1002E00001E02000E468002C1CD0218C3A681288C0
:1002F0009142F6D1218B3A6852889142F1D16168DE
:100300003268D2689142ECD1216832681269914218
:10031000E7D1002806D0E168C160DBF80000E060AA
:10032000CBF80040002C4AD1DFF89809046800E0BF
:10033000E468002C1AD0208C396809888842F7D1EB
:10034000208B396849888842F2D160683168C96871
:100350008842EDD12068316809698842E8D12000DF
:1003600000F0B3F9280001F017FC0BE10022DFF8E0
:100370005839186801E00200C06800281FD0002822
:1003800009D00168002906D00168D6F800C0DCF861
:1003900010C06145EFD1018BD7F800C0BCF802C096
:1003A0006145E8D1002A04D0C168D1601968C160F4
:1003B000186000F0E9F8280001F0EEFBE2E0002C04
:1003C00000F0C180DFF80469002030602889B08126
:1003D0006868B060756038683061DFF8F4780020D4
:1003E0003860DFF8F088002088F80000D4F880003A
:1003F000002819D0D4F88800002808D00023D4F8A9
:10040000802021006069D4F888C0E04706E000231E
:10041000D4F880202100002002F003FA40B2002826
:1004200023D10020C4F88000DFF8AC582C602000F5
:1004300000F097F940B210F1050F79D098F800005C
:10044000000716D5D4F89400002805D07FF00501E8
:100450006069D4F8942090472100584602F0EFFAE2
:100460002100022002F0AEFB62E0280001F094FBC4
:1004700088E098F80000C00608D52100584602F030
:10048000DEFA2100022002F09DFB51E00020B4F8CA
:100490006C0000280CD0D4F88400002807D0B4F8F1
:1004A0006C2021006069D4F88430984700E0002077
:1004B0003868002821D099F80000000705D5386871
:1004C000407B50F0010039684873D4F88800002858
:1004D00007D000233A6821006069D4F888C0E0475B
:1004E00005E000233A682100002002F09AF940B2AA
:1004F000002802D03868C4F8800098F80000800610
:1005000011D5D4F88800002807D00023002221004C
:100510006069D4F88870B84705E000230022210004
:10052000002002F07EF900202860200002F031FE59
:10053000002028607068002824D0706801F02CFB2F
:10054000002070601EE03868808901F077F940076C
:1005500015D4386800880190386840880090306869
:1005600010F10C03306810F11002DFF84407016845
:10057000BAF800004118D8F8000002F077FF280010
:1005800001F00AFBBDE8F78F3EB50500DFF828074C
:100590000178C9061ED5DFF81007DFF810170A68C2
:1005A00012880192096849880091016811F10C03D1
:1005B000006810F11002DFF8F8060168DFF8FC06A9
:1005C00000884118DFF8EC060068401C02F04EFF7E
:1005D00000203EBD00788007FAD595F8210095F8F7
:1005E0002010884202D37FF00400F2E7687C02F01A
:1005F0006BF90400002C02D15FF0FF30E9E795F8B9
:100600002100401C85F82100DFF89C160868103096
:10061000002801D1002001E0086800692060288BD3
:10062000208308680C30002801D1002001E0086810
:10063000C0686060DFF874060168098821840321BE
:100640002174DFF86C160A68521C6262626AE26208
:100650000068C089A4F85C00B4F85C00A4F85400F9
:100660000868401E206668696061E869E061298960
:1006700040F2991001402181DFF844060168E160F1
:10068000046003F076F8200000F09AFF211D208F0F
:1006900002F01AFA20870120019000200090122316
:1006A00000220021200002F011FB0500280040B2CA
:1006B000002806D00021200001F00AFD280040B2E9
:1006C00087E7200002F065FD83E71CB5DFF8E81539
:1006D0000A78520701D5002042E00A78920729D50E
:1006E000DFF8CC452268416A521A002A29D42268D0
:1006F000416A521A018D521A012A22DADFF8A8053E
:10070000DFF8A8150A6812880192096849880091E3
:10071000016811F10C03006810F110022168DFF884
:100720009C0500884118DFF88C05006802F09EFEE9
:10073000002015E00978C90703D5DFF8A01509687E
:100740000163DFF878150988002908D090F8221095
:1007500051F0020180F8221002F01BFD00E00020A1
:1007600016BD3EB5040000200021DFF84C55297865
:1007700049072DD5217C022907D1DFF838150968F2
:10078000A26D914210D101200EE0DFF824251368FC
:10079000616A5B1A002B07D41268616A521A218DB4
:1007A000521A012A00DA0120C0B200280ED0DFF868
:1007B0002405017851F00801017094F8220010F02E
:1007C000FE0084F822007FF005001BE2002019E201
:1007D0002878800710D5207C02280DD0207C0328A3
:1007E0000AD094F8220050F0020084F82200200081
:1007F00002F0CFFC002005E2DFF8E004006820638F
:10080000002084F8A900200000F0DAFE207C0228F5
:1008100014D0C0F0F681042800F00D81C0F099805A
:10082000062800F07281C0F01981082800F0A58127
:10083000C0F00181092800F0D381E2E1287810F0AE
:100840001200122865D1A06F0069406801F009F814
:10085000DFF860140A68401C82425AD1B4F86E0076
:10086000401CA4F86E00DFF848040268521C626263
:10087000626AE2620968E164DFF830140968C989D4
:10088000A4F85C100068401E206604202074211D1E
:10089000208F02F019F92087218F0A204143A4F804
:1008A0005410B4F85200012803D1208F80B24000C8
:1008B00000E0208FA4F85200B4F87000401EA4F8A5
:1008C0007000A16F0868A067A06F002803D15FF0D7
:1008D000FF30E08604E00020E086002084F84A0033
:1008E000080001F076FFD4F88C00002806D0002222
:1008F00021006069D4F88C30984700E0002094F81B
:10090000220050F0020084F82200200002F041FC96
:100910001EE02878C0061BD5DFF88C03DFF88C13A7
:100920000A6812880192096849880091016811F1EA
:100930000C03006810F11002DFF874030168DFF89F
:100940007C0300884118DFF86C03006802F08EFD1C
:1009500057E12878C00661D5DFF858532968E06C64
:10096000091A491E002942D42968A06D091A0129D3
:100970003DDA04202074E069002805D0002221001F
:100980006069E369984700E0002040B2002806D083
:100990000121200001F09CFB7FF0040032E1B4F85B
:1009A0005250200000F09CF9B4F86C00002804D0EC
:1009B000B4F86C00401EA4F86C00ADB2012D03D158
:1009C000208F80B2400000E0208FA4F85200C14880
:1009D000007880062ED594F8220050F0020084F8AA
:1009E0002200200002F0D5FB0720207422E0AE4850
:1009F000AE490A6812880192096849880091016825
:100A000011F10C03006810F11002A9480168AB480D
:100A100000884118286802F029FD0BE0287880073B
:100A200008D5A3480068616A491E884202D12000A7
:100A300002F09DFDE5E0200000F052F9A5480078A5
:100A400080060AD594F8220050F0020084F82200B3
:100A5000200002F09EFB07202074D2E0200000F06E
:100A60003FF99C480078800644D52878C00635D5E3
:100A700090480068A16D884230D194F8220050F06F
:100A8000020084F82200200002F083FB200001F025
:100A900092FF8B480168A14203D10168C9680160D7
:100AA00011E0DFF8DC1B0068086002E00868C0683D
:100AB00008600868002806D00868C068A042F5D120
:100AC000E0680968C8600020E0600A2020747D4862
:100AD0000168E160046002F04CFE15E094F8220029
:100AE00050F0020084F82200200002F052FB08209F
:100AF000207409E02878C00606D56E480068A16D0C
:100B0000884201D1062020747BE0200000F0E8F844
:100B10007048007880062FD594F8220050F002002B
:100B200084F82200200002F034FB200001F043FF93
:100B300063480168A14203D10168C968016011E0FE
:100B4000DFF83C1B0068086002E00868C0680860C5
:100B50000868002806D00868C068A042F5D1E0689F
:100B60000968C8600020E0600A20207455480168C8
:100B7000E160046002F0FDFD43E0200000F0B0F809
:100B80002878C0062BD54B480068A16D884226D135
:100B9000200001F010FF4A480168A14203D101681A
:100BA000C968016011E0DFF8D81A0068086002E047
:100BB0000868C06808600868002806D00868C0682F
:100BC000A042F5D1E0680968C8600020E0600A2012
:100BD00020743C480168E160046002F0CAFD10E046
:100BE000200000F07DF82878C00609D5314800685B
:100BF000A16D884204D13748017851F0100101708D
:100C0000FFE700203EBD70B505000C002869808913
:100C100000F014FEC00724D5200001F0CDFD002413
:100C200040E02069808900F009FEC00715D54FF625
:100C3000C07000F0FBFD06002869808900F0FEFD11
:100C400010F03F0050F0010080B200F0EFFD296984
:100C500089890E400643286986812000246801F0B6
:100C6000B8FD002C0AD012480168A88941182069F3
:100C70004068091AA089091A0029D2D5002C11D080
:100C80000B490A68A889821820694068121A012A4B
:100C900008DB206942680868121AAA81A989686875
:100CA00000F0F1FE2C6070BDC8AA0020C4AA00208C
:100CB000CCAA0020D0AA002012AB00200AAB002052
:100CC000B8AA0020BCAA0020B4AA0020E8A90020ED
:100CD000D4AA002013AB0020D8AA0020ACAA002080
:100CE0002DE9F84306000025DFF898090078C006D2
:100CF00040F1B581B6F85C10706E4118DFF88829B4
:100D0000336E10681B1A002B18D4306E136898428B
:100D100006D1736EDFF8740900681B1A002B0DD41E
:100D2000706EDFF868391B6898421ED1B6F85C0017
:100D3000DFF85C391B68DB89984216D2DFF850096E
:100D40000068C089A6F85C0010683066DFF83C09CE
:100D500000687066B6F85C00002806D096F8A80017
:100D6000002802D0002086F8A800DFF82049226879
:100D7000F06C121A012A44DA0020A6F86C00DFF8A1
:100D80003C080088002835D1726EB6F85C008218E5
:100D90008A422FD1B6F9360000282BD4F06C216896
:100DA000884227D1012596F8500096F85010491C2A
:100DB000884204DA96F85000401C86F8500096F8F5
:100DC000500004280FDBB6F85210B6F85220308FCE
:100DD000821892B291420DD2B6F85210308F41185B
:100DE000A6F8521006E096F85000032802D1300011
:100DF00002F0E4FB002D40F0DF80002086F8500078
:100E0000DAE02168F06C091A491E002900F1AB8074
:100E10002168B06D091A012980F2A58096F8220098
:100E2000400709D596F8220010F0FB0086F8220052
:100E3000B6F85400A6F85200002086F84A00B6F929
:100E40004400B6F9461011EBE001A6F848102168FD
:100E5000F06C091AA6F86C10B6F86E10B6F86C00B3
:100E60004118A6F86E10002086F850002068F06443
:100E7000307C04284DDBB6F85200B6F85410884296
:100E80000FD2B6F85210B6F85220308F821892B2B4
:100E900091423ED2B6F85210308F4118A6F8521047
:100EA00037E0B6F85210328F308F4243B6F8520016
:100EB00092FBF0F04118B6F852000A0092B290424C
:100EC00027D2A6F8521024E0B56FB06F0068B06763
:100ED000686800F097FEB6F86C0000280AD0286910
:100EE000808900F0ABFCC00704D5B6F86C00401E4A
:100EF000A6F86C00686800F085FEB6F87010C0B205
:100F0000081AA6F87000280001F063FCB6F870001B
:100F10000028B06F002819D0B06F0069406800F059
:100F2000A0FC0500B06F0069808900F087FC10F01C
:100F3000030F01D0012000E00020B16F8989C0B209
:100F40004018451920682D1A012DBDDBB06F00280F
:100F500003D15FF0FF30F08601E00020F086002032
:100F600086F8340028E00020A6F86C0024E0756FB5
:100F7000706F00687067686800F044FEB6F86C0037
:100F800000280AD02869808900F058FCC00704D5E1
:100F9000B6F86C00401EA6F86C00686800F032FEDF
:100FA000B6F87010C0B2081AA6F87000280001F058
:100FB00010FCB6F870000028706F00281ED0706F0B
:100FC0000069406800F04DFC0500706F0069808981
:100FD00000F034FC10F0030F01D0012000E00020ED
:100FE00021684D1B716F8989C0B240182D1A002DE0
:100FF00004D42168B06D091A0129B8DBF06B002810
:101000002DD0316C2068091A002928D5DFF8840614
:101010000168F06B081A00B2B6F94410B0EBE100B9
:10102000B6F844104118A6F84410010009B200298E
:1010300001D500B2404200B2B6F94610B0EBA100B3
:10104000B6F846104018A6F84600B6F94400B6F9BE
:10105000461011EBE001A6F848100020F063DFF81D
:101060005C552888002800F08F82DFF81C76716AB2
:101070003868091A491E002941D4716A3868091A6A
:101080002888091A491C012939DA706A3968411A15
:10109000DFF80446D4F8048060684089884219DA91
:1010A00060680289521A09E0B8F80A00091AA8F81B
:1010B00008200020A8F80A00D8F80080B8F80A0034
:1010C0008842F1DB494209B2404600F011FD002898
:1010D00006D005E0494209B2606800F009FD002829
:1010E000D8F80400A060A189726A3868121A891AB7
:1010F000A181706A38603868216948600DE03968FC
:10110000706A091A002908D596F8220050F00200EA
:1011100086F82200300002F03CF83968706A091A3B
:10112000002900F12D823968706A091A308D091A78
:10113000491C012980F22482706A3968884240F093
:101140008F81DFF85485D8F81000808900F076FB95
:1011500010F0030F01D0012000E00020B8F80C10BF
:10116000C0B240182880308D2988884241D2D8F8F2
:101170001000808900F062FBC00715D54FF6C070E3
:1011800000F054FB0400D8F81000808900F056FBF2
:1011900010F03E0000F04AFBD8F8101089890C408E
:1011A0000443D8F810008481308DA8F80C00D8F8DA
:1011B0001000808900F042FB800704D5B8F80C00CD
:1011C000401EA8F80C00B8F80C10D8F8040000F085
:1011D0005AFCD8F81000808900F030FB10F0030FA3
:1011E00001D0012000E00020B8F80C10C0B2401877
:1011F0002880F06F002800F09180D8F810008089D6
:1012000000F01CFBC0070AD5F06F002800F08680B4
:10121000F06FF16F0968F16701F0DBFAF4E7F46F42
:101220003CE0002031E02069808900F007FBC00726
:1012300030D5D8F81000808900F000FB800729D451
:101240004FF6C07000F0F2FA8146D8F8100080899D
:1012500000F0F4FA10F03F0050F0010080B200F00E
:10126000E5FAD8F81010898919EA010950EA090944
:10127000D8F81000A0F80C90D8F81000808900F081
:10128000DDFA10F0030FCCD00120B8F80C10C0B27A
:10129000401828802000246801F09BFA002C09D017
:1012A00039682888411820694068091AA089091AF4
:1012B0000029B8D5002C30D0396828884118206919
:1012C0004068091A012928DBF06F00694168386815
:1012D000091AA8F80C10D8F81000808900F0AEFAAE
:1012E000800704D5B8F80C00401EA8F80C00B8F828
:1012F0000C10D8F8040000F0C6FBD8F81000808964
:1013000000F09CFA10F0030F01D0012000E0002053
:10131000B8F80C10C0B240182880F46739682888E3
:1013200041187162318D2888091A3185300000F02A
:10133000B8FFD8F804000089002807D0D8F80400C6
:10134000DFF8581308600020C8F80400D8F810002F
:10135000808900F073FAC00736D5DFF844030178BE
:1013600051F0200101702FE06068106015E000214D
:10137000328DA089121AC9B2511A3185300000F09D
:1013800090FF60680089002809D0C44A10680028CE
:10139000EAD06168106800F04AFC002060602069B3
:1013A000808900F04BFAC00709D5BD48017851F09B
:1013B00020010170307C042801D10720307420689E
:1013C000F067200001F005FAF06F00282DD0F06FD3
:1013D00000694068716A884227D1F46FF06F006934
:1013E000406838602069808900F028FA10F0030F07
:1013F00001D0012000E00020716AA289C0B28018EB
:10140000401870622069808900F018FA10F0030F0C
:1014100001D0012000E000202069808900F00EFA50
:1014200010F0030FA3D00121A2E796F82200C00715
:101430000FD596F8220010F0FE0086F8220096F8EC
:10144000220050F0020086F82200300001F0A1FED8
:1014500005E096F8220050F0010086F82200AAE08C
:10146000300001F05CFEF06F002804D18A4801F0E2
:10147000C3F9F0679FE00024F56F0AE028680028B0
:1014800005D1396828694068091A012959DA2C0000
:101490002D68002D00F08F803868296949688842DE
:1014A00011D0002C22D1396828694068091A002916
:1014B000E4D5794801F0A0F9002803D0F0672900AD
:1014C000FFF7A1FB77E07448A989828991420CD289
:1014D00001F092F9002807D0002C01D0206000E034
:1014E000F0672900FFF78FFB65E064E03968206949
:1014F0004068091A491E0029C0D439682869406823
:10150000091A491C0129B9DA634801F075F9060086
:10151000002E15D020694168A08941183868091A41
:10152000012908DB396820694068091AA181A1896D
:10153000606800F0A8FA266029003000FFF763FB1E
:1015400039E02869808900F079F9C00733D452481E
:1015500001F052F928602868002810D028694168F5
:10156000A88941183868091A012908DB39682869EF
:101570004068091AA981A989686800F084FA1AE00C
:10158000300001F0CCFD16E03F490A68706A121A7B
:10159000002A07D40968706A091A308D091A491C93
:1015A000012908DB96F8220050F0020086F822009C
:1015B000300001F0EEFDBDE8F18300000AAB002031
:1015C00070B50400324E306810F11405306880891F
:1015D00000F034F980B2000B80B206284FDB30688F
:1015E000808900F02BF980B2000B411F8900002296
:1015F00000E0521C10000B0080B29BB298423ED219
:10160000100080B2285CC0B200280ED002280DD095
:10161000EFD3100080B22844407800282ED010006C
:1016200080B2284440788218E4E728E0100080B2B5
:1016300028444078042806D1080080B213009BB2E9
:101640001B1D984200DA1AE0100080B2284483780B
:10165000100080B22844C07850EA032003009BB2F7
:1016600040F28146B34203DA03009BB2002B02D161
:101670004FF49060FFE72087121DBBE7FFE770BDC6
:10168000C0AA002012AB0020CCAA0020D0AA0020C3
:10169000C4AA0020ACAA0020E8A90020D4AA0020F7
:1016A00013AB002080B5694600F007F8002801D090
:1016B000009801E05FF0FF3002BD7FB50C006A4684
:1016C000037803E01160121D401C03781900C9B2B1
:1016D00030390A2913D200210A251E00F6B2302E15
:1016E00019D1401C03781D00EDB2782D03D01D00E8
:1016F000EDB2582D05D11025401C03780BE00020D9
:1017000092E0082507E02E00F6B2DBB2303B06FB84
:101710000131401C03781E00F6B2303E0A2EF2D38F
:101720002E00F6B2102E1ED11E00F6B2303E0A2E4A
:1017300009D31E00F6B2613E062E04D31E00F6B297
:10174000413E062E0FD21E00F6B2613E1A2E01D285
:10175000612600E04126DBB20A339B1B53EA0111EC
:10176000401C0378D7E71D00EDB22E2D04D103AB4A
:101770009A42A7D3002057E01800C0B2002818D022
:101780001800C0B2202814D01800C0B20C2810D005
:101790001800C0B20A280CD01800C0B20D2808D01A
:1017A0001800C0B2092804D0DBB20B2B01D00020F6
:1017B0003AE06846121A9210521C002A06D0022AF9
:1017C00007D005D3042A19D00CD326E000202BE043
:1017D00023E0B1F1807F01D3002025E0009851EA99
:1017E00000611AE0B1F5803F01D300201CE00098B1
:1017F000019A120452EA006211430EE0B1F5807FB3
:1018000001D3002010E06846009A43681B0453EAA5
:101810000263806853EA00231943002C03D00800B8
:1018200000F011F82060012004B070BD0100080034
:1018300080B2000A50EA012080B2704780B580B2C1
:10184000FFF7F4FF02BD0100080210F47F0050EA28
:1018500001600A00120A12F47F42104350EA11603C
:10186000704780B5FFF7EFFF02BD30B4002513E0ED
:1018700050F8042BD30744BFA9F101039A18091F9C
:10188000042942F8045BFAD213468C0744BF158042
:101890009B1CC90748BF1D7050F8041B0029E7D1E5
:1018A00030BC7047704710B502F0E0F90021174ACC
:1018B000117002F0E0F91648046800E0E468002CBA
:1018C00008D0E06F0028F9D0E06F00F075FF00202D
:1018D000E067FFE710BD38B502F0C8F90B4C25787A
:1018E0000121217002F0C7F9EDB2002D0CD10022C8
:1018F0000021084802F046F8002805D002F0B6F9A9
:101900000021217002F0B7F931BD000010AB0020BA
:10191000B8AA0020A7180008F8B50D001600002787
:10192000C0B2002805D0022805D003D3032819D05F
:1019300019E0143714370E373000C0B200286CD0CD
:10194000022800F08D80C0F08B80032840F0998041
:101950000E2001F01CF90400002C06D1FFF7BBFF9C
:10196000002059E0E8E7002056E0267300202060C0
:10197000380080B220441030C01C30F0030060609A
:10198000606804202581280080B2390089B2C91C12
:1019900031F00301D1F5FA71884201DA2F0005E038
:1019A000FF1C4FF6FC700740D7F5FA7767810120DE
:1019B000E0812700ADB260892D1A1AE04FF4FA7168
:1019C0000CE006730021417300210160386005813D
:1019D000290089B2B1F5FA7FF0DA2900418110F1CE
:1019E00010014160416804210121C18141896D1AC2
:1019F0000700012D0BDB0E2001F0C9F80028E0D113
:101A0000FFF769FF200000F0C7F8002004E0012084
:101A1000E081002060732000F2BD380080B21330F6
:101A200080088000290089B2C91C31F00301081820
:101A300002F06AF90400002C01D10020ECE7BFB2EB
:101A400004EB07001030C01C30F0030060602581FB
:101A50002089608100202060267360680420D6E71A
:101A60000D2001F094F80400002C01D10020D3E7F0
:101A7000002060602581208960810020206026731D
:101A8000C5E70020C8E738B504000D00280021890B
:101A900080B288422BD2280080B22189411A05E009
:101AA00060892D1A208908182081246860892A00FD
:101AB00092B29042F4D3207B00280DD12800618996
:101AC00080B2884208D06168091B280080B24118A2
:101AD0002000FFF7E7FE040065816089208120680F
:101AE000002802D0206800F057F80020206031BDA7
:101AF00030B40A0012B2002A01D0002801D100201F
:101B000044E00A0012B2002A0AD50D002DB26D423F
:101B100042892B009BB29A4201D2012036E001E0BB
:101B20000D00ADB2037B44681A0092B2002A03D0C4
:101B30001A0092B2032A0DD142680B001BB25B421D
:101B40001A444260426810F110039A4217D244606E
:101B500001201BE01A0092B2022A02D09BB2012B94
:101B600018D10A0012B2002A12D54289ADB2AA4297
:101B70000ED342680B001BB25B421A44426042899A
:101B80008A184281028989180181002030BC70477F
:101B90000120FBE70120F9E770B50400002C01D11A
:101BA00000202EE0002504E0200003F0B7FA6D1CB1
:101BB0003400002C23D002F059F8E189491EE1815C
:101BC000E68902F058F8B6B2002E16D12668207BBE
:101BD000010089B2032904D121000E2000F0F2FF98
:101BE000E5E7010089B2012902D080B20228DBD1E9
:101BF00021000D2000F0E6FFD9E70024D9E72800F6
:101C0000C0B270BD0100002001E0401C096800293D
:101C1000FBD1C0B2704710B50400002C06D002F012
:101C200025F8E189491CE18102F025F810BD002862
:101C300001D0002900D10DE004E003890A89D318FE
:101C4000038100680268002AF7D103890A89D31842
:101C500003810160704710B50C002100FFF7E7FF1A
:101C60002000FFF7D8FF10BD2DE9F84305000C0058
:101C700000270026002D05D0002C03D028892189BB
:101C8000884202D27FF0090047E06989380080B2BB
:101C9000091A6289300080B2121A914204DBB4F84A
:101CA0000A80B8EB060803E0B5F80A80B8EB07082D
:101CB000424692B26068310089B2014468683B00D4
:101CC0009BB200EB0309484603F02AFA18EB07071A
:101CD00018EB06063800698980B2884201D10027D6
:101CE0002D683000618980B2884201D300262468C3
:101CF000002C06D060892189884202D12068002802
:101D00000DD1002D06D068892989884202D1286822
:101D1000002807D1002CB8D10020BDE8F2837FF065
:101D20000800FAE77FF00800F7E72DE9F047040024
:101D30000D0090460027002C01D100203FE0002D2F
:101D400001D100203BE00026002C01D0002D01D164
:101D5000002034E02BE0B4F80A90B9EB03094046C8
:101D6000494680B289B2884200D2C1464A4692B200
:101D700060689BB200EB0301300080B205EB000A03
:101D8000504603F0CDF919EB070719EB0606B8EB3F
:101D9000090800230AE0180080B20028DBD01800F0
:101DA000618980B28842D6D360891B1A2468404674
:101DB00080B2002801D0002CEDD1380080B2BDE8FF
:101DC000F08710B40368DA43002A01D0002B01D158
:101DD00001201BE091F83120920701D4002015E08A
:101DE0004A68934201D1002010E0026888680240EE
:101DF0004C6888680440A24207D188688343886899
:101E0000C043834201D1012000E0002010BC704794
:101E100010B5002208E003781B02441C207803431D
:101E2000601C9BB29A18891E0B009BB2022BF2DA3F
:101E300089B2002903D00078000280B2821890B2E3
:101E400010EB1240010C0904002902D081B211EB01
:101E5000104080B2FFF7EAFC10BD2DE9F047040006
:101E60000E00170098465FF0000900251FE0CA46E3
:101E700061896068FFF7CCFF10EB0A0AD1461FFAB0
:101E800089F919EB1A496089022190FBF1F201FBF3
:101E9000120000280AD0D5F101055FEA092111F4EA
:101EA0007F41C9F30720894650EA09092468002CBC
:101EB000DDD1EDB2002D08D05FEA092111F47F4198
:101EC000C9F30720894650EA0909089C306880B2A6
:101ED00010EB0909306819EB1049386880B210EB33
:101EE0000909386819EB10495FFA88F8404680B252
:101EF000FFF79CFC10EB0909200080B2FFF796FC6D
:101F000010EB09091FFA89F111EB194188B210EBA6
:101F10001140C04380B2BDE8F08780B589B2FFF7B9
:101F200077FFC04380B202BD70B5040000260025D3
:101F30001BE061896068FFF76BFF861930000600BF
:101F4000B6B216EB10466089022190FBF1F201FB5C
:101F50001200002808D0D5F10105310211F47F41AB
:101F6000C6F307200E0006432468002CE1D1EDB231
:101F7000002D06D0310211F47F41C6F307200E0078
:101F80000643F643300080B270BD30B40EE0026804
:101F9000436802440830DC0744BFA9F10104E31898
:101FA00052F8045B43F8045B091FF9D150F8041B95
:101FB0000029ECD130BC704780B500F0C3FBDFF8DE
:101FC000000B0178491C01700078C00701D500F0B2
:101FD00052FA01BD38B50400207C00280AD001283F
:101FE0002CD0022836D0032840D004284AD0072815
:101FF00054D05FE00025DFF8CC0A0168A14203D18C
:102000000168C968016011E0DFF8E81A006808603B
:1020100002E00868C06808600868002806D0086800
:10202000C068A042F5D1E0680968C8600020E0609F
:102030002100022000F0C6FD00243DE00025210023
:10204000DFF8B40A00F0FBFC2100032000F0BAFD29
:10205000002431E000252100DFF8A00A00F0EFFCA9
:102060002100022000F0AEFD002425E00121200027
:1020700000F001FE0500280040B2002801D1052033
:10208000207419E00121200000F0F5FD0500280072
:1020900040B2002801D1052020740DE0012120006C
:1020A00000F0E9FD0500280040B2002801D1092018
:1020B000207401E000250024002C06D0280040B246
:1020C000002802D1200001F064F8280040B232BD9F
:1020D0002DE9F84F84B004000D00207C0A2809D1B6
:1020E0002100DFF81C0A00F0AAFC2100022000F009
:1020F00069FD4AE0A66D676A002C02D100200290BB
:1021000001E020680290201D002802D100200390E9
:1021100001E060680390B4F81880B4F82090D4F817
:1021200094A0D4F814B02100DFF8D00900F087FCA7
:10213000A06F002802D0A06F00F03EFB606F002867
:1021400002D0606F00F038FBE06F002802D0E06F33
:1021500000F032FB2100022000F034FD5046002840
:1021600003D07FF004015846D047002D0DD01FFA50
:1021700089F9CDF804901FFA88F8CDF8008003ABF8
:1021800002AA3900300001F071F905B0BDE8F08F06
:1021900070B505000C00287C002802D07FF00C00F0
:1021A0007EE0100080B2002802D100F0BCF80200EE
:1021B000DFF84409006800E0C068002815D0018BF2
:1021C00013009BB29942F7D100280BD00168002977
:1021D00008D0002C06D02168002903D001682368AC
:1021E0009942E9D17FF00A005AE0DFF8100900684F
:1021F00000E0C068002815D0018B13009BB2994203
:10220000F7D100280BD00168002908D0002C06D097
:102210002168002903D0016823689942E9D17FF041
:102220000A003DE0DFF89C38186800E0C06800282C
:1022300015D0018B1600B6B2B142F7D100280BD0F1
:102240000168002908D0002C06D02168002903D09D
:1022500001682668B142E9D17FF00A0020E0DFF88A
:10226000A008006800E0C06800280BD0018B1600B1
:10227000B6B2B142F7D101682668B142F3D17FF01E
:102280000A000DE0002C04D02068002801D020684E
:1022900028602A831868E8601D6001F06AFA00204F
:1022A00070BD0100486A0A8D10180A8F40F60113AC
:1022B0009A4202DB4FF4106200E00A8FCB6AC31A25
:1022C0009A1A002A04D40A8D4A85C96A401A0CE079
:1022D0004A6AC86A121A012A02DB0020488503E014
:1022E000CA6A486A121A4A850020704710B504006D
:1022F000208D09182185208D41F20121884202DBC1
:102300004FF4905020852000FFF7CBFFB0F5906F81
:1023100008DB94F8220050F0020084F8220020002C
:1023200000F037FF10BDFFE7DFF8D8170888401C22
:1023300008800888B0F5004F02DB4FF48050088019
:10234000DFF8B807006804E0028B0B889A42EBD0F4
:10235000C0680028F8D1DFF8A807006800E0C0686E
:10236000002804D0028B0B889A42F8D1DCE7DFF812
:102370008807006800E0C068002804D0028B0B8842
:102380009A42F8D1D0E7088870477CB505000C0068
:102390001E00287C002802D07FF00C006AE0002C90
:1023A00036D0206868602A84288B002802D1FFF785
:1023B000BAFF288300F07AFB00216962A865411EFC
:1023C000E964401EA8664FF4905028856885696AC4
:1023D000E962A5F85C004FF4067028872100288F79
:1023E00000F072FB28870120A5F85200298F0A20EF
:1023F0004143A5F8541002202874C5F88C60DFF81A
:10240000C4060168A94206D10168C968016014E0E8
:102410007FF008002EE0DFF8DC160068086002E0BC
:102420000868C06808600868002806D00868C068A6
:10243000A842F5D1E8680968C8600020E860DFF8C4
:10244000BC060168E960056001F093F90120019084
:1024500000200090022300220021280000F036FC1A
:102460000400200040B2002802D1280000F091FEB4
:10247000200040B276BD2DE9FE430020DFF88886BB
:10248000D8F80000401CC8F800000024DFF86C9663
:10249000D9F800501FE0E868C9F80000D5F89400AA
:1024A000002805D07FF004016869D5F89420904792
:1024B000F6B2002E09D0288C0190288B00902B1D9D
:1024C0002A00696AA86D00F0D1FFEE682900022099
:1024D00000F078FB3500002D00F00D81002700266C
:1024E000287C022805D195F84A00062801D17F1CD6
:1024F0006BE095F84A000C2801D17F1C65E095F847
:10250000A80000281FD0D5F8A400401CC5F8A400DE
:10251000D5F8A400DFF8F41595F8A820114411F8B7
:10252000011C884251D30020C5F8A40095F8A800EA
:10253000072804D295F8A800401C85F8A8002800B8
:1025400001F0A3F841E0B5F93600002802D4E88E86
:10255000401CE886A86F002837D0B5F93600B5F9D9
:102560004810884231DB287C02280DD0B5F94400A0
:10257000B5F9461011EBE001DFF8940595F84A2013
:1025800080568140A5F848100020E886B5F8520032
:10259000B5F85C10884202D2B5F8520001E0B5F8F7
:1025A0005C0080B24008A5F85400B5F85400298FAB
:1025B000884204D2288F80B24000A5F85400288FAA
:1025C000A5F85200280000F0B8FF287C062806D1A4
:1025D000D8F80010286B091A292900D37F1C287A03
:1025E000000734D5287C042802D0287C07282ED167
:1025F000D5F89810D5F8A020D5F89C0000FB021162
:102600004FF4FA70B1FBF0F1D8F80020286B121AE1
:10261000914202D27F1C761C19E0D5F8981095F8EB
:10262000A920D5F89C0000FB02114FF4FA70B1FB11
:10263000F0F1D8F80020286B121A914207D2280036
:1026400000F0F7FF95F8A900401C85F8A900E86F95
:1026500000280ED0D8F80010286B091AB5F94820C8
:1026600006204243914204D3E86F00F0A5F8002011
:10267000E867287C032806D1D8F80010286B091ACF
:10268000292900D37F1C287C092806D1D8F80010FE
:10269000286B091AF12900D37F1CFFB2002F08D044
:1026A000280000F088F9002C3FF4F5AEE868E060FF
:1026B000F4E695F83400401C85F8340095F83400B1
:1026C00095F83510884213D3002085F83400D5F8EA
:1026D0009000002805D029006869D5F8902090471F
:1026E00000E0002040B2002802D1280000F051FD97
:1026F0002C00ED68EFE60024DFF80464356807E09D
:10270000E8683060EF682900022000F05BFA3D00C5
:10271000002D15D00020D8F80020296B521AF12A7C
:1027200000D3401CC0B2002807D0280000F043F9B5
:10273000002CE5D0E868E060E4E72C00ED68E7E70E
:10274000BDE8F78338B5DFF8B403046831E000234F
:10275000D4F880202100002000F063F80FE0D4F8C6
:102760008000002811D0D4F888000028EFD0002382
:10277000D4F8802021006069D4F88850A84740B27E
:10278000002802D10020C4F8800094F82200C0077D
:102790000ED594F8220050F0020084F822002000A8
:1027A00000F0F7FC94F8220010F0FC0084F82200FE
:1027B000E468002CD3D131BD38B5002404E00568AD
:1027C00000F007F8041928000028F8D12000C0B252
:1027D00032BD38B504000025002C0AD060680028FE
:1027E00003D06068FFF7D8F905002100042000F04D
:1027F000E9F92800C0B232BD70B50500042000F030
:10280000C6F90400002C01D1002009E014222600A2
:102810002900300002F084FC6068FFF7FCF920001A
:1028200070BD10B508001400002C07D02189FFF7F7
:102830005DFD2000FFF7B0F9002010BD5BB2002B5A
:10284000FAD1FFF7C7FBF8E7F8B501007F250024B0
:102850000022AA48006815E00B00467CDBB2B342B8
:102860000FD32B00467CDBB2B3420AD3A64E3768A7
:10287000036BFF1AA74204D33268046B141B0200D7
:10288000457CC0680028E7D1002A03D00121100050
:10289000FFF71EFCF1BD38B50023002098490968F8
:1028A0000AE0994C25680A6BAD1A9D4203D3206853
:1028B0000B6BC31A0800C9680029F2D1002802D0A6
:1028C0000121FFF705FC31BD38B50500022000F0FD
:1028D0005EF90400002C0FD1FFF7DDFF022000F0AD
:1028E00056F90400002C07D12800C0B2FFF7ACFF56
:1028F000022000F04CF90400002C43D0AC2100224F
:102900002500280002F060FC402060744FF4D8508D
:10291000A4F86E000020A4F870004FF490502085B9
:1029200060850020A072FF20E0724FF406702087BF
:102930000620A4F848000020A4F844000620A4F8CB
:1029400046005FF0FF30E0860120A4F8520000F05E
:10295000ADF86066A065E064A0666B48006820631F
:10296000002084F834006B48C4F888006A48C4F832
:1029700098006A48C4F89C000920C4F8A000002010
:1029800084F8A900200032BD80B54020FFF79CFFED
:1029900002BD41617047C0F888107047C0F88410CC
:1029A0007047C0F894107047C1617047C0F890102C
:1029B00080F83520704710B50400207C00283DD0F9
:1029C000207C0A283AD0207C012837D0207C03289C
:1029D00017D14948006800E0C068002811D0018B79
:1029E000228B9142F8D1002806D00168002903D03B
:1029F000216802689142EFD190F82110491E80F8B9
:102A00002110D4F88000002806D0D4F88000FFF709
:102A1000C3F80020C4F880005FF0FF30E086E06F6C
:102A2000FFF7CAFE0020E067606FFFF7C5FEA06FEA
:102A3000FFF7C2FE00206067606FA06710BD10B591
:102A40000C000168A14203D10168C968016010E06F
:102A500028490068086002E00868C06808600868E3
:102A6000002806D00868C068A042F5D1E06809686F
:102A7000C8600020E0602000FFF79DFF207C0A284E
:102A80000FD0207C01280CD094F82200C00708D574
:102A900094F8220050F0020084F82200200000F098
:102AA00078FB207C01280020207410BD1C490A6896
:102AB0001548006882180A60086870470000000026
:102AC00011AB0020B0AA002010B50400080002F0ED
:102AD000AFFB00280BD0018D002908D0008D2838CD
:102AE0002100020089B292B2914200D3040020007A
:102AF00080B210BDC0AA0020B4AA0020B8AA00204D
:102B0000BCAA002020000020ACAA0020F8D90008B0
:102B100088D900082328000800DD6D00F824010092
:102B20001C00002070B4002000E0401C010089B2AD
:102B30000F29FADB2E4830F00300002119E00C00C9
:102B4000A4B252F8244004600C00A4B242F824005D
:102B5000284C0D00ADB234F8154020445B1C1C001D
:102B6000254D0E00B6B235F81650A4B2AC42E6D3ED
:102B7000491C0A0092B20F2A07DA204A00230C00EF
:102B8000A4B242F824300023E9E770BC704738B59E
:102B900005002800C0B20F2801DB002011E001F081
:102BA00065F816492A00D2B251F82240002C05D00F
:102BB0002268EDB241F825202100042101F05BF8E4
:102BC000200032BD38B505000C00002C0ED02000CE
:102BD000042001F04BF809492A00D2B251F8222012
:102BE0002260EDB241F8254001F045F831BD00000A
:102BF000274400200CD800082CD80008C4A80020C6
:102C0000F8B5040015001F004E68208BFEF70EFE7D
:102C10003080208CFEF70AFE70807760606AFEF7D5
:102C200012FEB0604FF6C070FEF700FE07001020E5
:102C3000FEF7FCFDB1890F400743B781608DFEF7B9
:102C4000F5FDF08100207082B089FEF7F7FD0421C8
:102C500095FBF1F1491D10F03F0050EA013080B2C0
:102C6000FEF7E4FDB08100203082616A608D41187A
:102C7000E1623000F2BDE0B50B00002101910121BD
:102C80000091DBB20022002100F020F80EBD1CB53F
:102C9000047C042C08D0047C072C05D0047C022C76
:102CA00002D0047C032C0ED11400A4B2002C08D056
:102CB00000240194DBB20093002392B200F006F8E6
:102CC00003E0002001E07FF0070016BD2DE9F84F7A
:102CD00086B09046424692B2002A0BD19DF844201D
:102CE000002A07D19DF8182012F0030F02D17FF0BF
:102CF000090027E10391414689B2002905D10399D2
:102D0000002902D07FF009001CE10700B7F86E002F
:102D1000414689B2884208D297F8220050F08000DC
:102D200087F822005FF0FF300CE1C1460398009065
:102D30009DF84400C00702D55FF0040A01E05FF08F
:102D4000000A9DF84400800701D50C2000E0002017
:102D500010EB0A0AB86E0290B7F870B0584680B20D
:102D6000182805DA584680B24FF6FD71884208DB14
:102D700097F8220050F0800087F822005FF0FF30C3
:102D8000E0E0584680B20028FFD100200500040092
:102D9000049000267AE06868FEF734FF10EB0B0B16
:102DA000484680B2002813D00122310089B20320A6
:102DB000FEF7B2FD0100002800F0D7801BF1010BE7
:102DC000009848600098A8606868FEF730FF00200F
:102DD000584680B2192880F2CE80584680B24FF60D
:102DE000FD71884280F2C780AE8114216868FEF7C9
:102DF0007FFE002840F0C080686840682861388BFA
:102E0000FEF714FD29690880388CFEF70FFD29694B
:102E100048800298FEF717FD29694860002029695B
:102E200048824FF6C070FEF701FDADF804009DF832
:102E3000180080B2FEF7FAFC29698A89BDF80410EF
:102E40000A401043296988819DF84400A8732869C5
:102E50008089FEF7F3FC5146C9B2042291FBF2F1DE
:102E6000491D10F03F0050EA013080B2FEF7DEFC51
:102E700029698881B9EB06090299300080B24118AE
:102E800002910098310089B208440090002C03D0D0
:102E9000484680B2002870D0398F5046C0B2091A17
:102EA000484680B2814204DA388F5646F6B2861B15
:102EB00000E04E460420FFF76AFE0500002D31D0E9
:102EC0000020286000206860002C3ED12C00049572
:102ED0009DF84000C0073CD500225146C9B289196F
:102EE00089B20020FEF718FD6860002830D06868BD
:102EF000FEF788FE10EB0B0B039800280ED0320073
:102F000092B200980590686840685146C9B208447A
:102F100001900599019802F003F9019868684068EA
:102F2000A86055E797F8220050F0800087F822004B
:102F3000002C02D02000FFF73FFCB7F870000028FB
:102F40005FF0FF3007B0BDE8F08F04980560BEE782
:102F5000E8E700225146C9B289B20020FEF7DCFC46
:102F6000686000287FF417AFDCE76868FEF714FE9E
:102F700000206860D6E7D5E7D4E7786F002802D153
:102F80005FF0000908E0D7F8749001E0D9F80090EC
:102F9000D9F800000028F9D1B9F1000F00F08180C4
:102FA000D9F810008089FEF749FC10F0030F01D01A
:102FB000012000E00020B9F80C10C0B24018002831
:102FC0006FD0D9F810008089FEF738FC10F0030F9D
:102FD00067D19DF8180010F0030F03D09DF818007A
:102FE00001285ED1398FB9F80C20A089821891424E
:102FF00057DB99F80E00A17B884252D1D9F8100016
:103000004068FEF72EFC009020694068FEF729FC1E
:10301000009AB9F80C108A18824242D15FFA8AFAF3
:103020001AF1140ADAF1000A514609B26068FEF793
:103030005FFD00287FF476AF60684089002809D1E1
:10304000606861680968616000210160BBF1010B83
:10305000FEF7A2FD9DF81800C0070AD50120FEF773
:10306000E5FBD9F8101089890843D9F81010888138
:103070000DE06168D9F80400FEF7D9FDB9F80C102D
:10308000A0894118A9F80C102068C9F80000A542D1
:1030900002D14D46B9F80C6021000420FFF792FDE3
:1030A00006E0B9F1000F01D17C6701E0C9F80040EA
:1030B0009DF8180010F0030F01D018F101089DF8D9
:1030C0001800C00705D597F8220050F0200087F8B7
:1030D0002200B96E404680B24118B966B7F86E005A
:1030E000B0EB0808A7F86E80A7F870B0B7F87000CA
:1030F0000028002D11D0B6B2002E0ED0286900286D
:103100000BD09DF84000800707D40820FEF78EFB07
:1031100029698989084329698881002012E77CB5DB
:103120000500002600223100C9B2143189B2012005
:10313000FEF7F2FB0400002C02D17FF0010027E033
:1031400095F8220010F0FC0085F82200A86DFEF72B
:103150007AFB0300F6B2320021002800FFF750FD91
:1031600006002089009006232A1D29002000FEF772
:1031700074FE308206200190A87A0090EB7A2A1D16
:103180002900200002F092FA2000FEF705FD002041
:1031900076BD2DE9F8430600B1480068B04201D180
:1031A0000020BAE0B6F85C00B6F85210884202D2AD
:1031B000B6F85C7001E0B6F85270746F96F82200B1
:1031C00080070FD5002C09D020694068FEF749FB25
:1031D000F16C401AA1890818874203D23000FFF72A
:1031E0009EFF9AE0B56F002D04D000E02D6828689E
:1031F0000028FBD1002C71D020694068FEF731FB1C
:10320000F16C401AA1890818874267D32069808928
:10321000FEF714FBB06F002810D096F8220010F0D3
:10322000440F0BD1706F00280AD0706F006800281F
:1032300004D1706F8089318F884201D3012000E072
:103240000020002804D196F8220010F0A00F45D0ED
:1032500020687067307C02280DD01020FEF7E6FA57
:103260002169898908432169888196F8220010F034
:10327000FC0086F822003100200000F088F8206968
:103280004068FEF7EEFA804620698089FEF7D6FA9C
:1032900010F0030F43D00120A189C0B2401810EBF9
:1032A0000808B06DB0EB0800002801D5C6F85880BA
:1032B00020698089FEF7C2FA10F0030F31D0012097
:1032C000A189C0B2401801285DDB00202060B06FEA
:1032D000002828D1B4672500746F8BE7002C15D027
:1032E00096F8A800002811D120694068FEF7B9FAC5
:1032F000B6F85C20F16C401AA1890818824205D208
:103300000020C6F8A400012086F8A80096F8220044
:1033100010F07F0086F822000020BDE8F283002034
:10332000BAE70020CCE720694068FEF79AFA8046A9
:1033300028694068FEF795FAB8EB0008B8F1000F6D
:103340001ED516F1780801E0D8F80080D8F8000002
:1033500000280FD0D8F8000000694068FEF781FA15
:10336000814620694068FEF77CFAB9EB0009B9F1A3
:10337000000FE9D4D8F800002060C8F80040ABE79F
:103380002C602D68A8E72000FFF723FAA4E77CB59E
:1033900005000C00606AFEF756FA29698860608DA6
:1033A000FEF744FA2969C881616A608D4118E162BB
:1033B000286910F11406A87BC00704D52948FEF738
:1033C00042FA3060301D002C02D0206800280BD15A
:1033D000201D01F02DFF002841D0011D002901D141
:1033E000002000E040682060B4F9360010F1010FC1
:1033F00001D10020E086E06B002807D11A48006860
:10340000E06328694068FEF72CFA2064296968683F
:103410004068081A69684989091A6A6851816968A7
:103420000989081A69680881286969684860002064
:10343000296908826868008900900623221D2100FE
:103440006868FEF70AFD2969088206200190A07AC3
:103450000090E37A221D2100686802F027F973BD0D
:10346000D8AA002080040402ACAA00202DE9FC4761
:103470008246894617001E00002214210120FEF713
:103480004BFA0400002C56D00B9D0A98D4F8048007
:1034900080B2FEF7CBF9A8F80000280080B2FEF752
:1034A000C5F9A8F802005046FEF7CDF9C8F80400A7
:1034B0004846FEF7C8F9C8F808004FF6C070FEF796
:1034C000B5F905001420FEF7B1F9B8F80C100D405D
:1034D0000543A8F80C504FF49050FEF7A7F9A8F850
:1034E0000E000020A8F81200B8F80C00FEF7A6F9AC
:1034F00010F03F0050F4A04080B2FEF797F9A8F812
:103500000C000020A8F8100020890090062332004B
:1035100039002000FEF7A1FCA8F810000620019059
:1035200000200090FF2332003900200002F0BEF896
:103530002000FEF731FBBDE8F38780B5816F0029DD
:1035400014D0826F00E0126811680029FBD1416F2E
:103550001160816F41670021816790F84A10491C12
:1035600080F84A100021C163FFF713FE01BDF8B5D2
:103570000400A06F002820D0A56F2868A06714F170
:10358000740600E03668306800280CD030680069A6
:103590004068FEF766F9070028694068FEF761F9A0
:1035A0003F1A002FEED430682860356094F84A0046
:1035B000401C84F84A000020E063F1BD10B504000F
:1035C000A06F002834D094F82200400730D42000A7
:1035D000FFF7CDFFB4F85C00B4F85210884207D270
:1035E000B4F85C00022190FBF1F0A4F8540006E06E
:1035F000B4F85200022190FBF1F0A4F85400B4F8A2
:103600005400218FB0EB410F04DA208F80B24000CC
:10361000A4F85400B4F85410228F032000FB0211C8
:10362000A4F8521094F8220050F0040084F822000C
:1036300010BD7CB50500002214210120FEF76CF9B5
:103640000400002C20D0A86D401EFEF7FCF80300FB
:10365000002221002800FFF7D3FA060020890090FD
:1036600006232A1D29002000FEF7F7FB30820620E2
:10367000019000200090EB7A2A1D2900200002F022
:1036800015F82000FEF788FA73BD2DE9FC4107000C
:10369000BC6F002C00D17C6F002C4FD0206980893A
:1036A000FEF7CCF8C00704D5A089002801D1012677
:1036B00000E000263000C0B2002801D0142100E054
:1036C0001521002289B20120FEF726F90500002D00
:1036D00034D020694368002229003800FFF790FAAF
:1036E0008046F6B2002E0ED04FF6C070FEF79EF860
:1036F00004001120FEF79AF8B8F80C100C400443AF
:10370000A8F80C4003E0A06800786968087528896B
:10371000009006233A1D39002800FEF79EFBA8F80A
:1037200010000620019000200090FB7A3A1D39001D
:10373000280001F0BBFF2800FEF72EFABDE8F38158
:1037400080B5FEF739FCDFF808030068002804D1D3
:10375000DFF800030068002806D00022DFF8F81226
:10376000FA2001F0FEFF03E00020DFF8F01208600D
:1037700001BD80B5DFF8E4120868002811D1DFF838
:10378000D0020068002804D1DFF8C80200680028D1
:1037900007D0012008600022DFF8BC12FA2001F0F7
:1037A000E0FF01BD80B502F04DF80022DFF8B01255
:1037B0004FF47A7001F0D5FF01BD80B502F043FBF4
:1037C0000022DFF8A01241F2883001F0CAFF01BDEB
:1037D00080B503F074F80022A3494EF6602001F092
:1037E000C0FF01BD80B503F08DF800229F494FF462
:1037F000FA7001F0B6FF01BD80B503F0F2FC0022C3
:103800009B49642001F0ADFF01BD80B503F0CCFE03
:1038100000229849642001F0A4FF01BD80B503F0A7
:10382000C6FF002294494FF47A7001F09AFF01BD5F
:1038300080B500228A494FF47A7001F092FF00228D
:10384000884941F2883001F08CFF002286494EF60B
:10385000602001F086FF002284494FF4FA7001F0E5
:1038600080FF00228249642001F07BFF0022814911
:10387000642001F076FF00227F494FF47A7001F056
:1038800070FF7E49086800280BD07D4800680968F1
:10389000884706E000988068001D009989680968DB
:1038A000884769467748006801F01EFF0098007855
:1038B0000028EFD002281CD003D3042830D022D314
:1038C00039E00098C06890F83100800606D500986D
:1038D000C1680098806802F043FF05E00098C16865
:1038E0000098806801F0CAFC00990920FFF76AF986
:1038F000D7E70098C0680099896888470099082030
:10390000FFF760F9CDE7009802690098C168009858
:10391000806801F026FF00990820FFF753F9C0E7FF
:10392000009801690098C06801F05EFF00990820C6
:10393000FFF748F9B5E7B4E7F8B505000E00514FB9
:10394000386800281BD00920FFF721F90400002C5B
:1039500002D15FF0FF3014E001202070A560E66026
:103960002100386800F0B0F8002806D021000920B6
:10397000FFF728F95FF0FF3003E0002001E07FF05F
:103980000800F2BD2DE9F04106000F001500DFF838
:10399000F480D8F80000002824D00820FFF7F7F8BA
:1039A0000400002C02D15FF0FF301DE002202070E7
:1039B000A660E760EDB2002D06D02100D8F8000027
:1039C00000F076F800200FE02100D8F8000000F0A9
:1039D0007BF80028F6D021000820FFF7F3F85FF00D
:1039E000FF3001E07FF00800BDE8F08118B585B038
:1039F0000400244A106800280ED000208DF8000032
:103A000002946946106800F053F800216068C068AD
:103A100000F0B1F8002001E07FF0080006B010BD12
:103A200038B504000D0004F0ABF8144804601448E5
:103A30000560002000F02CF8124908600720009073
:103A40004FF4617300221049104800F0E8F831BDCE
:103A5000B8AA0020BCAA002041370008E8AA00202C
:103A6000A5370008BB370008D1370008E537000844
:103A7000F93700080B3800081D380008DCAA0020C0
:103A8000E0AA0020E4AA00203138000800DA00088B
:103A900080B500220421062004F0BFF802BD10B555
:103AA0000400200004F088FA200004F08EFA10BD13
:103AB00013B5040000235FF0FF3201A9200004F0D9
:103AC000E0F80128F6D113BD02B5002300226946B3
:103AD00004F0D7F8012801D1002001E05FF0FF30A9
:103AE00040B202BDF8B506000D00140004F0A8FCB9
:103AF0000700002D00D16D46002C12D00120B4FB30
:103B0000F0F22900300004F043F9012804D104F058
:103B100097FCC71B380010E0002028605FF0FF30E2
:103B20000BE05FF0FF322900300004F031F901288A
:103B3000F7D104F085FCC71B3800F2BD38B505008D
:103B400003220021012004F068F80400002C05D0B5
:103B5000002300220021200004F093F8002C01D162
:103B6000002007E0EDB2002D03D10121200004F078
:103B70008AF9200032BD70B505000C0004F060FC2D
:103B80000600002C0FD00120B4FBF0F1280004F057
:103B90007AF9012804D104F053FC861B30000DE0B3
:103BA0005FF0FF300AE05FF0FF31280004F06BF9AE
:103BB0000128F8D104F044FC861B300070BD80B5AC
:103BC00000230022002104F05CF801BD80B504F060
:103BD000FCF901BD002008E02249002201EBC003EE
:103BE0005A60002241F83020401C0628F4DB0020F7
:103BF0001D490880704780B504F0AEFD0100002229
:103C000000E0521C18480088824206DA154800EB92
:103C1000C20043688B42F4D100E0002002BD3EB5F3
:103C20000C001900104D2B88062B19DA02AB0193FA
:103C3000069B009313000A0092B20100200004F0DA
:103C40007FFA0299074A2B8802EBC3025160298848
:103C5000491C2980012801D1029802E0002000E0DF
:103C600000203EBD3CA9002008AB002080B504F038
:103C7000F4FE012002BD80B504F0FBFE01BD08008A
:103C800000F5E0700268914203D343681A44914200
:103C900002D380680028F5D170471849086880B9B8
:103CA0004FF4805048604FF480324FF0FF30C860CE
:103CB00008610420124B8A604861C3F8BC011148B6
:103CC00008600120704701F1080313F0070F0EBFD1
:103CD0000023C3F1080303F007031944D21A8161DA
:103CE000C26042F001034B60091D4FF0280C41F8FF
:103CF00002C0024A1369C361704700006CA900202A
:103D000038A400206859883C2DE9F84F84B0064655
:103D1000AFF30080F52E1E4D80F00F820B2E31BFC9
:103D200010260B36F608F6002868F408E04010F07C
:103D3000030F4AD0C04300F00100041905F1280028
:103D400000EBC408E700D8F808607068C008C0003D
:103D5000B84218BF04F0C8FED6F80890464508BF20
:103D600004F0C2FE4E4508BF04F0BEFE7068C008F5
:103D7000C000B84218BF04F0B7FEC8450AD1286891
:103D8000012101FA04F420EA04042C6010E000BFD1
:103D900038A400202869814508D3D9F80C10B14215
:103DA00004D1C8F80890C9F80C8001E004F09CFE2A
:103DB00047F00300311D7060301DCA5942F0010206
:103DC000C25106F1080800F010BFA968B14280F0A6
:103DD0009F83002800F0A2804FF0010808FA04F148
:103DE000490000FA04F4484201430C406042044098
:103DF000641E200B00F01000C440610901F00801AE
:103E0000CC40A20802F00402D440630803F002038D
:103E10000818DC401018C4F3400718183818FC4084
:103E2000241805F1280000EBC40AE700DAF808902E
:103E3000D9F80400C008C000B84218BF04F054FE0E
:103E4000D9F808B0D14508BF04F04EFED94508BFE7
:103E500004F04AFED9F80400C008C000B84218BFF8
:103E600004F042FEDA4506D1286808FA04F420EA94
:103E700004042C600DE029698B4508D3DBF80C00A5
:103E8000484504D1CAF808B0CBF80CA001E004F012
:103E90002BFEBF1B46F0030009F10402C9F8040021
:103EA00047F00101915109EB06020192D751AC682C
:103EB0004FEAD40ABAF11F0F88BF04F015FE34B3DD
:103EC000CDF800A005F128006E6900EBCA0AD346C0
:103ED000102C38BF04F008FE2968009821FA00F27F
:103EE000D30704D408FA00F00843286007E0DAF8A2
:103EF0000800296988422CBF834604F0F5FDCAF802
:103F00000860CBF80C60C6F808B0C6F80CA0AF602B
:103F100009F108080198686100F067BE6868002828
:103F200000F0178341420840401E010B01F01001D0
:103F3000C840420902F00802D040830803F004039D
:103F4000D840440804F002045118E0405918C0F366
:103F50004007611805F598787918F840401858F826
:103F600020104868C008C0008A46A0EB060B08E095
:103F700001464868C008C000801B58453CBF8346C6
:103F80008A4608690028F3D149690029F1D12869D6
:103F90008245C0F0CF80DAF80410C90806EB0B099F
:103FA000C900494518BF04F09FFD0AEB0600824591
:103FB000019080F0BF80DAF80C40DAF818705445B0
:103FC0000DD0DAF808002969884223D3C268524527
:103FD00004BFA16851451DD1C460A0601CE00AF176
:103FE00014010C6834B90AF110010C68A4B101E0A5
:103FF00011460C6804F114021068002802BF04F195
:10400000100210680028F3D12869814202D30022EF
:104010000A6001E004F068FD002F34D0DAF81C00DB
:1040200008EB800001688A4509D1046094B9DAF888
:104030001C006968012282409143696023E028697D
:10404000874205D33969514514BF7C613C6101E069
:1040500004F04AFDBCB129698C4212D3A761DAF899
:10406000100028B1884226BF2061846104F03CFD25
:10407000DAF8140038B12969884202D3606184619A
:1040800001E004F031FDBBF1100F0ED249F0030046
:104090000AF10401CAF804000AF1040051F80920E9
:1040A00042F0010240F809203EE046F003010AF127
:1040B0000402CAF804104BF001009051019941F834
:1040C0000BB0A8680090C4081F2C88BF04F00CFD3A
:1040D000009828B305F1280000996F6900EBC40827
:1040E000C146102938BF04F0FFFC286820FA04F10B
:1040F000CA0705D4012101FA04F404432C6007E047
:10410000D8F80800296988422CBF814604F0ECFCED
:10411000C8F80870C9F80C70C7F80890C7F80C8088
:10412000C5F808B0019868611AF1080800F0F0813C
:1041300000F05BBD04F0D8FCEAE116F1400F28BFA7
:104140004FF0FF3680F0E4810B36F6086B68F6001E
:10415000002B00F0DD810027300AC6F1000908BFFE
:10416000002423D0B0F5803F28BF1F241ED2A0F525
:104170008071090C01F008018840A0F58052120CF2
:1041800002F004029040A0F58044240CC1F10E011D
:1041900004F00204891A091BA04001EBD031C81DAC
:1041A00026FA00F404F0010404EB410405F59878C4
:1041B00058F8240030B31F2C0FBFB4464FEA540CFC
:1041C000CCF1190C06FA0CFCBE46494601E04FEA58
:1041D0004C0C4268D208D200921B8A4202D21100D3
:1041E00007460CD0426910304FEADC7950F82900BC
:1041F000002A1CBF824296460028E8D170468946B4
:10420000A8BBB7BB012101FA04F464006042044377
:10421000234000F07D81584203405B1E180B00F0E4
:104220001000C340590901F00801CB409A0802F080
:104230000402D3405C0804F002040818E34010189C
:10424000C3F3400C2018604423FA0CF31B1858F8F1
:1042500023000CE008464168C908C900891B49458C
:104260003CBF8946074601690029F3D1406900280F
:10427000F1D1002F00F04C81A868801B814580F0AF
:10428000478129698F42FFF455AF7868C008C000A4
:1042900006EB0901884218BF04F026FC07EB060B69
:1042A0005F45BFF447AFFC68D7F818A0BC420CD0FC
:1042B000B8682969884223D3C268BA4204BFA1689A
:1042C000B9421DD1C460A0601CE007F114010C6864
:1042D00034B907F110010C68A4B101E011460C6873
:1042E00004F114021068002802BF04F110021068E3
:1042F0000028F3D12869814202D300220A6001E03C
:1043000004F0F2FBBAF1000F34D0F86908EB80003A
:1043100001688F4208D10460A4B9F8696968012274
:1043200082409143696025E02869824508D3DAF824
:104330001010B94214BFCAF81440CAF8104001E086
:1043400004F0D2FBB4B129698C4211D3C4F818A08F
:10435000386928B1884226BF2061846104F0C4FB1B
:10436000786938B12969884202D36061846101E0CB
:1043700004F0BAFBB9F1100F0CD2B14449F00300BC
:10438000391D7860381D51F8092042F0010240F8CB
:104390000920B9E046F003013A1D796049F00100B7
:1043A00090514FEAD9004BF809901F2822D805F107
:1043B000280101EBC004296821FA00F2D307A046C6
:1043C00005D4012202FA00F00843286006E0A06844
:1043D000296988422CBF804604F086FBC4F808B0E7
:1043E00007F10800C8F80CB040F8068007F10C018E
:1043F0008C5189E05FEA192008BF002123D0B0F575
:10440000803F28BF1F211ED2A0F58072120C02F03F
:1044100008029040A0F58051090C01F00401884089
:10442000A0F580431B0CC2F10E0203F00203521AE6
:10443000D21A984002EBD032D01D29FA00F101F0D7
:10444000010101EB420107F11403CBF81C1000221B
:104450009A5107F1100308EB81009A516A6822FA19
:1044600001F3DC0711D4012303FA01F11143696060
:10447000C0F800B0CBF8180007F1080107F10C00F4
:1044800040F806B041F806B03EE002681F291DBFA3
:104490004908C1F1190109FA01F1494600E0024653
:1044A0005068C008C000484518D002F11003C80F7A
:1044B00003EB8003490018680028F0D12869834283
:1044C00020D3C3F800B007F10C01CBF8182041F855
:1044D00006B007F1080040F806B015E029699068B9
:1044E0008A4228BF88420DD3C0F80CB007F10801FA
:1044F000C2F808B0885107F10C0082510022CBF8B5
:10450000182001E004F0F0FA17F1080840F06D837C
:10451000A868B0421DD3811B6A6910290AD390197B
:104520006861A96041F001034360415046F0030611
:1045300056600BE00021A9606961131D40F0030182
:104540005160111D1C5844F001040C5002F1080880
:104550004BE3E8688642C0F03883DFF8B89BD9F8AF
:10456000000008B9FFF799FBD9F8081088192F3017
:10457000491E20EA01018E4280F0358305F5D87787
:10458000B86838B13A6889188A4280F02C8388422A
:10459000C0F0298304F0ACFA00281CBFD0F80080DA
:1045A00010F1010F00F01F8339687A6841443960C7
:1045B0008A4238BF7960AC6904BB296909B1884275
:1045C00000D2286100213861C7F81480F9614FF0EA
:1045D000FF31D9F800206A62296205F12802002122
:1045E000D260926002F1080454611461891C103297
:1045F0001F29F5D9A8F1280201461DE005F5E07153
:104600000A46814600E09268D2B1106853680344BC
:104610009945F8D1107B030712D413689C420FD33D
:10462000D2F804C063449C420AD2C444C2F804C015
:104630002146E86808EB00022846FFF744FBC1E288
:104640002869814538BFC5F8109009EB080000E0E3
:104650008968002900F0BD810A688242F8D1087B90
:10466000020700F1B6810868C1F800904A68424428
:104670004A6009F1080111F0070F08BFCDF8049056
:1046800006D0C1F1080101F0070109EB0102019216
:1046900000F1080111F0070F04D0C1F1080101F089
:1046A0000701084480460198A8EB00018419A1EB9A
:1046B000060B274646F003064660474528BF04F030
:1046C00013FA98F80400C10758BF04F00DFABBF1C3
:1046D000100F38BF04F008FAA869804508D1E968CE
:1046E0008B44C5F80CB0AF614BF0010078606CE111
:1046F000686980450AD1A9688B44C5F808B06F6124
:104700004BF00100786047F80BB05EE1D8F8040088
:1047100000F00301012940F0B880C008C000C108C2
:104720001F29039040D8D8F808200092D8F80C60D0
:104730000291B04508BF04F0D7F90098804508BF42
:1047400004F0D2F9D8F804000299C008C000B0EB18
:10475000C10F18BF04F0C8F90299009A05F12800AA
:1047600000EBC100824208D011462A699142C0F094
:104770008780CA68424540F0838000998E4206D106
:1047800002982A68012383409A432A607AE086428D
:1047900005D029698E4273D3B068404570D1009826
:1047A000C6600099B1606DE0D8F818000090D8F8A4
:1047B0000C6046450DD0D8F808002969884223D3FB
:1047C000C268424504BFB16841451DD1C660B060B2
:1047D0001CE008F114010E6836B908F110010E68EA
:1047E000A6B101E011460E6806F114021068002817
:1047F00002BF06F1100210680028F3D12869814237
:1048000002D300220A6001E004F06EF9009800284B
:1048100038D0D8F81C0005F5987101EB80000168CC
:10482000884509D106609EB9D8F81C006968012244
:1048300082409143696025E000982969884205D348
:104840000169414514BF4661066101E004F04CF97D
:10485000C6B129698E4213D30098B061D8F8100010
:1048600028B1884226BF3061866104F03DF9D8F84E
:10487000140038B12969884202D37061866101E071
:1048800004F032F9039988448B44D8F8041049089D
:104890004900C8F804104BF0010078604FEADB06CD
:1048A00047F80BB01F2E22D805F1280000EBC604F4
:1048B000A146BBF1100F38BF04F016F9286820FAA2
:1048C00006F1CA0705D4012101FA06F606432E6057
:1048D00006E0A068296988422CBF814604F004F9EB
:1048E000A760C9F80C70C7F80890FC606DE05FEA3B
:1048F0001B2008BF002123D0B0F5803F28BF1F2117
:104900001ED2A0F58072120C02F008029040A0F5B1
:104910008051090C01F004018840A0F580431B0C74
:10492000C2F10E0203F00203521AD21A984002EBAF
:10493000D032D01D2BFA00F101F0010101EB420150
:10494000F961002305F598727B6102EB81003B6100
:104950006A6822FA01F3DE0707D4012303FA01F1A2
:10496000114369600760B8611DE002681F291DBF1F
:104970004908C1F119010BFA01F1594600E002465C
:104980005068C008C000584510D002F11003C80F8D
:1049900003EB8003490018680028F0D1286983429E
:1049A00011D31F60BA61FF60BC600EE02969906896
:1049B0008A4228BF884206D3C7609460B860FA6014
:1049C0000020B86101E004F08FF8019800F10808B8
:1049D0000BE121462846FFF753F901684068084477
:1049E0000090A0F1270111F0070000980EBF0021F0
:1049F000C1F1080101F007010844A0F12F0B04F1F7
:104A000010018B4538BFA3460BF11802002102921A
:104A10000191A8F1280249462846FFF754F90BF105
:104A2000080010F0070F18BF04F05EF81B20CBF849
:104A3000040005F5E07292E809500BF1080181E8E5
:104A4000095000210BF10800F961B861009A029841
:104A50000199C7F81090C7F81480072300E0001DE3
:104A6000491C00F1080797424360F8D30129D8BFD9
:104A700004F03AF8A34500F0A580ABEB040B201D31
:104A8000221D50F80B104908490042F80B104BF05A
:104A9000010060604FEADB0944F80BB0B9F11F0F69
:104AA00022D805F1280000EBC907B846BBF1100F6A
:104AB00038BF04F019F8286820FA09F1CA0705D4AC
:104AC000012101FA09F10843286006E0B868296964
:104AD00088422CBF804604F007F8BC60C8F80C4040
:104AE000C4F80880E7606DE05FEA1B2008BF002182
:104AF00023D0B0F5803F28BF1F211ED2A0F58072C1
:104B0000120C02F008029040A0F58051090C01F04F
:104B100004018840A0F580431B0CC2F10E0203F093
:104B20000203521AD21A984002EBD032D01D2BFA4F
:104B300000F101F0010101EB420105F5987200233B
:104B400002EB8100E161636123616A6822FA01F38B
:104B5000DF0707D4012303FA01F111436960046000
:104B6000A0611DE002681F291DBF4908C1F119019C
:104B70000BFA01F1594600E002465068C008C00037
:104B8000584510D002F11003C80F03EB8003490011
:104B900018680028F0D12869834211D31C60A261F3
:104BA000E460A4600EE0296990688A4228BF8842C8
:104BB00006D3C4609460A060E2600020A06101E0C0
:104BC00003F092FFE86886420DD2801BA969E86075
:104BD0008A19AA6140F00100506046F003064E6059
:104BE00001F1080801E04FF00008AFF300804046F3
:104BF00005B0BDE8F08F002800D170472DE9F047DF
:104C0000A0F10805AFF30080DFF80C6531698D4233
:104C1000C0F07A82686800F00302012A00F0748212
:104C2000C2084FEAC209C20705EB090839D42C684B
:104C300010F0030F00F06A82604205448D42A144E7
:104C4000C0F062827069854200F0DA80E408202CAE
:104C500072D2D5F80CA0AF68554508BF03F044FFE9
:104C6000BD4208BF03F040FF6868C008C000B0EB59
:104C7000C40F18BF03F038FF06F1280000EBC40092
:104C8000874205D031698F4253D3FA68AA4250D186
:104C9000BA4540D13068012101FA04F420EA040445
:104CA0003460454580F03082D8F80440E00740F198
:104CB0002B82A10700F17C81B069804540F0B38070
:104CC000F168B5618944C6F80C9049F0010068604C
:104CD00071698D4202D100207061B060F16949456F
:104CE00080F01482DFF82C24106808B9FEF7D5FF95
:104CF000B169002900F00A82F068292824BF3046F3
:104D0000FEF7BEFFF069F168884280F0FF814FF046
:104D1000FF30F061FAE1824506D03069824508D360
:104D2000DAF80810A94204D1C7F80CA0CAF8087034
:104D3000B7E703F0D9FEB4E7EC68AF69AC420BD03B
:104D4000A868884222D3C168A94204BFA268AA42C7
:104D50001CD1C460A0601BE005F11402146834B9D2
:104D600005F1100214689CB101E01A46146804F1C0
:104D700014031868002802BF04F110031868002803
:104D8000F3D18A4202D30021116001E003F0ACFEAE
:104D9000002F86D0E96906F5987000EB8100026863
:104DA000954209D10460200011D1E869716801229F
:104DB00082409143716074E73069874205D3396955
:104DC000A94214BF7C613C6101E003F08DFE002C20
:104DD0003FF467AF31698C42ABD3A761286928B132
:104DE000884226BF2061846103F07EFE6869002846
:104DF0003FF457AF316988429BD36061846150E7CB
:104E000098F8040000F0030003287FF44AAFC6F8C6
:104E1000089049F00101D8F8040040084000C8F8A3
:104E2000040069600AE0706980450AD1B168756163
:104E30008944C6F8089049F00100686045F8099077
:104E400064E1E408E400A144E408202C3AD2D8F854
:104E50000CA0D8F80870D04508BF03F045FEB8454F
:104E600008BF03F041FED8F80400C008C000B0EB52
:104E7000C40F18BF03F038FE06F1280000EBC40091
:104E8000874207D031698F42C0F08580FA68424579
:104E900040F08180BA4507D13068012101FA04F45D
:104EA00020EA0404346078E0824506D03069824507
:104EB00071D3DAF8081041456DD1C7F80CA0CAF8D3
:104EC00008706AE0D8F80C40D8F8187044450DD046
:104ED000D8F808003169884223D3C268424504BF2C
:104EE000A16841451DD1C460A0601CE008F1140117
:104EF0000C6834B908F110010C68A4B101E0114646
:104F00000C6804F114021068002802BF04F11002BA
:104F100010680028F3D13069814202D300220A6070
:104F200001E003F0E1FD002F37D0D8F81C1006F5A2
:104F3000987000EB8100026890450AD1046020005F
:104F400012D1D8F81C00716801228240914371602F
:104F500023E03069874205D33969414514BF7C613C
:104F60003C6101E003F0C0FDBCB131698C4212D359
:104F7000A761D8F8100028B1884226BF206184615B
:104F800003F0B2FDD8F8140038B13169884202D379
:104F90006061846101E003F0A7FD49F001006860F1
:104FA00045F8099071698D420BD1C6F80890ADE0C3
:104FB00064086400C8F8044049F00100686045F8DE
:104FC00009904FEAD907202F22D206F1280000EBE2
:104FD000C704A046B9F1100F38BF03F085FD306853
:104FE00020FA07F1CA0705D4012101FA07F70743A0
:104FF000376006E0A068316988422CBF804603F024
:1050000073FDA560C8F80C50C5F80880EC607DE021
:105010005FEA192008BF002123D0B0F5803F28BFE8
:105020001F211ED2A0F58072120C02F008029040DF
:10503000A0F58051090C01F004018840A0F58043DF
:105040001B0CC2F10E0203F00203521AD21A98404E
:1050500002EBD032D01D29FA00F101F0010101EB81
:10506000420106F59872002302EB8100E9616B6151
:105070002B61726822FA01F3DC0707D4012303FADB
:1050800001F1114371600560A8611DE002681F29EC
:105090001DBF4908C1F1190109FA01F1494600E0B3
:1050A00002465068C008C000484510D002F1100305
:1050B000C80F03EB8003490018680028F0D130695D
:1050C000834211D31D60AA61ED60AD600EE03169CD
:1050D00090688A4228BF884206D3C5609560A86060
:1050E000EA600020A86101E003F0FEFC306A401E87
:1050F00030620BD1D6F8C80100E080680028FCD1EE
:105100004FF0FF30306201E003F0EEFCAFF30080BF
:10511000BDE8F0876CA9002038A40020FFF76BBD24
:1051200062B38B0708D0521E11F8013B00F8013B17
:1051300000F024808B07F6D1830740F0208000BF69
:10514000103A07D330B4B1E83810103AA0E838105C
:10515000F9D230BC530724BFB1E80810A0E808100A
:1051600044BF51F8043B40F8043BD20724BF31F858
:10517000022B20F8022B44BF0B7803707047121FDC
:1051800017D35B0009D151F8043B20F8023B1B0CFC
:10519000121F20F8023BF6D20BE051F8043B00F856
:1051A000013B1B0A20F8023B1B0C121F00F8013BBD
:1051B000F3D238BF121D521E24BF11F8013B00F874
:1051C000013BF8D87047000062F30F2262F31F42E0
:1051D000401810F0030308D0C91A1FD3DB0748BFDB
:1051E00000F8012D28BF20F8022D130030B414461A
:1051F0001546103928BF20E93C00FAD8490728BFD6
:1052000020E90C0048BF40F8042D890028BF20F891
:10521000022D48BF00F8012D30BC7047C91818BFD7
:1052200000F8012DCB0728BF00F8012D70470000C2
:1052300038B50500DFF86004046800E02468002C3D
:105240000ED0200003F023FD0028F7D02968A068C5
:1052500001406268A06802409142EFD120000CE05A
:10526000DFF838442068002804D0206803F00FFDE0
:10527000002801D1002000E0206832BD2DE9F04770
:10528000060088460127D6F80490B9F80000FCF71C
:10529000D5FA80B2000B80B2042804D03000FCF7AD
:1052A0007BFC002012E1B9F80000FCF7C7FAC0F35C
:1052B000032080B25FEA800AB9F80200FCF7BEFA68
:1052C00004007089514689B2884204D33089210094
:1052D00089B2884204D23000FCF75EFC0020F5E081
:1052E000514689B24846FCF718FE002804D0300029
:1052F000FCF752FC0020E9E0210089B23000FCF705
:10530000C2FB5FF07040FCF7ACFA04005FF0604055
:10531000FCF7A7FAD9F810100C40844242D198F853
:10532000310040063CD519F11001404602F08DF8DD
:10533000002835D04446002C12D1B9F80800FCF7FB
:105340007DFA00F0FF0011280AD11FFA8AFA09EB52
:105350000A004088FCF772FA442801D1444600272D
:10536000002F46D0D9F80C00002842D0414619F150
:105370000C00FCF726FD00280DD15FF07040FCF713
:1053800070FA05005FF06040FCF76BFAD9F80C107A
:105390000D4085422DD13000FCF7FEFB002095E04A
:1053A0000024C8E701254446200003F070FC0028D3
:1053B00011D0201D00280ED0606800280BD0D9F82D
:1053C00010006168884211D0210019F11000FCF72B
:1053D000F8FC00280AD1002D09D00025AE48046849
:1053E000444500D12468002CDED1A4E7A3E724685B
:1053F000F6E7002C04D13000FCF7CEFB002065E07E
:1054000043F6FF70FCF712FAB9F80610014209D012
:10541000300000F06FFB0600002E01D1002055E0A7
:10542000D6F804909E4CC4F800809E4DC5F80090BC
:105430004146300003F030FC002842D1B9F80800A2
:10544000FCF7FCF900F0FF00C0B201280FD00228E1
:1054500012D0062806D0112815D14146300003F09D
:10546000D7FC2EE041463000FAF78CFE29E0414699
:10547000300003F024FF24E019F11002414630000F
:1054800002F01BF81DE0414619F11000FCF799FCF1
:10549000002813D15FF07040FCF7E3F907005FF0DC
:1054A0006040FCF7DEF9D9F810100F40874205D0B4
:1054B000C6F804900221300003F0CAFF3000FCF768
:1054C0006BFB00202060002028600020BDE8F087F2
:1054D00018B585B000240494002403940A9C029417
:1054E0009DF8244001949DF820400094DBB200F028
:1054F00002F806B010BD2DE9F84F07000D001400AA
:105500009B46DDF83080002C00F0AB800E9E5FF0F3
:1055100014090020300080B200282ED016F1030AB2
:105520004FF6FC7010EA0A0A1AEB0909514609B253
:105530003800FCF7DDFA002802D07FF00100A8E077
:105540000D99320092B2786800900098FFF7E8FD5C
:1055500000983000514680B289B288420DD21FFABD
:105560008AFA300080B2BAEB000A5146002278680D
:10557000B6B206443000FFF727FE14213800FCF7CE
:10558000B7FA002802D07FF0010082E00B9ED7F826
:1055900004A0BAF80800FCF751F900F0FF005FFA28
:1055A0008BFB50EA0B2080B2FCF740F9AAF8080008
:1055B000BAF80800FCF742F9F6B280B2000A56EADF
:1055C0000026300080B2FCF731F9AAF80800002C60
:1055D00001D1002100E021680A98CAF8101049465C
:1055E00089B2042291FBF2F1C0B250EA012050F4DA
:1055F000804080B2FCF71AF9AAF800003889FCF75D
:1056000015F9AAF802000020AAF80600264E3088F4
:10561000FCF70CF9AAF804003088401C3080002DFB
:1056200002D0286800280AD118F10400002801D10E
:10563000002001E0D8F80400CAF80C0006E0002DB4
:1056400001D1002000E02868CAF80C000020AAF868
:105650000A00494689B25046FCF75FFCAAF80A00E6
:1056600002E0786810F11004B8F8280000280AD089
:10567000B8F828003989884205D22200414638000E
:1056800000F017FB05E0220039004046D8F814303E
:105690009847BDE8F28F00004CAA002050AA0020D5
:1056A00040AA002044AA002004AB0020FEB504005C
:1056B0000D0016001F003000FFF7BAFD01000028A2
:1056C00002D17FF003000DE002919DF824000190CB
:1056D0009DF8200000903B00DBB232002900200042
:1056E000FFF7F6FEFEBD0000F8B505000E000CE069
:1056F0002168086820608C68CF680C20FDF762FA8A
:105700002000002801D03800A047FEF774FA0400FA
:10571000002C0DD0206800280AD02068406800289E
:105720000CD02068426831002800FEF7DBF907E062
:10573000002231002800FEF7D5F911E05FF0FF30BC
:1057400010F1010FD4D021684968884205D2216840
:105750004968081A2168486002E000202168486012
:10576000F1BDF8B505000E0017000C20FDF70FFA8B
:105770000400002C37D000202060A660E760656040
:10578000FEF739FA00282ED00168002901D1046003
:1057900029E0016849688D4208D2016849684D1BBB
:1057A00001684D600168216004601CE0016800E050
:1057B0000968002917D062684868121A6260086890
:1057C000002804D060680A6852689042F0D20868E5
:1057D000002805D0086842686068121A08684260AC
:1057E000086820600C60F1BD70B504000D00FEF784
:1057F00002FA002824D00168002921D00168002283
:1058000001E00A00096800291AD08B682600B3421B
:10581000F7D1CB68AB42F4D1002A02D10A6802600A
:1058200001E0086810600868002805D00868426830
:1058300048688218086842600C20FDF7C3F9FFE74A
:1058400070BD000038B50025DFF8D005046804E01D
:10585000E07F401EE07725002468002C08D0E07F20
:105860000028F5D120002468290000F002F8F4E7B0
:1058700031BD2DE9F04107000D000026002D7868AC
:1058800041688888002815D17C68086878601422EF
:1058900017F10801D4F804804046FFF741FC0121CC
:1058A000200003F0DCFD2000FCF7ACF98619200095
:1058B000FCF772F97C6809E06068A046046840461D
:1058C000FCF7A0F986194046FCF766F9002CF3D1E5
:1058D0002900380000F072F8DFF844050188891BC0
:1058E00001803000BDE8F081F8B504000D0000260D
:1058F000002000230027DFF82415096812E0C27F8A
:1059000091F81FC0624508D3080006E00022002A73
:1059100003D07F1C0028F2D108000A68002A00D0BA
:105920000B000968002910D04A69D4F80CC0624500
:1059300009D18A69D4F810C0624504D18A89B4F8C3
:1059400004C06245E2D00122E1E7002803D019003B
:10595000FFF78FFF8619AE4201DA022FC8DA300056
:10596000F2BD70B505000E000520FDF710F904002A
:10597000002C0DD131002800FFF7B6FFB04203DB49
:105980000520FDF704F90400002C01D1002014E0EB
:105990002021002226003000FFF716FC0320E077CC
:1059A000DFF87804016821600460142214F108060D
:1059B00029003000FFF7B4FB200070BD80B5DFF890
:1059C0005C241368834202D10168116001E002681F
:1059D0000A6001000520FDF7F5F801BD2DE9F84347
:1059E00007000E0000240125D6F80490B9F8020043
:1059F000FBF724FF8046B9F80000FBF71FFF1FFAF2
:105A000088F880B2C0F30320B8EB8008B9F806002C
:105A1000FBF714FFC004C00C80B2C0007168002204
:105A20000A60888018EB0000C880786810E08888D9
:105A3000938898423DD08888D38898423AD3002CE6
:105A400004D0E0889388984200D0002510681400A4
:105A5000002823D042688B88B2F804C06345E6D2A0
:105A60000860002C19D08B88B4F806C0634503D3B6
:105A70009288CB889A420ED23000FCF7C3F8DFF848
:105A8000A0130A88C0B2101A08803000FCF784F80E
:105A90000020BDE8F283266000E07E6000280BD184
:105AA000002C08D02660E0888A88904204D0002527
:105AB00002E0E1E7E0E77E60B87FC00718D5002D7F
:105AC00014D0786840688088002801D000250DE057
:105AD0000A00086801E002000068002805D040685C
