:020000040800F2
:100000001810002079040008810400088504000805
:10001000890400088D040008910400080000000015
:10002000000000000000000000000000950400082F
:1000300099040008000000009D040008A1040008C5
:10004000A5040008A9040008AD040008B1040008D4
:10005000B5040008B9040008BD040008C104000884
:10006000C5040008C9040008CD040008D104000834
:10007000D5040008D9040008DD040008E1040008E4
:10008000E5040008E9040008ED040008F104000894
:10009000F5040008F9040008FD0400080105000843
:1000A00005050008090500080D05000811050008F0
:1000B0001505000819050008A50200081D0500081F
:1000C0002105000825050008290500082D05000860
:1000D0003105000835050008390500083D05000810
:1000E0004105000845050008490500084D050008C0
:1000F0005105000855050008590500085D05000870
:100100006105000865050008690500086D0500081F
:100110007105000875050008790500087D050008CF
:100120008105000885050008890500088D0500087F
:10013000F0B400220026002400250023002791F8B7
:1001400003C01CF00F0C624691F803C05FEACC6C50
:1001500001D58B781A430B781B0621D00368002445
:1001600006E0CD78482D02D10125A5400561641C2B
:10017000082C14D20125A5400E882E40AE42F6D19F
:10018000A5000F2616FA05F7BB4312FA05F52B4317
:10019000CD78282DE5D10125A5404561E7E703602D
:1001A0000B88FF2B26DD4368002420E0012514F195
:1001B0000806B5400E882E40AE4217D1A5000F2686
:1001C00016FA05F7BB4312FA05F52B43CD78282D17
:1001D00004D1012514F10806B5404561CD78482DBC
:1001E00004D1012514F10806B5400561641C082CF2
:1001F000DCD34360F0BC70474FF6FF7101800221F1
:1002000081700421C170704789B20161704789B261
:100210004161704740B241092F4A012310F01F008D
:1002200013FA00F042F82100704780B50121082040
:1002300000F05EF80121042000F06AF8012110208E
:1002400000F056F82548FFF7D7FF24481021C17069
:100250002248C02101802148032181701F49204884
:10026000FFF766FF1F4800F087F81E484FF4E15182
:1002700001801C48C82181801A491B4800F05CF8A5
:1002800001BD80B562B6FFF7D0FF012201211648FB
:1002900000F08CF80121144800F07AF81E20FFF7D6
:1002A000B9FFFEE780B501210F4800F08BF80F4839
:1002B0000078002807D10D4801210170402108482D
:1002C000FFF7A2FF06E00948002101704021044821
:1002D000FFF79DFF01BD000000E100E00C000020E1
:1002E0000010014000000020000800401000002025
:1002F000C9B2002905D00E49096808430C490860B5
:1003000005E00B49096831EA0000094908607047B7
:10031000C9B2002905D007490968084305490860A2
:1003200005E00449096831EA0000024908607047A5
:10033000181002401C10024010B4028812F08F0204
:1003400002800288CB884C8823431A4302808A8823
:1003500082850A880285064A904202D0054A904268
:1003600001D1097A01860121818210BC7047000009
:10037000002C0140003401404FF6FF7181800021C4
:1003800001800021C180002141800021017270475D
:10039000C9B2002904D0018851F00101018004E0B4
:1003A000018840F2FE32114001807047D2B2002A2B
:1003B00003D082891143818103E0828932EA0101FD
:1003C0008181704789B2C9430182704710B50749DE
:1003D00079441831064C7C44163404E00A68081D40
:1003E000511888470146A142F8D110BD2C000000E9
:1003F0003800000050F8041B61B150F8042BD307FB
:1004000044BFA9F101039A18002342F8043B091FD5
:10041000FAD1EFE770470000DDFFFFFF1400000096
:10042000000000200000000000F00BF8002801D0C0
:10043000FFF7CCFF0020C046C046FFF722FF00F0C8
:1004400002F80120704700F001B800000746384666
:1004500000F002F8FBE7000080B5C046C046024A43
:1004600011001820ABBEFBE726000200C046C046C4
:10047000C046C046FFF7D8FF004800476D0400089B
:10048000FFF7FEBFFFF7FEBFFFF7FEBFFFF7FEBFA0
:10049000FFF7FEBFFFF7FEBFFFF7FEBFFFF7FEBF90
:1004A000FFF7FEBFFFF7FEBFFFF7FEBFFFF7FEBF80
:1004B000FFF7FEBFFFF7FEBFFFF7FEBFFFF7FEBF70
:1004C000FFF7FEBFFFF7FEBFFFF7FEBFFFF7FEBF60
:1004D000FFF7FEBFFFF7FEBFFFF7FEBFFFF7FEBF50
:1004E000FFF7FEBFFFF7FEBFFFF7FEBFFFF7FEBF40
:1004F000FFF7FEBFFFF7FEBFFFF7FEBFFFF7FEBF30
:10050000FFF7FEBFFFF7FEBFFFF7FEBFFFF7FEBF1F
:10051000FFF7FEBFFFF7FEBFFFF7FEBFFFF7FEBF0F
:10052000FFF7FEBFFFF7FEBFFFF7FEBFFFF7FEBFFF
:10053000FFF7FEBFFFF7FEBFFFF7FEBFFFF7FEBFEF
:10054000FFF7FEBFFFF7FEBFFFF7FEBFFFF7FEBFDF
:10055000FFF7FEBFFFF7FEBFFFF7FEBFFFF7FEBFCF
:10056000FFF7FEBFFFF7FEBFFFF7FEBFFFF7FEBFBF
:10057000FFF7FEBFFFF7FEBFFFF7FEBFFFF7FEBFAF
:10058000FFF7FEBFFFF7FEBFFFF7FEBFFFF7FEBF9F
:040000050800046D7E
:00000001FF
