:020000040800F2
:10000000D0C6002019DB0008DB5D0008DD5D0008BC
:10001000DF5D0008E15D0008E35D0008000000000E
:10002000000000000000000000000000E9BB000824
:10003000E55D00080000000091BB00085948000879
:10004000B9DB0008BDDB0008C1DB0008C5DB000828
:10005000C9DB0008CDDB0008D1DB0008D5DB0008D8
:10006000D9DB0008DDDB0008E1DB0008E5DB000888
:10007000E9DB0008EDDB0008F1DB0008F5DB000838
:10008000F9DB0008FDDB000801DC000805DC0008E6
:1000900009DC00080DDC000811DC000815DC000894
:1000A00019DC00081DDC000821DC000825DC000844
:1000B00029DC00082DDC000831DC000835DC0008F4
:1000C00039DC00083DDC000841DC000845DC0008A4
:1000D00049DC00084DDC000851DC000855DC000854
:1000E000E75D000859DC00085DDC000861DC000801
:1000F00065DC000869DC00086DDC000871DC0008C4
:1001000075DC000879DC00087DDC000881DC000873
:1001100085DC000889DC00088DDC000891DC000823
:1001200095DC000899DC00089DDC0008A1DC0008D3
:10013000A5DC0008E95D0008A9DC0008ADDC0008CA
:10014000B1DC0008B5DC0008B9DC0008BDDC000843
:10015000C1DC0008C5DC0008C9DC0008CDDC0008F3
:10016000D1DC0008D5DC0008D9DC0008DDDC0008A3
:10017000E1DC0008E5DC0008E9DC0008EDDC000853
:10018000F1DC0008F5DC000830B585B00D00110089
:10019000C0B200F0B1FA0400002C18D0DFF8C0079C
:1001A00000908DF808500194684609F08FFD94F98D
:1001B000080000280BD0E06806F075F9206906F009
:1001C000DBF82100072003F0F0FE002000E0200013
:1001D00005B030BD18B585B00400002C02D17FF009
:1001E00009000BE0DFF87C07009001940291ADF864
:1001F0000C20684609F06AFD94F9080006B010BDAD
:1002000018B585B00400002C02D17FF009000BE086
:10021000DFF85407009001940291ADF80C20684675
:1002200009F054FD94F9080006B010BD30B587B050
:10023000040000200090002C01D10020A0E02069E3
:10024000002804D17FF007002072002098E094F984
:10025000080010F1040F01DA002091E02078102846
:100260006BD16078022804D17FF007002072002053
:1002700086E0062003F07DFE00900098002804D15F
:100280005FF0FF30207200207AE0E26901A9206966
:1002900006F095F810F1010F08D10099062003F03F
:1002A00084FE7FF002002072002069E0019800289F
:1002B00009D00198058906F048F9218C491B218451
:1002C00006F048F900E00025E06A002805D02A0081
:1002D00092B201212000E36A9847019800280CD1CE
:1002E0000099062003F061FE94F90800002802D16D
:1002F0007FF006002072002042E00198009908601B
:100300000198009948600020009988810020009998
:100310008860DFF85806029003940098002805D002
:10032000009800680089ADF8100002E00120ADF8E7
:10033000100002A809F0CAFC21E0E26969462069C0
:1003400006F03DF810F1010F01D100200090009857
:10035000002814D006F0F9F8228C00990968B1F948
:100360000810521A228406F0F5F8E06A002806D038
:1003700000980068028901212000E36A98470098EC
:1003800007B030BD18B585B00400002C02D17FF055
:10039000090009E0DFF8D805009001940291684651
:1003A00009F094FC94F9080006B010BDF8B50500FA
:1003B0000F001600002D44D02869002841D00022EB
:1003C0003189032003F0A2FF0400002C09D0310082
:1003D000200004F042F9002803D0200004F0D5F8F2
:1003E0000024002C2DD0062003F0C3FD0600002EB3
:1003F00004D1200004F0C9F8002023E034607460C8
:1004000060680C30B060387CB0813100286905F03C
:10041000C8FF002804D0300003F01EFE002011E0C9
:1004200006F093F82A8CB4F908108A182A8406F08A
:1004300091F8E86A002804D0228900212800EB6A9C
:1004400098470020F2BDF8B5040016001F00002CEC
:1004500002D02069002803D1300004F096F829E08A
:10046000062003F086FD0500002D03D1300004F0C6
:100470008CF81FE006982E606E60AF60A88129009E
:10048000206905F08EFF002803D0280003F0E4FD6A
:1004900010E006F05AF8228CB6F908108A18228467
:1004A00006F058F8E06A002804D0328900212000C4
:1004B000E36A9847F1BD70B505001400002D02D025
:1004C0002869002802D17FF008001FE02B72002C61
:1004D00008D0268906F039F8298C7118298406F08D
:1004E00039F800E000262100286905F05AFF0028AD
:1004F00002D05FF0FF3009E0E86A002805D0320042
:1005000092B200212800EB6A9847002070BD80B5A8
:100510004178012902D100F0A2FA04E041780429CF
:1005200001D100F027F9002002BD38B50400150004
:100530006078012803D1200000F091FA05E060788E
:10054000042802D1200000F015F9002C12D06068B8
:1005500000280FD06068B0F86E0040F681518842E4
:1005600008DBE06A002805D02A0092B202212000B0
:10057000E36A9847002032BD10B504000020606097
:100580002172206900280BD0E06A002804D00022E4
:1005900000212000E36A98470021206905F0F5FE5C
:1005A000E068002807D06078032804D1002060703C
:1005B000E06805F071FF606900280BD0E06A002850
:1005C00004D0002200212000E36A984700216069DE
:1005D00005F0DBFE6078012802D06078042804D1A1
:1005E00000206070E06805F057FF10BD10B50100F5
:1005F0004C68200007F001F9DFF87816200007F0BA
:10060000FEF8DFF85418200007F0FCF80422DFF8A9
:100610004C18200007F0FEF8DFF84418200007F01F
:10062000F4F810BD10B5040000202168087220689D
:10063000007810F0F000C0B2102836D0202817D073
:10064000402843D1207904F0DEFC2168486020680E
:100650004068002804D15FF0FF302168087239E05B
:100660002268DFF800182068406804F077FC31E069
:1006700009F0A4FE2168486020684068002804D181
:100680005FF0FF302168087224E02068007822289B
:1006900003D101202168496808742268DFF89018A6
:1006A0002068406809F07CFE14E007F0A1F821689A
:1006B000486020684068002804D15FF0FF3021685E
:1006C000087207E02068FFF791FF03E07FF0080061
:1006D00021680872206890F9080010BD10B5040068
:1006E00020684068002802D12000FFF79BFF2068A7
:1006F000C06805F0D1FE10BD70B506000D000720E2
:1007000003F037FC0400002C01D1002031E0002070
:1007100020722670002060600026002005F07BFE1D
:10072000E060002805D12100072003F03EFC0020F6
:100730001FE0300005F019FE2061002808D1E068B4
:1007400005F0B1FE2100072003F02FFC002010E08F
:1007500000206061002060705FF0FF30A061E56202
:1007600000202084002060620020A0620020E06160
:10077000200070BD10B504000021606807F03DF84E
:100780006068007C012804D10021606807F040F80F
:1007900014E00021606807F032F80021606807F07B
:1007A00037F80021606807F02DF804220021606806
:1007B00007F030F80021606807F027F8606806F05D
:1007C0001DFB40B2002819D100206070002060603D
:1007D00000202072E06A002804D0002200212000BE
:1007E000E36A9847E06A002804D000220221200032
:1007F000E36A9847E06805F04FFE13E0DFF858160B
:10080000606806F0FFFF0422DFF85016606807F00A
:1008100001F8DFF84C16606806F0F7FF2100606809
:1008200006F0EBFF10BD10B50400206890F9080039
:1008300010F1040F2DDB20684068002825D02068C7
:10084000007810F0F000C0B2102814D0202809D091
:10085000402819D161682068406804F06FFB216866
:10086000087216E0228961682068406809F02AFD54
:10087000216808720DE0228961682068406806F0EE
:10088000A5FB2168087204E003E07FF008002168FE
:1008900008722068C06805F0FFFD10BD10B50400A7
:1008A000002C02D17FF008000FE02272207810287F
:1008B00005D152B2002A02D12000FFF797FE002096
:1008C0006070E06805F0E8FD002010BD10B5040080
:1008D00020684068002804D12068C06805F0DCFD6D
:1008E0003CE02068007810F0F000C0B210281CD066
:1008F00020280DD0402829D161682068406804F084
:1009000025FB216808722068C06805F0C5FD25E058
:10091000228961682068406809F016FD2168087224
:100920002068C06805F0B8FD18E003202168487011
:100930002068FFF75BFEDFF8443822896168206891
:10094000406806F047FC2168087207E07FF0080065
:10095000216808722068C06805F09EFD10BD000087
:10096000DD06000827080008CD0800080D0A000869
:100970007509000810B50400206890F9080010F10E
:10098000040F3EDB2068406800283AD020680078D9
:1009900010F0F000C0B2202819D0402831D1606892
:1009A0008068002808D1606801682068406804F009
:1009B00025FB2168087209E0606882686068016848
:1009C0002068406804F0CDFA2168087219E0606878
:1009D0008068002808D1606801682068406809F0D4
:1009E000BFFB216808720BE06068838960688268D9
:1009F000606801682068406809F0B8FB21680872E7
:100A0000FFE72068C06805F047FD10BD10B5040081
:100A1000206890F9080010F1040F1BDB2068406883
:100A2000002817D020680078102813D1206840686B
:100A3000007C012809D12068406890F82100401E00
:100A40002168496881F8210004E0A1882068406895
:100A500006F06FFB2068C06805F01EFD10BD70B584
:100A600005000024686A4068A96A0144686A8068D1
:100A7000AE6A861BB6F5803F02D34FF6FF76FFE7DE
:100A80006868B0F86E000200330092B29BB29A42DE
:100A900000D20600686A037B320092B2686808F0F0
:100AA00058FA010049B2002948D1A86A10FA86F024
:100AB000A862A86A696A8968884206D10124002070
:100AC00068620020A862002068706868806F002853
:100AD00015D0686890F8220010F0440F0FD16868B4
:100AE000406F00280DD06868406F0068002806D16C
:100AF0006868406F80896968098F884201D3012046
:100B000000E00020002803D0686808F0A1FC00E0A5
:100B10000020287240B200281CD16868B0F86E002E
:100B200040F68151884215DAE86A002812D0320076
:100B300092B203212800EB6A98470BE001005FF0B6
:100B4000FF3249B2914203D1686808F081FC01E0AC
:100B500028720124E4B2002C04D000206870E868F8
:100B600005F09AFC002070BD704710B5040001200C
:100B7000C0B200280ED0606A007A002803D020009E
:100B800000F07AF809E0200000F043F86420616A80
:100B9000087202E0200000F06FF810BD70B506008A
:100BA0000C00DFF8E85796F82F0096F8301050EA5E
:100BB0000120281802F05BFA02F067FA716A497A9C
:100BC00040184AF6FE1161F31F40A84201D210F509
:100BD0007E40DFF87018884201D3B0F57E4002F005
:100BE00046FA206070BD0000F8B501210391416A0A
:100BF0000291DFF854180191DFF85018009110F1BC
:100C00002B03DFF84C2810F12B0101F002FC05B09A
:100C100000BDF8B501210391416A0291DFF828185F
:100C20000191416A009110F12B03DFF8242810F1A3
:100C30002B0101F0EEFB05B000BD3EB50400656A76
:100C4000DFF8100802F013FA0190002002F00FFA0A
:100C500000902900200003F08AFA01A9200003F087
:100C6000C2FA6946200003F0B7FA200003F0C6FA82
:100C700000203EBDB7040008F8B505006C6A0026E8
:100C8000280003F0E2FA002802D0280003F0D2FA8C
:100C9000002068600020A8600020E860002C10D1CF
:100CA0000A2009F07BFC0400002C02D15FF0FF3029
:100CB00021E00A210022270038000AF079FE6C6248
:100CC0000DE0002020710020E080002060710421F0
:100CD0000022270038000AF06BFE0020207221005D
:100CE0002800FFF75BFF607A401C6072280000F06C
:100CF00003F8300040B2F2BD10B4426A0121117114
:100D000000215171416A002902D0416A497A00E00C
:100D1000002190F8303090F82E40240454EA036407
:100D200090F82D3054EA032490F82F000443091959
:100D30000A20B1FBF0F300FB1311D180507A0B288D
:100D400002DB4FF41670D08010BC704710B5DFF88E
:100D5000D407046820E02000FFF75BFF06E0606A2C
:100D600040790028F7D12000FFF767FF1420616A5F
:100D7000C880606A4079401C616A4871606A407945
:100D8000022808DB0320616A08710020616A48714B
:100D90000020616AC8802468002C5BD0606A00284B
:100DA000F9D0606A007A002804D0606A007A401E98
:100DB000616A0872606A0079012802D002283FD077
:100DC000E9E7606AC088002805D0606AC088401ED4
:100DD000616AC88033E0606A4079032809DB022039
:100DE000616A08710020616A48711420616AC880D4
:100DF00025E02000FFF7F8FE606A4079401C616A38
:100E00004871606A002802D0606A417A00E00021DF
:100E100094F8300094F82E20120452EA006294F8FC
:100E20002D0052EA002294F82F00024389180A206C
:100E3000B1FBF0F200FB12110A31606AC180AAE72F
:100E4000606AC08800288AD0606AC088401E616AD3
:100E5000C880A0E710BD00002B0500080F050008A2
:100E600079050008AD0300087FB504000D00606A35
:100E700000285BD0606A0079002857D094F82B00D6
:100E80008DF8000094F82C008DF8010094F82D00E6
:100E90008DF8020094F82E008DF8030094F82F00CE
:100EA0008DF8040094F830008DF80500042215F147
:100EB0000E0102AE30000AF0CBFD042215F118013C
:100EC00003AE30000AF0C4FD606A0079012807D043
:100ED000606A0079022819D1606A4079002815D12A
:100EE000616A0868029981420CD0616A08680399B6
:100EF00081421BD1062215F1080168460AF012FE54
:100F0000002813D02000FFF7B7FE0FE0616A0868E1
:100F1000029981420AD1062215F1080168460AF0B9
:100F200001FE002802D02000FFF71FFE7FBD000059
:100F3000470400087CB50600346A0121200000F057
:100F4000F5FA300000F056FB0500280040B20028FA
:100F500052D101223521200000F0F1FA03212000B6
:100F600000F000FB02223921200000F0E8FA318D68
:100F7000200000F000FB04223221200000F0DFFA04
:100F8000A06A02F082F80100200000F00AFB0422AF
:100F90003621200000F0D3FA606A02F076F80100F2
:100FA000200000F0FEFA04223721200000F0C7FAEA
:100FB0000121200000F0D6FA0321200000F0D2FA2F
:100FC0001C21200000F0CEFA0621200000F0CAFA11
:100FD000200000F0C3FBA18BF03189B2606903F0FF
:100FE0004CFA00964323DFF840256169606809F0F8
:100FF000E6F8300000F0A1FBE07C401CE074E07CEF
:10100000062805DA012194F9130011FA00F000E036
:101010003C204FF47A7110FB01F080B200F2F31023
:101020004FF4FA7190FBF1F0E083280040B276BDF6
:1010300010B5DFF8F00404681AE0206A008C411E45
:10104000226A118480B2012811D1200000F079F8C1
:101050000DE0206A00280AD0206A408C411E226AD6
:10106000518480B20128E8D1200000F078F824688B
:10107000002CEED110BD10B5DFF8A804046819E00B
:10108000206AC08B012814D1206AC08B401E216ABF
:10109000C883200000F011F80BE0206A002808D077
:1010A000206AC08B0228EBDB206AC08B401E216ABD
:1010B000C8832468002CF0D110BD10B50400206A4C
:1010C000817C0C2902D0817C062903D1200000F00C
:1010D00057F835E0817C01290DD1C07C062803DA60
:1010E0002000FFF727FF2BE0200000F0B5F92000DB
:1010F00000F046F824E0817C052903D1200000F0AF
:10110000AAF81DE0817C04290DD1C07C092803DAEE
:10111000200000F0EEF813E0200000F09DF9200020
:1011200000F02EF80CE0817C032909D1C07C022854
:1011300003DA200000F02CF902E0200000F020F893
:1011400010BD80B5016A8A7C012A05D08A7C0A2AF2
:1011500002D0897C052901D100F07DF801BD80B560
:10116000016A8A7C012A05D08A7C0A2A02D0897CFD
:10117000052901D100F0BDF801BD00009D0800085F
:101180007CB50600346A0020DFF8C0020068A06267
:101190000621200000F0CAF9300000F02BFA05000B
:1011A000280040B200283AD101223521200000F069
:1011B000C6F90121200000F0D5F9022239212000D2
:1011C00000F0BDF9318D200000F0D5F9042237215F
:1011D000200000F0B4F90121200000F0C3F9032140
:1011E000200000F0BFF91C21200000F0BBF906210F
:1011F000200000F0B7F9200000F0B0FAA18BF03128
:1012000089B2606903F039F900964323DFF81823A7
:101210006169606808F0D3FF300000F08EFAE07C6E
:10122000401CE074E07C062805DA012194F91300E3
:1012300011FA00F000E03C204FF47A7110FB01F04D
:1012400080B200F2F3104FF4FA7190FBF1F0E083FA
:10125000280040B276BD7CB50600346A0521200026
:1012600000F064F9300000F0C5F90500280040B234
:10127000002825D101223521200000F060F903214A
:10128000200000F06FF902223921200000F057F908
:10129000318D200000F06FF9200000F05FFAA18B83
:1012A000F03189B2606903F0E8F80096432314F145
:1012B00024026169606808F082FF300000F03DFAA6
:1012C000E07C401CE074E07C0A2805DAE07C4FF406
:1012D000FA6110FB01F001E044F6206080B200F2F8
:1012E000F3104FF4FA7190FBF1F0E083280040B264
:1012F00076BD7CB50600346A0421200000F016F9A2
:10130000300000F077F90500280040B2002824D111
:1013100001223521200000F012F90321200000F005
:1013200021F902223921200000F009F9318D200035
:1013300000F021F9200000F011FAA18BF03189B200
:10134000606903F09AF800964323774A6169606800
:1013500008F035FF300000F0F0F9E07C401CE0744C
:10136000E07C0A2805DAE07C4FF47A7110FB01F08A
:1013700001E042F2107080B200F2F3104FF4FA7103
:1013800090FBF1F0E083280040B276BD0001FEA999
:101390007CB50600346A0321200000F0C7F8300055
:1013A00000F028F90500280040B2002831D10122C0
:1013B0003521200000F0C3F80321200000F0D2F80E
:1013C00002223921200000F0BAF84FF410712000F9
:1013D00000F0D1F804223221200000F0B0F8A06A19
:1013E00001F053FE0100200000F0DBF8200000F0C7
:1013F000B5F9A18BF03189B2606903F03EF800962F
:101400004323494A6169606808F0D9FE300000F062
:1014100094F9E07C401CE074E07C0A2805DAE07C6A
:101420004FF47A7110FB01F001E042F2107080B2CB
:1014300000F2F3104FF4FA7190FBF1F0E083280012
:1014400040B276BD00FFFEA988DB0008A0DB0008E3
:1014500080DB00080000FFFF7CB50400256A0D2139
:10146000280000F063F8002068620020E862E86A63
:10147000A86200206863686B28630020E864A864A1
:1014800068640020A863200000F0B4F80600300073
:1014900040B200281CD101223521280000F04FF86D
:1014A0000721280000F05EF8280000F057F9A98B0A
:1014B000F03189B2686902F0E0FF0094432315F12E
:1014C00024026969686808F07AFE200000F035F9A6
:1014D000E87C401CE874E87C0A2805DAE87C4FF4D4
:1014E0007A7110FB01F001E042F2107080B200F25C
:1014F000F3104FF4FA7190FBF1F0E883200002F052
:1015000099FEDFF874572900200002F030FE290010
:10151000200002F061FE2900200002F064FE30008D
:1015200040B276BD00C20020A4DB00080A00837C24
:10153000D2B29A4202D081740021C174704710B4B3
:10154000838B5C1C848384699BB2234483F8F010F2
:10155000818B4B1C8383806989B2084480F8F0201A
:1015600010BC7047828B531C8383806992B21044F5
:1015700080F8F010704710B4828B531C83830B00EB
:101580009BB21B0A846992B2224482F8F030828BAB
:10159000531C8383806992B2104480F8F01010BC11
:1015A000704710B4828B531C83830B001B0E84691D
:1015B00092B2224482F8F030828B531C83830B005A
:1015C0001B0C846992B2224482F8F030828B531C47
:1015D00083830B001B0A846992B2224482F8F030A4
:1015E000828B531C8383806992B2104480F8F01080
:1015F00010BC704738B50500002D02D17FF00900FE
:101600009AE02C6A002C02D17FF0080094E00022BE
:101610004FF49A71002002F079FE60616069002841
:1016200002D15FF0FF3087E0E07C002804D1DFF8D2
:1016300098080168491C0160DFF88C080068206088
:1016400060694068A0610120A16908700120A1695A
:1016500048700620A16988700020A169C8702068C0
:1016600001F005FDA16948600020A1690881002002
:10167000A16948810020A169C860A17C0A2905D020
:10168000A17C052902D0A17C042902D1A1696A6844
:10169000CA60A1690861A1694861A16988610020E7
:1016A00013E000210BE0010095F82A2089B292B2E4
:1016B0009142F6D2010089B2294491F82B10A26917
:1016C00003009BB21A441177401C010089B2102913
:1016D000E9D3002007E00021A26903009BB21A446D
:1016E00082F82C10401C010089B24029F3D300205D
:1016F00007E00021A26903009BB21A4482F86C1033
:10170000401C010089B28029F3D3DFF8000901F001
:10171000AEFCA169C1F8EC000020A083002006E027
:10172000A169020092B2114481F8F000401C01004E
:1017300089B24429F4D3002032BD10B500280CD062
:10174000046A002C09D06069002802D0606902F0A8
:101750001CFF002060610020A06110BD002819D08E
:10176000818B4A1C8283FF22836989B2194481F8E4
:10177000F02008E0818B4A1C82830022836989B2B1
:10178000194481F8F020818B4429F3D3017F11F0B3
:10179000030FEFD170471CB5DFF8240A01F080FB7E
:1017A0000090DFF8204A2068002815D108F006FED6
:1017B0002060206800280FD00022DFF8BC142068C9
:1017C00008F080FD0022DFF8BC1A206808F0E8FD70
:1017D0006946002000F001F813BD0200D2B2022ACF
:1017E0000FDADFF8E0291268002A0AD0002908D0B1
:1017F0000A68002A05D00968DFF88C2AC0B242F8CE
:101800002010704780B5DFF8BC090068002801D0BF
:1018100000F011F901BD10B40B78491C1A00D2B2C6
:1018200012F0C002C02A03D110E0491C401C5B1E0C
:101830001A00D2B2002A05D002780C78A242F4D065
:10184000012004E0401C0A78002AE5D1002010BCE9
:1018500070470278401C1100C9B211F0C001C029C4
:1018600002D108E0401C521E1100C9B20029F9D172
:1018700001780029EDD1401C70472DE9F84305009F
:101880000E00904600224FF48871002002F03EFDC9
:101890000400002C5DD067680C210022B946484640
:1018A0000AF086F85FFA88F8404680B201F0D2FB71
:1018B00038800120B870012001F0CCFBB88017F10E
:1018C0000C01731E5B1C0A00491C002604E01878FA
:1018D0000870491C761C5B1C18782E2802D01878DA
:1018E0000028F4D1167018780028EBD10020087079
:1018F0004E1C012001F0AEFBADF80000012001F00C
:10190000A9FBADF8020004226946370038000AF04E
:101910009FF8311D6068091A89B2200002F0ADFD00
:10192000DFF8A068DFF8607935222800C0B207EB45
:101930008001306808F008FD3523EDB207EB850221
:101940002100306808F012FC0500200002F01DFEA6
:1019500001E05FF0FF35280040B2BDE8F28310B52A
:101960000200DFF828191300DBB24FF48C704343F8
:1019700001EB0304207800285BD0022812D002D3A8
:1019800003284AD056E00220207000206070012019
:10199000A0700020E070D2B214F10C016078FFF763
:1019A0006CFF47E0A078401EA070A078002833D1DB
:1019B000E078401CE070E078042825D16078401C75
:1019C00002280FDADFF8C008617800EB8100406878
:1019D000002807D06078401C60700120A0700020B3
:1019E000E07027E0D4F81001002807D0D4F81421C3
:1019F000002114F10C00D4F8103198470020207019
:101A00000020C4F8100115E0E078A070D2B214F103
:101A10000C016078FFF731FF0CE0A068401EA06069
:101A2000A068002804D1002020700020C4F8100114
:101A300000E0FFE710BD10B5002404E02000C0B2B4
:101A4000FFF78DFF641C2000C0B20428F6DB10BD38
:101A50002DE9FE431400208940F20121884253DA27
:101A600020891A2850DBDFF8B46A0023228931006C
:101A7000200002F053FE218980B2884240F09F800E
:101A8000B046B8F8000001F0E5FA0100C9B2042937
:101A900080F29580DFF8F427C0B24FF48C71484390
:101AA00002EB00052878022840F089800320287086
:101AB00098F8030010F00F006871B8F8040001F006
:101AC000C9FA8146B8F8060001F0C4FA070098F890
:101AD0000200000607D56879002804D15FFA89F969
:101AE000B9F1010F15D0D5F81001002807D0D5F8AD
:101AF0001421002115F10C00D5F810319847002071
:101B000028700020C5F81001200002F03EFDBDE85D
:101B1000F7830C36310015F10C00FFF77CFE00282E
:101B2000E1D13000FFF795FE001D06E0BDF808008A
:101B300001F090FA30440A307F1E3900C9B2002902
:101B40003CD0FFF786FE06000A223100E8464046F8
:101B500009F07EFFBDF8000001F084FA0128E5D10C
:101B6000BDF8020001F07EFA0128DFD1BDF80800BF
:101B700001F078FA0428D9D1019801F086FAA8601A
:101B8000A868DFF8B01A884202D3DFF8240BA860F7
:101B9000042216F10A0115F58676300009F058FF87
:101BA000D5F81001002808D0D5F8142115F5867154
:101BB00015F10C00D5F810319847A5E793E7A3E796
:101BC00038B5040008E025002468686802F0DDFCF0
:101BD00029000A2002F0E9F9002CF4D131BD70B5DA
:101BE000002443E01425DFF8E06B2000C0B2684316
:101BF00030442100C9B269433144C97B491CC173D7
:101C00002000C0B268433044807B022806D1200007
:101C1000C0B268433044C07BF0280DDA2000C0B267
:101C200068433044807B01281FD12000C0B2684344
:101C30003044C07B022818DB2000C0B26843305813
:101C400000280AD02000C0B268433058FFF7B8FF20
:101C500000202100C9B2694370502000C0B205FBCA
:101C600000F506EB050000218173641C2000C0B262
:101C70000A28B7DB70BD0000A0DB00082DE9F84F93
:101C800004000F000A220A230A2600205FF0000C3D
:101C90005FF0000E0A255FF00008002C1CD0142015
:101CA000DFF84C1CDFF8209B91F800A000FB0AFA3B
:101CB000CA449AF80EA0BAF1020F0DD1D4F800A0D0
:101CC00091F800B000FB0BF048444068824503D116
:101CD00091F9000040B2F5E000201DE00100C9B21A
:101CE00009FB01F15AF8011000294BD00100C9B2DB
:101CF00009FB01F15144C97BC3465FFA8BFB59458F
:101D000009D305006DB20100C9B209FB01F90AEB64
:101D1000090191F80F80401C0100C9B20A2977DA45
:101D2000310049B20A290FD1DFF89C9A82465FFA46
:101D30008AFA142101FB0AFA09EB0A01897B0029BE
:101D400002D1060076B2E6E75FF01409DFF878AA60
:101D50000100C9B209FB01F15144897B012927D156
:101D6000002CBBD0216883465FFA8BFB09FB0BFB81
:101D7000D344DBF804B05945B0D1DFF8741B0870C8
:101D800040B29FE00100C9B209FB01F15144C97B97
:101D9000E3465FFA8BFB5945BDD3020052B2010006
:101DA000C9B209FB01F90AEB090191F80FC0B2E7CA
:101DB0000100C9B209FB01F15144897B0229AAD172
:101DC000002C0AD0216883465FFA8BFB09FB0BFBD2
:101DD000D344DBF804B0594515D00100C9B209FB62
:101DE00001F15144C97BF3465FFA8BFB594592D30D
:101DF00003005BB20100C9B209FB01F90AEB09015A
:101E000091F80FE087E7DFF8E81A087040B259E070
:101E1000300040B20A2818D117F00307012F16D15D
:101E2000300040B20A2815DAF6B235001420DFF887
:101E300098192A00D2B242430A4400239373002C1B
:101E400034D0002C2CD100222BE0B807E8D55FF06D
:101E5000FF3037E0180040B20A2802DADBB21D007A
:101E6000E4E7100040B20A2802DAD2B21500DDE73A
:101E7000280040B20A2810DAEDB21426DFF84879BB
:101E80002800C0B270433858FFF79AFE002029009E
:101E9000C9B206FB01F6B851C8E75FF0FF3011E0A8
:101EA00022682B00DBB243430B445A602A00D2B2B3
:101EB00000FB02F008440021C173DFF8340A05700A
:101EC000280040B2BDE8F28F00000020F8B5040001
:101ED0000D006E6806210DE0491E0800C0B2185CB6
:101EE0000F00FFB2F0550800C0B2105C0F00FFB247
:101EF0003744B8710800C0B20028EDD14FF400603B
:101F000001F0A8F8B08129002000A2699047F2BD35
:101F10002DE9F8430C0090461E00002C16D02168D5
:101F2000002913D005002900200001F0DAFB002869
:101F30000CD15FF0704001F0A8F807005FF060403E
:101F400001F0A3F821680F40874202D17FF0090019
:101F50005AE03100C9B22000FFF790FE04002000D3
:101F600040B2002802D5200040B24DE01426DFF830
:101F70001079200040B210FB06F038440221817332
:101F8000200040B210FB06F03844056106210DE048
:101F9000491E200040B210FB06F038440A00D2B2BD
:101FA00010440A00D2B218F8022002720800C0B22F
:101FB0000028EDD1200040B210FB06F0384400218B
:101FC000C17319E0200040B210FB06F039580868D0
:101FD000220052B212FB06F2B850D1F804900A2047
:101FE00001F0E3FF434615F12B0249462800FFF7B5
:101FF0006DFF484602F0C9FA200040B210FB06F01F
:1020000038580028DED10020BDE8F2836353826394
:1020100038B5002810D04A6812F10E04E3688168D0
:102020000B40456881680D40AB4205D10023921DED
:1020300014F10C01FFF76CFF31BD2DE9FE430400E4
:102040000F00002C00F0BA80160070892A2803DAED
:10205000300002F09AFAB1E0D6F8049019F10E08B7
:10206000012000F0F7FFB8F8001080B281421AD1C9
:1020700040F2046000F0EEFFB8F8041080B2814234
:1020800011D14FF4006000F0E5FFB8F8021080B203
:10209000814208D140F6060000F0DCFFB9F80C10D0
:1020A00080B2814203D0300002F06FFA86E04146F0
:1020B0002000FEF7D9FE042218F10E016D4628001B
:1020C00009F0C6FC042218F1180101AD280009F03E
:1020D000BFFC6068002801D1002506E00198616816
:1020E000884201D1012500E000252800C0B2002867
:1020F00007D0012318F1080269462000FFF708FF06
:1021000006E0002318F1080269462000FFF700FFEF
:10211000B8F8060000F09EFF012802D0022849D03E
:1021200049E0EDB2002D44D0022000F093FFA8F862
:102130000600D8F80E00C8F818000422211D18F176
:102140000E05280009F084FC0621606A002806D0EC
:10215000606A0079002802D0DFF88C2B01E018F1CA
:1021600008021DE0491E0800C0B24044007A0B007E
:10217000DBB2434498740800C0B2105C0B00DBB2C1
:1021800009F803000800C0B2385C0B00DBB243441E
:1021900018720800C0B2385C0B00DBB24B44987177
:1021A0000800C0B20028DDD131002000A2699047AC
:1021B000FFE700E0FFE7300002F0E7F9BDE8F78352
:1021C0002CDB0008D0C10020FEB504000D00160075
:1021D0000E21280002F085F9002802D07FF00100CE
:1021E0000EE000202100300001F07BFA002808D02A
:1021F000DFF8F43A14F12B0229002000FFF766FE05
:10220000FEBD5FF0704000F040FF07005FF06040EF
:1022100000F03BFF31680F4087421DD101208DF84F
:10222000000000208DF801005E208DF8020030686B
:1022300000F02BFF000C10F07F008DF803003068D9
:1022400000F023FF000A8DF80400306800F01DFF45
:102250008DF805006B46CDE73168A06801406268E3
:10226000A0680240914204D0E068002807D014F131
:102270000C062A003100200000F00AF8C0E77FF0C9
:102280000300BDE7511A0008B8C10020C0B5002006
:102290002DE9F84F82460D0014001AF12B0B5FF068
:1022A000FF365146280001F01CFA002811D15FF0DA
:1022B000704000F0EAFE07005FF0604000F0E5FECD
:1022C00029680F40874204D0002D02D028680028DA
:1022D00002D17FF009009AE001212800FFF7CEFC2F
:1022E0000700380040B2002802D5380040B28EE026
:1022F0005FF01408DFF88895380040B210FB08F052
:102300004844807B002806D1380040B210FB08F01A
:10231000484401218173380040B210FB08F0484462
:10232000807B012801D0002C04D12900504600F008
:10233000E1F80600002C68D0380040B210FB08F02D
:102340004844807B02280CD17FB217FB08F0484438
:1023500010F108035A4621005046FFF7B7FD06006A
:1023600053E0380040B210FB08F04844807B01285D
:102370004BD10021200000E00068002803D0027B40
:10238000012AF9D00121002912D00022018903205D
:1023900001F0BCFF0500002D0ED02100280002F046
:1023A0005CF9002808D0280002F0EFF8002503E0CF
:1023B0002500280002F028F9002D26D00A2001F07F
:1023C000D8FD010000291DD0002008604D603800B4
:1023D00040B210FB08F059F8000000280BD07FB283
:1023E00017FB08F059F8002000E012681068002878
:1023F000FBD1116004E07FB217FB08F049F8001030
:10240000002602E0280002F0C0F8300040B2BDE82B
:10241000F28F2DE9F0470500894690469A46002044
:1024200000222A21032001F071FF0400002C02D1B8
:102430005FF0FF305CE00B98666816F10E0780B223
:1024400000F008FEF8800621099A686A002806D084
:10245000686A0079002802D0DFF88C881FE01EE04F
:10246000491E0800C0B21AF800000B00DBB23B4462
:1024700018720800C0B2105C0B00DBB23B449874C9
:102480000800C0B218F800000B00DBB2F0540800DE
:10249000C0B219F800000B00DBB233449871080099
:1024A000C0B20028DCD10A9908980068C7F80E006D
:1024B0000868B861012000F0CDFD38804FF400605D
:1024C00000F0C8FD788040F2046000F0C3FDB880E1
:1024D00040F6060000F0BEFDB08121002800AA6988
:1024E00090470500200002F050F80020280040B27C
:1024F000BDE8F087F8B5012203920291DFF8741964
:102500000191011D009110F12B03DFF8DC2710F180
:102510002B01FFF77EFF05B000BD000020BA0020B0
:1025200038B504000D006068808900F093FD80B22A
:10253000B0F5006F04D040F60601884215D01BE0CC
:1025400021002800FFF764FD7FF00D01200001F05D
:10255000C8FF002804D0200002F017F8002003E094
:102560002900200000F088FE0AE0220015F12B016E
:102570002800FFF762FD03E0200002F006F80020CB
:10258000002032BD3EB50400062084F82A00022057
:1025900084F82B00002084F82C00002084F82D0003
:1025A000002084F82E00002084F82F00002084F8FA
:1025B000300040F2DC502085222084F83100DFF822
:1025C000B8080460DFF8B4582868002804D1002156
:1025D000142002F0CBF9286014F12B01002002F046
:1025E00052FF0522DFF89818DFF8980803F070F81A
:1025F000DFF894580522DFF89418280003F03DF81E
:10260000002405E001216001284403F084F8641CE3
:10261000052CF7D3002001900420009000234FF4F4
:10262000AF72DFF86C18DFF86C0803F099FF02F066
:10263000F8FE37BD813A09002DE9F0410C00002574
:10264000DFF85468306800280ED1032200210120F1
:1026500002F062F930603068002805D000230022C3
:102660000021306802F08CF9FA21306802F0C8FAD3
:1026700000281AD0DFF824080068876809E062891A
:10268000616807EB0508404609F0E2F960892D18FA
:102690002468002CF3D1280080B202F07DFF0023D3
:1026A00000220021306802F06BF90020BDE8F081C3
:1026B000803A09002DE9FF410026002000256846E8
:1026C00002F0F8FE02980068000418D40099019FF7
:1026D000032289B2032001F019FE0500002D0ED05F
:1026E0002C000AE0628907EB0601D4F8048040461A
:1026F00009F0AEF9608936182468002CF2D1DFF8B1
:10270000282910688068022802D31068016800E058
:102710000299002004E05FF000430B60C968401C90
:1027200013689B689842F6D3002011688860DFF830
:10273000FC080168090605D5802101600020DFF84A
:10274000F0180860280004B0BDE8F08138B56421B5
:10275000DFF82807006802F053FA0128F7D1DFF804
:1027600018572868FFF7A6FF0400296820002A6888
:10277000126990470028EAD0200001F006FF0020EF
:10278000E5E780B5732180F83210742180F83310AA
:10279000DFF8A0184161DFF8A0188161FFF7F2FEB1
:1027A0000022DFF8981841F2883003F06EFD002017
:1027B00002BD80B5FFF713FA0022DFF8801841F25E
:1027C000883003F062FD01BDF8BD002070B5040043
:1027D000002503F0C2FFDFF868683068002803D1E5
:1027E00000F071F801203060002C0BD0DFF85408A5
:1027F0000088241814F0070F04D014F1080014F016
:102800000704041B002C37D044F2F830844233D242
:10281000DFF834281300116801E00B0009684868EC
:10282000A04202D208680028F7D1DFF820088142D0
:1028300022D0DFF810081D68068835440E681E6037
:10284000008840004B681B1B98420FD201EB04002C
:102850004B681B1B43604C60436800E012681468BF
:1028600064689C42FAD3136803601060DFF8E027C5
:10287000136848681B1A136003F075FF280070BDC9
:10288000F8BD002010B5010000281BD0DFF8B40708
:102890000088404201EB000403F05FFF6168DFF84D
:1028A000A80700E00068026852688A42FAD301680B
:1028B00021600460DFF898170A68606882180A606F
:1028C00003F051FF10BDDFF8A409C008C000DFF815
:1028D0007817086000224A60DFF8701744F2F83277
:1028E0004A6000230B6042600160704700000000F6
:1028F000C2C200202DE9FE43050088466E6830887C
:1029000000F0B0FBC0F3032000B28700390009B229
:10291000494209B2280001F0E4FD002802D12889CB
:10292000042803D2280001F030FE3FE068680078F8
:10293000C0B2082840F0A38001245FF0704000F08E
:10294000A4FB81465FF0604000F09FFB316919EA0B
:102950000109814500D10024414616F1100000F024
:10296000C0FE002800D00024002C03D1280001F074
:102970000CFE1BE028890828D4D3280000F011FCA5
:10298000002803D0280001F000FE0FE022212800DB
:1029900001F0A7FD00283FD0390009B2280001F05E
:1029A000A0FD002804D0280001F0EFFDBDE8F7836A
:1029B00000222989022001F0A9FC0400002CF2D099
:1029C0002900200001F049FE0028ECD1666839009A
:1029D00009B2494209B2200001F083FD0028E2D18A
:1029E000280001F0D2FD25006C68F0683169F160C3
:1029F0003061002020704FF2FF7000F02BFB6188E7
:102A000080B2814210D34FF4006000F023FB618854
:102A1000401C401860800EE07FF02101280001F08A
:102A200060FD0028E0D0BEE74FF4006000F012FB2C
:102A3000618840186080308900F014FB50F47F40BA
:102A400080B200F007FB308100207081142130003B
:102A500000F0A0FB7081390009B2280001F041FDAF
:102A600000280CD1CDF808800120019000200090B2
:102A7000FF23002216F10C01280000F031FD280090
:102A800001F083FD92E780B50A00D2B2032100F085
:102A900008F801BD80B50A00D2B20B2100F001F8A0
:102AA00001BD2DE9FE4307008846914600222421FE
:102AB000012001F02BFC0400002C26D07D68666804
:102AC00086F8008086F801900020B0800020F08019
:102AD0001C227968606810F10807380008F0B8FF18
:102AE000002070806189300000F054FB708001206C
:102AF000019000200090FF2315F10C02002120001E
:102B000000F0D2FD200001F040FDBDE8F78380B564
:102B1000DFF85C0700F0ABFADFF858170860DFF861
:102B2000B40900F0A4FADFF8B019086001BD38B5A7
:102B30000400DFF840572900200000F039F8002891
:102B40000ED002214173017C491C0174A06B002846
:102B500004D0012229002000A36B9847002001E047
:102B60005FF0FF3032BD38B50500DFF8700904684A
:102B700007E06068A84203D10521200000F0D6F8E4
:102B80002468002CF5D131BD10B40200DFF84C09E7
:102B9000006800E00068002807D043689342F9D13C
:102BA0000B6884689C42F5D100E0002010BC70479F
:102BB00070B506000C00DFF82459286821003000A9
:102BC000FFF7E2FF002816D10B2001F0D2F9002810
:102BD00011D04660002C01D1002100E02168816005
:102BE0000021C18100214173002101730021017482
:102BF00029680160286070BD2DE9F0410500884614
:102C000014006868008800F02DFA80B2C0F3032039
:102C1000810009B2494209B2280001F062FC002893
:102C200002D16889082803DA280001F0AEFC58E0D8
:102C30006E686989300000F0ADFA002803D02800E2
:102C400001F0A3FC4DE021004046FFF79DFF002866
:102C500003D1280001F099FC43E03178112902D01A
:102C6000162931D03AE02168DFF808763A689142B7
:102C700019D17168002916D17078002801D10A2075
:102C80007070DFF858080468002C1CD0606840455C
:102C900007D1A0683968884203D07178200000F01D
:102CA00045F82468F0E7816800290CD021683A686B
:102CB000914203D1311D4046FFF766FF002802D044
:102CC000717800F033F809E0417B012905D100213A
:102CD000C1810221417300210173FFE7280001F047
:102CE00054FCBDE8F081000080DB000810B5DFF87F
:102CF000EC0704680CE0E089002808D0E089401E59
:102D0000E081E089002802D1200000F004F8246866
:102D1000002CF0D110BD80B5417B012902D11621D4
:102D200000F041F801BDC9B2C181704710B504007F
:102D3000607B022808D0607B012810D1E0890A005E
:102D4000D2B292B290420AD2C9B2022091FBF0F004
:102D50000100C9B22000FFF7E6FF0120607310BD3B
:102D6000F8B586B004000D0016001F0049F20440BB
:102D700000F070F9ADF814000020ADF81600042042
:102D8000049005A803900D9802909DF830000190E2
:102D9000002000903B00DBB232002900200000F050
:102DA000B2FB07B0F0BD2DE9FF4180460D000020C9
:102DB00000200421002202AC200008F0F9FD0026CA
:102DC00000220821002001F0A1FA0400002C4ED0BE
:102DD0006768D8F80400001D002802D10020029086
:102DE00003E0D8F80400406802902800C0B216281A
:102DF0000ED118F1080618F10800002801D10020B2
:102E000001E0D8F808007860012088F80C000EE096
:102E10002800C0B217280AD1DFF8BC6618F10800F4
:102E2000002801D1002001E0D8F8080078602800CF
:102E3000C0B2162803D02800C0B2172814D13D70A4
:102E400000207870002078800821380000F0A2F976
:102E50007880D8F80400019002200090012332000D
:102E600002A92000FFF77CFF200001F08EFBBDE8E7
:102E7000FF81000088DB0008D4C10020D8C10020F9
:102E80001C92002060BF0020C0BE002058740020AB
:102E900068DB00084D270008DCC1002014C20020B8
:102EA00080B5694600F007F8002801D0009801E0DD
:102EB0005FF0FF3002BD7FB50C006A46037803E087
:102EC0001160121D401C03781900C9B230390A295B
:102ED00013D200210A251E00F6B2302E19D1401C53
:102EE00003781D00EDB2782D03D01D00EDB2582DF2
:102EF00005D11025401C03780BE0002092E0082546
:102F000007E02E00F6B2DBB2303B06FB0131401C7D
:102F100003781E00F6B2303E0A2EF2D32E00F6B22F
:102F2000102E1ED11E00F6B2303E0A2E09D31E000E
:102F3000F6B2613E062E04D31E00F6B2413E062EC6
:102F40000FD21E00F6B2613E1A2E01D2612600E0B9
:102F50004126DBB20A339B1B53EA0111401C037864
:102F6000D7E71D00EDB22E2D04D103AB9A42A7D3B3
:102F7000002057E01800C0B2002818D01800C0B2D6
:102F8000202814D01800C0B20C2810D01800C0B2ED
:102F90000A280CD01800C0B20D2808D01800C0B202
:102FA000092804D0DBB20B2B01D000203AE06846A0
:102FB000121A9210521C002A06D0022A07D005D3FA
:102FC000042A19D00CD326E000202BE023E0B1F135
:102FD000807F01D3002025E0009851EA00611AE0CB
:102FE000B1F5803F01D300201CE00098019A120443
:102FF00052EA006211430EE0B1F5807F01D3002058
:1030000010E06846009A43681B0453EA0263806834
:1030100053EA00231943002C03D0080000F027F8DE
:103020002060012004B070BD1CC20020149002403A
:1030300008900240C921000839260008B32700087B
:10304000E0C100206EBC0008C0C10020C8C1002043
:10305000040000200100080080B2000A50EA0120AC
:1030600080B2704780B580B2FFF7F4FF02BD010067
:10307000080210F47F0050EA01600A00120A12F4FC
:103080007F42104350EA1160704780B5FFF7EFFFB1
:1030900002BD10B5002208E003781B02441C207812
:1030A0000343601C12FA83F2891E0B009BB2022BB1
:1030B000F2DA89B2002903D00078000212FA80F215
:1030C00090B210EB1240010C0904002902D081B229
:1030D00011EB104080B2FFF7BDFF10BD2DE9F843A2
:1030E00004000E00170098465FF0000900251EE05E
:1030F00061896068FFF7CDFF19FA80F081461FFAF9
:1031000089F919EB10496089022190FBF1F201FB6A
:10311000120000280AD0D5F101055FEA092111F457
:103120007F41C9F30720894650EA09092468002C29
:10313000DED1EDB2002D08D05FEA092111F47F4104
:10314000C9F30720894650EA0909089C306819FA32
:1031500080F0316810EB1140396810FA81F5386859
:1031600015EB10455FFA88F8404680B2FFF772FF12
:1031700015FA80F5200080B2FFF76CFF15FA80F099
:1031800081B211EB104188B210EB1140C04380B204
:10319000BDE8F28380B589B2FFF77BFFC04380B200
:1031A00002BD70B50400002600251BE0618960683F
:1031B000FFF76FFF16FA80F00600B6B216EB104666
:1031C0006089022190FBF1F201FB1200002808D077
:1031D000D5F10105310211F47F41C6F307200E003D
:1031E00006432468002CE1D1EDB2002D06D0310257
:1031F00011F47F41C6F307200E000643F64330006A
:1032000080B270BD80B503F052F900F079FE01F094
:1032100012FFFDF7A9FCFFF77AFCFEF7BCFA01BD2F
:1032200038B50500DFF8B005046800E02468002C1C
:103230000ED0200001F009F80028F7D02968A06816
:1032400001406268A06802409142EFD120000CE08A
:10325000DFF8A84C2068002804D0206800F0F5FFB3
:10326000002801D1002000E0206832BD4400002089
:10327000010000E0E8C100202DE9F0470600884683
:103280000127D6F80490B9F80000FFF7EBFE80B2F2
:10329000000B80B2042804D0300001F076F9002041
:1032A00015E1B9F80000FFF7DDFEC0F3032080B29E
:1032B0005FEA800AB9F80200FFF7D4FE04007089C3
:1032C000514689B2884204D33089210089B28842AC
:1032D00004D2300001F059F90020F8E0514689B2DB
:1032E0004846FFF757FF002804D0300001F04DF9A1
:1032F0000020ECE0210089B2300001F0BEF85FF060
:103300007040FFF7C2FE04005FF06040FFF7BDFEB3
:10331000D9F810100C40844242D198F83100400690
:103320003CD519F110014046FFF72EFC002835D09E
:103330004446002C12D1B9F80800FFF793FE00F0C4
:10334000FF0011280AD11FFA8AFA09EB0A00408807
:10335000FFF788FE442801D144460027002F47D0BC
:10336000D9F80C00002843D0414619F10C0000F0B8
:10337000B8F900280DD15FF07040FFF786FE050018
:103380005FF06040FFF781FED9F80C100D408542D8
:103390002ED1300001F0F9F8002098E00024C8E7B1
:1033A00001254446200000F050FF002811D0201DC8
:1033B00000280ED0606800280BD0D9F81000616892
:1033C000884212D0210019F1100000F08AF900287B
:1033D0000BD1002D0AD00025DFF8FC03046844451A
:1033E00000D12468002CDDD1A3E7A2E72468F6E72A
:1033F000002C04D1300001F0C8F8002067E043F64B
:10340000FF70FFF727FEB9F80610014209D030001F
:1034100000F0ECFA0600002E01D1002057E0D6F8AB
:103420000490DFF82C4CC4F80080DFF8285CC5F865
:1034300000904146300001F044FD002842D1B9F827
:103440000800FFF70FFE00F0FF00C0B201280FD008
:10345000022812D0062806D0112815D14146300086
:1034600006F054FD2EE04146300004F07FFA29E0DA
:1034700041463000FFF73EFA24E019F110024146C0
:103480003000FFF7B9FB1DE0414619F1100000F0D4
:1034900028F9002813D15FF07040FFF7F6FD070010
:1034A0005FF06040FFF7F1FDD9F810100F40874240
:1034B00005D0C6F8049002213000FFF7E4FA30008E
:1034C00001F063F800202060002028600020BDE8A3
:1034D000F0870000020000E0ECC10020E4C1002001
:1034E00018B585B000240494002403940A9C029427
:1034F0009DF8244001949DF820400094DBB200F038
:1035000002F806B010BD2DE9F84F07000D001400B9
:103510009B46DDF83080002C00F0AC800E9E5FF002
:1035200014090020300080B200282ED016F1030AC2
:103530004FF6FC7010EA0A0A1AEB0909514609B263
:10354000380000F0CEFF002802D07FF00100A9E093
:103550000D99320092B278680090009808F078FADD
:1035600000983000514680B289B288420DD21FFACD
:103570008AFA300080B2BAEB000A5146002278681D
:10358000B6B20644300008F013FA1421380000F0F7
:10359000A8FF002802D07FF0010083E00B9ED7F83F
:1035A00004A0BAF80800FFF75DFD00F0FF005FFA25
:1035B0008BFB50EA0B2080B2FFF74CFDAAF8080005
:1035C000BAF80800FFF74EFDF6B280B2000A56EADC
:1035D0000026300080B2FFF73DFDAAF80800002C5D
:1035E00001D1002100E021680A98CAF8101049466C
:1035F00089B2042291FBF2F1C0B250EA012050F4EA
:10360000804080B2FFF726FDAAF800003889FFF756
:1036100021FDAAF802000020AAF80600DFF8B86A27
:103620003088FFF717FDAAF804003088401C30806E
:10363000002D02D0286800280AD118F104000028C3
:1036400001D1002001E0D8F80400CAF80C0006E01F
:10365000002D01D1002000E02868CAF80C000020ED
:10366000AAF80A00494689B25046FFF793FDAAF826
:103670000A0002E0786810F11004B8F82800002869
:103680000AD0B8F828003989884205D2220041467C
:10369000380000F087FA05E0220039004046D8F8EB
:1036A00014309847BDE8F28FFEB504000D001600F7
:1036B0001F003000FFF7B4FD0100002802D17FF0A9
:1036C00003000DE002919DF8240001909DF8200078
:1036D00000903B00DBB2320029002000FFF700FF22
:1036E000FEBD10B40368DA43002A01D0002B01D1DB
:1036F00001201BE091F83120920701D4002015E051
:103700004A68934201D1002010E0026888680240B4
:103710004C6888680440A24207D18868834388685F
:10372000C043834201D1012000E0002010BC70475B
:1037300038B50025DFF8A409046804E0E07F401EE6
:10374000E07725002468002C08D0E07F0028F5D120
:1037500020002468290000F002F8F4E731BD2DE9CB
:10376000F04107000D000026002D78684168888828
:10377000002816D17C6808687860142217F10801C7
:10378000D4F80480404608F063F901212000FFF7D7
:1037900081F9200000F02FFF56FA80F6200000F09B
:1037A000F4FE7C680AE06068A0460468404600F0C9
:1037B00022FF56FA80F6404600F0E7FE002CF2D1D8
:1037C0002900380000F074F8DFF814090188891B1B
:1037D00001803000BDE8F08100C20020F8B504008F
:1037E0000D000026002000230027DFF8F0180968EC
:1037F00012E0C27F91F81FC0624508D3080006E0BE
:103800000022002A03D07F1C0028F2D108000A6899
:10381000002A00D00B000968002910D0E268D1F816
:1038200014C0944509D12269D1F818C0944504D137
:103830008A89B4F804C06245E2D00122E1E7002899
:1038400003D01900FFF78BFF8619AE4201DA022F71
:10385000C8DA3000F2BD70B505000E00052000F09A
:1038600088FB0400002C0DD131002800FFF7B6FFC3
:10387000B04203DB052000F07CFB0400002C01D1EA
:10388000002014E0202100222600300008F090F8EB
:103890000320E077DFF84408016821600460142207
:1038A00014F108062900300008F0D2F8200070BD9D
:1038B00080B5DFF828281368834202D101681160BF
:1038C00001E002680A600100052000F06EFB01BD06
:1038D0002DE9F84307000E0000240125D6F80490D6
:1038E000B9F80200FFF7BEFB8046B9F80000FFF709
:1038F000B9FB1FFA88F880B2C0F30320B8EB800848
:10390000B9F80600FFF7AEFBC004C00C80B2C000DF
:10391000716800220A60888018EB0000C88078680F
:1039200010E08888938898423DD08888D388984250
:103930003AD3002C04D0E0889388984200D0002528
:1039400010681400002823D042688B88B2F804C0A5
:103950006345E6D20860002C19D08B88B4F806C005
:10396000634503D39288CB889A420ED2300000F090
:1039700042FEDFF86C170A88C0B2101A08803000C7
:1039800000F003FE0020BDE8F283266000E07E60C8
:1039900000280BD1002C08D02660E0888A8890424D
:1039A00004D0002502E0E1E7E0E77E60B87FC007D1
:1039B0001AD5002D16D0786840688088002801D07C
:1039C00000250FE00A00086801E00A0008680028E6
:1039D00005D04168D0888A889042F6D00025002D15
:1039E00000D008682800CEE70020CCE72DE9F84F8A
:1039F00005000026D5F80480B8F80000FFF732FB78
:103A000080B2C0F303208000142805D0280000F005
:103A1000BCFD0020BDE8F28FB8F80600FFF722FBDE
:103A2000C004C00C80B25FEAC009B8F80200FFF71A
:103A300019FB8246B8F80000FFF714FB1FFA8AFA58
:103A400080B2C0F30320BAEB800A280000F0D3FD57
:103A50008346DFF88C76388850FA8BF006280CDB2A
:103A60005946C9B24046FFF7B9FE002804D038884D
:103A700050FA8BF0062800DBC8E7DFF86006046820
:103A800001E026002468002C13D0D8F80C006169EE
:103A900081420BD1D8F81000A169814206D1A089DA
:103AA000B8F80410884201D1012000E0002000286D
:103AB000E7D0002C08D15946C9B24046FFF7CBFEEB
:103AC0000400002C14D1A1E7B8F80600FFF7CAFAE9
:103AD000C0040DD1E089FFF7C5FAC00408D0142254
:103AE000414614F108000090009807F0B1FF0098DB
:103AF000388850FA8BF03880B8F80600FFF7B2FA31
:103B0000800407D4A07F50F00100A0771AEB0909C8
:103B1000A4F81C9029002000FFF7DAFE00283FD00F
:103B2000A08B1430A0836068406805686068D0F896
:103B30000480142214F10801C146484607F088FFAA
:103B4000A08BFFF787FAA8F802000020A8F806006B
:103B50000020A8F80A0014214046FFF71BFBA8F834
:103B60000A00D4F804800CE0D5F804907FF013012B
:103B7000280000F0B6FC2900404600F051FDD9F8BD
:103B80000050002DF0D131002000FFF791FE40469B
:103B900000F031FD3988C0B2081A3880404639E754
:103BA000002037E72DE9F24F84B007001400049895
:103BB000008DADF80000142602220021022000F042
:103BC000A5FB0500002D02D15FF0FF309CE00297BD
:103BD000BDF80000688168892881DFF8E80630F0C8
:103BE000030068606F68142202984168B846404636
:103BF00007F02EFFF888FFF735FA5FEAC0495FEA61
:103C0000D94910F40050ADF8040002980089B0F1D1
:103C10001408BDF800001438082190FBF1F0ADF84D
:103C20000200039412E02900200000F00DFD039A29
:103C300021000498049B5B699847200000F0A5FCD4
:103C4000B8EB0A08BDF8020010EB0909404680B243
:103C5000002855D0BDF800001438414689B288428A
:103C600001DB012400E00024E4B2BDF804B05FEA07
:103C7000C940C00C50EA0B0B200080B2002801D1D3
:103C80005BF4005B200080B2002801D0C24604E053
:103C9000BDF8020080B25FEAC00A33009BB2524610
:103CA00092B217F11401029800F038FD86195846B7
:103CB00080B2FFF7CFF9F8801AF1140080B2FFF755
:103CC000C9F978800020788114213800FFF762FA62
:103CD0007881A4B2002C05D018F1140189B2280013
:103CE00000F0CBFB00220021022000F00FFB0400BB
:103CF000002C98D1280000F048FC5FF0FF3003E072
:103D0000280000F042FC002005B0BDE8F08F10F163
:103D1000080141605FF0FF31816010F10801C1606E
:103D200010F108010161002101607047002101616B
:103D3000704742684A6093688B60936859609160ED
:103D400008610168491C0160704710B40B6813F1E9
:103D5000010F01D1026907E010F1080200E052688A
:103D600054682468A342FAD253684B604B68996048
:103D70008A60516008610168491C016010BC70478D
:103D80000169826843689A60426883685A604A6839
:103D9000824201D182684A60002202610868401EA6
:103DA000086008687047020052B2002A09D509016C
:103DB000DFF8142540B210F00F00104400F8041C86
:103DC00004E00901DFF8042540B21154704780B5C2
:103DD000B0F1807F01D3012013E020F07F40401E2E
:103DE000DFF8EC1408600F215FF0FF30FFF7DBFF16
:103DF0000020DFF8E01408600720DFF8DC1408601A
:103E0000002002BD10B586B000F05CF8012104204E
:103E100002F06DF84FF40050009001208DF804007E
:103E200000208DF8060000208DF8070002208DF894
:103E30000500DFF8A8446946200001F04EFF4FF46A
:103E40000051200001F09DFF002005F099FF06F0D1
:103E50003FF805F073FF02A801F0EBFF03984FF461
:103E60007A71B0FBF1F0FFF7B2FFDFF874145FF482
:103E7000E1300860002088800020C8800020088190
:103E8000002088810C204881002005F0A0FFDFF889
:103E90005444012240F22551200002F08FF9012202
:103EA00040F22771200002F089F901F01FFD00F0B7
:103EB000E6F806F0D3FA02F029FC4FF47A7000F02D
:103EC00012F8FAE780B527208DF8000000208DF861
:103ED000010000208DF8020001208DF803006846E3
:103EE00000F080F801BD01B4DFF8FC130098086011
:103EF00008680028FCD101B07047000004C200200F
:103F000070B4002000E0401C010089B20F29FADBE8
:103F1000DFF8D80330F0030000211BE00C00A4B24E
:103F200052F8244004600C00A4B242F82400DFF8E8
:103F3000C0430D00ADB234F8154020445B1C1C009A
:103F4000DFF8B0530E00B6B235F81650A4B2AC424A
:103F5000E4D3491C0A0092B20F2A08DADFF898234A
:103F600000230C00A4B242F824300023E7E770BC21
:103F7000704738B505002800C0B20F2801DB0020CB
:103F800012E002F0E2FADFF870132A00D2B251F820
:103F90002240002C05D02268EDB241F825202100F6
:103FA000042102F0D7FA200032BD38B505000C001C
:103FB000002C0FD02000042002F0C7FADFF83813DD
:103FC0002A00D2B251F822202260EDB241F82540F9
:103FD00002F0C0FA31BDDFF824130843DFF82013E4
:103FE00008607047002100210F23C178002922D0EA
:103FF000DFF80C13096811F4E061D1F5E061090AFA
:10400000D1F10402DBB20B41417811FA02F281785E
:104010000B401A431201DFF8B4120378CA5401218D
:10402000027812F01F029140DFF8D8220078401188
:1040300042F820100AE00121027812F01F0291409C
:10404000DFF8C4220078401142F8201070470000C9
:10405000F0C10020F4C1002010B50400002C0DD0E8
:104060002068002806D0206800F08FFA00206060E9
:104070006068206021000620FFF797FF10BD10B593
:1040800086B00021002005F03CFEDFF87808FEF73E
:10409000EEFF05907FF0FF00FEF7E9FF0490DFF8E8
:1040A0006808FEF7E4FF0390DFF86048DFF8600877
:1040B0000290DFF8600801900020009003AB04AA92
:1040C00005A9200000F00EF8200000F093F8200071
:1040D00000F094F806B010BDB8C20020F8C100206E
:1040E000BAC20020F8B50400069E079D0898002774
:1040F00067600027A7600027E760002784F8317019
:1041000000272762002767620027A763E661DFF8C0
:104110008069377884F8347037787F1C3770206175
:10412000200000F014F82000A847002801D000204B
:104130000CE0DFF8600901682160046094F8310048
:10414000400602D52000FEF7F2FC2000F2BD70B55B
:10415000040015001E00200000F009F829002000CE
:1041600000F041F83100200000F036F870BD70B565
:1041700005000C0020686968884226D0DFF8780ABC
:10418000006804E0C668012102F0BCFE300000288F
:1041900005D001686A689142F4D0C068F7E7DFF89B
:1041A0005C0A00680FE021680BE000280AD0016873
:1041B000002907D001686A68914203D1002CF2D12E
:1041C00000210160C0680028EFD1002C01D100203F
:1041D00000E02068686070BD002901D1002200E085
:1041E0000A68C2607047002901D1002200E00A6815
:1041F00082607047DFF8A0180860704710B50400AF
:1042000094F83100C00714D494F8310050F0010044
:1042100084F8310094F83100800603D5211D200078
:10422000FEF768F994F83100400602D52000FEF749
:104230009AFC10BD90F83110C90705D590F83110DF
:1042400011F0FE0180F83110704790F8310010F045
:1042500001007047704710B502F077F90021DFF8D0
:10426000D42A117002F076F9DFF88C09046800E0B6
:10427000E468002C08D0E06F0028F9D0E06F03F06C
:10428000C5F90020E067FFE710BD38B502F05DF921
:10429000DFF8A04A25780121217002F05BF9EDB228
:1042A000002D0DD100220021DFF88C0A05F0DAFC88
:1042B000002805D002F049F90021217002F04AF9E6
:1042C00031BD0000E3AF002018ED00E000E400E0A5
:1042D00014E000E018E000E010E000E00008024018
:1042E0009CC1002000480040FCC100203F44002049
:1042F000E8D9000808DA000864C000200000FA05C8
:104300000CED00E000E100E080E100E0F8B50D0018
:1043100016000027C0B2002805D0022805D003D31C
:10432000032819D019E0143714370E373000C0B203
:1043300000286CD0022800F08D80C0F08B8003280C
:1043400040F099800E20FFF714FE0400002C06D1E7
:10435000FFF79BFF002059E0E8E7002056E02673B6
:1043600000202060380080B220441030C01C30F0A3
:1043700003006060606804202581280080B2390055
:1043800089B2C91C31F00301D1F5FA71884201DA12
:104390002F0005E0FF1C4FF6FC700740D7F5FA77B9
:1043A00067810120E0812700ADB260892D1A1AE0F3
:1043B0004FF4FA710CE00673002141730021016093
:1043C00038600581290089B2B1F5FA7FF0DA290059
:1043D000418110F110014160416804210121C18136
:1043E00041896D1A0700012D0BDB0E20FFF7C1FD7F
:1043F0000028E0D1FFF749FF200000F0C6F80020B8
:1044000004E00120E081002060732000F2BD38004C
:1044100080B2133080088000290089B2C91C31F0B5
:104420000301081806F0BAF80400002C01D100209E
:10443000ECE7BFB204EB07001030C01C30F0030003
:10444000606025812089608100202060267360687B
:104450000420D6E70D20FFF78CFD0400002C01D1CD
:104460000020D3E700206060258120896081002042
:1044700020602673C5E70020C8E738B504000D00AA
:104480002800218980B288422AD2280080B221895E
:10449000411A05E060892D1A2089081820812468B6
:1044A00060892A0092B29042F4D3207B00280CD17C
:1044B0002800618980B2884207D06068001B10FA2A
:1044C00085F12000FFF7C6FE040065816089208128
:1044D0002068002802D0206800F057F800202060F3
:1044E00031BD30B40A0012B2002A01D0002801D137
:1044F000002044E00A0012B2002A0AD50D002DB2B5
:104500006D4242892B009BB29A4201D2012036E0D3
:1045100001E00D00ADB2037B44681A0092B2002A9C
:1045200003D01A0092B2032A0DD142680B001BB2CD
:104530005B421A444260426810F110039A4217D25B
:10454000446001201BE01A0092B2022A02D09BB202
:10455000012B18D10A0012B2002A12D54289ADB23D
:10456000AA420ED342680B001BB25B421A4442605F
:1045700042898A184281028989180181002030BC51
:1045800070470120FBE70120F9E770B50400002C1B
:1045900001D100202EE0002504E0200007F0F6FA0B
:1045A0006D1C3400002C23D001F0CFFFE189491E9F
:1045B000E181E68901F0CEFFB6B2002E16D1266861
:1045C000207B010089B2032904D121000E20FFF7CE
:1045D000ECFCE5E7010089B2012902D080B2022893
:1045E000DBD121000D20FFF7E0FCD9E70024D9E75B
:1045F0002800C0B270BD0100002001E0401C096825
:104600000029FBD1C0B2704710B50400002C06D0C1
:1046100001F09BFFE189491CE18101F09BFF10BD86
:10462000002801D0002900D10DE004E003890A89A7
:10463000D318038100680268002AF7D103890A8928
:10464000D31803810160704710B50C002100FFF7FB
:10465000E7FF2000FFF7D8FF10BD2DE9F843050064
:104660000C0000270026002D05D0002C03D028893F
:104670002189884202D27FF0090047E06989380029
:1046800080B2091A6289300080B2121A914204DBAA
:10469000B4F80A80B8EB060803E0B5F80A80B8EB76
:1046A0000708424692B26068310089B201446868E6
:1046B0003B009BB200EB0309484607F0C9F918EB31
:1046C000070718EB06063800698980B2884201D1D5
:1046D00000272D683000618980B2884201D300260E
:1046E0002468002C06D060892189884202D1206884
:1046F00000280DD1002D06D068892989884202D171
:104700002868002807D1002CB8D10020BDE8F2832A
:104710007FF00800FAE77FF00800F7E72DE9F0479F
:1047200004000D0090460027002C01D100203FE03E
:10473000002D01D100203BE00026002C01D0002DEF
:1047400001D1002034E02BE0B4F80A90B9EB030962
:104750004046494680B289B2884200D2C1464A46A4
:1047600092B260689BB200EB0301300080B205EBAF
:10477000000A504607F06CF919EB070719EB06061B
:10478000B8EB090800230AE0180080B20028DBD04B
:104790001800618980B28842D6D360891B1A2468C8
:1047A000404680B2002801D0002CEDD1380080B204
:1047B000BDE8F087001F5FF080730360001F4908A9
:1047C00049000160001FDFF88C1801601438026096
:1047D000001F7FF00201016020387047BF2080F386
:1047E0001188BFF34F8FBFF36F8FFEE780B5DFF8FF
:1047F0006808016851F47F010160016851F07F4150
:10480000016005F073FE0020DFF85018086007F023
:1048100009FADFF84C08016851F04041016007F0E7
:10482000F1F9002002BDBF2080F31188BFF34F8F44
:10483000BFF36F8FDFF824080168491C01607047DF
:10484000DFF818080168491E01600068002802D1DD
:10485000002080F31188704780B5BF2080F3118855
:10486000BFF34F8FBFF36F8F01F0E8FF002804D034
:104870005FF08050DFF8EC170860002080F31188AB
:1048800001BD38B505000C00FFF7CDFF2968EA6BC4
:10489000286C424301EB0200A8600020A86328684E
:1048A00068602968EA6B521E286C424301EB0200E3
:1048B000E8605FF0FF3085F8440085F84500002C83
:1048C00012D12869002817D015F1100002F064F801
:1048D000002811D05FF08050DFF888170860BFF320
:1048E0004F8FBFF36F8F07E015F11000FFF70FFA3E
:1048F00015F12400FFF70BFAFFF7A2FF012032BDEC
:10490000000000000A01A8C00100A8C0A0C000204B
:10491000179C000883270008F8B506000D00170053
:10492000002D01D1002001E005FB06F04830FDF725
:104930004DFF0400002C09D0200010F14802009423
:104940003B00DBB22900300000F002F82000F2BD8D
:1049500080B5029B002901D11B6000E01A60D8637A
:10496000196401211800FFF78CFF01BD10B50C0080
:1049700002220021FFF7D0FF002800D0846310BD81
:10498000F7B505000E001F00002430E00298002853
:104990005CD0002C03D1684602F034F80124FFF704
:1049A0004FFF01F0DAFEFFF73EFF95F9440010F1EA
:1049B000010F02D1002085F8440095F9450010F15F
:1049C000010F02D1002085F84500FFF739FF02A949
:1049D000684602F01FF8002852D1280000F062FA61
:1049E000002837D1280000F018FA01F0BCFEFFF7CC
:1049F0001AFFA86BE96B884201D3022FC6D13A0097
:104A00003100280000F0B1F9696A00290FD015F1D2
:104A1000240001F0C1FF002814D05FF08050DFF8BF
:104A200044160860BFF34F8FBFF36F8F0AE0002872
:104A300008D05FF08050DFF82C160860BFF34F8F6E
:104A4000BFF36F8FFFF7FCFE01201FE0FFF7F8FEBA
:104A500000201BE0029915F1100001F08EFF2800E4
:104A600000F0DBF901F07FFE0028C0D15FF080503C
:104A7000DFF8F0150860BFF34F8FBFF36F8FB6E715
:104A8000280000F0CAF901F06EFE0020FEBD000013
:104A9000C3C2002000C2002004C2002038B50C00B0
:104AA000EFF31185BF2181F31188BFF34F8FBFF35F
:104AB0006F8F816BC26B91421BD290F94520491CCC
:104AC000816311005FF0FF3349B299420CD1416A12
:104AD00000290CD0243001F05FFF002807D0002C03
:104AE00005D00120206002E0521C80F84520012002
:104AF00000E0002085F3118832BDF7B506000F00F5
:104B0000002404E0300000F088F901F02CFEFFF7EB
:104B10008AFEB56B002D06D1029800281FD1FFF741
:104B20008FFE002065E03900300000F061F96D1E55
:104B3000B563306900280ED016F1100001F02CFF8B
:104B4000002808D05FF08050DFF818150860BFF328
:104B50004F8FBFF36F8FFFF773FE012049E0002CEA
:104B600003D1684601F04EFF0124FFF769FE01F012
:104B7000F4FDFFF758FE96F9440010F1010F02D141
:104B8000002086F8440096F9450010F1010F02D18B
:104B9000002086F84500FFF753FE02A9684601F0A1
:104BA00039FF00281AD1300000F06EF90028A9D092
:104BB000029916F1240001F0E0FE300000F02DF91A
:104BC00001F0D1FD0028A2D15FF08050DFF89414ED
:104BD0000860BFF34F8FBFF36F8F98E7300000F08E
:104BE0001CF901F0C0FD300000F04EF900288ED015
:104BF0000020FEBD000000006CC2002068C2002042
:104C000073B582B006000024002504E0300000F0F7
:104C100004F901F0A8FDFFF706FEB06B002806D1ED
:104C20000398002821D1FFF70BFE002080E0401EF2
:104C3000B0633068002802D102F074F8B0603069C7
:104C400000280ED016F1100001F0A6FE002808D0B2
:104C50005FF08050DFF80C140860BFF34F8FBFF394
:104C60006F8FFFF7EDFD012062E0002C03D1684655
:104C700001F0C8FE0124FFF7E3FD01F06EFDFFF730
:104C8000D2FD96F9440010F1010F02D1002086F800
:104C9000440096F9450010F1010F02D1002086F87A
:104CA0004500FFF7CDFD03A9684601F0B3FE0028DB
:104CB00025D1300000F0E8F80028A7D0306800289F
:104CC00007D1FFF7B0FDB06801F054FF0500FFF712
:104CD000B7FD039916F1240001F04FFE300000F0FB
:104CE0009CF801F040FD002895D15FF08050DFF87E
:104CF00074130860BFF34F8FBFF36F8F8BE73000E3
:104D000000F08BF801F02FFD300000F0BDF8002816
:104D10003FF481AF002D0AD0FFF785FD300000F091
:104D20001AF80100B06801F0BBFFFFF789FD002011
:104D300004B070BDC4C200205742000810B5040082
:104D4000FFF771FDA46BFFF77BFD200010BD80B560
:104D5000FDF798FD01BD416A002904D0006B006891
:104D6000D0F1050000E0002070472DE9F041060079
:104D700015000027B46B306C002809D1306800287A
:104D800031D1B06801F048FF07000020B0602AE090
:104D9000002D0FD1326C7568280006F059FE70683E
:104DA000316C084470607068B16888421BD3306809
:104DB000706018E0326CD6F80C80404606F048FE71
:104DC000F068316C49420844F060F068316888420C
:104DD00004D2B068316C49420844F060022D02D11F
:104DE000002C00D0641E641CB4633800BDE8F08160
:104DF00010B50C00016C00290ED0C168026C114482
:104E0000C160C1688268914201D30168C160026CCF
:104E1000C168200006F01CFE10BD70B50400FFF74D
:104E200002FD94F9455008E014F1240001F0B4FDAE
:104E3000002801D001F01AFE6D1E280040B20128A2
:104E400002DB606A0028EFD15FF0FF3584F845503F
:104E5000FFF7F6FCFFF7E7FC94F9446008E014F173
:104E6000100001F099FD002801D001F0FFFD761E31
:104E7000300040B2012802DB20690028EFD184F81D
:104E80004450FFF7DDFC70BD10B50400FFF7CBFC0C
:104E9000A06B002801D1012400E00024FFF7D0FC22
:104EA000200010BD10B50400FFF7BDFCA06BE16B46
:104EB000884201D1012400E00024FFF7C1FC20005A
:104EC00010BD2DE9F04706000027D6F80480B8F899
:104ED0000800FEF7C7F8814609F0FF090024DFF853
:104EE00088A1DAF800501FE0287C494600B209B2D8
:104EF000884217D16869002814D018F10C033200D9
:104F00002900A869D5F814C0E04700280AD0002677
:104F10000127002C06D0E868E060DAF80000E860BD
:104F2000CAF800502C00ED683800C0B2002801D14A
:104F3000002DD9D13800C0B2BDE8F087002901D1D9
:104F4000002200E00A68026000207047002901D1B9
:104F5000002200E00A6842600020704741618261DF
:104F60007047FEB505000E00170014213000FFF752
:104F7000B8FA00281CD0002200210120FFF7C6F952
:104F80000400002C02D15FF0FF3036E03100200039
:104F9000FFF75AFB3800FEF743F90200002812D150
:104FA000B44202D02000FFF7F0FA7FF0030024E0C3
:104FB00034007FF013012000FFF793FA0028E9D0B6
:104FC0005FF0FF3019E0002D02D02868002801D1E1
:104FD000111D00E029000292287C0190A87A00901F
:104FE000EB7A3A002000FEF77BFA0500B44202D0CB
:104FF0002000FFF7CAFA280040B2FEBD80B5021DAE
:10500000FFF7AFFF02BD70B505000020FEF7B1FF4E
:105010000400002C0DD01C2100222600300006F0D8
:10502000C7FC2574FF20E072DFF83C000168E160F6
:105030000460200070BD80B5012001F0ECF9DFF8BC
:105040002C100860012001F0E6F9DFF82410086058
:1050500001BD0000DD47000820ED00E00800002051
:1050600034EF00E004ED00E008C200200CC2002094
:1050700010C2002001B481B000200090019800907F
:1050800002E00098401E009000980028F9D102B07C
:10509000704780B501215FF0007000F058FF0021DB
:1050A0005FF0007000F053FF01BD0121016000219D
:1050B0004160002181600021C160002101614FF445
:1050C00080414161002181610021C1614FF4006193
:1050D000016200214162002181620021C162002140
:1050E000016300214163002181630021C1634021EC
:1050F000016420214164002181640021C1640021F8
:10510000016500214165002181650021C165002103
:10511000016680214166002181660021C16600216F
:10512000016700214167002181670021C1675FF0AD
:105130008061C0F880105FF00071C0F88410002218
:10514000C0F888205FF40012C0F88C200022C0F85C
:1051500090200022C0F894200022C0F8982000225D
:10516000C0F89C200022C0F8A020C0F8A4105FF472
:105170008031C0F8A8105FF48001C0F8AC104FF483
:105180000051C0F8B0100021C0F8B4100021C0F8E0
:10519000B81070472DE9F84185B004000D000020DB
:1051A000002000200090DFF8F4663000002000901E
:1051B000DFF80877D7F8008038F01C0801A800F065
:1051C00038FE0299DFF8D806081ADFF8D826904290
:1051D00002D258F008081AE0DFF8CC06081ADFF807
:1051E000CC26904202D258F00C0810E08E1BDFF85B
:1051F000C00686420BD3DFF8BC06091ADFF8B806F2
:10520000814202D258F0040801E058F01008C7F8B3
:1052100000804FF400420021280080B200F00FFB14
:10522000002801D10020F9E0DFF89406FFF722FF03
:10523000206800284CD00098401C009001212800D4
:1052400080B200F0CFFA400704D40098DFF87C1653
:105250008842F0D3DFF874660098B04201D1002094
:10526000DCE0002000904FF480520021280080B242
:1052700000F0E5FA002801D10020CFE00098401CA2
:1052800000900121280080B200F0ACFA800602D420
:105290000098B042F2D30098B04201D10020BDE0A6
:1052A000002000901021280080B200F09BFA4107F6
:1052B00003D54FF40061216201E0002121628007E3
:1052C00002D50020606116E04FF48040606112E07A
:1052D000206A6269520852EAD00292B20021280084
:1052E00080B200F0ACFA002801D1002096E07FF0F7
:1052F0007F40FFF7BFFEDFF8CC150A68DFF8C8056E
:1053000002406368A0680343E068034320690343E5
:1053100060690343A0690343E0690343206A0343D0
:10532000606A0343A06A0343E06A0343206B0343BC
:10533000606B03431A430A60A16BE06B0143206C6E
:105340000143606C0143A06C0143E06C0143206D9C
:105350000143606D0143DFF878050160A06DDFF85F
:1053600074150860E06DDFF870150860DFF86C25D3
:1053700011684FF641700140206E636E53EA00439E
:10538000A06E0343E06E0343206F0343606F03434B
:1053900019431160A16FE06F0143DFF8440501601C
:1053A000DFF840251168DFF840050140D4F880306F
:1053B000D4F884000343D4F888000343D4F88C0065
:1053C0000343D4F890000343D4F894000343D4F883
:1053D00098000343D4F89C000343D4F8A00003438F
:1053E00019431160DFF82C15D4F8A420D4F8A800D4
:1053F0000243D4F8AC000243D4F8B0000243D4F81E
:10540000B40052EA8002D4F8B800024352F4000219
:105410000A60086850F080000860012006B0BDE80E
:10542000F08180B5012000F00CF800F0B2F9012005
:1054300000F018F8012000F0B3F9012000F0C1F9E4
:1054400001BDC0B2002806D0DFF87804016851F031
:105450000801016005E0DFF86C04016831F0080123
:1054600001607047C0B2002806D0DFF85804016818
:1054700051F00401016005E0DFF84804016831F0F3
:105480000401016070474B790A7952EA0322DFF880
:1054900024351B181A60CB788A78120452EA03620A
:1054A0004B7852EA032209780A43DFF86416081899
:1054B000026070471FB401A900220023002481E884
:1054C0001C00002100910AE0DFF848270B681468EF
:1054D00023600123126893600A68D2680A60DFF8CB
:1054E00034160A681268002A4ED4009A052A4BD254
:1054F000009A521C00920A681268920503D50A6845
:105500001268D205E0D50A681268D2050ED40A687E
:10551000126892050AD4DFF8FC2613689B685B1CAE
:10552000126893600A68D2680A60D8E7DFF8E42658
:105530000B681468636013689B685B1C1468A36045
:1055400013689B68012B02D10B68146823600B68F9
:105550001B68C3F30D431B1F019313689B68022B49
:1055600004D3126812689268029202E00A68926894
:1055700002920A6803920A68D2680A6001A991E857
:105580001C0080E81C0004E001A991E81C0080E8F0
:105590001C001FBC70470000F0B401000020002078
:1055A0000020DFF8742610680068002801D500206C
:1055B00061E01368080080B240F2F554A04211DBAC
:1055C000080080B240F2F45490FBF4F4080080B27A
:1055D00040F2F45590FBF5F605FB1600002802D0CA
:1055E000641C00E00124012C14D11068006850F004
:1055F00040501368186089B2C904C90C1068416032
:105600001068006850F00040116808601068C068B9
:10561000106024E000201FE0002805D115682D68E7
:1056200055F080551668356040F2F4565E60651E90
:10563000A8420BD11D6855F000551D600F00BFB288
:10564000651E06FB1575ED04ED0C5D601D6855F0DB
:1056500000451D60DB68401CA042DDD31360DFF80D
:10566000BC050168490705D5042101600020DFF869
:10567000B01508600120F0BC704730B40023DFF89B
:1056800094341860002317E0E06014E05C010444E7
:105690005FF00045256044F2F455656040F2F45532
:1056A00005FB03F50D44A560551EAB42ECD25D0130
:1056B00005442035E5605B1C9342E7D3DFF86415B1
:1056C0000860DFF86405DFF84C15086030BC7047EF
:1056D00030B40023DFF840351860002314E0E060A8
:1056E00011E05C0104445FF48015256040F2F4553C
:1056F00005FB03F50D44A560551EAB42EFD25D01DD
:1057000005442035E5605B1C9342EAD3DFF81C15A5
:10571000086030BC7047C9B2002904D0416821F04C
:105720000041416003E0416851F000414160704731
:10573000DFF8E001016851F00101016070470020CD
:10574000DFF8D0010068C00701D5012000E000208B
:10575000C0B270470021DFF8C4140968014201D0CB
:10576000012000E00020C0B27047C9B2002905D076
:10577000DFF8BC140A681043086005E0DFF8B014D5
:105780000A6832EA000008607047DFF89014086089
:105790007047DFF85001016851F4801101607047D3
:1057A000C0B2002806D0DFF83C01016851F4005176
:1057B000016005E0DFF82C01016831F4005101605F
:1057C0007047C0B2002806D0DFF81801016851F018
:1057D0000201016005E0DFF80C01016831F002010F
:1057E0000160704781B0002200220092334B1A689A
:1057F00012F01C0280B2C00210F47840104389B24B
:10580000890111F4F861084330F0020050F0010002
:1058100018600098401C00901868C00703D50098D5
:105820002A498842F5D300982849884201D10020AE
:1058300003E0DFF80004006880B201B0704718B4DC
:105840000023002300931D4C236813F01C0380B237
:10585000C00210F47840184389B2890111F4F8614C
:10586000084350F0020050F0010092B2DFF8C41378
:105870000A6020600098401C00902068C00703D593
:10588000009812498842F5D300981049884201D106
:10589000002000E0012012BC704700000087930345
:1058A000002D3101C0E1E400C00E160240787D01F8
:1058B000005A620200E1F50580F0FA021080024011
:1058C000FFFF0F00008002400F8120FFFFFF040058
:1058D00004800240088002400C8002401880024090
:1058E0001C80024018900240233FDEF880B500F093
:1058F00063F800F011F900F00FF8DFF83C030068DE
:10590000002800D1FEE7012000F01BF900F042F969
:1059100001BD00000090024000B5AFB001215FF072
:10592000606000F0E4FAFFF7B4FBFFF701FFFFF758
:1059300006FF0128FBD06846FFF7B7FB0120009067
:10594000002007904FF400700A9000200B90002078
:105950000E90002011900020139000201490002041
:105960001590002020905FF0007021905FF40011EE
:10597000239100212591002126910421289129902D
:105980005FF480302A905FF480002B904FF4005039
:105990002C904FF480402E9001216846FFF7FAFBCF
:1059A000DFF8941208600121DFF89002FFF7DDFEB6
:1059B0002FB000BD408002401CB5012140F2E7102D
:1059C00000F095FA01214FF4804000F0B0FA4FF456
:1059D0008070009003208DF8050002208DF80400EF
:1059E00000208DF8060000208DF80700DFF85042F7
:1059F0006946200000F071F9862000906946200079
:105A000000F06BF90B220121200000F0BCF90B2201
:105A10000221200000F0B7F90B220721200000F03E
:105A2000B2F94FF490700090DFF8184269462000F8
:105A300000F053F90B220521200000F0A4F90B22FD
:105A40000821200000F09FF93E200090DFF8F84187
:105A50006946200000F041F90B220121200000F0EE
:105A600092F90B220221200000F08DF90B22032174
:105A7000200000F088F90B220421200000F083F9B7
:105A80000B220521200000F07EF94FF4D040009059
:105A9000DFF8B8416946200000F01FF90B220B2106
:105AA000200000F070F90B220D21200000F06BF9AE
:105AB0000B220E21200000F066F9CC200090DFF8C8
:105AC00090416946200000F008F90B2202212000D5
:105AD00000F059F90B220321200000F054F90B22A9
