:020000040800F2
:1001840080B483B000AF03463960FB7197F9073040
:10019400002B10DA4FF46D43CEF20003FA7902F02B
:1001A4000F02A2F104013A68D2B24FEA0212D2B2AB
:1001B4000B441A760DE04FF46143CEF2000397F935
:1001C40007103A68D2B24FEA0212D2B20B4483F853
:1001D400002307F10C07BD4680BC704780B582B090
:1001E40000AF78607A686FF07F439A4202D94FF08B
:1001F40001031FE04EF21003CEF200037A6822F0EE
:100204007F4202F1FF325A604FF0FF304FF00F018E
:10021400FFF7B6FF4EF21003CEF200034FF00002D8
:100224009A604EF21003CEF200034FF007021A60F8
:100234004FF00003184607F10807BD4680BD00BF14
:1002440080B588B002AF07F1040318460AF0BEF87F
:10025400BA6844F6D353C1F26203A3FB02134FEA14
:1002640093131846FFF7BAFF4FF000037B610CE0CD
:100274007B69DAB240F28463C2F2000379690B4409
:100284001A707B6903F101037B617B69412BEFDD0C
:100294004FF0000000F0F8FD00F034FF40F20C7065
:1002A400C2F2000001F0D6F90346002B00F08B8067
:1002B4004FF47A7000F092F84FF0000000F04EFE18
:1002C4004FF47A7000F08AF84FF0000000F046FE18
:1002D4004FF4FA7000F082F84FF0000300934FF0EF
:1002E4006403019340F20C70C2F200004FF08101EC
:1002F4004FF004024FF0000301F03CF84FF4FA70A1
:1003040000F06CF84FF0420300934FF06403019344
:1003140040F20C70C2F200004FF082014FF0040270
:1003240040F28463C2F2000301F024F84FF4FA703F
:1003340000F054F84FF0420300934FF0640301932C
:1003440040F20C70C2F200004FF0D2014FF00802EC
:1003540040F2C863C2F2000301F00CF84FF4FA70E3
:1003640000F03CF84FF000037B610CE07B69DAB2EB
:1003740040F28463C2F2000379690B441A707B690A
:1003840003F101037B617B69412BEFDD4FF0000337
:100394007B6114E040F28463C2F200037A6913447F
:1003A4001A7840F2C863C2F2000379690B441B78DF
:1003B4009A4200D0FEE77B6903F101037B617B690C
:1003C400412BE7DD00E0FEE74FF0000000F0C6FD42
:1003D4004FF47A7000F002F8F6E700BF80B483B0FF
:1003E40000AF78607A6840F26843C2F200031A6092
:1003F40000BF40F26843C2F200031B68002BF8D12F
:1004040007F10C07BD4680BC704700BF80B400AF45
:1004140040F26843C2F200031B68002B0BD040F289
:100424006843C2F200031B6803F1FF3240F26843E1
:10043400C2F200031A60BD4680BC70474FF000044E
:10044400EFF309842046704723461846034683F396
:10045400098870474FF00004EFF308842046704782
:1004640023461846034683F30888704790B482B045
:1004740000AF4FF000037B60EFF312847C607B6875
:10048400184607F10807BD4690BC704780B483B096
:1004940000AF78607B6883F3118807F10C07BD46D1
:1004A40080BC704790B482B000AF4FF000037B6013
:1004B400EFF310847C607B68184607F10807BD469B
:1004C40090BC704780B483B000AF78607B6883F3DE
:1004D400108807F10C07BD4680BC704790B482B009
:1004E40000AF4FF000037B60EFF313847C607B6804
:1004F400184607F10807BD4690BC704780B483B026
:1005040000AF78607B6883F3138807F10C07BD465E
:1005140080BC704790B482B000AF4FF000037B60A2
:10052400EFF314847C607B68184607F10807BD4626
:1005340090BC704780B483B000AF78607B6883F36D
:10054400148807F10C07BD4680BC704790B484B092
:1005540000AF78604FF00003FB607B681CBAFC605E
:10056400FB68184607F11007BD4690BC704700BFF2
:1005740090B484B000AF0346FB804FF00003FB60EF
:10058400FB885CBAFC60FB68184607F11007BD469F
:1005940090BC704790B484B000AF0346FB804FF02A
:1005A4000003FB60FB88DCBAFC60FB68184607F1BB
:1005B4001007BD4690BC704790B484B000AF78601B
:1005C4004FF00003FB607B6893FAA3F4FC60FB68C4
:1005D400184607F11007BD4690BC704790B484B02C
:1005E40000AF78604FF00003FB737B68D3E84F4F94
:1005F400FC73FB7B184607F11007BD4690BC70479F
:1006040090B484B000AF78604FF00003FB817B6846
:10061400D3E85F4FFC81FB89184607F11007BD46FC
:1006240090BC704790B484B000AF78604FF0000382
:10063400FB607B6853E8004FFC60FB68184607F1D9
:100644001007BD4690BC704790B484B000AF034619
:100654003960FB714FF00003FB603B68FA79C3E833
:10066400442FFC60FB68184607F11007BD4690BC98
:10067400704700BF90B484B000AF03463960FB807C
:100684004FF00003FB603B68FA88C3E8542FFC601A
:10069400FB68184607F11007BD4690BC704700BFC1
:1006A40090B484B000AF786039604FF00003FB6011
:1006B4003B687A6843E80024FC60FB68184607F14D
:1006C4001007BD4690BC704784000108000000205C
:1006D40068040020680400207007002080B584B0FE
:1006E40000AFF860B9607A603B600FF033FC0346FA
:1006F4004FF016021A604FF0FF33184607F1100747
:10070400BD4680BD80B485B000AFF860B9607A6042
:100714003B604FF00003184607F11407BD4680BC48
:10072400704700BF80B485B000AFF860B9607A60EC
:100734003B603B68184607F11407BD4680BC704710
:1007440080B483B000AF786039604FF0000318467E
:1007540007F10C07BD4680BC704700BF80B584B06C
:1007640000AF7860396040F26C43C2F200031B684A
:10077400002B08D140F26C43C2F2000340F27072C5
:10078400C2F200021A6040F26C43C2F200031B681A
:10079400FB6040F26C43C2F200031A683B681A44DF
:1007A4006B469A4208D90FF0D5FB03464FF00C0272
:1007B4001A604FF0FF330CE040F26C43C2F20003C6
:1007C4001A683B681A4440F26C43C2F200031A6090
:1007D400FB68184607F11007BD4680BD80B584B09C
:1007E40000AFF860B9607A6078684FF000014FF0AC
:1007F4003C020FF0B5FB7B684FF400525A604FF097
:100804000003184607F11007BD4680BD80B483B0CD
:1008140000AF786039604FF00103184607F10C0708
:10082400BD4680BC704700BF80B500AF4FF4605335
:10083400C4F202034FF46052C4F20202126842F09E
:1008440001021A604FF46053C4F202034FF0000235
:100854009A604FF46053C4F202034FF46052C4F23E
:100864000202126822F0847222F480321A604FF479
:100874006053C4F2020343F21002C2F200425A600F
:100884004FF46053C4F202034FF46052C4F2020204
:10089400126822F480221A604FF46053C4F20203F7
:1008A4004FF00002DA6000F0C3F84FF46D43CEF26B
:1008B40000034FF000629A60BD4680BD80B487B0EB
:1008C40000AF4FF000033B614FF000037B614FF03A
:1008D4000203FB604FF00003BB604FF002037B6038
:1008E4004FF46053C4F202039B6803F00C033B61B2
:1008F4003B69042B0DD0082B15D0002B6BD140F293
:100904000003C2F200034FF41052C0F2F4021A6062
:100914006BE040F20003C2F2000347F64002C0F26B
:100924007D121A6061E04FF46053C4F202035B6805
:1009340003F480034FEA9353BB604FF46053C4F253
:1009440002035B6803F03F037B60BB68002B15D098
:1009540047F64003C0F27D137A68B3FBF2F24FF41A
:100964006053C4F20203596847F6C07301EA0303F3
:100974004FEA931303FB02F37B6114E04FF410532B
:10098400C0F2F4037A68B3FBF2F24FF46053C4F29A
:100994000203596847F6C07301EA03034FEA93134D
:1009A40003FB02F37B614FF46053C4F202035B6800
:1009B40003F440334FEA134303F101034FEA4303C3
:1009C400FB607A69FB68B2FBF3F240F20003C2F207
:1009D40000031A6009E040F20003C2F200034FF47E
:1009E4001052C0F2F4021A6000BF4FF46053C4F214
:1009F40002039B6803F0F0034FEA131240F204036E
:100A0400C2F200039B5CDBB23B6140F20003C2F222
:100A140000031A683B6922FA03F240F20003C2F2AF
:100A240000031A6007F11C07BD4680BC704700BF75
:100A340080B483B000AF4FF000037B604FF000033D
:100A44003B604FF46053C4F202034FF46052C4F2AB
:100A54000202126842F480321A604FF46053C4F206
:100A640002031B6803F400333B607B6803F101035A
:100A74007B603B68002B03D17B68B3F5A06FECD19E
:100A84004FF46053C4F202031B6803F40033002BD9
:100A940003D04FF001033B6002E04FF000033B60E2
:100AA4003B68012B69D14FF46053C4F202034FF445
:100AB4006052C4F2020292689A604FF46053C4F226
:100AC40002034FF46052C4F20202926842F40042FC
:100AD4009A604FF46053C4F202034FF46052C4F2BC
:100AE4000202926842F4A0529A604FF46053C4F236
:100AF400020343F61942C0F240525A604FF4605365
:100B0400C4F202034FF46052C4F20202126842F0CB
:100B140080721A6000BF4FF46053C4F202031B6872
:100B240003F00073002BF6D04FF47053C4F20203A9
:100B340040F203721A604FF46053C4F202034FF49C
:100B44006052C4F20202926822F003029A604FF4E7
:100B54006053C4F202034FF46052C4F2020292687A
:100B640042F002029A6000BF4FF46053C4F20203E1
:100B74009B6803F00C03082BF6D107F10C07BD4664
:100B840080BC704780B48BB000AF034679603A6094
:100B94007A684FEAD2723A627A684FEA42027A621B
:100BA4004FF02002FA6127E0396A3A68C2EB010289
:100BB400BA61BA696FEA02024FEAD2727A617A695B
:100BC400002A01D0BA693A623A6A4FEA42023A62AA
:100BD4007A6A002A03DA3A6A42F001023A627A6ACD
:100BE4004FEA42027A62796A7A6941EA02027A62D7
:100BF400FA6902F1FF32FA61FA69002AD4DC3A6A2E
:100C04004FEA52023A623A6A3A617A6AFA601A46DA
:100C140007F10C0103C982E80300184607F12C0709
:100C2400BD4680BC704700BF80B586B000AF4FF0B2
:100C34000100C0F220004FF0010109F01BFD4FF04C
:100C440000504FF0010109F099FD4FF010033B6192
:100C54004FF003033B754FF00003FB7507F11003DE
:100C64004FF00000C4F20200194607F0A7FA4FF053
:100C740004033B604FF040037B604FF43063BB6080
:100C84004FF00003FB603B464FF00000194604F0B0
:100C9400A3FB4FF000004FF0010104F0F5FB4FF00F
:100CA40000004FF4005104F0B3FC07F11807BD46EF
:100CB40080BD00BF80B584B000AF4FF010004FF08E
:100CC400010109F05BFD07F1040318460CF00AFE6C
:100CD4004FF00F03BB604FF00003BB804FF00003E5
:100CE400BB814FF00003FB8007F104034FF48050F5
:100CF400C4F2000019460CF079FD4FF48050C4F2A0
:100D040000004FF020010EF043F94FF48050C4F27C
:100D140000004FF001010CF003FF07F11007BD467E
:100D240080BD00BF80B59AB000AF4FF480004FF093
:100D3400010109F09FFC4FF480704FF0010109F0AC
:100D440049FD46F21040C4F2020005F0C1F84FF02C
:100D540000037B6042F24C03C4F20103BB6040F227
:100D64008063C2F20003FB604FF000033B614FF06D
:100D740001037B614FF00003BB614FF00003FB6193
:100D84004FF400633B624FF400537B624FF4807373
:100D9400BB624FF40033FB624FF000033B634FF040
:100DA40001037B634FF00003BB634FF00003FB635D
:100DB40007F1040346F21040C4F20200194605F09C
:100DC400A9F946F21040C4F202004FF0010105F007
:100DD4004DFA4FF000033B644FF000037B644FF087
:100DE4000003BB644FF00003FB6407F140031846A3
:100DF40000F08CFF4FF000033B654FF0000387F8D1
:100E040054304FF0010387F855304FF00003BB65B1
:100E14004FF000033B664FF0010387F8643007F19D
:100E240050034FF40050C4F20100194600F0E4FEF0
:100E34004FF40050C4F201004FF0010101F012FA26
:100E44004FF40050C4F201004FF010014FF00102C2
:100E54004FF0010301F05EF84FF0010001F00EF8CD
:100E64004FF40050C4F201004FF0010101F016FAF2
:100E74004FF40050C4F201004FF0010100F092FF62
:100E840007F16807BD4680BD80B584B000AF034656
:100E9400FB71FA7940F24C03C0F6010353F8223097
:100EA40018464FF0010109F0E5FBFA7940F24803D6
:100EB400C0F6010333F81230BB604FF001033B73FB
:100EC4004FF00003BB734FF00103FB734FF00203B9
:100ED4007B73FA7940F21403C2F2000353F8222020
:100EE40007F108031046194607F068F907F11007DF
:100EF400BD4680BD80B483B000AF0346FB71FA7970
:100F040040F21403C2F2000353F82220F97940F2AC
:100F14004803C0F6010333F81130138307F10C07BB
:100F2400BD4680BC704700BF80B483B000AF0346A9
:100F3400FB71FA7940F21403C2F2000353F8222041
:100F4400F97940F24803C0F6010333F811305383B2
:100F540007F10C07BD4680BC704700BF80B483B066
:100F640000AF0346FB71FA7940F21403C2F20003A6
:100F740053F82220F97940F21403C2F2000353F823
:100F840021305969F87940F24803C0F6010333F877
:100F9400103081EA0303536107F10C07BD4680BC9E
:100FA400704700BF80B584B000AF03463960FB7161
:100FB400FA7940F25403C0F6010353F82220F97978
:100FC40040F25803C0F6010353F8213042EA030308
:100FD40018464FF0010109F04DFBFB79002B0BD1B2
:100FE400FA7940F25003C0F6010353F82230184650
:100FF4004FF0010109F0C2FBFA7940F21C03C2F27E
:10100400000353F82210FA7940F26403C0F6010396
:101014009B5C1A46F87940F26C03C0F601031B5C32
:10102400084611461A4607F061FAFA7940F220039D
:10103400C2F2000353F82210FA7940F26803C0F6B2
:1010440001039B5C1A46F87940F27003C0F6010371
:101054001B5C084611461A4607F048FA4FF0000395
:10106400BB734FF00103FB734FF002033B73FA7938
:1010740040F25C03C0F6010333F81230BB604FF05A
:1010840002037B73FA7940F21C03C2F2000353F8A3
:10109400222007F108031046194607F08FF84FF095
:1010A40002033B73FA7940F26003C0F6010333F89C
:1010B4001230BB60FA7940F22003C2F2000353F805
:1010C400222007F108031046194607F077F8FA7949
:1010D40040F21803C2F2000353F82230184639686C
:1010E4000EF004FAFA7940F21803C2F2000353F83E
:1010F400223018464FF001010EF040FB07F11007B3
:10110400BD4680BD80B586B000AF00F039F84FF41D
:101114004060C4F202004FF0040107F093F94FF06D
:101124000003BB804FF48273FB804FF000033B81CC
:101134004FF002037B814FF00103BB814FF4007336
:10114400FB814FF008033B824FF000037B824FF09A
:101154000703BB8207F104034FF47050C4F200008C
:1011640019460BF079FD4FF47050C4F200004FF0B3
:1011740001010BF01FFF07F11807BD4680BD00BF3A
:1011840080B582B000AF4FF400404FF0010109F088
:10119400F5FA4FF004004FF0010109F06BFA4FF03B
:1011A40008004FF0010109F065FA4FF40060C4F241
:1011B40002004FF00A014FF0060207F097F94FF4CE
:1011C4000060C4F202004FF00B014FF0060207F07A
:1011D4008DF94FF40060C4F202004FF00C014FF09F
:1011E400060207F083F94FF002033B714FF002034C
:1011F4007B714FF00003BB714FF00203FB714FF49E
:1012040080633B603B464FF40060C4F20200194621
:1012140006F0D4FF4FF400633B603B464FF400609C
:10122400C4F20200194606F0C9FF4FF480533B6034
:101234003B464FF40060C4F20200194606F0BEFFBC
:101244004FF004033B604FF002037B714FF0010346
:101254003B714FF00003BB714FF00203FB713B463F
:101264004FF44060C4F20200194606F0A7FF07F1EC
:101274000807BD4680BD00BF80B582B000AF4FF403
:101284007050C4F200004FF000010BF093FE4FF4D5
:101294007050C4F200000BF09BFC4FF400404FF080
:1012A400000109F097FA4FF480633B604FF00103AB
:1012B4003B713B464FF40060C4F20200194606F04D
:1012C4007DFF4FF400633B603B464FF40060C4F283
:1012D4000200194606F072FF4FF480533B603B4610
:1012E4004FF40060C4F20200194606F067FF4FF0A5
:1012F40004033B603B464FF44060C4F202001946CD
:1013040006F05CFF07F10807BD4680BD80B582B0DA
:1013140000AF0346FB7100BF4FF47050C4F20000ED
:101324004FF002010BF0F8FF0346002BF4D0FB79D9
:101334009BB24FF47050C4F2000019460BF026FF24
:1013440000BF4FF47050C4F200004FF001010BF0E5
:10135400E3FF0346002BF4D04FF47050C4F20000B6
:101364000BF006FF0346DBB2184607F10807BD463B
:1013740080BD00BF80B58AB000AFF8607B600B46CB
:10138400FB721346BB72FB681B6907F1140210461B
:10139400796B1A46FFF7F6FBFB681B6A002B08D132
:1013A4007A69FB685B6902FA03F2BB6913447B62E6
:1013B40001E07B6B7B62FB68DA6843F6FF739A4259
:1013C40025DDFA7A7B6A03F070634FEA134342EA3D
:1013D40003027B6A03F47F0342EA03027B6A03F499
:1013E4007F434FEA034342EA0302FB685A607B6A85
:1013F40003F0FF02FB689A60FB7AE82B21D0FB7AAA
:10140400D22B1ED0BB7A03F10103BB7219E0FA7A26
:101414007B6A03F47F034FEA132342EA03027B6AE5
:1014240003F47F434FEA032342EA03027B6A4FEA51
:10143400036342EA0302FB685A60FB684FF0000250
:101444009A604FF44060C4F202004FF0040107F0C8
:1014540007F8FB6803F10403FB614FF000033B62F0
:1014640010E0FB691B781846FFF750FF03461A4645
:10147400FB691A70FB6903F10103FB613B6A03F129
:1014840001033B62BA7A3B6A9A42EAD84FF00003FE
:101494003B6210E07B681B781846FFF737FF034672
:1014A4001A467B681A707B6803F101037B603B6A10
:1014B40003F101033B623A6A3B6B9A42EAD34FF46D
:1014C4004060C4F202004FF0040106F0BBFF4FF08D
:1014D4000103184607F12807BD4680BD80B586B0D4
:1014E40002AF78604FF00003FB601AE04FF0000396
:1014F40000934FF00003019378684FF0D7014FF049
:1015040002024FF00003FFF735FF0346002B08D01B
:101514007B685B6803F40043002B02D04FF00103A7
:1015240011E0FA6849F27F63C0F298039A428CBFD3
:1015340000230123DBB2FA6802F10102FA60002BF6
:10154400D4D14FF00003184607F11007BD4680BD03
:1015540080B588B002AFF860B9607A603B6022E081
:101564003A684FF6FF739A4238BF13467B61F868B6
:10157400FFF7B4FF7B690093BB680193F8684FF0F1
:10158400E8014FF008027B68FFF7F4FE3A687B69D4
:10159400C3EB02033B60BA687B691344BB607A689F
:1015A4007B6913447B603B68002BD9D14FF0000367
:1015B400184607F11807BD4680BD00BF80B584B04A
:1015C40000AFF860B9607A603B603B68F868B9685E
:1015D4001A467B68FFF7BCFFF868FFF77FFF4FF000
:1015E4000003184607F11007BD4680BD80B586B0DC
:1015F40002AF78607B6803F10403FB604FF00003E3
:1016040000934FF00003019378684FF0D7014FF037
:1016140002024FF00003FFF7ADFEFB6803F1010384
:101624001B7803F00103DBB2002B04D07B684FF07E
:1016340001021A6203E07B684FF000021A62FB6841
:1016440003F101031B7803F03C03184607F110076C
:10165400BD4680BD80B584B000AF78604FF0000314
:10166400BB604FF00103FB607B684FF40052DA600B
:101674007B684FF404721A617B684FF00A025A6166
:101684007868FFF7B3FF0346BB60BB68342B10D008
:101694003C2B1BD02C2B26D17B684FF48052DA6074
:1016A4007B684FF404721A617B684FF00A025A6136
:1016B4001DE07B684FF40052DA607B684FF40472DB
:1016C4001A617B684FF00A025A6110E07B684FF49C
:1016D4000052DA607B684FF484621A617B684FF0D1
:1016E4000B025A6103E04FF00003FB6000BFFB688C
:1016F400184607F11007BD4680BD00BF80B400AF97
:10170400BD4680BC704700BF80B400AFFEE700BF99
:1017140080B400AFFEE700BF80B400AFFEE700BFB7
:1017240080B400AFFEE700BF80B400AFBD4680BC0C
:10173400704700BF80B400AFBD4680BC704700BF97
:1017440080B400AFBD4680BC704700BF80B500AF19
:10175400FEF75CFEBD4680BD80B483B000AF4FF49D
:101764009043C4F200031B889BB23B603B6803F0C8
:101774002003002B30D04FF49043C4F200034FF405
:101784009042C4F20002128892B222F0200292B275
:101794001A8040F27043C2F200037B607B681A68CF
:1017A4007B685B68C3EB020323F0FF03002B13D1B8
:1017B4007B681B6803F0FF014FF49043C4F20003FD
:1017C4009B889BB2DAB27B680B441A727B681B68F5
:1017D40003F101027B681A603B6803F08003002B6D
:1017E40047D04FF49043C4F200034FF49042C4F244
:1017F4000002128892B222F0800292B21A8040F261
:101804007853C2F200037B607B681A687B685B686C
:101814009A4219D04FF49043C4F200037A68526894
:1018240002F0FF0279680A44127A9A807B685B6846
:1018340003F101027B685A6040F22403C2F2000300
:101844004FF000021A6014E040F22403C2F20003D5
:101854004FF001021A604FF49043C4F200034FF4B6
:101864009042C4F20002928992B222F0800292B2B3
:101874009A8107F10C07BD4680BC704780B400AF65
:1018840040F27853C2F200034FF000021A6040F2B3
:101894007853C2F200034FF000025A6040F224036E
:1018A400C2F200034FF001021A6040F27043C2F228
:1018B40000034FF000021A6040F27043C2F20003CA
:1018C4004FF000025A60BD4680BC704780B485B0BA
:1018D40000AF786040F27853C2F20003FB6040F23C
:1018E4007853C2F200031B689AB240F27853C2F2F2
:1018F40000035B689BB2C3EB02039BB2FF2B02D9CC
:101904004FF0FF332CE0FB681B6803F0FF037A6899
:10191400D2B2F9680B441A72FB681B6803F1010226
:10192400FB681A6040F22403C2F200031B68002B18
:1019340014D040F22403C2F200034FF000021A60F4
:101944004FF49043C4F200034FF49042C4F20002F7
:10195400928992B242F0800292B29A814FF00003CF
:10196400184607F11407BD4680BC704780B483B0A5
:1019740000AF40F27043C2F200037B6040F2704358
:10198400C2F200031B689AB240F27043C2F2000331
:101994005B689BB29A4202D14FF0FF330AE07B6846
:1019A4005A6802F0FF0379680B441B7A02F10101C3
:1019B4007A685160184607F10C07BD4680BC704731
:1019C40080B582B000AF786039600CE07B681B782A
:1019D4007A6802F101027A601846FFF777FF3B68E4
:1019E40003F1FF333B603B68002BEFDC07F1080792
:1019F400BD4680BD80B483B000AF78604FF46D43C2
:101A0400CEF200037A6842F0BE6242F42022DA6029
:101A140007F10C07BD4680BC704700BF80B485B099
:101A240000AF78604FF00003FB734FF00003BB730B
:101A34004FF00F037B737B68DB78002B47D04FF4A8
:101A44006D43CEF20003DB686FEA030303F4E06343
:101A54004FEA1323FB73FB7BC3F10403BB737A7B51
:101A6400FB7B42FA03F37B737B685B781A46BB7B90
:101A740002FA03F3FB737B689A787B7B02EA030325
:101A8400DAB2FB7B42EA0303FB73FB7B4FEA0313EB
:101A9400FB734FF46143CEF200037A681278134467
:101AA400FA7B83F800234FF46143CEF200037A6893
:101AB40012784FEA5212D2B27968097801F01F0104
:101AC4004FF0010000FA01F143F8221014E04FF442
:101AD4006143CEF200037A6812784FEA5212D2B20E
:101AE4007968097801F01F014FF0010000FA01F153
:101AF40002F1200243F8221007F11407BD4680BC0E
:101B0400704700BF80B483B000AF786039604FF491
:101B14006D43CEF200033A6822F0604222F07F0265
:101B2400796842EA01029A6007F10C07BD4680BC5D
:101B3400704700BF80B483B000AF02460B46FA7111
:101B4400BB71BB79002B0DD04FF46D43CEF2000373
:101B54004FF46D42CEF200021169FA7941EA0202B1
:101B64001A610EE04FF46D43CEF200034FF46D4260
:101B7400CEF200021169FA796FEA020201EA020266
:101B84001A6107F10C07BD4680BC704780B483B06E
:101B940000AF78607B68042B0CD14EF21003CEF2B8
:101BA40000034EF21002CEF20002126842F0040268
:101BB4001A600BE04EF21003CEF200034EF2100254
:101BC400CEF20002126822F004021A6007F10C0738
:101BD400BD4680BC704700BF80B500AF4FF4807035
:101BE4004FF0010108F0D2FE4FF480704FF0000175
:101BF40008F0CCFEBD4680BD80B485B000AF7860EF
:101C040039604FF00003FB604FF00003FB727B6808
:101C14005B68FB60FB6823F0407323F48073FB6014
:101C24003B681B794FEA03223B681B6842EA0303C3
:101C3400FA6842EA0303FB607B68FA685A607B68CF
:101C44009B68FB60FA684FF2FD73CCF2FF0302EA73
:101C54000303FB603B681A693B68DB6842EA0302E2
:101C64003B689B6842EA03023B685B794FEA4303A3
:101C740042EA0303FA6842EA0303FB607B68FA68FA
:101C84009A607B68DB6AFB60FB6823F47003FB608B
:101C94003B681B7D03F1FF33DAB2FB7A42EA0303AC
:101CA400FB72FB7A4FEA0353FA6842EA0303FB60D0
:101CB4007B68FA68DA6207F11407BD4680BC704796
:101CC40080B483B000AF78607B684FF000021A6084
:101CD4007B684FF000021A717B684FF000025A7162
:101CE4007B684FF000029A607B684FF00002DA6074
:101CF4007B684FF000021A617B684FF001021A758D
:101D040007F10C07BD4680BC704700BF80B485B0A6
:101D140000AF78604FF00003FB604FF40C53C4F243
:101D240001035B68FB60FA6843F2E003CFF6FC73DF
:101D340002EA0303FB607B681A687B685B6842EA1B
:101D440003027B689B6842EA03027B68DB6842EA21
:101D54000303FA6842EA0303FB604FF40C53C4F232
:101D64000103FA685A6007F11407BD4680BC704746
:101D740080B483B000AF78607B684FF000021A60D3
:101D84007B684FF000025A607B684FF000029A6053
:101D94007B684FF00002DA6007F10C07BD4680BC97
:101DA400704700BF80B483B000AF78600B46FB700F
:101DB400FB78002B06D07B689B6843F001027B68AC
:101DC4009A6005E07B689B6823F001027B689A6057
:101DD40007F10C07BD4680BC704700BF80B485B0D6
:101DE40000AF786039604FF00003FB607B685B688C
:101DF400FB60FB6823F4400323F40073FB60FA6880
:101E04003B6842EA0303FB607B68FA685A6007F1A7
:101E14001407BD4680BC704780B483B000AF7860BF
:101E240013460A467A803B807A887B685A623A88ED
:101E34007B689A6207F10C07BD4680BC704700BFFF
:101E440080B485B000AF78600B46FB704FF00003A0
:101E5400FB607B685B68FB60FB6823F01F03FB602F
:101E6400FB78FA6842EA0303FB607B68FA685A600D
:101E740007F11407BD4680BC704700BF80B483B02F
:101E840000AF0346FB71FB79002B0CD04FF40C53CD
:101E9400C4F201034FF40C52C4F20102526842F43A
:101EA40000025A600BE04FF40C53C4F201034FF4E8
:101EB4000C52C4F20102526822F400025A6007F183
:101EC4000C07BD4680BC704780B483B000AF0346A6
:101ED400FB71FB79002B0CD04FF40C53C4F20103BB
:101EE4004FF40C52C4F20102526842F480025A6068
:101EF4000BE04FF40C53C4F201034FF40C52C4F240
:101F04000102526822F480025A6007F10C07BD46B0
:101F140080BC704780B485B000AF7860F970BA7047
:101F24007B704FF00003FB604FF00003BB60FB7855
:101F3400092B29D97B68DB68FB60FA7813464FEAE2
:101F440043031344A3F11E034FF0070202FA03F301
:101F5400BB60BB686FEA0303FA6802EA0303FB6031
:101F64007978FA7813464FEA43031344A3F11E0326
:101F740001FA03F3BB60FA68BB6842EA0303FB603F
:101F84007B68FA68DA6024E07B681B69FB60FA7896
:101F940013464FEA430313444FF0070202FA03F3D4
:101FA400BB60BB686FEA0303FA6802EA0303FB60E1
:101FB4007978FA7813464FEA4303134401FA03F39A
:101FC400BB60FA68BB6842EA0303FB607B68FA689B
:101FD4001A61BB78062B29D87B685B6BFB60BB78E6
:101FE40003F1FF3213464FEA830313444FF01F02F9
:101FF40002FA03F3BB60BB686FEA0303FA6802EA00
:102004000303FB60F978BB7803F1FF3213464FEA10
:102014008303134401FA03F3BB60FA68BB6842EA22
:102024000303FB607B68FA685A6355E0BB780C2BAA
:1020340029D87B681B6BFB60BA7813464FEA83038D
:102044001344A3F123034FF01F0202FA03F3BB600E
:10205400BB686FEA0303FA6802EA0303FB60F978DA
:10206400BA7813464FEA83031344A3F1230301FA16
:1020740003F3BB60FA68BB6842EA0303FB607B6856
:10208400FA681A6328E07B68DB6AFB60BA78134657
:102094004FEA83031344A3F141034FF01F0202FAF2
:1020A40003F3BB60BB686FEA0303FA6802EA030345
:1020B400FB60F978BA7813464FEA83031344A3F11B
:1020C400410301FA03F3BB60FA68BB6842EA030305
:1020D400FB607B68FA68DA6207F11407BD4680BCCE
:1020E400704700BF80B483B000AF78607B689B68A2
:1020F40043F080427B689A6007F10C07BD4680BCC0
:10210400704700BF80B485B000AF78604FF0000323
:10211400FB737B689B6803F48003002B03D04FF0B0
:102124000103FB7302E04FF00003FB73FB7B1846D3
:1021340007F11407BD4680BC704700BF80B483B06C
:1021440000AF78600B46FB70FB78002B06D07B68F1
:102154009B6843F480627B689A6005E07B689B68B7
:1021640023F480627B689A6007F10C07BD4680BC4B
:10217400704700BF80B483B000AF78600B46FB703B
:10218400FB78002B06D07B689B6843F002027B68D7
:102194009A6005E07B689B6823F002027B689A6082
:1021A40007F10C07BD4680BC704700BF80B485B002
:1021B40000AF78600B46FB704FF00003FB604FF0FC
:1021C4000003BB607B685B68FB60FB6823F46043CF
:1021D400FB60FB7803F1FF33BB60BB684FEA43331A
:1021E400FA6842EA0303FB607B68FA685A6007F105
:1021F4001407BD4680BC704780B483B000AF7860DC
:102204000B46FB70FB78002B06D07B685B6843F4BD
:1022140000627B685A6005E07B685B6823F40062B7
:102224007B685A6007F10C07BD4680BC704700BF4D
:1022340080B483B000AF78607B68DB6C9BB21846D7
:1022440007F10C07BD4680BC704700BF80B400AFE7
:1022540042F20833C4F201031B681846BD4680BC31
:10226400704700BF80B483B000AF78600B46FB704A
:10227400FB78002B06D07B689B6843F480727B68F4
:102284009A6005E07B689B6823F480727B689A609F
:1022940007F10C07BD4680BC704700BF80B483B013
:1022A40000AF78600B46FB70FB78002B06D07B6890
:1022B4009B6843F400727B689A6005E07B689B68C6
:1022C40023F400727B689A6007F10C07BD4680BC5A
:1022D400704700BF80B483B000AF0346FB71FB7945
:1022E400002B0CD04FF40C53C4F201034FF40C52E6
:1022F400C4F20102526842F400525A600BE04FF4F7
:102304000C53C4F201034FF40C52C4F2010252689C
:1023140022F400525A6007F10C07BD4680BC704796
:1023240080B487B000AF7860F970BA707B704FF0FA
:1023340000037B614FF000033B614FF00003FB603F
:10234400FB78092B29D97B68DB687B61FA78134613
:102354004FEA43031344A3F11E034FF0070202FAAA
:1023640003F33B613B696FEA03037A6902EA0303FF
:102374007B617978FA7813464FEA43031344A3F157
:102384001E0301FA03F33B617A693B6942EA0303E2
:102394007B617B687A69DA6024E07B681B697B6116
:1023A400FA7813464FEA430313444FF0070202FA44
:1023B40003F33B613B696FEA03037A6902EA0303AF
:1023C4007B617978FA7813464FEA4303134401FAA0
:1023D40003F33B617A693B6942EA03037B617B68EF
:1023E4007A691A617B689B6B7B617B6903F4401398
:1023F4004FEA1353FB60FB68DBB26FEA0303DAB204
:10240400BB781344DBB203F10303DBB21A46134671
:102414004FEA830313444FF01F0202FA03F33B61B4
:102424003B696FEA03037A6902EA03037B61F97883
:10243400FB68DBB26FEA0303DAB2BB781344DBB2A6
:1024440003F10303DBB21A4613464FEA8303134432
:1024540001FA03F33B617A693B6942EA03037B6156
:102464007B687A699A6307F11C07BD4680BC704794
:1024740080B485B000AF78600B46FB704FF000036A
:10248400FB604FF00003BB607B689B6BFB60FB68E9
:1024940023F44013FB60FB7803F1FF33BB60BB689C
:1024A4004FEA0353FA6842EA0303FB607B68FA6865
:1024B4009A6307F11407BD4680BC704780B485B0A9
:1024C40000AF786013460A46FA703B804FF0000371
:1024D400FB607B68FB60FA78FB681344FB60FB6875
:1024E4003A881A6007F11407BD4680BC704700BFE4
:1024F40080B485B000AF786039604FF00003FB60B2
:102504007B689B68FB60FB6823F47023FB60FA68BC
:102514003B6842EA0303FB607B68FA689A6007F150
:102524001407BD4680BC704780B485B000AF7860A6
:1025340039604FF00003FB607B689B68FB60FB68BD
:1025440023F44013FB60FA683B6842EA0303FB6030
:102554007B68FA689A6007F11407BD4680BC70472F
:1025640080B483B000AF78607B689B6843F48002DA
:102574007B689A6007F10C07BD4680BC704700BFBA
:1025840080B485B000AF78604FF00003FB737B68C4
:102594009B6803F48003002B03D04FF00103FB730B
:1025A40002E04FF00003FB73FB7B184607F11407AE
:1025B400BD4680BC704700BF80B483B000AF786074
:1025C4000B46FB70FB78002B06D07B685B6843F4FA
:1025D40080627B685A6005E07B685B6823F48062F4
:1025E4007B685A6007F10C07BD4680BC704700BF8A
:1025F40080B483B000AF78600B46FB70FB78002B8F
:1026040006D07B685B6843F480527B685A6005E0BF
:102614007B685B6823F480527B685A6007F10C077F
:10262400BD4680BC704700BF80B485B000AF786001
:102634000B46FB704FF00003FB607B68FB60FA788D
:10264400FB68134403F12803FB60FB681B689BB21F
:10265400184607F11407BD4680BC704780B485B0A6
:1026640000AF786013460A467A807B704FF000030F
:10267400FB607B88DBB2FB60FB684FF0010202FA6F
:1026840003F3FB607B78002B07D07B685A68FB68F8
:1026940042EA03027B685A6008E07B685A68FB6878
:1026A4006FEA030302EA03027B685A6007F1140726
:1026B400BD4680BC704700BF80B485B000AF786071
:1026C4000B46FB704FF00003FB737B681A68FB78C2
:1026D40002EA0303002B03D04FF00103FB7302E073
:1026E4004FF00003FB73FB7B184607F11407BD464C
:1026F40080BC704780B483B000AF78600B46FB7039
:10270400FB786FEA03027B681A6007F10C07BD4689
:1027140080BC704780B487B000AF78600B467B8084
:102724004FF00003FB754FF000033B614FF00003D3
:10273400FB607B884FEA13239BB23B617B685A683A
:102744007B88DBB24FF0010101FA03F302EA0303D1
:10275400FB607B681A683B6902EA0303002B06D01E
:10276400FB68002B03D04FF00103FB7502E04FF030
:102774000003FB75FB7D184607F11C07BD4680BCB2
:10278400704700BF80B485B000AF78600B467B8093
:102794004FF00003FB737B884FEA13239BB2FB7358
:1027A400FB7B6FEA03027B681A6007F11407BD46DE
:1027B40080BC704780B582B000AF78607A684FF40F
:1027C400C843C4F200039A420CD14FF000704FF09A
:1027D400010108F0AFF84FF000704FF0000108F06D
:1027E400A9F80BE04FF080604FF0010108F0A2F867
:1027F4004FF080604FF0000108F09CF807F10807E3
:10280400BD4680BD80B485B000AF786039604FF0BC
:102814000003FB734FF00003BB607B681B6823F06D
:1028240002027B681A607B681B6843F001027B68C4
:102834001A6003E0BB6803F10103BB607B685B685B
:1028440003F00103002B04D1BA684FF6FF739A42D8
:10285400F0D17B685B6803F00103002B03D14FF0D8
:102864000003FB73ABE03B689B79012B06D17B68CB
:102874001B6843F080027B681A6005E07B681B6874
:1028840023F080027B681A603B68DB79012B06D158
:102894007B681B6843F040027B681A6005E07B6834
:1028A4001B6823F040027B681A603B681B7A012B8B
:1028B40006D17B681B6843F020027B681A6005E040
:1028C4007B681B6823F020027B681A603B685B7A94
:1028D400012B06D17B681B6843F010027B681A60E9
:1028E40005E07B681B6823F010027B681A603B6874
:1028F4009B7A012B06D17B681B6843F008027B6836
:102904001A6005E07B681B6823F008027B681A6084
:102914003B68DB7A012B06D17B681B6843F0040219
:102924007B681A6005E07B681B6823F004027B68FF
:102934001A603B689B784FEA83723B68DB784FEA06
:10294400036342EA03023B681B794FEA034342EA0A
:1029540003023B685B794FEA035342EA03023B6894
:102964001B8803F1FF3342EA03027B68DA617B6868
:102974001B6823F001027B681A604FF00003BB6000
:1029840003E0BB6803F10103BB607B685B6803F091
:102994000103DBB2002B04D0BA684FF6FF739A42EE
:1029A400EFD17B685B6803F00103DBB2002B03D03B
:1029B4004FF00003FB7302E04FF00103FB73FB7B5A
:1029C400184607F11407BD4680BC704780B485B033
:1029D40000AF78604FF00003FB607B689B7A4FF098
:1029E400010202FA03F3FB604FF4C843C4F200038C
:1029F4004FF4C842C4F20002D2F8002242F00102AD
:102A0400C3F800224FF4C843C4F200034FF4C84291
:102A1400C4F20002D2F81C12FA686FEA020201EA58
:102A24000202C3F81C227B681B7B002B36D14FF4B7
:102A3400C843C4F200034FF4C842C4F20002D2F8FF
:102A44000C12FA686FEA020201EA0202C3F80C22CD
:102A54004FF4C843C4F200037A68927A7968C9884B
:102A64004FEA01407968498840EA010102F14802CD
:102A740043F832104FF4C842C4F200027B689B7AD8
:102A8400796889884FEA01407968098840EA010138
:102A940003F148034FEAC303134459607B681B7B6B
:102AA400012B34D14FF4C843C4F200034FF4C8429D
:102AB400C4F20002D2F80C12FA6841EA0202C3F826
:102AC4000C224FF4C843C4F200037A68927A7968FE
:102AD40009884FEA01407968498840EA010102F116
:102AE400480243F832104FF4C842C4F200027B6833
:102AF4009B7A796889884FEA01407968C98840EAF5
:102B0400010103F148034FEAC303134459607B688E
:102B1400DB7A002B11D14FF4C843C4F200034FF405
:102B2400C842C4F20002D2F80412FA686FEA020240
:102B340001EA0202C3F804220EE04FF4C843C4F2CF
:102B440000034FF4C842C4F20002D2F80412FA6837
:102B540041EA0202C3F804227B681B89002B10D1CE
:102B64004FF4C843C4F200034FF4C842C4F2000255
:102B7400D2F81412FA686FEA020201EA0202C3F8F8
:102B840014227B681B89012B0ED14FF4C843C4F275
:102B940000034FF4C842C4F20002D2F81412FA68D7
:102BA40041EA0202C3F814227B685B7B012B0ED13D
:102BB4004FF4C843C4F200034FF4C842C4F2000205
:102BC400D2F81C12FA6841EA0202C3F81C224FF43C
:102BD400C843C4F200034FF4C842C4F20002D2F85E
:102BE400002222F00102C3F8002207F11407BD46B7
:102BF40080BC704780B483B000AF78607B684FF0CE
:102C040000029A717B684FF00002DA717B684FF022
:102C140000021A727B684FF000025A727B684FF010
:102C240000029A727B684FF00002DA727B684FF000
:102C340000029A707B684FF00002DA707B684FF0F4
:102C440003021A717B684FF002025A717B684FF0DD
:102C540001021A8007F10C07BD4680BC704700BF13
:102C640080B483B000AF0346FB714FF4C843C4F291
:102C740000034FF4C842C4F20002D2F8002242F02A
:102C84000102C3F800224FF4C843C4F200034FF416
:102C9400C842C4F20002D2F8002222F47C5222F08C
:102CA4000E02C3F800224FF4C843C4F200034FF4E9
:102CB400C842C4F20002D2F80012FA794FEA0222A2
:102CC40041EA0202C3F800224FF4C843C4F20003ED
:102CD4004FF4C842C4F20002D2F8002222F00102EA
:102CE400C3F8002207F10C07BD4680BC704700BF43
:102CF40080B483B000AF78600B46FB70FB78002B88
:102D040006D07B681B6843F480327B681A6005E058
:102D14007B681B6823F480327B681A6007F10C0718
:102D2400BD4680BC704700BF80B483B000AF7860FC
:102D34000B46FB70FB78002B1ED07B681B6843F0AE
:102D440080027B681A607B68D3F8843143F4807214
:102D54007B68C3F884217B68D3F8943143F4807290
:102D64007B68C3F894217B68D3F8A43143F4807260
:102D74007B68C3F8A4211DE07B681B6823F08002F4
:102D84007B681A607B68D3F8843123F480727B6893
:102D9400C3F884217B68D3F8943123F480727B6870
:102DA400C3F894217B68D3F8A43123F480727B6840
:102DB400C3F8A42107F10C07BD4680BC704700BFCF
:102DC40080B485B000AF786039604FF00003FB73C6
:102DD4007B689B6803F08063002B03D04FF00003F3
:102DE400FB7316E07B689B6803F00063002B03D041
:102DF4004FF00103FB730CE07B689B6803F0805386
:102E0400002B03D04FF00203FB7302E04FF00403E6
:102E1400FB73FB7B042B00F0CE80FB7BFA7B796891
:102E240002F118024FEA02120A44126802F0010287
:102E3400796803F118034FEA03130B441A603B68E3
:102E44001B7A002B1AD1FB7BFA7B796802F11802FA
:102E54004FEA02120A4411683A6812684FEA425073
:102E64003A68527A40EA020241EA0202796803F1BE
:102E740018034FEA03130B441A601DE0FB7BFA7B33
:102E8400796802F118024FEA02120A4411683A689A
:102E940052684FEAC2003A68127A40EA02003A687D
:102EA400527A40EA020241EA0202796803F1180305
:102EB4004FEA03130B441A603B689B7A03F00F0339
:102EC400DAB23B689A72FB7BFA7B796802F11802EA
:102ED4004FEA02120A4402F10402126822F00F02BD
:102EE400796803F118034FEA03130B4403F1040355
:102EF4001A60FB7BFA7B796802F118024FEA02122E
:102F04000A4402F1040211683A68927A41EA020220
:102F1400796803F118034FEA03130B4403F1040324
:102F24001A60FB7B3A68927B4FEA02613A68527BF3
:102F34004FEA024241EA02013A68127B4FEA022256
:102F440041EA02013A68D27A41EA020279684FEA18
:102F540003130B4403F5C4731A60FB7B3A68927C39
:102F64004FEA02613A68527C4FEA024241EA0201A6
:102F74003A68127C4FEA022241EA02013A68D27BA3
:102F840041EA020279684FEA03130B4403F5C6735E
:102F94001A60FB7BFA7B796802F118024FEA02128D
:102FA4000A44126842F00102796803F118034FEAF7
:102FB40003130B441A60FB7B184607F11407BD4644
:102FC40080BC704780B485B000AF78600B46FB705E
:102FD4004FF00003FB60FB78012B0DD0022B15D0C2
:102FE400002B1DD17B689A684FF00303C0F20043A5
:102FF40002EA0303FB6017E07B689A684FF44073AE
:10300400C0F6000302EA0303FB600DE07B689A68E4
:103014004FF00003C1F2030302EA0303FB6003E081
:103024004FF00003FB6000BFFB684FF48072C0F6F2
:10303400000293422FD04FF48072C0F600029342F4
:103044000ED84FF00102C0F2004293421FD04FF05D
:103054000302C0F20042934225D0002B13D02EE08D
:103064004FF00002C1F20102934218D04FF0000267
:10307400C1F2030293421ED04FF44072C0F6000224
:10308400934214D01BE04FF00203FB601BE04FF0AF
:103094000003FB6017E04FF00003FB6013E04FF008
:1030A4000003FB600FE04FF00103FB600BE04FF007
:1030B4000103FB6007E04FF00103FB6003E04FF006
:1030C4000003FB6000BFFB68DBB2184607F114077E
:1030D400BD4680BC704700BF80B483B000AF786049
:1030E4000B46FB70FB78012B0AD0022B0FD0002B70
:1030F40015D17B689B6843F080027B689A600FE07F
:103104007B689B6843F400427B689A6008E07B68B4
:103114009B6843F400027B689A6000BF00E000BF34
:1031240007F10C07BD4680BC704700BF80B485B072
:1031340000AFF8600B467A60FB72FB7AFA6803F121
:103144001B034FEA031313441B68DBB203F00403AD
:10315400DAB27B681A727B681B7A002B0CD1FB7A7B
:10316400FA6803F11B034FEA031313441B684FEA85
:1031740053527B681A600BE0FB7AFA6803F11B0375
:103184004FEA031313441B684FEAD3027B685A6067
:10319400FB7AFA6803F11B034FEA031313441B6819
:1031A400DBB203F00203DAB27B685A72FB7AFA6884
:1031B40003F11B034FEA0313134403F104031B68D5
:1031C400DBB203F00F03DAB27B689A72FB7AFA6817
:1031D40003F11B034FEA0313134403F104031B68B5
:1031E4004FEA1323DAB27B68DA74FB7AFA684FEA9F
:1031F4000313134403F5DC731B68DAB27B68DA72D9
:10320400FB7AFA684FEA0313134403F5DC731B6873
:103214004FEA1323DAB27B681A73FB7AFA684FEA2F
:103224000313134403F5DC731B684FEA1343DAB248
:103234007B685A73FB7AFA684FEA0313134403F565
:10324400DC731B684FEA1363DAB27B689A73FB7A08
:10325400FA684FEA0313134403F5DE731B68DAB20A
:103264007B68DA73FB7AFA684FEA0313134403F5B5
:10327400DE731B684FEA1323DAB27B681A74FB7A95
:10328400FA684FEA0313134403F5DE731B684FEA2D
:103294001343DAB27B685A74FB7AFA684FEA031371
:1032A400134403F5DE731B684FEA1363DAB27B68D9
:1032B4009A74FB7A002B06D1FB68DB6843F020028A
:1032C400FB68DA6005E0FB681B6943F02002FB68D9
:1032D4001A6107F11407BD4680BC704780B483B0FF
:1032E40000AF78600B46FB70FB78002B06D17B683F
:1032F400DB6843F020027B68DA6005E07B681B69C9
:1033040043F020027B681A6107F10C07BD4680BCBC
:10331400704700BF80B485B000AF78600B46FB7087
:103324004FF00003FB73FB78002B06D17B68DB684E
:10333400DBB203F00303FB730CE0FB78012B06D133
:103344007B681B69DBB203F00303FB7302E04FF0FD
:103354000003FB73FB7B184607F11407BD4680BCD2
:10336400704700BF80B485B000AF78600B46FB7037
:103374004FF00003FB734FF6FF73BB60FB78002B29
:1033840023D17B681B6823F0030343F001027B68AD
:103394001A6003E0BB6803F1FF33BB607B685B68C2
:1033A40003F00303012B02D0BB68002BF2D17B682E
:1033B4005B6803F00303012B03D04FF00003FB739E
:1033C40052E04FF00103FB734EE0FB78012B21D157
:1033D4007B681B6823F003027B681A6003E0BB6808
:1033E40003F1FF33BB607B685B6803F00303002BCE
:1033F40002D0BB68002BF2D17B685B6803F0030347
:10340400002B03D04FF00003FB732DE04FF00103BA
:10341400FB7329E0FB78022B23D17B681B6823F024
:10342400030343F002027B681A6003E0BB6803F104
:10343400FF33BB607B685B6803F00303022B02D09D
:10344400BB68002BF2D17B685B6803F00303022B9B
:1034540003D04FF00003FB7306E04FF00103FB734E
:1034640002E04FF00003FB73FB7B184607F11407DF
:10347400BD4680BC704700BF80B485B000AF7860A3
:103484004FF00003FB737B681B6823F0030343F0D6
:1034940002027B681A607B685B6803F00303022BFB
:1034A40002D14FF00103FB73FB7B184607F11407AD
:1034B400BD4680BC704700BF80B485B000AF786063
:1034C4004FF6FF73FB604FF00003FB727B681B68D1
:1034D40023F002027B681A6003E0FB6803F1FF3308
:1034E400FB607B685B6803F00203002B02D0FB687F
:1034F400002BF2D17B685B6803F00203002B02D13E
:103504004FF00103FB72FB7A184607F11407BD461E
:1035140080BC704780B485B000AF78604FF0000382
:10352400FB737B689B69DBB203F07003FB73FB7B6B
:10353400184607F11407BD4680BC704780B485B0B7
:1035440000AF78604FF00003FB737B689B694FEA20
:103554001363FB73FB7B184607F11407BD4680BC5D
:10356400704700BF80B485B000AF78604FF00003AF
:10357400FB737B689B6903F47F034FEA1343FB737C
:10358400FB7B184607F11407BD4680BC704700BF9B
:1035940080B485B000AFF860B9601346FB71FB7965
:1035A400002B07D0FB685A69BB6842EA0302FB6838
:1035B4005A6108E0FB685A69BB686FEA030302EAD0
:1035C4000302FB685A6107F11407BD4680BC7047CB
:1035D40080B485B000AF786039604FF00003FB73AE
:1035E4003B6803F47003002B12D07B689A693B6834
:1035F40002EA030323F07F4323F47003002B03D078
:103604004FF00103FB735DE04FF00003FB7359E0DF
:103614003B6803F08073002B12D07B685A683B68C8
:1036240002EA030323F07F4323F47003002B03D047
:103634004FF00103FB7345E04FF00003FB7341E0DF
:103644003B6803F00063002B12D07B689A683B68E8
:1036540002EA030323F07F4323F47003002B03D017
:103664004FF00103FB732DE04FF00003FB7329E0DF
:103674003B6803F00073002B12D07B68DA683B6868
:1036840002EA030323F07F4323F47003002B03D0E7
:103694004FF00103FB7315E04FF00003FB7311E0DF
:1036A4007B681A693B6802EA030323F07F4323F42F
:1036B4007003002B03D04FF00103FB7302E04FF0C3
:1036C4000003FB73FB7B184607F11407BD4680BC5F
:1036D400704700BF80B485B000AF786039604FF0A8
:1036E4000003FB603A684FF07003C3F2F0039A42A0
:1036F40004D17B684FF000029A6123E03B6823F019
:103704007F4323F47003FB603B6803F00073002BDA
:1037140003D07B68FA68DA6014E03B6803F08063E6
:10372400002B03D07B68FA681A610BE03B6803F056
:103734000063002B03D07B68FA689A6002E07B6820
:10374400FA685A6007F11407BD4680BC704700BF91
:1037540080B584B000AF786039604FF00003FB732C
:103764007B685A693B6802EA0303002B00F0C480BB
:103774003B68402B6BD0402B0FD8042B3FD0042B3D
:1037840004D8012B25D0022B2FD0B1E0102B4AD026
:10379400202B52D0082B3CD0AAE0B3F5006F00F0E8
:1037A4009280B3F5006F09D8B3F5007F77D0B3F5F5
:1037B400806F7ED0B3F5807F67D099E0B3F5803F0A
:1037C4004FD0B3F5003F56D0B3F5004F00F08580DD
:1037D4008EE07B689B68184640F20111C0F201013B
:1037E40000F010F90346FB7389E07B68DB68184638
:1037F4004FF0030100F006F90346FB737FE07B689A
:10380400DB6818464FF0080100F0FCF80346FB7330
:1038140075E07B68DB6818464FF0100100F0F2F8A1
:103824000346FB736BE07B681B6918464FF003018A
:1038340000F0E8F80346FB7361E07B681B691846F7
:103844004FF0080100F0DEF80346FB7357E07B6895
:103854001B6918464FF0100100F0D4F80346FB73BF
:103864004DE07B685B6818464FF0080100F0CAF829
:103874000346FB7343E07B685B6818464FF0100116
:1038840000F0C0F80346FB7339E07B689B69184677
:103894004FF0010100F0B6F80346FB732FE07B689C
:1038A4009B6918464FF0020100F0ACF80346FB7325
:1038B40025E07B689B6918464FF0040100F0A2F8EC
:1038C4000346FB731BE07B689B6918464FF070014D
:1038D40000F098F80346FB7311E07B685B681846B8
:1038E4004FF0040100F08EF80346FB7300BF06E0BE
:1038F4004FF00003FB7302E04FF00003FB73FB7B0C
:10390400184607F11007BD4680BD00BF80B483B0E0
:1039140000AF786039603B68B3F5807F4CD0B3F575
:10392400807F0DD8082B2ED0082B04D8012B1ED055
:10393400042B23D061E0202B2AD0402B2DD05CE037
:10394400B3F5006F47D0B3F5006F06D8B3F5007F29
:1039540037D0B3F5806F39D04FE0B3F5803F21D035
:10396400B3F5003F23D0B3F5004F3DD045E07A686E
:1039740040F20113C0F2010393603EE07B684FF014
:103984000802DA6039E07B684FF01002DA6034E054
:103994007B684FF008021A612FE07B684FF0100239
:1039A4001A612AE07B684FF008025A6025E07B68C0
:1039B4004FF010025A6020E07B684FF004025A6016
:1039C4001BE07B684FF004025A6016E07B684FF0FE
:1039D40004025A6011E07B684FF000029A617B6830
:1039E4004FF004025A6008E07B684FF000029A61CD
:1039F4007B684FF004025A6000BF07F10C07BD4614
:103A040080BC704780B485B000AF786039604FF0F7
:103A14000003FB737A683B6802EA0303002B03D0BC
:103A24004FF00103FB7302E04FF00003FB73FB7BD9
:103A3400184607F11407BD4680BC704780B400AF38
:103A44004FF44053C4F202034FF001029A60BD46A2
:103A540080BC704780B483B000AF78604FF44053AB
:103A6400C4F202037A681A604FF44053C4F20203AA
:103A74001B68184607F10C07BD4680BC704700BFA1
:103A840080B485B000AF786039604FF00003FB600C
:103A94004FF00003FB600EE04FF44053C4F2020306
:103AA400FA684FEA820279680A4412681A60FB686D
:103AB40003F10103FB60FA683B689A42ECD34FF4CC
:103AC4004053C4F202031B68184607F11407BD46AD
:103AD40080BC704780B400AF4FF44053C4F202037B
:103AE4001B681846BD4680BC704700BF80B483B0D5
:103AF40000AF0346FB714FF44053C4F20203FA795A
:103B04001A7107F10C07BD4680BC704780B400AF42
:103B14004FF44053C4F202031B79DBB21846BD468E
:103B240080BC704780B500AF4FF010004FF001012A
:103B340006F0A8FE4FF010004FF0000106F0A2FEC0
:103B4400BD4680BD80B483B000AF78604FF0000301
:103B5400C5F206034FF00002C5F20602126822F015
:103B640038021A604FF00003C5F206034FF000025A
:103B7400C5F2060211687A68528841EA02021A60A4
:103B84004FF00003C5F206034FF00002C5F206022F
:103B9400126822F0C0021A604FF00003C5F2060357
:103BA4004FF00002C5F2060211687A68928841EA71
:103BB40002021A607B685B88202B0BD07B685B88D1
:103BC400282B07D07B685B88302B03D07B685B880D
:103BD400382B19D14FF00003C5F206034FF0000251
:103BE400C5F20602126822F440721A604FF0000314
:103BF400C5F206034FF00002C5F2060211687A68A6
:103C0400D28841EA02021A604FF00003C5F20603AB
:103C14004FF00002C5F20602126822F004021A6094
:103C24004FF00003C5F206034FF00002C5F206028E
:103C340011687A68128841EA02021A6007F10C07D7
:103C4400BD4680BC704700BF80B483B000AF7860CD
:103C54007B684FF000021A807B684FF000025A80A4
:103C64007B684FF000029A807B684FF00002DA8094
:103C740007F10C07BD4680BC704700BF80B483B019
:103C840000AF78604FF00003C5F206037A6812684B
:103C94001A624FF00003C5F206037A6852685A624A
:103CA4004FF00003C5F206037A6892689A624FF0F7
:103CB4000003C5F206037A68D268DA624FF00003A3
:103CC400C5F206037A6812691A634FF00003C5F25D
:103CD40006037A6852695A634FF00003C5F206037B
:103CE4007A6892699A634FF00003C5F206037A6812
:103CF400D269DA6307F10C07BD4680BC704700BF88
:103D040080B483B000AF78607B684FF000021A6023
:103D14007B684FF000025A607B684FF000029A60A3
:103D24007B684FF00002DA607B684FF000021A6192
:103D34007B684FF000025A617B684FF000029A6181
:103D44007B684FF00002DA6107F10C07BD4680BCC6
:103D5400704700BF80B483B000AF78604FF00003B9
:103D6400C5F206037A6812681A644FF00003C5F2BC
:103D740006037A6852685A644FF00003C5F20603DA
:103D84007A6892689A644FF00003C5F206037A6871
:103D9400D268DA6407F10C07BD4680BC704700BFE7
:103DA40080B483B000AF78607B684FF000021A6083
:103DB4007B684FF000025A607B684FF000029A6003
:103DC4007B684FF00002DA6007F10C07BD4680BC47
:103DD400704700BF80B400AF4FF00003C5F2060384
:103DE4004FF00002C5F20602126842F480421A60E3
:103DF400BD4680BC704700BF80B483B000AF0346AB
:103E0400FB71FB79002B0CD04FF00003C5F20603C5
:103E14004FF00002C5F20602126842F400421A6032
:103E24000BE04FF00003C5F206034FF00002C5F2A9
:103E34000602126822F400421A6007F10C07BD461C
:103E440080BC704780B483B000AF78604FF000034B
:103E5400C5F206037A689A6007F10C07BD4680BC78
:103E6400704700BF80B400AF4FF00003C5F20603F3
:103E7400DB681846BD4680BC704700BF80B487B07D
:103E840000AF786039604FF00003BB604FF000036F
:103E94007B614FF00003FB744FF00003C5F206038F
:103EA4004FF00002C5F20602126922F001021A6103
:103EB4004FF00003C5F206031B6803F00803002B50
:103EC40003D04FF011037B6102E04FF015037B61D7
:103ED4004FF00003C5F206035A687B6902EA030344
:103EE400FB60BB6803F10103BB60BA684FF6FF7364
:103EF4009A4202D0FB68012BEAD14FF00003C5F2CD
:103F040006035A687B6902EA0303012B03D04FF0CE
:103F14000003FB745FE04FF00003C5F206034FF0AB
:103F24000002C5F20602126922F002021A614FF081
:103F34000003C5F206034FF00002C5F20602126840
:103F440022F400421A604FF00003C5F206031B6816
:103F540003F47F727B681A604FF00003C5F2060316
:103F64001A6C7B685A604FF00003C5F206035A6C62
:103F74007B689A604FF00003C5F206039A6C7B6875
:103F8400DA604FF00003C5F20603DA6C7B681A614D
:103F94003B681A687B685A613B685A687B689A6117
:103FA4003B689A687B68DA613B68DA687B681A6206
:103FB4003B681A697B685A623B685A697B689A62F3
:103FC4003B689A697B68DA623B68DA697B681A63E2
:103FD4004FF00103FB74FB7C184607F11C07BD4638
:103FE40080BC704780B483B000AF78604FF00003AA
:103FF400C5F206037A6812681A604FF00003C5F22E
:1040040006037A6852691A624FF00003C5F2060388
:104014007A6892695A624FF00003C5F206037A681F
:10402400D2699A624FF00003C5F206037A68126AF5
:10403400DA624FF00003C5F206037A68526A1A6323
:104044004FF00003C5F206037A68926A5A634FF090
:104054000003C5F206037A68D26A9A634FF000033C
:10406400C5F206037A68126BDA634FF00003C5F2F7
:1040740006037A6852681A644FF00003C5F2060317
:104084007A6892685A644FF00003C5F206037A68AE
:10409400D2689A644FF00003C5F206037A68126985
:1040A400DA644FF00003C5F206034FF00002C5F2D4
:1040B4000602126842F400421A6007F10C07BD467A
:1040C40080BC704780B483B000AF02460B46FA71DF
:1040D400BB71BB79002B0DD04FF00003C5F2060372
:1040E4004FF00002C5F206021169FA7941EA0202B0
:1040F4001A610FE04FF00003C5F206034FF000020F
:10410400C5F206021169FA796FEA0202D2B201EA33
:1041140002021A6107F10C07BD4680BC704700BF5C
:1041240080B483B000AF02460B46FA71BB71BB7911
:10413400002B0DD04FF00003C5F206034FF0000230
:10414400C5F206025169FA7941EA02025A610FE0A6
:104154004FF00003C5F206034FF00002C5F2060259
:104164005169FA796FEA0202D2B201EA02025A6193
:1041740007F10C07BD4680BC704700BF80B485B012
:1041840000AF0346FB714FF00003FB734FF00003D5
:10419400C5F20603DA69FB7902EA0303002B03D0B4
:1041A4004FF00103FB7302E04FF00003FB73FB7B52
:1041B400184607F11407BD4680BC704780B485B02B
:1041C40000AF0346FB714FF00003FB734FF0000395
:1041D400BB60FB7903F02003002B06D04FF00003F3
:1041E400C5F206039B69BB6005E04FF00003C5F20E
:1041F40006035B68BB60FA79BB6802EA0303002B21
:1042040003D04FF00103FB7302E04FF00003FB7394
:10421400FB7B184607F11407BD4680BC704700BFFE
:1042240090B597B000AFB9603B600346FB7313468B
:10423400FB804FF000037B614FF000037B644FF081
:10424400010387F85730BB683B643B683B65FB6EF2
:10425400FB644FF00003BB6407F118031846FFF733
:104264004FFDFB88C02B31D0B3F5807F70D0802BFD
:1042740040F0C6804FF00003FB873B6C1B68184678
:10428400FCF764F90346BB623B6C03F104033B6433
:104294003B6C1B681846FCF759F90346FB623B6C00
:1042A40003F104033B643B6C1B681846FCF74EF9AE
:1042B40003463B633B6C03F104033B643B6C1B68A8
:1042C4001846FCF743F903467B639AE04FF4807386
:1042D400FB873B6C1B681846FCF738F903463B62C6
:1042E4003B6C03F104033B643B6C1B681846FCF70E
:1042F4002DF903467B623B6C03F104033B643B6C86
:104304001B681846FCF722F90346BB623B6C03F1B9
:1043140004033B643B6C1B681846FCF717F903461F
:10432400FB623B6C03F104033B643B6C1B68184663
:10433400FCF70CF903463B633B6C03F104033B6459
:104344003B6C1B681846FCF701F903467B6358E095
:104354004FF40073FB873B6C1B681846FCF7F6F8B8
:104364000346BB613B6C03F104033B643B6C1B6879
:104374001846FCF7EBF80346FB613B6C03F10403BE
:104384003B643B6C1B681846FCF7E0F803463B6251
:104394003B6C03F104033B643B6C1B681846FCF75D
:1043A400D5F803467B623B6C03F104033B643B6C2E
:1043B4001B681846FCF7CAF80346BB623B6C03F162
:1043C40004033B643B6C1B681846FCF7BFF80346C8
:1043D400FB623B6C03F104033B643B6C1B681846B3
:1043E400FCF7B4F803463B633B6C03F104033B6402
:1043F4003B6C1B681846FCF7A9F803467B6300E096
:1044040000BFFB7B002B35D1FFF7E4FC4FF0040326
:104414003B874FF038037B874FF00003BB8707F1DE
:1044240038031846FFF78EFB07F118031846FFF709
:1044340025FC4FF00100FFF7DFFC4FF01000FFF701
:10444400BDFE03467B647B6903F101037B617B69E9
:10445400B3F5803F02D07B6C002BEED17B6C002B3C
:1044640004D04FF0000387F857300BE04FF00403FB
:104474003B8707E007F118031846FFF7FFFB4FF0EF
:1044840000033B874FF020037B874FF08003BB87FB
:1044940007F138031846FFF755FBFFF79BFC4FF075
:1044A4000100FFF7A9FC4FF00003BB6467E03B6D1C
:1044B4001B681846FFF7C6FC3B6D03F104033B651C
:1044C4003B6D1B681846FFF7BDFC3B6D03F104030D
:1044D4003B653B6D1B681846FFF7B4FC3B6D03F16D
:1044E40004033B653B6D1B681846FFF7ABFC3B6D53
:1044F40003F104033B654FF000037B614FF01000B0
:10450400FFF75CFE03467B647B6903F101037B6177
:104514007B69B3F5803F02D07B6C002BEED17B6CC2
:10452400002B04D04FF0000387F8573023E0FC6CD5
:10453400FFF798FC03462360FB6C03F10403FB6460
:10454400FC6CFFF78FFC03462360FB6C03F1040350
:10455400FB64FC6CFFF786FC03462360FB6C03F1F1
:104564000403FB64FC6CFFF77DFC03462360FB6CD7
:1045740003F10403FB64BB6C03F11003BB64BA6C6A
:10458400BB6E9A4203D297F85730002B8FD14FF06D
:104594000000FFF731FC97F85730184607F15C0725
:1045A400BD4690BD90B59BB000AFB9607A6002463D
:1045B400FA737B804FF000033B614FF000037B658F
:1045C4004FF0010387F867307B683B65BB6F3B6640
:1045D400D7F88030FB65BB68FB644FF00003BB6514
:1045E40007F124031846FFF78BFB7B88C02B32D0DE
:1045F400B3F5807F72D0802B40F0C9804FF0000368
:10460400A7F84A303B6D1B681846FBF79FFF03462B
:104614007B633B6D03F104033B653B6D1B681846EC
:10462400FBF794FF0346BB633B6D03F104033B6557
:104634003B6D1B681846FBF789FF0346FB633B6D24
:1046440003F104033B653B6D1B681846FBF77EFFD3
:1046540003463B649CE04FF48073A7F84A303B6DFB
:104664001B681846FBF772FF0346FB623B6D03F1C0
:1046740004033B653B6D1B681846FBF767FF034665
:104684003B633B6D03F104033B653B6D1B681846BC
:10469400FBF75CFF03467B633B6D03F104033B655F
:1046A4003B6D1B681846FBF751FF0346BB633B6D2C
:1046B40003F104033B653B6D1B681846FBF746FF9B
:1046C4000346FB633B6D03F104033B653B6D1B68D1
:1046D4001846FBF73BFF03463B6459E04FF4007375
:1046E400A7F84A303B6D1B681846FBF72FFF0346BB
:1046F4007B623B6D03F104033B653B6D1B6818460D
:10470400FBF724FF0346BB623B6D03F104033B65E7
:104714003B6D1B681846FBF719FF0346FB623B6DB4
:1047240003F104033B653B6D1B681846FBF70EFF62
:1047340003463B633B6D03F104033B653B6D1B6820
:104744001846FBF703FF03467B633B6D03F1040349
:104754003B653B6D1B681846FBF7F8FE0346BB63DD
:104764003B6D03F104033B653B6D1B681846FBF787
:10477400EDFE0346FB633B6D03F104033B653B6DB8
:104784001B681846FBF7E2FE03463B6400E000BFEB
:10479400FB6C1B681846FBF7D9FE03467B61FB6C78
:1047A40003F10403FB64FB6C1B681846FBF7CEFEA5
:1047B4000346BB61FB6C03F10403FB64FB6C1B68E5
:1047C4001846FBF7C3FE0346FB61FB6C03F10403CD
:1047D400FB64FB6C1B681846FBF7B8FE03463B62A0
:1047E400FB7B002B39D1FFF7F5FA4FF00403A7F850
:1047F40044304FF03803A7F846304FF00003A7F8D1
:10480400483007F144031846FFF79CF907F12403E5
:104814001846FFF733FA4FF00100FFF7EDFA4FF0B7
:104824001000FFF7CBFC03467B653B6903F10103F2
:104834003B613B69B3F5803F02D07B6D002BEED129
:104844007B6D002B04D04FF0000387F867300DE038
:104854004FF00403A7F8443008E007F12403184696
:10486400FFF70CFA4FF00003A7F844304FF0280389
:10487400A7F846304FF08003A7F8483007F1440307
:104884001846FFF75FF907F114031846FFF762FAB9
:10489400FFF7A0FA4FF00100FFF7AEFA4FF0000364
:1048A400BB6567E03B6E1B681846FFF7CBFA3B6EAF
:1048B40003F104033B663B6E1B681846FFF7C2FA1C
:1048C4003B6E03F104033B663B6E1B681846FFF71F
:1048D400B9FA3B6E03F104033B663B6E1B68184652
:1048E400FFF7B0FA3B6E03F104033B664FF000039D
:1048F4003B614FF01000FFF761FC03467B653B69A9
:1049040003F101033B613B69B3F5803F02D07B6D4A
:10491400002BEED17B6D002B04D04FF0000387F801
:10492400673023E0FC6DFFF79DFA03462360FB6DBF
:1049340003F10403FB65FC6DFFF794FA034623605F
:10494400FB6D03F10403FB65FC6DFFF78BFA034673
:104954002360FB6D03F10403FB65FC6DFFF782FA32
:1049640003462360FB6D03F10403FB65BB6D03F198
:104974001003BB65BA6DFB6F9A4203D297F8673098
:10498400002B8FD14FF00000FFF736FA97F867300D
:10499400184607F16C07BD4690BD00BF90B59BB0AB
:1049A40000AFB9607A600246FA737B804FF000036F
:1049B4003B614FF000037B654FF0010387F86730DC
:1049C4007B683B65BB6F3B66D7F88030FB65BB6893
:1049D400FB644FF00003BB6507F124031846FFF79F
:1049E4008FF97B88C02B32D0B3F5807F72D0802BB7
:1049F40040F0C9804FF00003A7F84A303B6D1B68B4
:104A04001846FBF7A3FD03467B633B6D03F10403E8
:104A14003B653B6D1B681846FBF798FD0346BB637B
:104A24003B6D03F104033B653B6D1B681846FBF7C4
:104A34008DFD0346FB633B6D03F104033B653B6D56
:104A44001B681846FBF782FD03463B649CE04FF469
:104A54008073A7F84A303B6D1B681846FBF776FD58
:104A64000346FB623B6D03F104033B653B6D1B682E
:104A74001846FBF76BFD03463B633B6D03F10403F0
:104A84003B653B6D1B681846FBF760FD03467B6383
:104A94003B6D03F104033B653B6D1B681846FBF754
:104AA40055FD0346BB633B6D03F104033B653B6D5E
:104AB4001B681846FBF74AFD0346FB633B6D03F195
:104AC40004033B653B6D1B681846FBF73FFD03463B
:104AD4003B6459E04FF40073A7F84A303B6D1B6800
:104AE4001846FBF733FD03467B623B6D03F1040379
:104AF4003B653B6D1B681846FBF728FD0346BB620C
:104B04003B6D03F104033B653B6D1B681846FBF7E3
:104B14001DFD0346FB623B6D03F104033B653B6DE6
:104B24001B681846FBF712FD03463B633B6D03F11C
:104B340004033B653B6D1B681846FBF707FD034602
:104B44007B633B6D03F104033B653B6D1B681846B7
:104B5400FBF7FCFC0346BB633B6D03F104033B65BD
:104B64003B6D1B681846FBF7F1FC0346FB633B6D8A
:104B740003F104033B653B6D1B681846FBF7E6FC39
:104B840003463B6400E000BFFB6C1B681846FBF760
:104B9400DDFC03467B61FB6C03F10403FB64FB6CEB
:104BA4001B681846FBF7D2FC0346BB61FB6C03F1A0
:104BB4000403FB64FB6C1B681846FBF7C7FC034645
:104BC400FB61FB6C03F10403FB64FB6C1B6818467C
:104BD400FBF7BCFC03463B6207F124031846FFF7CE
:104BE4004DF8FB7B002B04D14FF00403A7F84430AD
:104BF40003E04FF00003A7F844304FF03003A7F868
:104C040046304FF08003A7F8483007F144031846B4
:104C1400FEF798FF07F114031846FFF79BF8FFF718
:104C2400D9F84FF00100FFF7E7F84FF00003BB6538
:104C340067E03B6E1B681846FFF704F93B6E03F10F
:104C440004033B663B6E1B681846FFF7FBF83B6E9C
:104C540003F104033B663B6E1B681846FFF7F2F84A
:104C64003B6E03F104033B663B6E1B681846FFF77B
:104C7400E9F83B6E03F104033B664FF000033B612C
:104C84004FF01000FFF79AFA03467B653B6903F186
:104C940001033B613B69B3F5803F02D07B6D002B80
:104CA400EED17B6D002B04D04FF0000387F8673002
:104CB40023E0FC6DFFF7D6F803462360FB6D03F198
:104CC4000403FB65FC6DFFF7CDF803462360FB6D21
:104CD40003F10403FB65FC6DFFF7C4F8034623608E
:104CE400FB6D03F10403FB65FC6DFFF7BBF80346A2
:104CF4002360FB6D03F10403FB65BB6D03F110033B
:104D0400BB65BA6DFB6F9A4203D297F86730002BEC
:104D14008FD14FF00000FFF76FF897F8673018460F
:104D240007F16C07BD4690BD90B597B000AFB96070
:104D34007A603B600346FB734FF000037B614FF0E6
:104D440000037B644FF0010387F85730BB683B6472
:104D54007B683B65BB6EFB644FF00003BB6407F1EB
:104D640018031846FEF7CCFFFB7B012B03D14FF051
:104D740000033B8702E04FF004033B874FF010032E
:104D84007B874FF08003BB8707F138031846FEF793
:104D9400D9FE3B6C1B681846FBF7D8FB03463B6205
:104DA4003B6C03F104033B643B6C1B681846FBF744
:104DB400CDFB03467B6207F118031846FEF75EFF3E
:104DC400FFF708F84FF00100FFF716F84FF0000363
:104DD400BB6443E03B6D1B681846FFF733F83B6D3B
:104DE40003F104033B653B6D1B681846FFF72AF883
:104DF4003B6D03F104033B654FF000037B614FF00F
:104E04001000FFF7DBF903467B647B6903F10103C0
:104E14007B617B69B3F5803F02D07B6C002BEED1C4
:104E24007B6C002B04D04FF0000387F8573011E05F
:104E3400FC6CFFF717F803462360FB6C03F10403D3
:104E4400FB64FC6CFFF70EF803462360FB6C03F174
:104E54000403FB64BB6C03F10803BB64BA6C3B68DA
:104E64009A4203D297F85730002BB3D14FF0000089
:104E7400FEF7C2FF97F85730184607F15C07BD46A6
:104E840090BD00BF90B59BB000AFB9607A603B6045
:104E94000346FB734FF000033B614FF000037B6557
:104EA4004FF0010387F86730BB683B653B683B669E
:104EB400FB6FFB657B68FB644FF00003BB6507F188
:104EC40024031846FEF71CFFFB7B012B04D14FF093
:104ED4000003A7F8443003E04FF00403A7F844307C
:104EE4004FF01803A7F846304FF08003A7F8483076
:104EF40007F144031846FEF725FE3B6D1B68184670
:104F0400FBF724FB0346FB623B6D03F104033B65A3
:104F14003B6D1B681846FBF719FB03463B6307F11F
:104F240024031846FEF7AAFEFB6C1B681846FBF721
:104F34000DFB03467B61FB6C03F10403FB64FB6C18
:104F44001B681846FBF702FB0346BB6107F1140319
:104F54001846FEF7FFFEFEF73DFF4FF00100FEF797
:104F64004BFF4FF00003BB6543E03B6E1B681846E4
:104F7400FEF768FF3B6E03F104033B663B6E1B6860
:104F84001846FEF75FFF3B6E03F104033B664FF0E8
:104F940000033B614FF01000FFF710F903467B65F7
:104FA4003B6903F101033B613B69B3F5803F02D0E8
:104FB4007B6D002BEED17B6D002B04D04FF00003F2
:104FC40087F8673011E0FC6DFEF74CFF0346236061
:104FD400FB6D03F10403FB65FC6DFEF743FF034621
:104FE4002360FB6D03F10403FB65BB6D03F1080350
:104FF400BB65BA6DBB6F9A4203D297F86730002B3A
:10500400B3D14FF00000FEF7F7FE97F8673018466B
:1050140007F16C07BD4690BD90B597B000AFB9607D
:105024007A603B600346FB734FF000037B614FF0F3
:1050340000037B644FF0010387F85730BB683B647F
:105044007B683B65BB6EFB644FF00003BB6407F1F8
:1050540018031846FEF754FEFB7B012B03D14FF0D7
:1050640000033B8702E04FF004033B874FF000034B
:105074007B874FF08003BB8707F138031846FEF7A0
:1050840061FD3B6C1B681846FBF760FA03463B6204
:105094003B6C03F104033B643B6C1B681846FBF751
:1050A40055FA03467B623B6C03F104033B643B6C9F
:1050B4001B681846FBF74AFA0346BB623B6C03F1D4
:1050C40004033B643B6C1B681846FBF73FFA03463A
:1050D400FB623B6C03F104033B643B6C1B681846A6
:1050E400FBF734FA03463B633B6C03F104033B6474
:1050F4003B6C1B681846FBF729FA03467B6307F1F0
:1051040018031846FEF7BAFDFEF764FE4FF00100DF
:10511400FEF772FE4FF00003BB6443E03B6D1B6877
:105124001846FEF78FFE3B6D03F104033B653B6DB0
:105134001B681846FEF786FE3B6D03F104033B65CE
:105144004FF000037B614FF01000FFF737F8034680
:105154007B647B6903F101037B617B69B3F5803F69
:1051640002D07B6C002BEED17B6C002B04D04FF073
:10517400000387F8573011E0FC6CFEF773FE03461A
:105184002360FB6C03F10403FB64FC6CFEF76AFE12
:1051940003462360FB6C03F10403FB64BB6C03F163
:1051A4000803BB64BA6C3B689A4203D297F8573041
:1051B400002BB3D14FF00000FEF71EFE97F85730D6
:1051C400184607F15C07BD4690BD00BF90B59BB083
:1051D40000AFB9607A603B600346FB734FF0000395
:1051E4003B614FF000037B654FF0010387F86730A4
:1051F400BB683B653B683B66FB6FFB657B68FB6498
:105204004FF00003BB6507F124031846FEF778FD51
:10521400FB7B012B04D14FF00003A7F8443003E0DB
:105224004FF00403A7F844304FF00803A7F84630C2
:105234004FF08003A7F8483007F144031846FEF7FF
:1052440081FC3B6D1B681846FBF780F90346FB6243
:105254003B6D03F104033B653B6D1B681846FBF78C
:1052640075F903463B633B6D03F104033B653B6DFA
:105274001B681846FBF76AF903467B633B6D03F131
:1052840004033B653B6D1B681846FBF75FF9034657
:10529400BB633B6D03F104033B653B6D1B68184620
:1052A400FBF754F90346FB633B6D03F104033B65D1
:1052B4003B6D1B681846FBF749F903463B6407F14D
:1052C40024031846FEF7DAFCFB6C1B681846FBF750
:1052D4003DF903467B61FB6C03F10403FB64FB6C47
:1052E4001B681846FBF732F90346BB6107F1140348
:1052F4001846FEF72FFDFEF76DFD4FF00100FEF797
:105304007BFD4FF00003BB6543E03B6E1B68184612
:10531400FEF798FD3B6E03F104033B663B6E1B688E
:105324001846FEF78FFD3B6E03F104033B664FF016
:1053340000033B614FF01000FEF740FF03467B651E
:105344003B6903F101033B613B69B3F5803F02D044
:105354007B6D002BEED17B6D002B04D04FF000034E
:1053640087F8673011E0FC6DFEF77CFD034623608F
:10537400FB6D03F10403FB65FC6DFEF773FD03464F
:105384002360FB6D03F10403FB65BB6D03F10803AC
:10539400BB65BA6DBB6F9A4203D297F86730002B96
:1053A400B3D14FF00000FEF727FD97F86730184699
:1053B40007F16C07BD4690BD80B500AF4FF00050BB
:1053C4004FF0010105F0B6FA4FF000504FF0000124
:1053D40005F0B0FABD4680BD80B485B000AF7860FA
:1053E40039604FF00003FB604FF00003BB604FF4E3
:1053F400E843C4F200031B68FB607B6840F6FE725E
:1054040002FA03F36FEA0303FA6802EA0303FB6098
:105414003B681A683B685B6842EA03023B689B6826
:1054240042EA03023B68DB6842EA0303BB607B6831
:10543400BA6802FA03F3FA6842EA0303FB604FF422
:10544400E843C4F20003FA681A6007F11407BD4682
:1054540080BC704780B483B000AF78607B684FF045
:1054640000021A607B684FF000025A607B684FF0BC
:1054740000029A607B684FF00002DA6007F10C07C3
:10548400BD4680BC704700BF80B483B000AF786075
:105494000B46FB70FB78002B11D04FF4E843C4F2A9
:1054A40000034FF4E842C4F2000211687A684FF036
:1054B400010000FA02F241EA02021A6012E04FF41B
:1054C400E843C4F200034FF4E842C4F20002116856
:1054D4007A684FF0010000FA02F26FEA020201EA70
:1054E40002021A6007F10C07BD4680BC704700BF7A
:1054F40080B483B000AF78600B46FB70FB78002B60
:1055040013D04FF4E843C4F200034FF4E842C4F26A
:10551400000251687A684FEA12124FF0010000FA53
:1055240002F241EA02025A6014E04FF4E843C4F282
:1055340000034FF4E842C4F2000251687A684FEA6B
:1055440012124FF0010000FA02F26FEA020201EABD
:1055540002025A6007F10C07BD4680BC704700BFC9
:1055640080B483B000AF0346FB71FB79002B0CD0F1
:105574004FF4E843C4F200034FF4E842C4F20002DB
:10558400526842F003025A600BE04FF4E843C4F25D
:1055940000034FF4E842C4F20002526822F003020E
:1055A4005A6007F10C07BD4680BC704780B485B0D3
:1055B40000AFF860B9601346FB71FB79002B10D083
:1055C4004FF4E843C4F200034FF4E842C4F200028B
:1055D4001168FA68B86800FA02F241EA02021A6035
:1055E40011E04FF4E843C4F200034FF4E842C4F27C
:1055F40000021168FA68B86800FA02F26FEA02025F
:1056040001EA02021A6007F11407BD4680BC704724
:1056140080B485B000AF78600B467B804FF0000308
:10562400FB604FF4E843C4F20003FB60FA687B6854
:10563400134403F10803FB60FB687A881A6007F1DE
:105644001407BD4680BC704780B485B000AF786055
:105654000B467B804FF00003FB604FF4E843C4F239
:105664000003FB60FA687B68134403F11403FB60D6
:10567400FB687A881A6007F11407BD4680BC70473E
:1056840080B485B000AF786013460A467A803B80C8
:105694004FF00003FB604FF00003BB607B68082BF6
:1056A40007D17B884FEA03223B8842EA0303FB606D
:1056B40006E07B884FEA03423B8842EA0303FB602F
:1056C4004FF4E843C4F20003BB607A68BB68134438
:1056D40003F12003BB60BB68FA681A6007F1140782
:1056E400BD4680BC704700BF80B485B000AF786011
:1056F4004FF00003FB604FF4E843C4F20003FB6087
:105704007B684FEA9302FB68134403F12C03FB60AC
:10571400FB681B689BB2184607F11407BD4680BCA2
:10572400704700BF80B483B000AF78600B46FB7055
:10573400FB78002B11D04FF4E843C4F200034FF47C
:10574400E842C4F2000211687A684FF4805000FA0B
:1057540002F241EA02021A6012E04FF4E843C4F292
:1057640000034FF4E842C4F2000211687A684FF46F
:10577400805000FA02F26FEA020201EA02021A60A1
:1057840007F10C07BD4680BC704700BF80B485B0EC
:1057940000AFF860B9601346FB71FB79002B10D0A1
:1057A4004FF4E843C4F200034FF4E842C4F20002A9
:1057B4001168FA68B86800FA02F241EA02021A6053
:1057C40011E04FF4E843C4F200034FF4E842C4F29A
:1057D40000021168FA68B86800FA02F26FEA02027D
:1057E40001EA02021A6007F11407BD4680BC704743
:1057F40080B485B000AF786039604FF00003FB736C
:105804004FF4E843C4F200035A6B7B68396801FA29
:1058140003F302EA0303002B03D04FF00103FB73ED
:1058240002E04FF00003FB73FB7B184607F11407FB
:10583400BD4680BC704700BF80B483B000AF7860C1
:1058440039604FF4E843C4F200037A68396801FA16
:1058540002F25A6307F10C07BD4680BC704700BFD3
:1058640080B485B000AF786039604FF00003FB73FB
:105874004FF00003BB604FF4E843C4F200031A681E
:105884007B68396801FA03F302EA0303BB604FF44F
:10589400E843C4F200035A6B7B68396801FA03F3E6
:1058A40002EA0303002B06D0BB68002B03D04FF0A1
:1058B4000103FB7302E04FF00003FB73FB7B18460C
:1058C40007F11407BD4680BC704700BF80B483B0A5
:1058D40000AF786039604FF4E843C4F200037A689B
:1058E400396801FA02F25A6307F10C07BD4680BC1D
:1058F400704700BF80B400AF4FF40053CEF20403EE
:105904001B684FEA13431846BD4680BC704700BF6E
:1059140080B400AF4FF40053CEF204031B684FEA87
:1059240003534FEA13531846BD4680BC704700BF6B
:1059340080B483B000AF78600B46FB70FB78002B1B
:105944000DD04FF40053CEF204034FF40052CEF2C4
:10595400040251687A6841EA02025A600EE04FF488
:105964000053CEF204034FF40052CEF20402516805
:105974007A686FEA020201EA02025A6007F10C0730
:10598400BD4680BC704700BF80B483B000AF786070
:105994000B46FB70FB78002B0DD04FF40053CEF276
:1059A40004034FF40052CEF2040291687A6841EA8B
:1059B40002029A600EE04FF40053CEF204034FF457
:1059C4000052CEF2040291687A686FEA020201EA98
:1059D40002029A6007F10C07BD4680BC704700BF05
:1059E40080B483B000AF78600B46FB70FB78002B6B
:1059F4000DD04FF40053CEF204034FF40052CEF214
:105A04000402D1687A6841EA0202DA600EE04FF4D7
:105A14000053CEF204034FF40052CEF20402D168D4
:105A24007A686FEA020201EA0202DA6007F10C07FF
:105A3400BD4680BC704700BF80B400AF4FF0000388
:105A4400C5F205034FF000021A604FF00003C5F2DF
:105A540005034FF00002DA604FF00003C5F20503BE
:105A64004FF01F025A614FF00003C5F205034FF0D7
:105A740000029A614FF00003C5F205034FF00002E3
:105A8400DA614FF00003C5F205034FF000021A6219
:105A94004FF00003C5F205034FF000025A62BD4601
:105AA40080BC704780B485B000AF78604FF00003CD
:105AB400FB604FF00003C5F205034FF00002C5F28E
:105AC4000502126822F4804222F001021A604FF0AB
:105AD4000003C5F205031B68FB60FB6823F47E63C7
:105AE40023F01203FB607B681A887B685B8842EAB8
:105AF40003039AB27B689B8842EA03039AB27B68E9
:105B0400DB8842EA03039AB27B681B8942EA0303F7
:105B14009AB27B685B8942EA03039AB27B689B89E9
:105B240042EA03039BB2FA6842EA0303FB604FF0C4
:105B34000003C5F20503FA681A6007F11407BD46AD
:105B440080BC704780B483B000AF78607B684FF04E
:105B540000021A807B684FF000025A807B684FF085
:105B640000029A807B684FF00002DA807B684FF075
:105B740000021A817B684FF000025A817B684FF063
:105B840000029A8107F10C07BD4680BC704700BF34
:105B940080B483B000AF78604FF00003C5F2050312
:105BA4007A68528811467A6812884FEA024241EABA
:105BB40002021A624FF00003C5F205037A68D28824
:105BC40011467A6892884FEA024241EA02025A6216
:105BD40007F10C07BD4680BC704700BF80B483B09A
:105BE40000AF0346FB71FB79002B0CD04FF0000390
:105BF400C5F205034FF00002C5F20502126842F037
:105C040004021A600BE04FF00003C5F205034FF0E5
:105C14000002C5F20502126822F004021A6007F1BC
:105C24000C07BD4680BC704780B483B000AF786079
:105C34004FF00003C5F205037A68127811467A68BA
:105C440052784FEA022241EA02017A6892784FEAD6
:105C5400024241EA02017A68D2784FEA026241EADA
